:1020000000800020F5390000BD390000DD390000F6
:1020100000000000000000000000000000000000C0
:10202000000000000000000000000000DD3900009A
:102030000000000000000000DD390000493A000007
:10204000DD390000DD390000DD390000DD39000038
:1020500081390000DD390000552F0000E139000012
:10206000DD390000CD380000DD390000DD39000029
:102070003D2B0000DD390000DD380000DD390000B7
:10208000DD390000DD390000DD390000DD390000F8
:1020900000000000DD390000DD390000DD390000FE
:1020A000DD390000DD390000DD390000DD390000D8
:1020B0000000000010B5064C2378002B07D1054B1B
:1020C000002B02D0044800E000BF0123237010BDA4
:1020D000B002002000000000F4C10000044B10B565
:1020E000002B03D00349044800E000BF10BDC046E8
:1020F00000000000B4020020F4C1000010B501216E
:102100000D20A8B001F06CFE9621144C890120002E
:1021100002F080FB200002F07FFB002803D10A3090
:1021200001F0D6FCF6E70A221821200001F0A9FFF1
:10213000032301210293013304AC019304332822C9
:10214000009349422000064B00F02AF8054B20007E
:102150001C6000F0B7F828B010BDC0466C0E00201F
:102160000C030020CC02002010B5642001F0B0FC6C
:10217000074C206800F0A8F8002807D00549064859
:1021800001F01AFF0549206800F0D8F810BDC046DC
:10219000CC0200207CB600006C0E00200000002065
:1021A000F0B507008DB00191012104001E0012ABB3
:1021B0001B782437039313AB1B783800049314ABBC
:1021C0001B78029205932822344B494200F0A4F96F
:1021D000334A0025A2652200324B503223656565E3
:1021E000E5651582FE22A36600239205A267221DE3
:1021F000E36623676367E367656604329367D367C3
:1022000023008833029A01991D6007A8330000F06B
:1022100083F906AB1B8906AA2385099B3800E36274
:102220000A9B0C21236301932300127D34331A701F
:1022300000F0B7F91C4FA84204D138001B4901F047
:10224000A9FEFAE71A4E03993000059B049A01F0A3
:10225000A5F83000174901F05DFA002804D13800D4
:10226000154901F0A9FEFEE73800144901F0A4FE6B
:102270003000062101F07BF93000114901F0A8F986
:10228000300001F0EFF923008C33300018211D706D
:1022900001F0F9FA20000DB0F0BDC0460C0300209B
:1022A0000000FF7F0B0010276C0E002092B600008C
:1022B0008C070020C0CA8936D1B60000E7B60000FE
:1022C00020A1070070470000F7B5194F040018213E
:1022D000380001F090FA182302000500154916484D
:1022E00001F074FE23008C330193182D1CD12600BD
:1022F00038362A003100380002F0E1F92300483373
:1023000000229A5E2300618F503370785980E16B10
:1023100058706165216CA165616CE1651A82E36C9E
:10232000019A636601231370019B1878FEBDC046B5
:102330008C070020F8B600006C0E00200300F0B5FA
:10234000503387B000935B88040018000D000193A0
:1023500006F086F80022494B04F02AFE0F00060022
:10236000009B0420185E04F073FA454904F064F9F8
:1023700006F0CCF832003B0005F020FA06F00EF92A
:10238000009B0290E0660620185E04F061FA3C496A
:1023900004F052F906F0BAF832003B0005F00EFAEC
:1023A00006F0FCF8009B039020670820185E04F0FC
:1023B0004FFA334904F040F906F0A8F832003B0028
:1023C00005F0FCF906F0EAF8009B049060670A202B
:1023D000185E04F03DFA2A4904F02EF9011C03F0BE
:1023E0008FFF009B0590A0670C20185E04F030FA68
:1023F000234904F021F9011C03F082FF009BE067F0
:10240000071C0E20185E04F023FA1D4904F014F98D
:10241000011C03F075FF231DD867009B061C1020CC
:10242000185E04F015FA164904F006F9011C03F0D1
:1024300067FF220001990832D0676032518000990D
:10244000031C4978606E51701062029AAF62AA61F3
:10245000039AEE62EA61049A8C342A62059A6A62EF
:102460002B6306F02DF80022064B04F0A1FD03F0CB
:102470005DFE00236863237007B0F0BD00408F400D
:1024800000FEFF4680842E4100210B4B0B4A0C4876
:102490001A6098605960D96019825961094BFE2011
:1024A0001A60002280055A609A60DA6018615A61E9
:1024B0009A61DA6119627047D00200200B00102780
:1024C0000000FF7FE80200207047704770B50C00E5
:1024D000050028220021200006F09EF90B22200092
:1024E000084907F084F800230122E372E260EA68F9
:1024F0006362002322610322A361E361024B6261F4
:10250000236270BD27B700000AD7233C10B5040032
:1025100003F09CFB200010BD10B5034C0834046090
:10252000C1604271836010BD30B7000070B5040017
:102530000E0015004179806800F0B2F9A068310002
:1025400003681B689847A068290003681B689847C0
:10255000A06800F05BFA012070BD10B50A0001749C
:102560003D21FFF7E3FF1E2001F0B2FA10BD70B568
:1025700004000D004179806800F092F9A0682900FC
:1025800003681B689847A06800F040FA012261794F
:10259000A06800F0D8F9A06803685B699847C0B2EA
:1025A00070BD70B5040080680D0000F059F900217D
:1025B0002000FFF7DCFFA02813D100212000FFF747
:1025C000CCFF20223F212000FFF7B0FF1E2001F0AA
:1025D0007FFA00212000FFF7CAFFA0280ED00A20B2
:1025E000F5E7FA20800001F073FA00212000FFF7E0
:1025F000BEFF0023A028E0D0180070BD322001F0FB
:1026000067FA00223E212000FFF790FF0A2001F028
:102610005FFA002207212000FFF788FF00223F21F8
:102620002000FFF783FF0A2001F052FA2900200062
:10263000FFF793FF142001F04BFA0123DCE7F8B514
:1026400005000F001E0041798068140000F028F991
:10265000A868390003681B689847A86800F0D6F995
:1026600032006979A86800F06EF9A619B44206D064
:10267000A86803685B69984720700134F6E7012079
:10268000F8BD0000F7B50D00170000211822040066
:1026900006F0C2F806220021684606F0BDF80623BF
:1026A0006A4628003900FFF7CAFF6B466A465B7826
:1026B00010781B021843D37896781B021E43537977
:1026C00015791B021D4300B236B22DB21A2F25D048
:1026D00007D80E2F22D0142F20D0082F05D020008D
:1026E000FEBD282F01D02E2FF9D105F0B9FE002212
:1026F000184B04F05DFC20606160300005F0B0FE16
:102700000022144B04F054FCA060E160280005F0A6
:10271000A7FE00220F4B04F04BFC17E005F0A0FED3
:1027200000220D4B05F04AF820606160300005F092
:1027300097FE0022084B05F041F8A060E1602800F8
:1027400005F08EFE0022044B05F038F8206161612F
:10275000C5E7C046000059400000B03F30B5202218
:1027600087B00C000500081D002106F055F8242351
:102770002360EB6863600323A36001F073F91A22FE
:10278000290020616846FFF77DFF0098019905F058
:1027900005FF60610298039905F000FFA0610498AD
:1027A000059905F0FBFEE061012007B030BD002077
:1027B0007047F8B505000E0017000024BC4208D091
:1027C0002B682800315D1B689847002801D0013430
:1027D000F4E72000F8BD70470300FC33196ADA699A
:1027E000914203D01B6AC018007E7047012040420E
:1027F000FBE70300FC33D8691B6AC01A01D501301E
:10280000FF307047F7B50193FA23802700250400B5
:102810009B008360114B7F0008330E004560290048
:10282000009203603A00183005F0F6FF2300200004
:10283000FC332130DD613A001D622900FF3005F0D4
:10284000EBFF87239B00E3185D609D60009B2000E9
:102850002375019B2661A5756375FEBD4CB700000D
:1028600070B5040018260C49006901F0E5FE2069E6
:1028700001F03EFD33000821207D084D4343EB1855
:10288000595601F009FB0821607D4643AD19695690
:1028900001F002FB70BDC046A0860100D0B8000068
:1028A0008A2300229B00C1540C3BC3185A609A60D3
:1028B0000123837570470200FC32536810B5013361
:1028C0009468DBB29C4202D054680155536010BD3D
:1028D000F7B5019300230400150018009A422FD089
:1028E0002200FC32D36120691362012201F03EFD17
:1028F000002826D02700206901F0BAFD1837010012
:102900003800FFF7D8FF01262069B5420ED001F04C
:102910000DFD0221206901F013FD206901F0A8FDE1
:1029200001003800FFF7C7FF0136EDE701F0F5FCC5
:10293000019B002B03D00321206901F001FDE8B2C7
:10294000FEBD0500FBE710B50123FFF7C1FF10BD79
:1029500010B50300827D002082420ED087229200B3
:102960009C186268A4680132D2B2A24205D0213319
:10297000FF331800FFF79FFF012010BD0300FC3359
:1029800099685A68914206D09A68805C9A680132C8
:10299000D2B29A60704701204042FBE700228A23AE
:1029A00070B59B00827505000E00C15C006901F0E6
:1029B000DDFC002806D10321286901F0C1FC0224B6
:1029C000200070BD872328009B00EA185368946894
:1029D0002130FF301C1B01D50134FF34002C0ED0F8
:1029E0002C69FFF7CBFFC1B2200001F0FDFC0028ED
:1029F000E8D10321286901F0A3FC0324E0E7002EBD
:102A0000DED00321286901F09BFCD9E710B5012134
:102A1000FFF7C4FF10BD10B51830FFF7AFFF10BDB2
:102A200070B50400006901F001FD002814D0206990
:102A300001F00AFD002810D0206901F077FC032185
:102A4000206901F07DFC8C239B00E558002D39D1D5
:102A50000023FC34E361236270BD206901F0FEFCB9
:102A6000002809D0206901F0F4FC002804D0206976
:102A700001F0F9FC0028DFD0206901F0EFFC00280C
:102A800026D1206901F0DBFC0028E5D0206901F0A7
:102A9000EAFC002837D087239B00E218536892682D
:102AA0009B1A01D50133FF33FF21002B05D02000F5
:102AB0002130FF30FFF762FFC1B2206901F0A7FCAF
:102AC000A075C9E7236820001B699847A847BFE79E
:102AD000206901F02BFC2069032101F031FC206901
:102AE00001F0C1FC0028B7D0872300229B00E31827
:102AF0005A609A600123A3758B239B00E35893428D
:102B0000AAD09847A8E72200FC32D369126A0133A1
:102B1000DBB22069934206D101F0FFFB032120695B
:102B200001F00EFC98E701F0A3FC01002000183032
:102B3000FFF7C1FE206901F0F9FBEFE710B502488D
:102B4000FFF76EFF10BDC0460C03002010B5152323
:102B5000142202490248FFF755FE10BDCC0D00209B
:102B60000C03002010B500F041FB0022024B800056
:102B7000C35849331A7010BD94050020F0B5040005
:102B800085B01E000AAB1B78103001930BAB1B788D
:102B9000170002930CAB1B780D00039300F0A8F90B
:102BA0002000243000F0A4F9220000234832A3635F
:102BB000E363236463641370537063729D4205D1B1
:102BC0002721084B084A094805F09AFD2000019B7F
:102BD00025606371029B2771E371039BA6712372C9
:102BE00005B0F0BD70B7000081B70000D5B7000098
:102BF00030B5040085B002AD00680291039201F087
:102C000033FB6B79227AE17920680093002301F08D
:102C1000E9FC2979029A206801F04AFB206801F05A
:102C200019FB05B030BD000007B5837A0091019211
:102C3000002B07D09A070AD5EFF310835A4253416D
:102C4000C37272B60099019AFFF7D2FF07BDDB0786
:102C5000F8D5C368014A9BB29360F3E700180040BF
:102C6000837A002B05D09A0704D5C37A002B00D0B5
:102C700062B67047DB07FCD5C368024A9BB2D360DB
:102C8000F7E7C0460018004010B5006801F0F5FAFB
:102C900010BD000010B5006801F0F8FB0300002033
:102CA000834203DB0C304343014A985810BDC046B1
:102CB0003CB8000010B5006801F0E8FB002805DB17
:102CC0000C2343430348C018406810BD0120404214
:102CD000FBE7C0463CB8000010B5006801F0D6FB29
:102CE000002805DB0C2343430348C018806810BD4F
:102CF00001204042FBE7C0463CB80000F0B50600AA
:102D00001036050089B0300000F048F900286CD179
:102D10002F002437380000F041F9041E62D128004A
:102D2000FFF7DAFFC1B2300000F018FA02213000DC
:102D300000F038FA01222E49300000F00BFA300082
:102D400000F054FA2B4B8000C5502800FFF7B2FF6B
:102D5000C1B2380000F002FA0221380000F022FA75
:102D6000380000F043FA234B8000C5502800FFF7DD
:102D700091FF0123010022000293300023000494FC
:102D800003940194009400F033FAA8632800FFF73D
:102D900081FF0123020021000193380023000494E5
:102DA00003940294009400F023FAE863402005F0B5
:102DB00003FD2A0048322864079200280BD0012323
:102DC000137068646B6C10221819E96B103405F0ED
:102DD00007FD402CF6D1079B1B78002B05D138004E
:102DE00000F076F9300000F073F909B0F0BDC0468C
:102DF000652B00009405002070B5437A0400002B79
:102E000003D1012243814272C360230048331B78FF
:102E1000002B02D12000FFF771FF18263300082194
:102E200020790D4D4343EB18595601F035F8330026
:102E30000821A0794343EB18595601F02DF80821D9
:102E400060794643AD19695601F026F8034B20001E
:102E500006CBFFF7CDFE70BDD0B800008C0500207A
:102E60001FB5094A094B0A49136000239380029356
:102E70000133019316330093162201330548FFF7FF
:102E80007DFE05B000BDC0468C05002000093D0058
:102E9000D00D002040050020084B1968002909D1F9
:102EA000EFF31080064A002803D172B6BFF35F8F9C
:102EB000013111701A6801321A60704758070020FA
:102EC00054070020084B1A68002A0CD01A68013AEF
:102ED0001A601B68002B06D1044B1B78002B02D014
:102EE000BFF35F8F62B67047580700205407002079
:102EF000FF2310B50370C023002104009B00417024
:102F0000418083800C22083005F086FC200010BD33
:102F100001230A0010B51A40194208D00C4A137058
:102F2000033343708368002B00D0984710BD022301
:102F3000194204D006490B70C3684270F3E70423BA
:102F40001942F3D0024A1370033343700369EAE76E
:102F50004E48004110B5FFF79FFF0C4B1B8C1B0721
:102F60001B0F0B2B0FD80A4A9900885800280AD04B
:102F70000F2408490A78A24313430B70064B1978B3
:102F8000C9B2FFF7C5FFFFF79DFF10BD0048004124
:102F90005C0700203F4800414E480041F8B500233F
:102FA0000278050018000B2A77D93C4E2B702B783D
:102FB0000B2B07D801229A403168114204D001330B
:102FC0002B70F4E7012068E0FFF766FF3768344CA8
:102FD000002F2BD12022334B334859690A435A61C1
:102FE0001022D9690A43DA61022223883900934307
:102FF00023802388013A134323802C4B6063BF3224
:10300000A36305F009FCC0223900284805F004FC40
:103010004022C120264B80002380264B26491A607F
:103020001A581140C02212040A431A5001231A00F0
:10303000297830688A40024332600F261F4A880090
:1030400085501F4831400278B2430A430270022083
:103050001C4A117881431170117819431170297835
:1030600022698B409A43226160223F21636C934323
:1030700063642A79636C0A40134912020B400321EE
:10308000134363646A79636C0A40104992050B40EC
:1030900013436364FFF716FF0020F8BD50070020BC
:1030A000004800410004004090060020D0050020A8
:1030B000020F000000E100E0FFFF00FF5C070020BE
:1030C0003F48004140480041FFC0FFFFFFFF3FFF76
:1030D00070B50500FFF7E0FE6B785CB2062B2BD0D5
:1030E0002B7802240B2B27D801229A40144B196805
:1030F000114221D01968914319601B68002B14D12B
:103100004022104BDA67BFF34F8FBFF36F8F210060
:103110000D4A0E311388A34313800C4BDA698A439E
:10312000DA615A6910318A435A6100242B78084ABF
:103130009B009C50FF232B70FFF7C4FE200070BD46
:103140005007002004E100E0004800410004004076
:103150005C0700200232920011507047037870B56E
:1031600005000C0001710B2B14D8FFF795FE297890
:103170000F25094829400378084AAB430B430370E5
:103180003F23516C1C40064B240219400C435464ED
:10319000FFF798FE70BDC0463F480041004800411F
:1031A000FFC0FFFF037870B505000C0041710B2BC9
:1031B00014D8FFF771FE29780F25094829400378B4
:1031C000084AAB430B4303700323516C1C40064B6E
:1031D000A40519400C435464FFF774FE70BDC0464B
:1031E0003F48004100480041FFFF3FFF0078704723
:1031F000F0B587B001930CAB1E780DAB1B780500C2
:1032000002930EAB1B780078039310AB1F780491E8
:1032100005920B2802D9002007B0F0BD6B78062B71
:10322000F9D0AB78002B00D179E01021080005F02F
:10323000B9FA0028EFD02B783B4A1B019B181A00E3
:10324000D168002904D0D1688B4201D0D268F7E759
:10325000D06001220223AA70964203D0DB18022E0E
:1032600000D0130006240188114301800188A14386
:10327000018001881234A1430180153C0188264059
:103280002A4C360221400E430680029E0188284CBB
:1032900016402140B6020E430680039E0188254C4D
:1032A00016402140F6020E4306800188224E3A4025
:1032B000314012030A43072102800F9A114002880D
:1032C0004903D204D20C0A4302806A4692884280A3
:1032D000049A4260029A002A08D0019A41685A432F
:1032E000002F01D00F9CA2408A184260059A82608C
:1032F000039A002A09D0019A84685A431300002FC8
:1033000001D10F9A9340E31883600023EA789A4230
:1033100003D02B78044A1B019B18C3607CE7024B47
:103320000001C01895E7C04690060020FFFCFFFF93
:10333000FFFBFFFFFFF7FFFFFFEFFFFF13B56B463C
:103340000268D9710733546819000122A04716BDDD
:1033500070470000FA239B0010B583600C4B0021DE
:10336000083303600B4B040003610B4B4160836126
:103370000A23C361013B0362073B8182436281628E
:10338000C16201634163816301F097F9200010BDC0
:10339000ACB8000000127A0040050020C161026252
:1033A0004362704770B504000E0015000021C0692B
:1033B00000F046FD62692169A069FFF735FC310024
:1033C000A069FFF761FC2900A069FFF75DFC05001B
:1033D000A069FFF745FCE069012100F031FD2800FC
:1033E00070BD7F2310B500221940FFF7DBFF10BD31
:1033F00010B504001321FFF7F4FFE36AC01A10BDF3
:10340000036810B51B6904009847002807D0E36AD9
:10341000002101332000E362FFF7E3FF10BD01202C
:103420004042FBE710B51E21FFF7DBFF001110BD86
:103430001D2110B5FFF7D5FF03119F2803DC034AB8
:103440009B00985810BD01204042FBE784B8000063
:10345000F7B50D00222114000600FFF7C2FF031983
:103460000700FF2B01D9FF24241A2B190193019B7C
:103470009D4206D02A7880213000FFF793FF013566
:10348000F5E73A193000A221D2B2FFF78BFF2000F6
:10349000FEBD036870B51B6904009847002810D072
:1034A0000D212000FFF79DFF002106002000FFF7FF
:1034B00098FF050032008D212000FFF773FF2800E0
:1034C00070BD01204042FBE7812210B51100FFF7DB
:1034D00069FF10BD10B580228121FFF763FF10BD89
:1034E00070B504000800A162C917430BC9040C4A57
:1034F0001943C004002302F0F9FD0500020C8621E7
:103500002000D2B2FFF74EFF2A0A87212000D2B254
:10351000FFF748FFEAB288212000FFF743FF70BDA4
:103520000048E801F8B50400FFF782FF060020001C
:10353000FFF778FF262107002000FFF752FF012147
:103540000500B940300002F0A7FC0100FA2080001D
:1035500002F0A2FC08212A008A43D2B2102801DD21
:103560000D43EAB2A6212000FFF71CFFF8BD70B59D
:1035700005000C00052903DD0C291DDC06291CD1E2
:10358000C522B1212800FFF70DFF0C22B72128002A
:10359000FFF708FF062428001E21FFF722FF0F2255
:1035A0002401024022439E212800D2B2FFF7FAFEF6
:1035B0002800FFF7B7FF70BD0C24C322B1212800FB
:1035C000FFF7F0FE0A22B7212800FFF7EBFEE2E743
:1035D0001B4B70B505000024994220DD194B0134C6
:1035E00099421CDD184B0134994218DD174B013408
:1035F000994214DD164B0134994210DD154B01340C
:1036000099420CDD144B0134994208DD134B01340F
:10361000994204DD124B0134994200DD0134280047
:103620001D21FFF7DEFE0F22240102409D2128000C
:103630002243FFF7B7FE2800FFF774FF70BDC046B6
:10364000781E0000A0280000F03C0000405100005F
:10365000127A0000E4A2000024F4000048E801000F
:1036600090D0030010B51E210400FFF7BAFE04221B
:1036700002439E212000D2B2FFF794FE10BD10B588
:103680000400080078290DD805212D3802F004FC2B
:10369000C2B21F200240013002438B212000FFF7FD
:1036A00081FE10BD1B22F029F3D80A211E30EDE760
:1036B00070B50500002A0ED10E2908DD0E217022FA
:1036C0000A4328008921D2B2FFF76CFE70BDCA43BD
:1036D000D2171140F3E7112911DD142900DD14215F
:1036E00087222800CC1ECD21FFF75CFE8C2128000C
:1036F000FFF7C5FF8022023C52422243E1E70C0063
:10370000022900DA0224CD2184222800FFF74AFE94
:103710006421ECE770B504000E00C069012100F0DF
:103720005FFBE069012100F08BFB206A431C10D095
:10373000012100F055FB0021206A00F081FB0A20E6
:1037400000F0C6F9206A012100F07AFB0A2000F09F
:10375000BFF9A069FFF750FB42212000FFF741FEAF
:103760000025122829D12000FFF7B4FE31002000E7
:10377000FFF7B6FE2A008E212000FFF713FE2A0075
:103780008F212000FFF70EFE0C212000FFF729FEFD
:10379000032202438C21D2B22000FFF703FE042251
:1037A000A6212000FFF7FEFD012211212000FFF7D6
:1037B0007FFF2000FFF788FE0135280070BD002341
:1037C00010B51D2103630400FFF70BFEFE229D21AF
:1037D00002402000FFF7E6FD10BD70B501241D2159
:1037E00004630500FFF7FDFD04439D212800E2B2BC
:1037F000FFF7D8FD70BD70B50E0012210400FFF771
:10380000F0FD05002000002E28DDFFF7E6FFA221D5
:103810002000F2B2FFF7C6FD2A0092212000FFF738
:10382000C1FD60200540402D1BD10023E362236BC6
:103830002221002B00D113212000FFF7D2FD1021FF
:1038400005002000FFF7CDFD8D2102002000FFF7CD
:10385000A9FD2000FFF738FE280070BDFFF7AFFF7D
:10386000DAE701212000FFF7BCFD00258628F3D010
:103870002A008D212000FFF795FD8622812120005E
:10388000FFF790FDE8E770B504000D000022C021AD
:10389000FFF788FD2000002D0CDDFFF79EFFA22121
:1038A0002000EAB2FFF77EFD852281212000FFF78C
:1038B00079FD70BDFFF783FFF6E7000010B5024801
:1038C000FFF748FD10BDC0468C07002010B5024828
:1038D00002F09CF810BDC046C807002010B5024891
:1038E00002F094F810BDC046C40A0020F7B50124C8
:1038F0000326154F1549380000F016FC14491548E9
:1039000000F012FC1449154800F00EFC144915484B
:1039100000F00AFC1449154800F006FC144D154946
:10392000280000F001FC39002300009600220194D9
:10393000114802F001F8290000961E231F2201946D
:103940000E4801F0F9FFF7BDC00D0020000800424D
:10395000000C0042C40D002000100042C80D0020E1
:1039600000140042CC0D002000180042D00D0020B1
:10397000D40D0020001C0042C8070020C40A00200B
:1039800070B50024094D0A4B1B68A34200D870BDD6
:10399000084E2A6833691A4205D0074BA200D35853
:1039A00098472B68336101340435ECE71C0E002086
:1039B000600E002000180040D80D0020054B10B507
:1039C0001B6C002B00D098470123034AD1780B438E
:1039D000D37010BDD80D002000180040FEE7000095
:1039E000034B10B51B68002B00D0984710BDC04694
:1039F000640E00200F4A1048110010B50F4B824290
:103A000002D0934209D11300824209D100F084F818
:103A100002F0F6F8FEE710CB10C18142FBD3F3E7CA
:103A2000074A8B42F2D00021064B9A42EED202C2E4
:103A3000FBE7C04600000020B002002000C20000EA
:103A4000B00200206C14002010B500F062F80028CD
:103A500001D100F053F810BD014B18607047C0460B
:103A6000640E0020014B18687047C046680E0020A5
:103A7000F7B51348012284461249134C8E686368D7
:103A800005689B0E1340019288686268019F920E40
:103A90003A4067463F6893420ED1BD420CD1864200
:103AA0000AD35B19FA254868AD00861B07486B43AB
:103AB0007043000DC018FEBD3D0013000600E3E793
:103AC000680E002010E000E000ED00E05555000019
:103AD00070B5041E11D0FFF7CBFFFA260500B60023
:103AE00000F016F8FFF7C4FF401BB042F8D3FA23EA
:103AF000013C9B00ED18002CF4D170BD10B5034AB9
:103B000013680133136000F0D5FA10BD680E002071
:103B100070470020704700001E2270B54648474994
:103B2000436893431C3A1343436008238C6923433F
:103B30008B61434C434B9C829C8A14439C82DC687F
:103B40001442FCD00124404A14701578254203D059
:103B500055786DB2002DF8DB01249460547864B27E
:103B6000002CFBDB394C5460547864B2002CFBDB36
:103B70008224E4015480547864B2002CFBDB0224DC
:103B80009C840E34DD682542FCD0314CDC6210246C
:103B9000DD682542FCD09D8C2E4C2C439C84102447
:103BA000DD682542FCD002249D8C80262C439C8419
:103BB0004024DD683542FCD0DD682542F9D0102470
:103BC000DD682542FCD000249460547864B2002C57
:103BD000FBDB214C5460547864B2002CFBDB1C6A84
:103BE0001E4D2C4080251C621C6AAC431C620323C2
:103BF00093601B4B536053785BB2002BFBDB0023BD
:103C0000FF240B72174A4B728B72CB72164B1A60E1
:103C1000164B174A1B6811689A065B01C90E2340B0
:103C2000520F12020B431343124A1385802342683A
:103C30001343436070BDC046004000410004004093
:103C40000C06000000080040000C004001050100C7
:103C5000B905FF7D040A000000070300FFFCFFFF19
:103C600003060100006CDC023800002024608000A4
:103C70002060800000400042FA212E4B10B51868E9
:103C8000890002F07FF8802301385B0498424FD20C
:103C900029492A4A4860C020136A00061B021B0AF1
:103CA0000343136200238B6007330B608021136A88
:103CB00009061B021B0A0B431362FC22204B196AE4
:103CC0000A431A62FF22196A12020A431A62A022E8
:103CD000196AD2020A431A621A4B1C005A7852B26D
:103CE000002AFBDB184A5A80184B1A00597EC90972
:103CF0000129FBD0C821890099800521D970537E04
:103D0000DB09012BFBD0C02300205B011361907005
:103D100000F022F863785BB2002BFBDB0C4B0D4A02
:103D20006380D379DB09012BFBD04123537010BD95
:103D3000FEE7C0463800002010E000E000ED00E0A3
:103D400000040040000C00401E4000000040004203
:103D500021400000004800421F4900B50B004A7E88
:103D6000D209012AFBD001380A282FD802F000F826
:103D70001B2E2E2E2E2E062E2E2411001A691749C8
:103D80000A400F211A615A788A43110001220A431E
:103D900010E01A6911490A400F211A615A788A43C2
:103DA00011000322F3E71A690C490A400F211A6136
:103DB0005A788A435A7000BD1A6908490A400F218F
:103DC0001A615A788A4311000222E0E7F022196949
:103DD00012050A43F3E7C04600400042FFFFFFF030
:103DE000182310B508245843134A13181C570134DC
:103DF00012D001245B6882569C4003290CD808002D
:103E00000E49D2015218D318403301F0B1FF02100D
:103E1000060B02211970546010BD06211970546000
:103E20009461F9E70621197054605461F4E70221A6
:103E300019709460F0E7C046D0B80000004400411B
:103E40001823F0B508245843114A13181C5701349D
:103E50001BD0012635005F688356BD400D4ADB014B
:103E60009A18906805420BD10C00601E8441D2194B
:103E70004032107834400336A400B0432043107021
:103E8000044A9B18002901D15D61F0BD9D61FCE7EA
:103E9000D0B8000000440041182370B50826434301
:103EA0002A4AD518AE573400013607D0072907DC57
:103EB00000291DDA01314C424C416442200070BDA2
:103EC0000B00083BDBB20024032BF7D8092903D1F0
:103ED0002100FFF785FFF1E70A2904D10839FFF730
:103EE0007FFF0024EAE700240B29E7D10A39F0E735
:103EF0006C68012520009B56C9B262082840DB018E
:103F00002C4211D012480E351B189A1830321078F6
:103F1000090128400143C9B2117041221B194033E5
:103F200019780A431A70DCE70F26094D5B199A18B5
:103F3000303215781B19B5432943117041224033A3
:103F4000197804000A431A70B8E7C046D0B80000D8
:103F500000440041F8B505000E0017000024BC42E3
:103F600008D02B682800315D1B689847002801D0D5
:103F70000134F4E72000F8BD70B505000C00081E00
:103F800007D005F02DFB2B680200210028005B689C
:103F9000984770BD10B5FFF7EFFF10BD10B503686F
:103FA0001B68984710BD000010B50249FFF7E4FFF9
:103FB00010BDC04620BD000070B50400FFF7DCFF57
:103FC00005002000FFF7F0FF401970BD0EB410B5DA
:103FD000040097B019AB04CB502102A8019305F05F
:103FE00045FB200002A9FFF7C7FF17B010BC08BCB3
:103FF00003B01847F0B58BB06B46140000220533B0
:1040000007000D00DA77012C00D80A2409AE280039
:10401000210001F03DFF0300CAB2080029001D0085
:1040200013003733DBB2092802D813003033DBB278
:10403000013E33708C42EAD931003800FFF79CFF13
:104040000BB0F0BDF8B507000D00161E04D10368D3
:10405000C9B21B689847F8BD0A2A0CD100290BDAAF
:104060002D21FFF79BFF3200040069423800FFF763
:10407000C1FF2018EFE7D2B229003800FFF7BAFFDE
:10408000E9E770B50400FFF7DDFF05002000FFF74A
:104090008BFF401970BD0000014B18607047C0468F
:1040A0003C0000200122024B52421A607047C04679
:1040B0003C000020164A10B51368591C27D0013B5C
:1040C0001360002B23D172B68122124B920004336D
:1040D000934213D3104A01211000147D0C42FCD0EE
:1040E0002021148BFF319B085B0021431183D36196
:1040F0000A4B13800123027D1A42FCD0BFF34F8F7D
:10410000074B084ADA60BFF34F8FC046FDE710BD8A
:104110003C000020002000000040004102A5FFFFFD
:1041200000ED00E00400FA05016070479446F0B528
:1041300005AC25789C1E621E944162460668920773
:10414000376824063A43224307243260006821403E
:10415000AD01002442682943022B00D05C030A43CE
:1041600022434260F0BD30B5C0250368AD031C6832
:1041700012052A402243C0240904A40221400A4314
:104180001A6003685A6814435C6030BD01230268FA
:1041900011680B43136003681A68D207FCD4DA690C
:1041A000D207F9D470470223026811680B431360E9
:1041B0000268D3699B07FCD4704703681A7ED20754
:1041C00002D41A7E9207FCD57047002203685A83F6
:1041D00070470368187E4007C00F70470368187E59
:1041E000C0097047802302685B42117E0B4313763F
:1041F00070470368588B8007C00F7047022302681E
:10420000518B0B43538370470368187EC007C00F60
:1042100070470368188DC0B2704703681A7ED207D2
:10422000FCD589B2012019857047012203689A756F
:104230007047012203681A757047012302681168EC
:104240000B43136003681A68D207FCD4DA69D207FB
:10425000F9D470470223026811680B4313600268A7
:10426000D3699B07FCD470470368DA699207FCD4D2
:1042700002211A688A431A6070470268936A5B0ACF
:104280005B020B43936203681A7E5207FCD5986A5F
:10429000C0B2704710B50548490001F073FD80B207
:1042A000002801D0013880B2C0B210BD006CDC0221
:1042B00070B50C00012611006308026833403440D9
:1042C000156824075B0723432B4313600468FFF73B
:1042D000E1FF207370BD0123026811680B43136076
:1042E00003681A68D207FCD4DA69D207F9D4704798
:1042F0000223026811680B4313600368DA699207AE
:10430000FCD430215A8B8A43110010220A435A836D
:104310000268D3695B07FCD4704780230268DB0224
:10432000116851680B4353607047000003680349EC
:104330001A685A680A405A607047C046FFFFFBFF80
:10434000032230B5036811401C68074D5A68090400
:104350002A40E4061143640F5960052C03D102681A
:10436000D3695B07FCD430BDFFFFFCFF30B50368A9
:104370000400588B8006800F022813D05D8B00202C
:10438000AD06AD0F032D2ED0588B800705D55D8B64
:104390000020AD06AD0F012D25D15D8BAD06AD0F13
:1043A000281E20D04800596A1043C90AC0B2C90269
:1043B000014359622368002A08D11A7ED207FCD52E
:1043C000588B01234007C00F58400CE01A7E92071B
:1043D000D00F002AF4DB1A7ED207F7D5C022596825
:1043E00092020A435A6030BD03682833197002688C
:1043F000137EDB07D80F002B03D1538BDB07F7D5D8
:1044000070470123508B4007C00F5840F8E70368FE
:10441000283319700268137E5B07D80F002B04DA6B
:104420000123508B4007C00F58407047036818683D
:10443000C006400F043843425841C0B27047036879
:10444000187E4007C00F70470368187EC007C00F72
:1044500070470368588BC006C00F70470368187E0A
:104460008007C00F70470368588B0007C00F704764
:1044700003681A68D206520F052A02D11A7E9207E3
:10448000FCD528331878C0B2704700000368104A82
:10449000934213D00F4A934212D00F4A934211D045
:1044A0000E4A934210D00E4A93420FD001200D4A7B
:1044B0004042934201D1063040B270470020FBE7F2
:1044C0000120F9E70220F7E70320F5E70420F3E7EE
:1044D00000080042000C004200100042001400429C
:1044E00000180042001C0042F8B5FFF7CFFF00287B
:1044F0002CDB1D4BC000181805230479C35603207C
:10450000FF221840C0008240C021D2438140002BCE
:104510001DDB1F2501201D40C026A840134D76003D
:10452000A851C0269B089B005B19B6009F593A40D2
:104530001143995128603F2323408024E4011C4308
:104540000B4B5C805A7852B2002AFBDBF8BD0F207F
:104550000340083B07489B089B001B18D869024092
:104560001143D961E7E7C04624BD000000E100E047
:10457000000C004000ED00E0F8B504000F0016004C
:104580001D00FFF7B1FF2000FFF700FE1C21BB005C
:104590000B4071072268090C0B43136084232268C7
:1045A0009375012F1AD11021012E00D008390C4B20
:1045B00069431868C00001F0E5FB0722216802404A
:1045C0008B895203DB04DB0C13438B8122680304C9
:1045D0009089DB0C400B400318439081F8BDC04626
:1045E00038000020F7B50500019308AB0C00160059
:1045F0001F78FFF722FE2800FFF776FFC021C022B8
:10460000890224040C409203BF0736052743164055
:104610003E430C2707222B683E431E60019B2968FE
:1046200013401A0080239B0213434B602A68D3690E
:104630005B07FCD4F7BD0000F8B504000F00FFF7DE
:1046400053FF2000FFF747FE1422236879001A6009
:104650000C4B25681E68300001F094FB0A490400E9
:10466000300001F08FFB7D23FA215843C90001F08F
:1046700089FBFF23241AE868053C1C409843044347
:10468000EC60F8BD3800002040420F0010B5040077
:10469000FFF7E8F9E060236820005B69984700288D
:1046A0000ADAFFF735FAFFF7DDF9E368C01AA36805
:1046B0009842F0D30120404210BD81607047F8B5A8
:1046C00006000D0017000024BC4207D03000FFF7A1
:1046D000DDFF002802DB28550134F5E72000F8BD96
:1046E0003F20704713B56B460268D9710733546891
:1046F00019000122A04716BD10B50221006900F083
:104700003DFC10BD10B50321006900F04DFC10BD4B
:1047100010B51300084A0400D279002A03D10123FE
:104720000020636010BD0A000069032100F034FD21
:104730000028F4D0F6E7C0464400002010B5054C30
:1047400003002068421C04D11A681800526990477F
:10475000206010BD90000020074A0300106810B5CB
:10476000411C03D001235B42136010BD0221186974
:1047700000F004FDF9E7C0469000002010B5037872
:104780004222023303700249024800F0B1FD10BD1D
:104790004C000020880E002010B5017803004278FC
:1047A0000020A12908D1212A05D1174917481A3A12
:1047B00000F09EFD012010BD2129FCD1202A13D13B
:1047C00011491248193A00F033FC96220E4BD200E0
:1047D000196891420ED1DA7901231A420AD1FA20DE
:1047E000FFF75AFC0020E6E7222A06D19A78064B0A
:1047F000DA71EAE7FFF756FCF4E7232ADBD15A889F
:10480000034B1A60D7E7C04644000020880E002002
:10481000400000207047000010B5FFF723F9FA238D
:1048200000245B00984207D3044B0A20DC79631E06
:104830009C41E4B2FFF74CF9200010BD4400002079
:10484000FA220021054B92009A60054A08321A604C
:10485000044A59601A6119767047C0466C0E0020F0
:1048600054BD0000880E0020704770B50F26CB1D88
:1048700002003240D5B22C0000093034092A00DD94
:1048800007341C705A1E994200D170BD1300EFE727
:1048900010B50400806903F099FFA06A03F096FF49
:1048A000200010BD10B50400FFF7F2FF200001F05A
:1048B000CDF9200010BD000070B5032908D1324B9E
:1048C0008000C058002802D00368DB68984770BD9C
:1048D00082291FD1C3B22D4D5A01AA1891692C4CBF
:1048E00080010C40C0218905214391612949083389
:1048F0004018802150612A685B01D0180479494230
:10490000214301717020995C8143080030210143EB
:104910009954DCE70029DAD1C024C1B21B4E4A0108
:10492000B21893681A4DA4052B40234393601A4B89
:104930008001C0180B0050603068072608335B0107
:10494000195CB1430E0001213143195491690D40A6
:104950002C43946170240F495161195CA1430C00F0
:1049600010212143195491680C4CC3180C4080212C
:104970004903214391609168890B8903916040222A
:1049800059790A435A71A2E78C0E00204013002087
:10499000FFFFFF8FB40E002074100020FF3F00F0D7
:1049A000EFF3108303600123436072B6704703681E
:1049B000002B02D162B6BFF36F8F704737B5056920
:1049C00004006846002D14D1FFF7EAFF019B621D29
:1049D000013B02D3D57FEDB2FAE768460193FFF7BA
:1049E000E6FF002D01D100203EBD206AE369C01A18
:1049F000FAE7FFF7D5FF22000025019B3432013B87
:104A000002D31578EDB2FAE768460193FFF7CFFFBE
:104A1000002DE8D0206BE36AE9E70000F0B5FF2540
:104A200001264268836811682B405B01CC18641929
:104A3000A77AD3183E43A672C6689C680B4FB6048B
:104A400036093C4034439C6083682B405B01D2189C
:104A50009468A40BA4039460402283682B4008331D
:104A60005B01CB1819790A431A71F0BDFF3F00F0C2
:104A7000F7B5056904000E0017006846002D43D104
:104A8000FFF78EFF019B601D013B5A1C0BD0C27FBC
:104A9000591E002A05D168460193FFF788FF2800B8
:104AA000FEBD0B00F1E768460193FFF780FFE36965
:104AB000AF420AD0226A9A4207D95A1CE261A2691F
:104AC000D3181B7873550135F1E7226A9A42E6D173
:104AD0000023E361013368462361FFF761FF220091
:104AE0000021019B671D013B3532581CD3D0F9775B
:104AF00010785E1E002805D0200011700193FFF78A
:104B00008DFFECE73300F0E7FFF74AFF2000019B41
:104B10003430013B5A1C06D00278591ED5B2002A07
:104B2000B9D00B00F6E7684601930025FFF73FFF79
:104B3000E36ABD4202D0226B9A421CD8226B9A4291
:104B4000ADD100236846E3622361FFF729FF270008
:104B500022000021019B3437013B3532581C9AD08A
:104B6000397010785E1E00280DD02000117001935E
:104B7000FFF754FFEBE75A1CE262A26AD3181B78D6
:104B800073550135D4E73300E8E7F7B58268436829
:104B9000D2B2110004000831186849014118C879DF
:104BA000C00729D501255201CD719B189A6861690A
:104BB0009204920C002923D12262226A002A41D059
:104BC000A26A656168465A60FFF7EAFE342294469D
:104BD0002200019B671D013BA4443532591C2DD096
:104BE0006146FD770978581ECEB2002905D00193A1
:104BF00068461570FFF7DBFEF7BD03001670EDE7A2
:104C00002263226B002A1DD0002227006261A26964
:104C100068465A60FFF7C4FE019B621D9446013B43
:104C200034373032591C09D061463D70C97F581E57
:104C3000CEB20029DBD103001670F3E7684601937A
:104C4000FFF7B5FE2000FFF7E9FED5E713B56A468A
:104C500000230C00D01DD371FFF790FD23681818B6
:104C6000206001F02BF86B46D91D00F0F3FF23689C
:104C700018186B462060D87916BD000003290ED1A4
:104C800080220E4B62311B68FF31585C5242024356
:104C90005A5468226339FF32FF3999547047012909
:104CA000FCD18022054B24311B68FF31585C5242F5
:104CB00002435A5428222339FF32EDE740130020E3
:104CC00070B500252F4B012104001A201D70FFF73D
:104CD00087F801211A20FFF7B3F82B4B0121192087
:104CE0001D70FFF77DF801211920FFF7A9F8202397
:104CF000264A0F20D1690B43D361012224490B7846
:104D000013430B70234B19788143197006211D78CA
:104D10002943197020490D782A430A701A780240F5
:104D20001A70602219780A431A701C4B1C4A5A8068
:104D30005A78D209FCD11B48FEF78EFE1A4D280086
:104D400000F0D0FF280000F0E3FF7F212B68C12096
:104D50001A7880000A401A70042219780A430C213C
:104D60001A701A898A4311491A810A581202120AC2
:104D70000A5080220A6019787E3A0A431A70012389
:104D8000237070BDA90E0020A80E00200004004072
:104D9000584400413C44004159440041000C00404B
:104DA00006400000795700004013002000E100E0B9
:104DB0000078002810D00121084B1B681A898A430B
:104DC0001A810822198B0A431A830422198B0A4379
:104DD0001A830022024B1A607047C046401300201D
:104DE000381300200A000E498B699B0B9B038B61D3
:104DF0000B680221FF331972987982390143997146
:104E0000197A8907FCD57F20064B0240997A8143A5
:104E1000114380229972997A52420A439A727047DA
:104E2000401300200050004110B50B790C00002BFE
:104E30000CD10800FFF7B0FC002801D0012010BD04
:104E4000094A93699B0B9B039361F7E700F036FFD8
:104E5000210000F023FF0028F0D1034A93699B0B47
:104E60009B039361EBE7C04640130020F7B50D00AC
:104E70001100832A19D1EBB2324C5A01A218916960
:104E80003148AD010840C0218905014391612F4996
:104E900020686D187021083355615B011A5C8A43E4
:104EA000110040220A431A54F7BD022A45D1284A6C
:104EB000AB009858002802D003685B6998473820F7
:104EC00000F0C0FE234B8027036000231D4E7F00AF
:104ED000421D036203614361C36146608560C76030
:104EE000D3772F32C362036304001370380053700A
:104EF00003F062FC0190A061380003F05DFCEBB2AE
:104F00005A01A062B21891680F4808330840C021C6
:104F1000890501439160316807265B01585CAD004B
:104F2000B0430600032030435854019B20005360D7
:104F3000FFF774FD064B5C51B6E72800FFF7BCFC99
:104F4000B2E7C04640130020FFFFFF8FB40E0020E1
:104F50008C0E002080BD000070B505000124064BBA
:104F6000A200D258002A05D021002800FFF77EFFBA
:104F70000134F4E770BDC04694000020084B8A005D
:104F8000D05810B5002803D003689B68984710BD1F
:104F9000044BC9B24901591888688004800CF6E7AF
:104FA0008C0E00204013002010B50C00FFF7E6FF28
:104FB00000280CD0064BE4B2196880230834640141
:104FC0000C1962795B42134363710223E37110BDD4
:104FD0004013002070B5CBB2124A13485C0189011E
:104FE0008918021951609168104D08330D408021D5
:104FF00089022943402591609168890B890391605A
:1050000001685A018A1816793543157195796D062C
:10501000FCD55B01C918CB79DB07FCD5001980688A
:10502000C0B270BD7410002040130020FF3F00F09C
:1050300070B5140040220B4B0D001B68FF335979EB
:105040000A435A710021FFF7C5FFA04200D9200092
:1050500000230549A34203D0CA5CEA540133F9E7AF
:1050600070BDC046401300207410002010B50C48DD
:10507000C9B24901421893689B049B0C3F2B0BD982
:105080009468403B9B04A40B9B0CA40323439360B4
:1050900041188868C0B210BD93689B0B9B03F6E76C
:1050A00040130020F0B51C002F4B85B01B68060094
:1050B0000D000192002B54D02C4F3B78D9B2002B1D
:1050C00002D11920FEF7BCFE64233B70284BAA00D6
:1050D000D058002808D0036822005B6801999847DF
:1050E0000400200005B0F0BD29003000FFF746FFA6
:1050F000844204D929003000FFF740FF0400290052
:105100003000FFF7B3FF0121EBB21A4F03935B01AD
:105110000293029A3B6801989B18FF335A7A0A431C
:105120005A72154BA9012200C91803F059FB002C33
:10513000D7D029003000FFF721FF0028D1D140212E
:10514000039B3A6808335B01D3181879014319713E
:105150000121D971029BD318FF339A7A0A439A72BC
:10516000BFE701246442BCE738130020A80E0020EA
:105170008C0E0020401300207410002013B56B46E5
:10518000DC1D22000123FFF78DFF012801D12078CB
:1051900016BD01204042FBE7F0B51C003A4B85B03C
:1051A0001B680E000192002B3FD08023DB019C4244
:1051B0003BD8364D2B78D9B2002B02D11A20FEF7FE
:1051C0003FFE642300272B70314BB201D3180293AA
:1051D000002C2CD02F4B1B680393FF2333401D0062
:1051E00000930835039B6D015D19AB79DB0921D074
:1051F000294B2A49186800F0C5FD294B172158434F
:1052000000F0C0FD274BEA79920713D49A5D002A7B
:1052100001D10138F7D201229A55009B5A011D4B4A
:105220009B189A69920B92039A6101277F4238007A
:1052300005B0F0BD00221B4B25009A55402C00D92B
:1052400040252A000199029803F0CAFA009BA9049C
:105250005A01104B890C9B18029A7F195A619A695E
:10526000641B920B92030A439A61009B039A0833D2
:105270005B01D3180222DA715979823A0A435A71D2
:10528000019B5B190193A3E738130020A90E0020AE
:10529000B40E0020401300203800002040420F00D0
:1052A00070110100AB0E002070B50C001D000D4BFD
:1052B000A601F618110030002A0003F091FAE4B2BA
:1052C000094A640114196661A369084928000B4062
:1052D000A361A169AB04890B9B0C89031943A161EC
:1052E00070BDC046B40E002040130020FF3F00F008
:1052F000F7B5104B0F001B7814000190002B0CD158
:105300000D4B16001D78002D09D00C4E0C48358829
:1053100028182D1903F064FA35802000FEBD002EF8
:10532000FBD033007A1900210198FFF7BDFF2D183B
:10533000361AF4E73412002035130020361300200B
:1053400035120020F8B500200D00140000AF012A2E
:1053500027D9D31D6A46DB08DB00D31A9D46080017
:1053600004F03EF96E460323022200210130400082
:1053700030707370A2420DD2287800280AD0531CD6
:10538000DBB20135B0549C4203D00232F154D2B2A8
:10539000F0E7220031000448FFF7AAFF431E9841BE
:1053A000C0B2BD46F8BDC046880E0020F0B500254D
:1053B000012785B0184B0E0069461F700400009548
:1053C000FFF744FC154B01A90B806A3BFF3BCB71F7
:1053D0006E3B0B72009B320009334B800E4B8D717C
:1053E0004F7108711D70092E0FD00D4E09223770B4
:1053F0000C4F200000953D80FFF77AFF69462000A2
:10540000FFF724FC3A88084935702000FFF770FF49
:10541000012005B0F0BDC046341200200902000092
:10542000351300203613002035120020F0B5CF7858
:1054300005000E0093B0022F09D1C9882B48FFF751
:10544000B5FF441EA041C4B2200013B0F0BD00F06F
:1054500035FC310000F012FC002803D0C417241AD8
:10546000E40FF1E7012F0BD1F2882149112A11D85D
:10547000D2B2002A0ED02800FFF73AFF0124E3E75A
:105480000400032FE0D1B378002B05D1F28819492D
:10549000032AEDD90A78EEE7022B06D1B279164934
:1054A0002800FFF74FFF0400CEE7012B02D1B279AD
:1054B0001249F5E7032BC7D1114B01A91868FFF773
:1054C000D4F9104B03A91868FFF7CFF90E4B05A9C3
:1054D0001868FFF7CAF90D4B07A91868FFF7C5F957
:1054E0006B460533DC77B27901A9D9E7880E002035
:1054F000B1BD0000A4BD000098BD0000A8BD000023
:105500000CA0800040A0800044A0800048A0800043
:1055100037B5050048780C000B2810D800F028FC9F
:10552000061B0F310F484D7551546E71097801AA51
:10553000002906D1022311802800FFF7B5FE0120C3
:105540003EBD00231380324B1B78012B00D113701A
:1055500002230021F0E78A780023012A09D16A4654
:1055600093802C4B1B78012B00D11371022301AACD
:10557000EFE7274A1370284A93699B0B9B039361BB
:10558000DDE78C78012C07D1224B01AA1C70234B3C
:105590001B7813702300DCE700208442D0D11C4B21
:1055A00001301D4A187093699B0B9B039361C7E7F9
:1055B00028008978FFF716FCC1E72800FFF736FFBF
:1055C000BEE70123164AC4E70B780020DB06B7D1FB
:1055D0002800FFF7C1FC2A200221A278104BFF30DF
:1055E0001A600D4A13681C5C21434A241954FF3485
:1055F000195D2938FF3801431955D4E70123094AB9
:10560000A7E78A78074B1A60B5E7002098E7C046FD
:10561000AA0E0020B20E00204013002022BD000080
:10562000381300203C1300204B4BF7B51C780700C3
:10563000002C00D083E0494E33689B8B1B070ED5AE
:1056400021002000FFF738F9326810231100FF31E4
:10565000887A03438B72424B1C6008239383336820
:105660009A8B52071FD504229A833E4A1378002B47
:105670000AD01378013BDBB213701378002B03D1EF
:1056800001211A20FEF7DCFB374A1378002B0AD0E1
:105690001378013BDBB213701378002B03D1012187
:1056A0001920FEF7CDFB3368FF331A7AD2061ED5D8
:1056B00010221A72597930320A435A7160232B49E9
:1056C00038000A781A423BD1FFF722FF3368FF33D4
:1056D000002838D08022997952420A439A711A7A66
:1056E000520604D540221A72597A0A435A72336814
:1056F00000241D8C01239D43EDB20193E1B2002DE6
:105700001DD02B002341019A134215D0230032688B
:1057100008335B01D318DA79D20702D4DB799B070F
:1057200007D5134BA200D058002810D003681B687F
:105730009847019BA3409D430134092CDED1F7BD5E
:10574000FFF772FBC2E720210A4A9171C7E73800D0
:10575000FFF794FAEDE7C046351300204013002010
:1057600038130020A90E0020A80E0020741000207D
:105770008C0E0020FF50004110B50248FFF754FF87
:1057800010BDC046880E0020014B024A1A607047C7
:1057900040130020005000410120704710B50368FD
:1057A000014A1B6A984710BD130400000300FC3334
:1057B000D96F9A6F914203D0DB6FC018007D70479C
:1057C00001204042FBE710B504000069FEF7DEFC53
:1057D00022000023FC329367D3679E229200A41814
:1057E0006366A36610BDF0231B01194080230620C9
:1057F0009B0099420AD00133FF330130994205D012
:10580000802300205B00994200D1053070470F20B3
:1058100001400020012903D00239481E8141481C63
:1058200070470000B923F0B5182785B002919B009E
:105830000400C05C3B0008214343324E1500F318BE
:105840005956FEF729FB304B0821E05C3B004343EF
:10585000F3185956FEF720FB2C4BE25C0393022A07
:1058600009D11133E05CFF2805D008214743F7191F
:105870007956FEF711FBBA27BF00E05DFF2819D06B
:105880000121FEF7ADFA1822E35D21495A43B356D0
:10589000B618DB015818BB21890060501D49012250
:1058A0005B18BC218900635071688A40BD21890062
:1058B00062501A600122029B11002069FEF75CFE13
:1058C00029002000FFF78FFF290006002000FFF7C6
:1058D0009EFFF0221540303D6A42554103003100E1
:1058E000206901220095FEF721FC0B4B2069E25C48
:1058F000039BE15CFEF737FC2069FEF754FC05B022
:10590000F0BDC046D0B80000E5020000E70200008C
:105910001844004114440041E6020000AF2210B5D3
:1059200004000021520002F077FF23000022FC3324
:1059300020005A669A6610BDF7B51D0008AB1B78AB
:105940000400009309AB1B78160001930023436009
:10595000FA239B008360104B0F0008330360143060
:10596000FFF7DCFF20007D30FF30FFF7D7FFB923C2
:105970009B002761E654094B009AE554084B200030
:10598000E254019A074BE254BA22E93BFF3B9200F2
:10599000A3541032A354FEBDC4BD0000E5020000B4
:1059A000E6020000E70200000300FC33586E9B6E25
:1059B000C01A01D55F30FF30704710B504002000D9
:1059C0007D30FF30FFF7F0FF0028F8D12069FEF7A7
:1059D000F4FB10BD10B51430FFF7E6FF10BD030057
:1059E000FC33596E9A6E914205DB5A6E986E801A9E
:1059F0005E30FF307047986E5B6EC01A0138F9E771
:105A000010B57D30FF30FFF7EAFF10BD70B5040020
:105A10000069FEF7EEFB002805D02069FEF7F9FBD0
:105A20002069FEF7EBFB2069FEF7D3FB002824D0AA
:105A300025002069FEF7EDFBAF21FC350600A86FBD
:105A40004900013000F024FAEB6F994203D0AB6FAC
:105A5000E3181E75A967BA239B00E35CFF2B0CD0EB
:105A600020001430FFF7BBFF092806DCBB23BD2252
:105A70009B009200E358A2581A602069FEF7C4FB0D
:105A800000281DD020007D30FF30FFF78DFF00285B
:105A900025D09E239B00E618B26E736E9A421BD0EF
:105AA000BE22AF21B36EB06EE31852000130490040
:105AB0009D5C00F0EDF9B1662069E9B2FEF7ADFB3F
:105AC0002069FEF78BFB002805D02069FEF78AFBD2
:105AD0002069FEF77AFB70BD01256D42ECE7206975
:105AE000FEF7A7FBECE70000F7B5040000690E0025
:105AF000FEF78AFB002847D1AF277F009E239B003B
:105B0000E518686EAB6E39000130019300F0C0F902
:105B1000019B994224D1EFF31083DB070ED4204B75
:105B20005B68DB05DA0D002BE8D0103A53B21206A1
:105B30000DD49B081B4AC0339B009B582069FEF77D
:105B400063FB0028DAD02000FFF760FFD6E70F22C2
:105B50001340083B144A9B089B009B181B68EDE709
:105B6000AF21686E4900013000F092F9AB6E9942A6
:105B700005D0BE226B6E5200E3189E546966206900
:105B8000FEF753FB0120FEBD20007D30FF30FFF704
:105B90000BFF0028B0D131002069FEF73EFBF1E792
:105BA00000ED00E000E100E01CED00E070B5050054
:105BB000FC35EA6FAB6F04009A421DD0AF21EB6F4A
:105BC0004900C318E86F1E7D013000F061F9E967F4
:105BD000BA239B00E35CFF2B0CD020001430FFF7AE
:105BE000FEFE0A2806DDBC23BD229B009200E3587E
:105BF000A2581A60300070BD01267642E8E770476F
:105C000010B5FEF739F802F0A9FDFFF7F8FF012003
:105C1000FDF75EFF094C2000FFF752F82000FFF768
:105C2000C7F8FCF76BFAFCF79FFAFDF771FF044B1E
:105C3000002BF8D000E000BFF5E7C046880E00203A
:105C40000000000010B502F0B7FD10BD10B502F065
:105C5000BDFD10BD70B50E0000254468002C0BD0B2
:105C60002368310020005B689847002802DBE46865
:105C70002D18F3E701256D42280070BD70B50D00A9
:105C80004468002C08D02368290020009B689847AE
:105C9000002802D1E468F4E7200070BD70B50D0063
:105CA0004468002C08D02368290020001B6898470E
:105CB000002802D1E468F4E7200070BD064A012301
:105CC000116810B50C0005481C40194203D1044965
:105CD00044600180136010BD44140020481400206B
:105CE0000204000070B50400012320CC00212A78B2
:105CF0002000134380222B70520002F08DFDAB7800
:105D0000DB07FCD4AB789B07F9D46C6270BD000054
:105D10001F22144B70B51B68590B9C0C9B01114042
:105D20005B0F22401F2900D11A391F2A00D1023AE5
:105D3000072B00D1043B1F2500688E01048D0A4902
:105D40002A40214031430185018D14000A00AA43F5
:105D500022430285028D1903044B13400B43038534
:105D600070BDC046246080003FF8FFFFFF8FFFFF3B
:105D700002B4714649084900095C49008E4402BCDE
:105D80007047C046002243088B4274D303098B42FC
:105D90005FD3030A8B4244D3030B8B4228D3030CFB
:105DA0008B420DD3FF22090212BA030C8B4202D39D
:105DB0001212090265D0030B8B4219D300E0090AC5
:105DC000C30B8B4201D3CB03C01A5241830B8B42CE
:105DD00001D38B03C01A5241430B8B4201D34B03B7
:105DE000C01A5241030B8B4201D30B03C01A52411C
:105DF000C30A8B4201D3CB02C01A5241830A8B42A1
:105E000001D38B02C01A5241430A8B4201D34B0289
:105E1000C01A5241030A8B4201D30B02C01A5241ED
:105E2000CDD2C3098B4201D3CB01C01A52418309A1
:105E30008B4201D38B01C01A524143098B4201D3DB
:105E40004B01C01A524103098B4201D30B01C01A06
:105E50005241C3088B4201D3CB00C01A5241830880
:105E60008B4201D38B00C01A524143088B4201D3AD
:105E70004B00C01A5241411A00D20146524110460D
:105E80007047FFE701B5002000F0F0F802BDC04602
:105E90000029F7D076E7704703460B437FD40022F2
:105EA00043088B4274D303098B425FD3030A8B42AE
:105EB00044D3030B8B4228D3030C8B420DD3FF2218
:105EC000090212BA030C8B4202D31212090265D0E6
:105ED000030B8B4219D300E0090AC30B8B4201D399
:105EE000CB03C01A5241830B8B4201D38B03C01AE0
:105EF0005241430B8B4201D34B03C01A5241030B57
:105F00008B4201D30B03C01A5241C30A8B4201D307
:105F1000CB02C01A5241830A8B4201D38B02C01AB2
:105F20005241430A8B4201D34B02C01A5241030A29
:105F30008B4201D30B02C01A5241CDD2C3098B420E
:105F400001D3CB01C01A524183098B4201D38B018B
:105F5000C01A524143098B4201D34B01C01A52412E
:105F600003098B4201D30B01C01A5241C3088B4273
:105F700001D3CB00C01A524183088B4201D38B005E
:105F8000C01A524143088B4201D34B00C01A524100
:105F9000411A00D201465241104670475DE0CA0FD7
:105FA00000D04942031000D34042534000229C4697
:105FB00003098B422DD3030A8B4212D3FC228901A1
:105FC00012BA030A8B420CD3890192118B4208D377
:105FD000890192118B4204D389013AD0921100E0D9
:105FE0008909C3098B4201D3CB01C01A52418309ED
:105FF0008B4201D38B01C01A524143098B4201D31A
:106000004B01C01A524103098B4201D30B01C01A44
:106010005241C3088B4201D3CB00C01A52418308BE
:106020008B4201D38B00C01A5241D9D243088B4214
:1060300001D34B00C01A5241411A00D201466346B7
:1060400052415B10104601D34042002B00D549421B
:10605000704763465B1000D3404201B5002000F05A
:1060600005F802BD0029F8D016E770477047C04612
:106070008446101C62468C46191C634600E0C046EC
:106080001FB501F02BFB002801D40021C8421FBD21
:1060900010B501F075FA4042013010BD10B501F0A5
:1060A0001DFB002801DB002010BD012010BDC046F3
:1060B00010B501F013FB002801DD002010BD012008
:1060C00010BDC04610B501F097FA002801DC002091
:1060D00010BD012010BDC04610B501F08DFA00289A
:1060E00001DA002010BD012010BDC046002B11D1E7
:1060F000002A0FD1002900D1002802D00021C94375
:10610000081C07B4024802A14018029003BDC04613
:106110005DFFFFFF03B4684601B5029800F024F864
:10612000019B9E4602B00CBC7047C04670B5002271
:106130000C4B04000D00FFF7CFFF002804D1200016
:10614000290002F057F970BD064B002220002900FB
:1061500001F0A0FD02F04EF980231B069C4660442E
:10616000F1E7C0460000E041F0B557464E464546CF
:10617000DE46E0B504000D009246994683B08B429E
:1061800030D82DD04946504602F0AEFA290006001C
:10619000200002F0A9FA331A9846203B9B4633D4DC
:1061A0005A465346934042461F00534693401E00B2
:1061B000AF423AD8AF4200D178E05B46A41BBD4164
:1061C000002B00DA75E000220023009201930123E6
:1061D0005A4693400193012342469340009328E09E
:1061E0008242CFD900220023009201930C9B002B06
:1061F00001D01C605D600098019903B03CBC9046E2
:106200009946A246AB46F0BD424620239B1A524611
:10621000DA40414613004A468A40170042461F436F
:10622000534693401E00AF42C4D90022002300927F
:1062300001934346002BD9D0FB0772081A43464608
:106240007B080EE0AB4201D1A2420CD8A41A9D41BA
:10625000012024196D410021013E24184D41002EDA
:1062600006D0AB42EED9013E24196D41002EF8D183
:10627000009801995B4600196941002B24DB2B0033
:106280005A464446D3402A00E2401C005B461500B3
:10629000002B2ADB26009E40330026004746BE40E6
:1062A0003200801A9941009001919FE7A342BCD827
:1062B00083E74246202300219B1A0022009101928D
:1062C0000122DA40019286E7424620239B1A2A00E7
:1062D00046469A402300F340444613432A00E240D6
:1062E0001C005B461500002BD4DA42462F00202309
:1062F000260097409B1ADE403B003343CDE7C04663
:10630000F0B54646D6464F464D024202C0B5520A47
:106310006E0A4700B0463F0E4E00C40FD0009446B0
:106320003B008246360EC90FAD098C426DD0B81BBA
:10633000814600284DDD002E00D188E0FF2F5AD085
:106340008023DB041D434B4601221B2B0ADC2B0060
:106350004A464946D3402022521A95402A00551EEB
:10636000AA411A4353469A1A530100D4B9E0920144
:106370009609300002F09AF905388640874200DD20
:10638000D4E03300C71B20200137FB40C71BBE40B1
:106390003200561EB24100271A43530704D00F2380
:1063A0001340042B00D00432530100D49CE07B1C2A
:1063B000FE2F00D19AE09201520A9446DBB2D80532
:1063C0006346E407184320431CBC90469946A24606
:1063D000F0BD002849D0F31B002F00D0B6E0524694
:1063E000002A60D0013B002B00D1FCE0FF2E00D042
:1063F000B4E00C004246002A78D08020C00310434D
:106400004202530A9C46FF23D9E7B91B002971DDDC
:10641000002E3FD0FF2FEED08023DB041D4301224E
:106420001B2907DC2A002023CA40591A8D406B1E05
:106430009D412A435244530153D50137FF2F55D074
:1064400001237B49134052080A401A43A5E7002D57
:106450002CD001235B429C46E1444B46002B00D1EB
:10646000ADE0FF2F00D06EE7C5E7FE207E1C304276
:1064700060D1002F00D093E05246002A00D1B6E050
:10648000002D9CD0521B500100D4C3E053460C0099
:10649000EA1A82E7002D09D00139002900D18BE0EA
:1064A000FF2FBCD1A7E70C0042463700FF2FA2D038
:1064B0005202530A9C46FBB281E7FE210137394262
:1064C00065D1002B7ED1002800D1AAE0002D00D19B
:1064D00075E72A0052440027530102D5554B013776
:1064E0001A40530700D05AE7D208DFE70022FF2303
:1064F000944664E70029E0D0F31B002F3ED0FF2E26
:1065000000D177E780220100D20411438A4601229C
:106510001B2B08DC524620215046DA40CB1A98400B
:10652000431E984102433700521984E7414A3F1AFB
:10653000324032E753465E1B73012DD4002E00D04B
:1065400017E7002200240023944638E7FF2E00D1ED
:106550004FE780225046D2041043824601221B2B73
:1065600008DC524620245046DA40E31A9840431E85
:10657000984102430C003700AA1AF5E6002893D090
:10658000013B002B4FD0FF2EC1D1424633E7FF2FF6
:10659000ACD055446A08A4E753460C00EE1AE8E66E
:1065A0005346002B28D1002D00D022E78023DB03A7
:1065B0009C460024FF2302E72A0052443BE753464F
:1065C0005A1BD1E6002800D114E7002D00D112E7B4
:1065D0008023DB031A4200D10DE74146194200D067
:1065E00009E7424607E70C003700AA1ABCE6002D6F
:1065F00013D00C00C446E2E6002D00D1FBE6802358
:10660000DB031A4200D1F6E64046184200D0F2E61B
:106610000C00EFE6002A00D063E700220024944635
:10662000CDE6C446CBE62A003700524403E7C04615
:10663000FFFFFF7DFFFFFFFBF0B54F464646D64606
:106640004502C0B547000C1C6D0A3F0EC60F002F57
:1066500066D0FF2F6CD00023EA00802599469A4629
:10666000ED0415437F3F60026100430A9846090E1E
:10667000E40F002948D0FF2910D08022D800D2048E
:106680000243904600207F394A4633007F1A024376
:106690006C4992008A586340DBB29746002B6DD15B
:1066A0000220FF3F33E000239846260045468246FD
:1066B0005346022B00D17FE0032B00D194E0012B45
:1066C00017D038007F3000285FDD6B0704D00F2320
:1066D0002B40042B00D004352B0103D538005A4B36
:1066E00080301D40FE2867DCAD016D0AC0B202E0BB
:1066F0001E0000200025C0052843F60730431CBCBF
:1067000090469946A246F0BD002B2BD101204A4667
:1067100033004E49024392008A586340DBB29746E9
:10672000002D13D104239946033B00279A469AE78C
:10673000002D05D108239946063BFF279A4692E78C
:106740000C239946093BFF279A468CE7280001F065
:10675000ADFF7627431F9D4000237F4299469A460E
:106760003F1A80E7180001F0A1FF4246431F76213F
:106770009A404942091A9046002085E7FF210320EC
:1067800082E71E00FF200025B5E701231B1A1B2B03
:10679000AFDC9E372900BD40D9406A1E95410D43AC
:1067A0006B0704D00F232B40042B00D004356B0162
:1067B00044D5012000259EE7FF2000259BE780258A
:1067C0000026FF20ED0396E7002398468020C003B3
:1067D000054209D04346034206D1454605436D02B2
:1067E0002600FF206D0A86E78020C00305436D0266
:1067F000FF206D0A7FE741466A014801824219D2B3
:106800001B210025013F012614006D005200002CC1
:1068100001DB904201D8121A354301390029F3D126
:10682000501E824138007F301E001543002800DDD5
:106830004BE7AAE71A210125121AE4E7AD0100206F
:106840006D0A58E7F8BD0000FFFFFFF738BE0000F3
:1068500070B5002813D0C317C5185D40C40F2800B9
:1068600001F024FF9E2301001B1A962B0FDC082841
:1068700001DD08398D406D026D0AD8B202E00024B6
:1068800000200025C0052843E407204370BD992B54
:106890000BDD05222E00121AD64002001B32954055
:1068A0002800451EA84135000543052901DD4A1F82
:1068B00095402A00084E3240680709D00F20284032
:1068C000042805D00432500102D59F2332405B1AC0
:1068D0009201550AD8B2D5E7FFFFFFFBF0B54F464E
:1068E000D64646460D0001001800C0B517002B0320
:1068F0005A0A4B0F1343CA00914602036E0041002F
:10690000520AEC0F7D0F1543760D490DC00F8246DC
:10691000AC46FF00721A844200D198E0002A00DCE5
:1069200081E0002900D1B6E0C9498E4200D172E170
:1069300080212800090408438446382A00DD5EE1EE
:106940001F2A00DDEEE1202039006546801A8740CD
:10695000D14085400D4339004F1EB9416746D740AD
:106960002943DB1B4A46551AA945894149425B1A0E
:10697000984643461B0200D4CCE043465B025B0AC8
:1069800098464346002B00D12CE1404601F08EFE94
:1069900001000839202228004346521A8B40D0407B
:1069A0008D4003438E4200DD17E18E1B721C1F2AAF
:1069B00000DDA7E1202118002E00891A8D408840B3
:1069C000D640D340691E8D4130439846002605438A
:1069D0006B0709D00F232B40042B05D02B1DAB4296
:1069E000AD416D42A8441D0043461B0200D494E013
:1069F000974B721C9A4200D19DE04146954BED08A1
:106A000019400B00520549075B0229431B0B520D2D
:106A100012051343E4072343080019001CBC9046E9
:106A20009946A246F0BD002A43D08A1B002E00D012
:106A30002AE14C461C4300D1D1E1541E012A00D169
:106A40001FE2834DAA4200D172E2220023E1002A14
:106A500000DC98E0002942D07D498E4200D1DAE086
:106A600080212800090408438446382A00DD29E1F2
:106A70001F2A00DC87E1110065462039CD40202A1D
:106A800004D040206146821A91400F4339004F1EC6
:106A9000B9410D431BE12900394300D1B5E0511E36
:106AA000012A00D1ABE16A48824200D1B2E10A007A
:106AB00043E76949751C0D4200D0CFE0002E00D09D
:106AC00093E14946194300D1D1E16146394300D0F1
:106AD000E3E149465807C9080143DB0826E02900DD
:106AE000394300D191E0511E012A05D05848824215
:106AF00000D18FE10A00B8E73D004D444D45894182
:106B00006344984649428844434602261B0200D506
:106B1000EBE0013E6B0700D05CE74346E9085A070B
:106B200011433200DB084A48824221D01B03520540
:106B30001B0B520D6CE70023002169E72A003A4342
:106B400069D04A465807D108DA0880231B03084356
:106B50001A4207D02900ED081D4203D12A00FF0880
:106B600048073843430FC1005B07C90819431300A6
:106B70000A001A4300D113E28022120313431B03BD
:106B8000334A1B0B44E7002A4BD08A1B002E00D14E
:106B9000E7E02F48814200D195E1802000040343C3
:106BA000382A00DD43E11F2A00DDDBE120201D0043
:106BB0004E46801A8540D64035434E4686403000CA
:106BC000D340461EB0419C440543ED19BD429B4154
:106BD0005B42634498460E007FE01E4A761A1340DB
:106BE0009846F5E6280001F061FD010018311F29E3
:106BF00000DCCFE62B00083883400025D2E6624651
:106C00003A4311004F1EB941ACE649465807C9083E
:106C10000143DB0887E749465A07C9081143DB08E7
:106C2000A6E70D49701C084200D0BBE0002E00D042
:106C300014E14946194300D175E12900394300D0D8
:106C40007EE149465807C9080143DB086EE7C046A4
:106C5000FF070000FFFF7FFFFE0700004946CD1B36
:106C60006146581AA9458941494288460100404673
:106C7000091A8846090200D5A6E04146294300D0FA
:106C80007FE60023002451E7C74CA14200D1C7E0B2
:106C9000802424042343382A54DC1F2A00DDCCE05E
:106CA00020244846A41A1D004E46A040D640A540C8
:106CB0000400D34062463543661EB441D31A9C4655
:106CC000254344E062463A4315006F1EBD414D44E2
:106CD0004D45894149428846984443461B0200D4A9
:106CE00018E7B14B01369E4249D04246AF4B0121D5
:106CF0001A4013006A080D401543D9075B089846EF
:106D00000D4365E618001F3EF040202A03D04021C5
:106D10008A1A93401D43691E8D4100230026984620
:106D20000543F7E6110065462039CD40202A04D0FE
:106D300040206146821A91400F4339004F1EB941ED
:106D400029430FE64A4613431D006B1E9D417D1BE0
:106D5000AF429B4162465B42D31A984654460E00AE
:106D600007E64846184300D1B3E0501E012A00D17F
:106D70000DE18D4DAA4200D1A5E0020010E73200DE
:106D80000023002144E620213800891A65468F40FF
:106D90008D40D040791E8F4105433D436746D74023
:106DA000DB1994E7804A904200D1ECE03900494475
:106DB00049459241634452429B18DD0749085B08EC
:106DC000984606000D43A5E64A46BD1AAF428941E2
:106DD00062464942D31A5B1A98465446D1E56C077D
:106DE000F9082143EB0804009DE64A461A4375D191
:106DF0006146394314D1802300241B03BCE64A4674
:106E0000D51BA9458941624649429B1A5B1A98469F
:106E10000126AEE54A46D1085A071143DB08A7E62A
:106E20006346F9085A0754461143DB08A0E64A4670
:106E300013431D006B1E9D41C7E614001E00203C3D
:106E4000E640202A05D04024A21A93404A461A431D
:106E500091464D466B1E9D41354378E74A461A439D
:106E600000D06BE66B07F9081943EB0880E6614632
:106E7000394354D06346F9085C072143DB0804001A
:106E800054E64A46BD1AAF42894162464942D31A86
:106E90005B1A9846040001266BE54A46D51BA945B6
:106EA0008941624649429A1A521A9046120232D5D4
:106EB0004A46BD1AAF42894162464942D31A5B1A1B
:106EC0009846040084E56346F9085A071143DB0835
:106ED0004EE6F90868070143EB0824E662463A43A8
:106EE00000D198E64A46D1085A071143DA088023B0
:106EF0001B031A4208D06046C5081D4204D15446FF
:106F00002A00F908430719434B0FC9005B07C9085A
:106F1000194313002CE64146294300D0FAE500232B
:106F20000A00002402E66B07F9081943EB08FDE5A7
:106F30006346F9085B07194363460400DB0817E65C
:106F40003D004D4463444D4589419846494288443B
:106F500043461B0200D4DDE54246144B01261A408D
:106F60009046D7E510001E002038C640202A05D0E4
:106F70004020821A93404A461A4391464D466B1E62
:106F80009D41354321E602000023002140E54A46A9
:106F9000D519BD4289416344984649428844B3E5C6
:106FA0000021014A0B0033E5FF070000FFFF7FFFD0
:106FB000F0B557464E464546DE46E0B581460500EB
:106FC0000C03480092461F0085B0240B400DCE0FE5
:106FD000002859D0874B984200D198E06B0FE4000D
:106FE0001C4380231B0423439846834BED009B46A0
:106FF00000239946834400933C037B005046240BB6
:107000005B0DFF0F002B67D07A4A934218D07A4964
:10701000420F8C46E4005946144380226344120414
:10702000CB1A14439B46C200002033007B409A4693
:107030004B460F2B00D9EFE070499B00CB589F4681
:107040006F4B52469C462243E344002A00D095E011
:10705000494602231943894600240220E5E700231C
:107060000024002552461B052343D2071343280062
:10707000190005B03CBC90469946A246AB46F0BD0F
:10708000002400255B4BEDE74B462343984600D197
:1070900089E0002C00D1E0E1200001F007FB0100B5
:1070A00002000B391D235B1A49461000D9400838ED
:1070B00084400B004D4623439846854051483C038D
:1070C000831A9B460023994600937B005046240B6D
:1070D0005B0DFF0F002B97D15246224355D0002C59
:1070E00000D1CAE1200001F0E1FA02000B3A1D23B1
:1070F00001009B1A52460839DA408C40144352462C
:107100008A40414B58449B46834400208DE74B46C0
:107110002343984640D108239946063B00258346E1
:10712000009369E7B246009B022BA9D0032B00D144
:1071300011E2012B93D0354A5A44002A00DC3CE18D
:107140006B0700D0A7E1ED084346DB0106D54246B8
:107150002F4B1A4090468022D2005A442D4B9A421F
:107160008EDC4346520558075C020543240B530D41
:1071700078E7BA46A04615000090D4E74A460323B4
:107180001A439146032052464FE7494601231943CB
:1071900089460024012048E70C239946093BA04674
:1071A0008346009328E70423994600239B46013336
:1071B0000025009320E7002380249A4600250D4BEC
:1071C00024034FE7802341461B03194208D01C4289
:1071D00006D11C432403BA461500064B240B41E795
:1071E0008024434624031C432403B246014B240B52
:1071F00038E7C046FF07000001FCFFFF78BE000033
:1072000001F8FFFF0DFCFFFFF3030000FF03000088
:10721000FFFFFFFEFE070000444500D216E100D14B
:1072200011E101235B429C462E0040460025E344C9
:107230002302140E1C431B0C994623041F0C12023C
:10724000494600920197FEF723FE02007A430B04A1
:10725000310C804619438A420BD901235B429C467C
:107260000919E0448C4204D88A4202D9831E984608
:107270000919881A4946FEF70BFE09048C463104A9
:107280006646019A090C4243030031438A4204D9FD
:107290000919013B8C4200D811E1891A4246009E2F
:1072A00012041A43330C1F00100C9046029313046F
:1072B0003204160C32001B0C5A4303967B434643A0
:1072C0007843170CBC469B1963449E4203D9802621
:1072D0007602B44660441E0C301816041B04360CAB
:1072E0009E19814200D29CE000D197E0AE1B091AA2
:1072F000B54280414042081A844200D111E149461A
:10730000FEF7C6FD019A0B044243310C05001943F8
:107310008A4207D90919013D8C4203D88A4201D912
:10732000851E0919881A4946FEF7B2FD09048C46E4
:1073300031046646019A090C4243030031438A42F4
:1073400007D90919013B8C4203D88A4201D9831E0F
:107350000919039E891A32002D041D43029F2B0434
:107360001B0C5A437B439C46280C4643130CB444E5
:10737000634478439E4203D980267602B446604433
:107380001E0C12041B04120C30189B18814206D3E9
:1073900002D001231D43CEE6002B00D1CBE66118BD
:1073A0006E1EA14200D2A4E0814200D2C9E000D109
:1073B000D9E03500EDE701256D420121891A382910
:1073C00000DD4CE61F2900DC7FE01F235B429A1A98
:1073D0004346D340202904D04446654A5A44944049
:1073E00025436A1E954107222B43150000241D40AA
:1073F0001A4200D1A1E00F2200241A40042A00D131
:1074000098E01A1D9A429B415B42E4181300220245
:1074100000D48FE001230024002523E6B54200D3E9
:1074200064E743465A1E009B9C4665441F009D42EC
:107430009B415B421B19C9188C423AD2884263D8DF
:1074400060D0904652E7AA4200D9EAE64346DE07FA
:1074500058086B081E43ED07EAE6484601F026F996
:1074600001000200153120321C2900DC1AE64B46CF
:10747000083883400025984620E601F017F90300FC
:107480001A00153220301C2A00DC30E65446083B36
:1074900000229C4035E60F232B40042B00D152E6FE
:1074A00005235B42AB429B4104355B42ED089844A7
:1074B0004AE68C42C5D1AF42C0D9904616E78A420F
:1074C00000D8EAE6831E0919E7E62A4A28005A444A
:1074D000434695409340C8406A1E95414446034345
:1074E0002B43CC405A0792D00F221A40042A88D14D
:1074F0008DE73500814200D04BE7009A934200D0DF
:1075000047E718E6AE429CD902235B429C46009BAB
:10751000E0449C4665449D429B415B421B19C9184F
:10752000E4E6154A5A44002A00DC44E7012300251A
:10753000984409E665076402240BDB081D43002319
:1075400090E5009E023D7200B242BF417F423C196D
:1075500009190092CEE78024434624031C432403E8
:10756000064B240B7EE5009A9A42EAD33500C4E725
:107570003E0400001E040000FF030000FF0700009F
:10758000F0B54F464646D646944691461A03120B2E
:10759000184DC0B54C000F0392465A0006008046B5
:1075A0003F0B0120640DC90F520DDB0FAC420AD016
:1075B000AA4203D0944201D157450DD01CBC90463D
:1075C0009946A246F0BD3D003543F7D1A242F5D120
:1075D000524665462A43F1D10120C845EED1994271
:1075E00006D0002CEAD13E433000461EB041E5E70C
:1075F0000020E3E7FF070000F0B54E46454657463A
:10760000DE4604001800E0B516001B031B0B324DCC
:107610000F034A0099464300A446B0463F0B520D63
:10762000C90F5B0DC00FAA4229D0AB4218D0002A67
:107630002AD13C43A34665426541002B02D14C460A
:10764000264327D0002D15D1814228D002200139B0
:10765000084001383CBC90469946A246AB46F0BD76
:107660004D462E432FD1002AEED13C436542654161
:10767000002DE9D00028EDD101204042EAE73D008D
:10768000254320D19342EBD0002BDDD14C4626433D
:10769000DAD1DBE75B460020002BDBD0D6E79A424D
:1076A0000ADCE7DB4F45D1D810D000204F45D1D2BE
:1076B0000029E1D00800CDE743425841022340426F
:1076C00018400138C6E702204042C3E7C445BDD890
:1076D0000020C445BED2EBE7FF070000F0B54E46E0
:1076E00045465746DE4604001800E0B516001B0369
:1076F0001B0B314D0F034A0099464300A446B04688
:107700003F0B520DC90F5B0DC00FAA4211D0AB4207
:1077100014D0002A2FD13C43A34665426541002B7B
:1077200014D14C46264311D15B460020002B17D0C4
:1077300010E03D00254312D193421CD14D462E430B
:107740000DD1002A04D13C4365426541002D0DD185
:10775000814216D0022001390840013800E00220A1
:107760003CBC90469946A246AB46F0BD0028F7D1F6
:1077700001204042F4E7002BEAD14C462643E7D1F2
:10778000E8E79A4206DD434258410223404218404E
:107790000138E5E79A42E9DB4F45DBD806D0002007
:1077A0004F45DDD20029E3D00800D9E7C445D1D840
:1077B0000020C445D4D2F5E7FF070000F0B55746D6
:1077C0004E464546DE46E0B598460C034B000600A3
:1077D000924687B0240B5B0DCF0F002B6CD0DD4A97
:1077E000934200D186E0420FE40014438022120449
:1077F0001443D94AC5009446634400930023994634
:107800009B46434642461E03D20F5B0050469046BD
:10781000360B5B0D00D178E0CE4A93421DD0CE49A5
:10782000420F8C4600996344F6008C461643802232
:107830009C44120463461643C20000200093009942
:10784000434601318C4649467B4001930F2900D9BC
:107850007EE0C24B890059588F465246009B324306
:1078600000D056E1BB4900268C466344494600934C
:107870000223194389460220E1E74346019334007D
:10788000150083465B46022B5ED0032B00D1F3E14B
:10789000012B00D018E1002200240025019B1205D5
:1078A0002243DB071A432800110007B03CBC904676
:1078B0009946A246AB46F0BD2500054300D141E103
:1078C000002C00D1ADE1200000F0F0FE010002002C
:1078D0000B391D2310005B1A310035000838844035
:1078E000D94085400C439E48831A00930023994653
:1078F0009B4686E70500254300D01CE10822009343
:107900000223002491469B467BE75246324300D136
:107910000AE1002E00D176E1300000F0C7FE02003F
:107920000B3A1D2301009B1A52460839DA408E405B
:10793000164352468A40009B8949181A03008C4618
:107940006344002000937AE700240025814AA5E7DC
:107950002F0C2D042D0C2B00110C1204120C534370
:107960009846130028007B43994648434844834681
:1079700040460B00000C824658467B43504402931D
:10798000814506D99A4680235B029946CA445346EC
:107990000293030C9B4643461B0400041B0C9846B1
:1079A000030043440493330C99462B003604360CF1
:1079B0007343984633007B439A464B465D435F438F
:1079C00043465544180C4019824503D980235B0275
:1079D0009A465744050CEB19059343461D042D0C9C
:1079E00000044019250C2404240C270057436A4343
:1079F00090462A003B0C9A464A4361434144514415
:107A00008344884503D980235B02984642443F045F
:107A10000B0C3F0C0904C919270098464B467743C5
:107A20005C436E435D433B0C9946A4194C4442446D
:107A30000395A64204D980235B02984645440395EA
:107A4000029B3F045B441E0083428041230498460E
:107A5000059B3F0C4744984676188E42894147441F
:107A600040423D18A846934649428A46C3449F4235
:107A7000BF4180458041039BDA44984653464042CB
:107A80007F420743240C934592418A4589413F191F
:107A9000DC0D049B75021D43681E8541534652420E
:107AA00049420A43BF184744F60D7F0235435A0244
:107AB0003C431543FB0100D4C1E001216A080D409D
:107AC0001543E2071543640826496144002956DD41
:107AD0006B0709D00F222A40042A05D02A1DAA428A
