:10200000008000202D600000F55F000015600000DA
:1020100000000000000000000000000000000000C0
:10202000000000000000000000000000156000003B
:10203000000000000000000015600000816000004A
:1020400015600000156000001560000015600000BC
:10205000B95F000015600000095800001960000019
:1020600015600000055F00001560000015600000AD
:10207000A15B000015600000155F00001560000006
:10208000156000001560000015600000156000007C
:1020900000000000156000001560000015600000E1
:1020A000156000001560000015600000156000005C
:1020B0000000000010B5064C2378002B07D1054B1B
:1020C000002B02D0044800E000BF0123237010BDA4
:1020D000800200200000000064290100044B10B5BC
:1020E000002B03D00349044800E000BF10BDC046E8
:1020F000000000008402002064290100122110B5B4
:10210000024B034A0348FF3109F0DCF87CE200008F
:102110000BE4000094E40000122110B5024B034AC6
:102120000348FF3109F0CEF87CE2000010E5000022
:1021300094E4000010B5642003F0E6FF10BD000039
:1021400010B50F2906D9CD21044B054A0548490091
:1021500009F0B8F850235943401810BDD0E50000ED
:10216000EDE5000031E7000010B5062906D9CD21C4
:10217000044B054A0548490009F0A4F85023594387
:10218000401810BDD0E50000ADE7000031E70000C9
:1021900010B594000C1904604360002B05DAB021DF
:1021A000094B0A4A0A4809F08DF8C1601021026102
:1021B0008161002A02DBCB1A9A4204DD9221054B91
:1021C000054A0648EFE710BDEFE8000099E9000076
:1021D00091EA000005EB000094EB000096EC000093
:1021E000F7B545680600002D3BD006DC9C211D4B51
:1021F0001D4A1E48FF3109F065F80368AD001F0055
:1022000001CF0193011C06F019FE019B041C5D190E
:10221000AF4209D001CF011C06F010FE011C201CAA
:1022200006F0A6FA041CF3E70021201C06F08CFA45
:10223000002816D0201C05F0F3FF7368051C002B46
:1022400004DA47210A4B0B4A0B48D4E736689B0057
:102250009C19A64205D03068291C06F025FC01C651
:10226000F7E7F7BD09F000004DF00000A8F100000D
:102270001AF20000AFF20000A5F3000010B50F291C
:1022800001D80F2A05D97621044B054A054809F0E3
:1022900019F8120152189200801810BD20F40000A5
:1022A00055F4000031E70000F8B506000024144F93
:1022B0001449380004F08AF900252A002100300072
:1022C000FFF7DCFF006808F00FFF013502000B008C
:1022D00038000D4904F090F90F2DEED12A002100AD
:1022E0003000FFF7CBFF006808F0FEFE013402006B
:1022F0000B003800054904F07FF9102CD7D1F8BD48
:10230000CC0C002060F5000063F500006CF50000C7
:102310000B0010B5062901D80F2A05D97621054BE7
:10232000054A064808F0CEFF07215143C918890025
:10233000401810BD20F4000076F5000031E70000E1
:10234000F8B506000024144F1449380004F03EF993
:1023500000252A0021003000FFF7DAFF006808F0AE
:10236000C3FE013502000B0038000D4904F044F9AA
:102370000F2DEED12A0021003000FFF7C9FF0068C1
:1023800008F0B2FE013402000B003800054904F0E9
:1023900033F9072CD7D1F8BDCC0C002060F5000034
:1023A00063F500006CF50000002310B54360826007
:1023B0000F2A05D97821034B034A044808F082FF0D
:1023C00010BDC04680F6000027F7000096EC000024
:1023D00010B5030705D06D21024B034A034808F0EE
:1023E00071FF10BD08ED00004AF8000084EE000007
:1023F00010B504000B68402203601031103008F063
:10240000DBFF200010BDF8B5A02705000E0000245A
:10241000FF00311928195034FFF7EAFFBC42F8D108
:102420002800F8BDA02370B504000500DB00C61825
:10243000280050351030FFF7CBFFAE42F8D123070C
:1024400005D06D21034B044A044808F03BFF2000EF
:1024500070BDC04608ED0000D7F8000084EE000013
:1024600010B5502454430C1904604360002B05DA66
:10247000B0210A4B0A4A0B4808F024FFC160102122
:1024800002618161002A02DBCB1A9A4204DD9221AB
:10249000054B064A0648EFE710BDC046EFE80000CE
:1024A00092F9000091EA000005EB0000F0FA00004C
:1024B00096EC00008C2370B5040005009B00C61844
:1024C000280050351030FFF783FFAE42F8D12307C4
:1024D00005D06D21034B044A044808F0F3FE2000A8
:1024E00070BDC04608ED00002AFC000084EE00002C
:1024F00010B5030705D06D21024B034A034808F0CD
:10250000E1FE10BD08ED0000E4FC000084EE0000D8
:10251000F0B5D36889B000930B68CD680193136858
:10252000040002934B68281C039353689668049335
:102530008B680099059306F081FC0299071C0198AD
:1025400006F07CFC011C381C06F092FD0499071C67
:10255000039806F073FC011C381C06F089FD311C41
:10256000071C059806F06AFC011C381C06F080FD6B
:1025700002990690281C06F061FC0199071C00983E
:1025800006F05CFC011C381C06F0F2F8311C071C3C
:10259000039806F053FC011C381C06F0E9F8059975
:1025A000071C049806F04AFC011C381C06F060FD6C
:1025B00004990790281C06F041FC0399071C009819
:1025C00006F03CFC011C381C06F0D2F80599071CEB
:1025D000029806F033FC011C381C06F0C9F8311CC7
:1025E000071C019806F02AFC011C381C06F040FD6F
:1025F000311C071C281C06F021FC0599051C0098BD
:1026000006F01CFC011C281C06F0B2F80499051CFD
:10261000019806F013FC011C281C06F0A9F8039988
:10262000051C029806F00AFC011C281C06F020FD7F
:10263000051C2000FFF75CFF2000079B67602360FC
:10264000A560069BE36009B0F0BD02000300002115
:10265000403202C39342FCD1704770B505000400BC
:102660000B68103503602800FFF7B2FE2800FFF763
:10267000ECFF200070BD000010B504001030FFF723
:10268000A7FE20006030FFF7A3FE2000B030FFF768
:102690009FFE230705D06D21034B044A044808F030
:1026A00011FE200010BDC04608ED0000F7FE00003E
:1026B00084EE00004B684360CB68C3604B694361A4
:1026C000CB69C36170470B0010B50400086811683E
:1026D0008AB010321033019303910592079006F0EF
:1026E000ADFB230001C369461800FFF7E3FF20009C
:1026F0000AB010BD70B505000C0004300431FFF7BE
:10270000D9FF280021002C302C31FFF7D3FF2800FF
:1027100070BDF0B514000D0097B002CC060001CDDD
:1027200006F0A6FC2900071C01A8FFF7C3FF210043
:102730000BA8FFF7BFFF3000694680C0FFF7DAFF44
:10274000300017B0F0BD70B505000C000430043146
:10275000FFF7D0FF280021005C305C31FFF7AAFFB3
:10276000280070BD70B505000C0004300431FFF77F
:10277000A1FF280021002C302C31FFF79BFF2800FF
:1027800070BDF0B514000D0097B002CC060001CD6D
:1027900005F0EEFF2900071C01A8FFF78BFF2100C1
:1027A0000BA8FFF787FF3000694680C0FFF7DAFF0C
:1027B000300017B0F0BD70B505000C0004300431D6
:1027C000FFF7D0FF280021005C305C31FFF772FF7B
:1027D000280070BDF0B514000D00A3B002CC0600B7
:1027E00001CD05F0C5FF2900071C01A8FFF7BAFFBE
:1027F000210017A8FFF75EFF3000694680C0FFF791
:10280000DAFF300023B0F0BDF0B515000F00AFB017
:10281000040002CD01CF06F02BFC3900061C01A8F4
:10282000FFF7C9FF290023A8FFF744FF200040C09D
:1028300001A90430FFF7BFFF200023A99030FFF764
:1028400039FF20002FB0F0BD70B506000400050070
:102850004136FF36280050351030FFF7B9FDAE4243
:10286000F8D1230705D06D21034B044A044808F032
:1028700029FD200070BDC04608ED0000B1FF00003A
:1028800084EE000070B50D00040019000560012AF7
:1028900005D08521084B094A094808F013FD10307E
:1028A000FFF7A6FD002D04DA4721064B064A07482C
:1028B000F3E7200070BDC0466B0001007900010005
:1028C000DE0001001AF2000059010100A5F300002A
:1028D000436810B5994201D1012A06D00621034B65
:1028E000034A0448FF3108F0EDFC10BD70FD000004
:1028F000AC02010081FE0000436810B5032B09D033
:1029000001220321FFF7E4FF064B074A0749084865
:1029100008F0D8FC0A6803681A604A685A608A6836
:102920009A6010BD4C0301007B030100FD02000012
:102930007B040100F8B543688D68CE68042B09D08C
:1029400001220421FFF7C4FF084B094A09490A483C
:1029500008F0B8FC002407683059291C06F06EFA0C
:1029600038510434102CF7D1F8BDC0464C03010097
:10297000F7040100FD0200007B0401004368F7B585
:102980004E688F680D69032B09D001220321FFF7E0
:102990009FFF0B4B0B4A0C490C4808F093FC00249A
:1029A000036801933959305906F062FB295906F042
:1029B0005FFB019B185104340C2CF3D1F7BDC046CA
:1029C0004C030100B2060100FD0200007B0401007F
:1029D000436810B5002B05DA4721074B074A084822
:1029E00008F070FC002102689B009B18934201D004
:1029F00002C2FBE710BDC0461AF20000AFF20000B1
:102A0000A5F30000F0B50024036845681B6887B093
:102A100001936B682F6B02932B6A05932B6C0493C5
:102A20006B6C03933959A86A06F008FA059B19598B
:102A300005F09EFE049B061C1959A86B06F0FEF9D2
:102A4000011C301C05F094FE039B195905F090FE03
:102A5000E96806F0F3F9029B195905F089FE019B1C
:102A600018510434402CDDD107B0F0BD4368890013
:102A70001B685A5803681B685A50704743688A009D
:102A80001B688901D25803681B68CA5070474368A5
:102A90008A001B6810B5D45803681A681C23594370
:102AA0008C5010BD436889001B685A5803681B6826
:102AB0005A50704710B588B001AB049302AB059330
:102AC0006B460400029101900790002104A8069330
:102AD000FFF7E8FF04A80121FFF7E4FF04A80221A3
:102AE000FFF7E0FF04A80321FFF7DCFF04A804219F
:102AF000FFF7D8FF04A80521FFF7D4FF04A806219B
:102B0000FFF7D0FF200008B010BD03688A001B68E3
:102B10009B184268506892680918914202D00022BE
:102B20001A607047FE229205FAE710B504000021F2
:102B3000FFF7EBFF20000121FFF7E7FF2000022154
:102B4000FFF7E3FF20000321FFF7DFFF2000042150
:102B5000FFF7DBFF20000521FFF7D7FF200006214C
:102B6000FFF7D3FF20000721FFF7CFFF2000082148
:102B7000FFF7CBFF20000921FFF7C7FF20000A2144
:102B8000FFF7C3FF20000B21FFF7BFFF20000C2140
:102B9000FFF7BBFF20000D21FFF7B7FF20000E213C
:102BA000FFF7B3FF0F212000FFF7AFFF10BD10B5F7
:102BB0004C6889688AB002AB0491019001A9099020
:102BC00006A80394069107930892FFF7AEFF0AB098
:102BD00010BD436889001B685A5803681B685A5027
:102BE000704710B54B68040088B0032B01D0FFF785
:102BF00085FA0B680190029301AB049302AB059335
:102C00006B460790002104A80693FFF7E2FF04A893
:102C10000121FFF7DEFF04A80221FFF7DAFF200001
:102C200008B010BD436889001B685A5803681B68C8
:102C30005A50704710B54B68040088B0032B01D080
:102C4000FFF75CFA0B680190029301AB049302ABAF
:102C500005936B460790002104A80693FFF7E2FF57
:102C600004A80121FFF7DEFF04A80221FFF7DAFF25
:102C7000200008B010BD70B528C81E686B698C00B4
:102C80001859E96806F0DAF86B68195905F070FD13
:102C9000305170BD00B58DB006AB03936B460A682A
:102CA00001900792CA68059009920A6902A80B92DE
:102CB000002101AA02920493FFF7DDFF02A801217F
:102CC000FFF7D9FF02A80221FFF7D5FF02A80321D1
:102CD000FFF7D1FF02A80421FFF7CDFF02A80521CD
:102CE000FFF7C9FF02A80621FFF7C5FF02A80721C9
:102CF000FFF7C1FF02A80821FFF7BDFF02A80921C5
:102D0000FFF7B9FF02A80A21FFF7B5FF02A80B21C0
:102D1000FFF7B1FF02A80C21FFF7ADFF02A80D21BC
:102D2000FFF7A9FF02A80E21FFF7A5FF0F2102A8B8
:102D3000FFF7A1FF0DB000BD436810B5994201D166
:102D4000012A06D00621034B034A0448FF3108F04C
:102D5000B9FA10BD70FD00009A08010081FE000064
:102D6000502210B54A430468890023689B184268C2
:102D700012688A581A6010331800FFF766FC10BDFD
:102D800030B50D0089B00400FFF776FC6B68032BAB
:102D900001D0FFF7C1F92B6804A8029301AB04939B
:102DA00002AB05936B460021069301940794FFF74D
:102DB000D7FF04A80121FFF7D3FF04A80221FFF7E2
:102DC000CFFF200009B030BD036810B51C68436810
:102DD00089001B6864182068595805F0C9FC2060F8
:102DE00010BD70B50CC815685A689B688C001959DD
:102DF000105906F03DF9285170BDF7B50B681768FA
:102E0000040015000E00181C391C019305F04CFE3F
:102E1000019B10361035391C2060E6606761E56162
:102E20006362381C06F00AF8011CFE20800505F0DC
:102E30003BFE60632000FEBD70B528C81E68AB690C
:102E40008C001859296905F0F9FFAB68195905F08C
:102E50008FFCEB69195905F08BFC305170BDF0B552
:102E60004B689FB0039353689668049313688F6808
:102E700005930B680C000290311C03980192069395
:102E800005F0DCFF0499051C381C05F0D7FF011C78
:102E9000281C06F0EDF805990C90381C05F0CEFFC3
:102EA0000699051C301C05F0C9FF011C281C06F002
:102EB000DFF806990D90049805F0C0FF0599051CF0
:102EC000039805F0BBFF011C281C06F0D1F816AFD3
:102ED0000FAB12AE0CAD0E90179338000BAB002168
:102EE00018930F95129516961995FFF76DFF3800F8
:102EF0000121FFF769FF38000221FFF765FFE36852
:102F00000993636803930E9B03980493A368049941
:102F100005930D9B06930C9B07932368089305F07C
:102F20008DFF0699041C059805F088FF011C201CE4
:102F300006F09EF807990F90059805F07FFF089915
:102F4000041C049805F07AFF011C201C06F090F880
:102F500008991090069805F071FF0799041C0398D2
:102F600005F06CFF011C201C06F082F8019B1190FB
:102F7000BB60099B30003B610FABFB61029B0021F2
:102F80000B930BAB12930AABB360029BBD61F36072
:102F90007760FFF751FF30000121FFF74DFF300050
:102FA0000221FFF749FF02981FB0F0BD10B509F0EC
:102FB000ABF806F03BFA011C05F0DAFBC0218905ED
:102FC00005F03CFFFE21890506F052F810BD10B552
:102FD000046889006418FFF7E9FF206010BD13B58D
:102FE0000400FFF7F5F901A800210194FFF7EFFFB6
:102FF00001A80121FFF7EBFF01A80221FFF7E7FF7E
:1030000001A80321FFF7E3FF01A80421FFF7DFFF79
:1030100001A80521FFF7DBFF01A80621FFF7D7FF75
:1030200001A80721FFF7D3FF01A80821FFF7CFFF71
:1030300001A80921FFF7CBFF01A80A21FFF7C7FF6D
:1030400001A80B21FFF7C3FF01A80C21FFF7BFFF69
:1030500001A80D21FFF7BBFF01A80E21FFF7B7FF65
:1030600001A80F21FFF7B3FF200016BD10B50468BB
:1030700089006418FFF79AFF206010BD436889003B
:103080001B685A5803681B685A5070470B6810B584
:1030900003600300040088B003AA0492103102AA5E
:1030A00010330291059204A801AA0021039306920D
:1030B0000793FFF7E3FF04A80121FFF7DFFF04A850
:1030C0000221FFF7DBFF04A80321FFF7D7FF04A8C5
:1030D0000421FFF7D3FF04A80521FFF7CFFF04A8C1
:1030E0000621FFF7CBFF04A80721FFF7C7FF04A8BD
:1030F0000821FFF7C3FF04A80921FFF7BFFF04A8B9
:103100000A21FFF7BBFF04A80B21FFF7B7FF04A8B4
:103110000C21FFF7B3FF04A80D21FFF7AFFF04A8B0
:103120000E21FFF7ABFF04A80F21FFF7A7FF200038
:1031300008B010BD30B550250F2403684D431B68FF
:1031400097B05D1943686C445B68240924018900C9
:1031500059182000FFF781FA21002800FFF796FF99
:1031600017B030BD10B504000521FFF7E3FF2000C4
:103170000621FFF7DFFF20000721FFF7DBFF20001C
:103180000821FFF7D7FF20000921FFF7D3FF200018
:103190000A21FFF7CFFF20000B21FFF7CBFF200014
:1031A0000C21FFF7C7FF20000D21FFF7C3FF200010
:1031B0000E21FFF7BFFF0F212000FFF7BBFF10BD5F
:1031C00030B50D0089B00400FFF72CF902AB059370
:1031D0006B462A6804A80392002101AA0492069370
:1031E00001940794FFF7A6FF04A80121FFF7A2FFAF
:1031F00004A80221FFF79EFF04A80321FFF79AFF0E
:10320000042104A8FFF796FF04A8FFF7ABFF2000F6
:1032100009B030BD502330B50F245943036897B02F
:103220001D6843686C441B68240924016D18200044
:103230005918FFF7DDF821002800FFF727FF17B026
:1032400030BD30B50D0089B00400FFF715FA6B688A
:10325000032B01D0FEF760FF2B6804A8029301AB9B
:10326000049302AB05936B460021069301940794E7
:10327000FFF7D0FF04A80121FFF7CCFF04A802212B
:10328000FFF7C8FF200009B030BD0000436870B5EB
:103290000C00032B09D001220321FFF74DFD0B4B3E
:1032A0000B4A0C490C4808F00DF805682800FFF798
:1032B000EDFE2800210050305031FFF7E7FE2800D6
:1032C0002100A030A031FFF7E1FE70BD4C030100EA
:1032D00072090100FD0200007B040100F0B5172413
:1032E000DFB002ABE4182409240126000023050006
:1032F0001136FF3603A930000393FFF7AEF9310012
:1033000020006F68FFF774F82000230001223900C5
:103310006030FFF7B7FA210020007031FFF768F83E
:103320006B68216E0093994209D001222800FFF7B3
:1033300003FD0F4B0F4A1049104807F0C3FF00264A
:103340002B680193009B9E420EDA2700C0372100B4
:103350003800FFF74DF850207043019B39001818D2
:10336000FFF794FE0136EDE728005FB0F0BDC046E0
:103370004C0301003D0B0100FD0200007B04010035
:10338000502330B50F245943036897B01D68436834
:103390006C441B68240924016D1820005918FFF79C
:1033A00027F821002800FFF771FE17B030BD30B5B7
:1033B00089B004000D00FFF77DF801AB049302AB68
:1033C00005936B4604A80021069302950194079487
:1033D000FFF7D6FF04A80121FFF7D2FF04A80221BE
:1033E000FFF7CEFF04A80321FFF7CAFF04A80421BA
:1033F000FFF7C6FF04A80521FFF7C2FF04A80621B6
:10340000FFF7BEFF200009B030BDF8B504000F0083
:1034100016001D00FFF718FA39002000FFF736FEEE
:10342000200031005030FFF731FE20002900A0308D
:10343000FFF72CFE20000699F030FFF727FE200052
:10344000F8BDF8B504000F0016001D00FFF714F9D1
:1034500039002000FFF71AFE200031005030FFF73E
:1034600015FE20002900A030FFF710FE2000F8BD57
:10347000F0B5644CA5444F24029304ABE41824092E
:1034800001922401002A05D139215F4B5F4A60482F
:1034900007F018FF029B002B12D14022200007F0FA
:1034A0008BFF21000DA8FFF705FB019B0DAA13CA96
:1034B00013C313CA13C312681A60564B9D44F0BD60
:1034C000A023DB000D91E0180DA9FFF779FEC323BF
:1034D0001B01E318180003930025FEF7EBFFA02360
:1034E000DB00E71829003800FEF72AFE06002A0054
:1034F00009A90DA8FEF758FF300009AA10300DA940
:103500000135FFF754FB102DE9D139002000FEF7FB
:103510007AFFA0231B01E618210030008C27FFF75B
:1035200046FF0025BF00C3231B01E0187119401995
:103530005035FFF7ABFDBD42F5D100240126210037
:103540000398FEF711FE019A0368A5005351029BF0
:10355000210003985D19FEF707FE0021029B103041
:103560000F9307AB099306AB0A9305AB06900B9339
:1035700009A80DAB0C93109411910D951296079517
:10358000FFF785FA012109A8FFF781FA022109A8AE
:10359000FFF77DFA032109A8FFF779FA042109A8AA
:1035A000FFF775FA052109A8FFF771FA062109A8A6
:1035B000FFF76DFA072109A8FFF769FA082109A8A2
:1035C000FFF765FA092109A8FFF761FA0A2109A89E
:1035D000FFF75DFA0B2109A8FFF759FA0C2109A89A
:1035E000FFF755FA0D2109A8FFF751FA0E2109A896
:1035F000FFF74DFA01340F2109A8FFF748FA072C0D
:103600009DD15AE744F1FFFF7D0D0100820D0100BD
:10361000800F0100BC0E000070B52F259AB06D44DC
:103620002D092D0140220400280007F0C5FE0021CD
:10363000002301AA081C995004331C2BFBD1210044
:10364000C1312300FF31260705D06D21074B084A01
:10365000084807F037FE01C38B42FCD168462300BF
:103660002900FFF705FF20001AB070BD08ED00002B
:103670000D10010084EE00000CC870B515685A6882
:103680008C001059996805F0D9FB285170BD0CC801
:1036900070B515685A688C001059996805F004FADD
:1036A000285170BDF0B5372595B004ABED180B6807
:1036B000040000934B682D0901938B682D01029340
:1036C000CB6802990393081C05F0B8FB0399061C0C
:1036D000081C05F0B3FB011C301C05F049F80099EB
:1036E000061C081C05F0AAFB0199071C081C05F024
:1036F000A5FB011C381C05F03BF8011C301C002602
:1037000005F036F8311C071C05F01EF8002830D0F3
:103710002800FEF7EDFE802212069446009B200052
:1037200063442B60019B63446B60029B6344AB600A
:10373000039BEB60FEF7DCFE06AB05AA00210B93B2
:103740000AA804AB0A920C930795089705940D9468
:10375000FFF79DFF01210AA8FFF799FF02210AA8A0
:10376000FFF795FF03210AA8FFF791FF200015B08E
:10377000F0BD2000FEF7BCFE26606660A660E66035
:10378000F4E70000F0B59724BDB004ABE4182409B9
:10379000240123000D00403307001800009201931C
:1037A000FEF7A6FE2B69032623646B691FA96364D9
:1037B000AB6904A8A364EB682295E3642B001C3377
:1037C0001F9307232393093325932096FFF709FAC4
:1037D0002A00283210231F920A221FA907A8229527
:1037E000239225932096FFF7FCF92A000D2334320B
:1037F00023931FA99B190AA81F922295259320960F
:10380000FFF7EFF9009B00251F93229306231FA9C2
:103810000DA8239525932096FFF70CFA0623009A0E
:103820001FA90C321F92009A10A82292259320966D
:103830002396FFF7FFF93800FEF7CAFD33002A0090
:1038400039001FA8FEF7A4FC04AA019919A8FFF7E4
:1038500006FB19A91FA8FFF74FF80A99109805F061
:1038600007FC0B990290119805F002FC0C9903904B
:10387000129805F0FDFB23003033051C180000935F
:10388000FEF736FEA56320000025029B009A236305
:10389000039B01996363E5632030FEF739FE230043
:1038A000103318000093FEF723FEE36A3200236111
:1038B000236A39006361636A1FA8A361A36AE36195
:1038C0000423FEF765FC009B19A91FA81B951C93F8
:1038D000FFF730F8144B0722390015931FA8330067
:1038E00013951495FEF754FC16AD20000199FFF7CF
:1038F000D9FE13AA21002800FFF7B1FA0DAB1A93E5
:1039000019A907AB1FA81B931D95FFF737F80623CE
:103910000A2239001FA8FEF73BFC1FA8FFF758F842
:1039200038003DB0F0BDC046C3F51C41F0B5F3B062
:1039300007936F23160008AA9B181B091B015D1C27
:10394000FF350700280001910093FEF741FD009B21
:103950003200C033180001990293FFF713FF079854
:1039600007F0C2FB0022354B0490059106F014FDD0
:1039700007F002FC019B0EAC0E93029B2100069007
:10398000E06028002361FFF785F9009B3200803357
:10399000290018000393FFF7F5FE019B21000E9309
:1039A000069B2800E360039B2361FFF773F9009BEC
:1039B00032004033290018000693FFF7E3FE019B15
:1039C00021000E93079B2800E360069B2361FFF70D
:1039D00061F9320029000098FFF7D4FE3800FEF7A5
:1039E000F7FC04980599019B00226360144B06F0D4
:1039F000CDF807F0C1FB029B039A23628023DB050D
:103A0000A362A363069BE0602364009B0AA863642F
:103A100009AB0A9308AB22630C9309970B940D979B
:103A2000FEF7F0FF0423032239002000FEF7B0FB6D
:103A30002000FEF7D5FB380073B0F0BD0000E03F7A
:103A40000000184010B504000421FFF7CAF9200057
:103A50000521FFF7C6F920000621FFF7C2F9200073
:103A60000721FFF7BEF920000821FFF7BAF920006F
:103A70000921FFF7B6F920000A21FFF7B2F920006B
:103A80000B21FFF7AEF920000C21FFF7AAF9200067
:103A90000D21FFF7A6F920000E21FFF7A2F90F2153
:103AA0002000FFF79EF910BD30B50D0004008BB06B
:103AB000FEF78EFC2A6803AB04926A6807930592AE
:103AC00001AB02AA06A80021069208930294099469
:103AD000FFF787F906A80121FFF783F906A802215D
:103AE000FFF77FF9032106A8FFF77BF906A8FFF788
:103AF000A9FF20000BB030BDF0B51F24B5B006AB58
:103B0000E418C36806005B682409049300232401B9
:103B10000193019B049A934239DA5023019A776802
:103B200053430293029A336894461B689B1805938B
:103B3000BB689D18FB6828686344196810350393B7
:103B400005F096FA07952500039B10351033069073
:103B5000206007A928000893FFF7A6FF3F69029B92
:103B60002068FF18396805F083FA06902065200068
:103B700007A91037603007950897FFF795FF2100D8
:103B800005985031FFF782FA019B0133C0E735B049
:103B9000F0BD836970B58D000400C169585905F006
:103BA0004DF9A368061CE168585905F047F9011C56
:103BB000301C04F0DDFD70BDF0B5036846681B687D
:103BC00085B001933300370000243033039324334E
:103BD0000C370293783621003800FFF7DAFF210016
:103BE000051C0398FFF7D5FF011C281C04F0C0FD3D
:103BF0002100051C0298FFF7CCFF291C04F0B8FD3A
:103C00002100051C3000FFF7C4FF011C281C05F033
:103C10002FFA019BA20001349850102CDBD105B083
:103C2000F0BD30B50C00AFB00500FEF7D1FB226946
:103C300007AB0C92A26903A80D92226A1092A26AA5
:103C40001192A26B1592226C1692A26C1992226D9F
:103C50001A92626E1E92E26E1F92626F2292E26F61
:103C60002392220090321268279222009832126822
:103C700028922200A0321268A8342B9222682C923B
:103C800002AA049301AB0295039205930695FFF7F0
:103C900093FF28002FB030BDF0B5036846681B685D
:103CA00085B001933300370000243033039324336D
:103CB0000C370293783621003800FFF76AFF2100A5
:103CC000051C0398FFF765FF011C281C05F0D0F9BF
:103CD0002100051C0298FFF75CFF011C281C05F061
:103CE000C7F92100051C3000FFF753FF011C281CF9
:103CF00005F0BEF9019BA20001349850102CDAD1D6
:103D000005B0F0BD036889001A68436880205B68CD
:103D100000065B581B18535070478B68C3600B69D3
:103D200003618B69C3610B6A03620B6B03638B6B6B
:103D300043630B6C03648B6C43647047F0B50C00F9
:103D400095B00500FEF744FB210001A8FFF7E5FF51
:103D50000024210002A8FFF71CFF2100061C0BA86D
:103D6000FFF717FF011C301C05F082F9A700013492
:103D7000E851102CEDD1280015B0F0BDF0B53C4C49
:103D80000D68A5443B4C06AB1600E4182B00A0368A
:103D90005033170019003200049006A80393FEF771
:103DA00092FC2B00A03302933B0050331A0002997F
:103DB00011A80193FEF787FC11AA06A948A8FEF7EF
:103DC000A8FC2409489B240149A960A85F93FEF739
:103DD00091FC230020005F9AA0331A6060A9B030E4
:103DE0000593FFF7ABFF3A0002991CA8FEF76BFCA6
:103DF0003200290027A8FEF766FC27AA1CA976A88E
:103E0000FEF787FC769B77A98EA88D93FEF772FC50
:103E100020008D9B8EA923656030FFF78FFF29005E
:103E2000019A32A8FEF74FFC3A0003993DA8FEF72D
:103E30004AFC3DAA32A9A4A8FEF76BFCA49BA5A945
:103E4000BCA8BB932600FEF755FC2000BB9BBCA979
:103E5000236050361030FFF771FF230032000599C0
:103E60000498FFF7EEFA0498034B9D44F0BDC0465A
:103E7000BCFBFFFF3F03000044040000F0B5C84C4A
:103E8000C84BA54403920AAA9B181B091C010B00EE
:103E9000F0330993039B0A90F0331A0002910CA8A7
:103EA00009990893FEF70FFC039A029917A8FEF7E9
:103EB0000AFC17AA0CA9BCA8FEF72BFC029B22A89F
:103EC00050330793039B079950331A000693B64D5E
:103ED000FEF7F9FB2299BC9805F0CAF80AABED1879
:103EE0008A230AAA1B019B18061CBDA91800FEF70D
:103EF00001FCAE480AAB23A9C018FEF7DBFBFFAB01
:103F0000FFA829005E6668306433FEF71CFC029B44
:103F10002DA8A0330593039B0599A0331A000493A1
:103F2000FEF7D1FBFFAB2D99586E643305F0A0F876
:103F30008A230AAA1B019B18FFA9061C68311800D6
:103F4000FEF701FC9A4B0AAA9B182EA91800FEF74F
:103F5000B1FBCD230AAADB009B181E608A23CE206A
:103F60001B019B18C00019008018FEF7ECFBDF2036
:103F70008F4B0AAA9B18C00019008018FEF79AFB05
:103F80002300F0331A000B93CD230AA9DB005B1842
:103F90001B68661CFF3613603000864FFEF718FA68
:103FA0000AAB8549FF18C9183800FFF7B6FEDA23B7
:103FB0000AAADB009B181B680AA9EB65CD23DB006E
:103FC0009B181B6F2B66DC23DB009B181B68EB66C2
:103FD000DD23DB009B181B682B67784B9B18784A06
:103FE000521812681A60774B774A5B181B68521890
:103FF000FB67764B12685B181A609323744A1B01A7
:10400000521812685B181A60FC23724FDB007F188D
:104010005B181F60704B714A5B181D60FD23DB004D
:104020005B1852181A606E4B3E605B181E60FC23D2
:10403000DB005B181800FFF72FFE039A099938A8D8
:10404000FEF741FB089A029943A8FEF73CFB43AAFE
:1040500038A9D3A8FEF795FB049A07994EA8FEF756
:1040600032FBFFA84EAAD3A9F030FEF7B3FB069AA5
:10407000059959A8FEF727FBFFA9380059AAF03186
:10408000FEF7C2FBE5212000524B0AAA9B181B68D1
:10409000603EC90033608918B030FFF7C2FD069A50
:1040A000099964A8FEF70FFB089A07996FA8FEF715
:1040B0000AFB6FAA64A9EAA8FEF763FB039A0599B5
:1040C0007AA8FEF700FBAA230AA8DB001B18180039
:1040D0007AAAEAA9FEF77EFB049A029985A8FEF760
:1040E000F2FAAA230AA9DB005B181900FC230AA82C
:1040F000DB001B18180085AAFEF786FBFC232000B6
:104100000AAADB009B181B683349236589186030B5
:10411000FFF787FD049A099990A8FEF7D4FA089A48
:1041200005999BA8FEF7CFFAFFA89BAA90A9083093
:10413000FEF727FB069A0299A6A8FEF7C4FA274BBA
:104140000AA81B18FFA91800A6AA0831FEF742FB0F
:10415000039A0799B1A8FEF7B6FA204B0AA95B1893
:1041600019002800B1AAFEF74FFB0F4B0AAA9B18B3
:104170001B68200023608A2327001B019B1819005D
:104180001030FFF74EFD0B9B503700933A00230091
:1041900031000A98FFF739F90A98124B9D44F0BD97
:1041A00034F5FFFF670900009C080000F8080000D4
:1041B00028090000A4080000740600001C09000083
:1041C000FC060000040700000C0700002C0900009A
:1041D0001407000024070000E4070000DC050000CD
:1041E000EC070000CC0A000070B50CC815685A68CE
:1041F0009B688C001959105904F0BAFA285170BD07
:1042000010B504000021FFF7EFFF20000121FFF7A8
:10421000EBFF20000221FFF7E7FF20000321FFF75B
:10422000E3FF20000421FFF7DFFF20000521FFF757
:10423000DBFF20000621FFF7D7FF20000721FFF753
:10424000D3FF20000821FFF7CFFF20000921FFF74F
:10425000CBFF20000A21FFF7C7FF20000B21FFF74B
:10426000C3FF20000C21FFF7BFFF20000D21FFF747
:10427000BBFF20000E21FFF7B7FF0F212000FFF743
:10428000B3FF10BD10B50C68496888B0039169464A
:1042900001AB0090079004A8029404910593069244
:1042A000FFF7AEFF08B010BD70B514000D0006009A
:1042B00086B011682868103404F05AFA0494340067
:1042C000103402903060103520000395FEF780F81E
:1042D000200001AA03A9FFF7D5FF300006B070BD8A
:1042E00070B55024036861431D6843686D181C68ED
:1042F00086B06418216828682E0004F039FA103658
:10430000103402900396049401AA286003A9300097
:10431000FFF7B8FF06B070BD10B504000521FFF728
:10432000F1FC20000621FFF7EDFC20000721FFF73C
:10433000E9FC20000821FFF7E5FC20000921FFF738
:10434000E1FC20000A21FFF7DDFC20000B21FFF734
:10435000D9FC20000C21FFF7D5FC20000D21FFF730
:10436000D1FC20000E21FFF7CDFC0F212000FFF72C
:10437000C9FC10BD30B50D0089B00400FEF728F867
:1043800002AB05936B462A6804A80392002101AA98
:104390000492069301940794FFF7B4FC04A801214A
:1043A000FFF7B0FC04A80221FFF7ACFC04A803212E
:1043B000FFF7A8FC042104A8FFF7A4FC04A8FFF75A
:1043C000ABFF200009B030BDF0B500248B6885B08C
:1043D00001938B690F6902930B6B0E6A0390009334
:1043E000019B381C195904F029FD029B051C195921
:1043F000301C04F023FD011C281C04F039FE009938
:1044000004F01CFD039B18510434402CE8D105B086
:10441000F0BD70B550264F24BAB003684E434168D2
:104420006C441D6824094B682401AD1920009E19B5
:104430001031FDF7DDFF31002600220001A8FEF754
:10444000DCFC019B5036236560342000FDF7C0FF83
:104450006A46200002A9FFF7B7FF31002800FEF7E7
:1044600015FE3AB070BD0000F0B54F24D9B002ABD4
:10447000E41824092401466805002000FDF7B8FF70
:1044800020002300012231006030FEF7FBF92100FB
:1044900020007031FDF7ACFF6B68226E01939342F0
:1044A00005D0144B144A1549154806F00BFF00239C
:1044B0002E680093009B019A934217DA2700C037B9
:1044C00021003800FDF794FF31003A0003A8FEF701
:1044D00094FC3000039B1030336002AA04A9FFF75C
:1044E00073FF009B503601330093E3E7280059B077
:1044F000F0BDC0469B100100D0100100F202000088
:104500007B04010010B504000721FFF7B5F8200077
:104510000821FFF7B1F820000921FFF7ADF82000CE
:104520000A21FFF7A9F820000B21FFF7A5F82000CA
:104530000C21FFF7A1F820000D21FFF79DF82000C6
:104540000E21FFF799F80F212000FFF795F810BD15
:1045500030B50D008BB00400FDF73AFF02AB0793B6
:104560006B462A6806A80392AA680021049201AA51
:104570000692089301940994FFF77EF806A801219A
:10458000FFF77AF806A80221FFF776F806A80321BC
:10459000FFF772F806A80421FFF76EF806A80521B8
:1045A000FFF76AF8062106A8FFF766F806A8FFF7E6
:1045B000A9FF20000BB030BDF0B5502527246A4379
:1045C0009FB04D6902ABCF68E4184B68AD182968FD
:1045D0009B180600381C019304F030FC24092401C8
:1045E00003902060200004A9103510300495069730
:1045F000FFF7AEFF300022000199FFF755FE3000B3
:104600001FB0F0BD0A00502130B50F2497B05143C0
:1046100003686C441D68240924016D18416820005A
:10462000FFF7CAFF21002800FEF730FD17B030BDAC
:1046300000B58DB006AB03936B460A6801900792F4
:10464000CA68059009920A6902A80B92002101AA82
:1046500002920493FFF7D6FF02A80121FFF7D2FFD1
:1046600002A80221FFF7CEFF02A80321FFF7CAFF2D
:1046700002A80421FFF7C6FF02A80521FFF7C2FF29
:1046800002A80621FFF7BEFF02A80721FFF7BAFF25
:1046900002A80821FFF7B6FF02A80921FFF7B2FF21
:1046A00002A80A21FFF7AEFF02A80B21FFF7AAFF1D
:1046B00002A80C21FFF7A6FF02A80D21FFF7A2FF19
:1046C00002A80E21FFF79EFF0F2102A8FFF79AFF15
:1046D0000DB000BDF0B52724CDB008ABE418002321
:1046E00024090490240101935023019A200053438C
:1046F0000293049B029A1B6894461B689B180693BE
:10470000049B019A5D6829006B681C316344079320
:10471000EB680393FFF750FF2B6C029AAF6B9E1868
:104720003168381C04F08AFB103623000A960C9777
:10473000260027006033099020650AA9180050362A
:10474000A0370593FFF704FF320021003800FFF780
:10475000ABFD029B6A6C3900D2182000FFF7A4FD64
:104760002168039804F06AFB230010330A93039B2B
:10477000099020650AA905980C93FFF7E9FE32001D
:1047800020000799FFF790FD21000698FEF77EFCB8
:10479000019B01330193102BA6D14DB0F0BDF0B5B4
:1047A000272406000027A1B004ABE418C36824093D
:1047B0005B6824010293029B9F421FDA50233268F8
:1047C0007B4312680137D218039272685168D5682A
:1047D0000191ED182968019804F030FB05902060E4
:1047E0002000019B06A91035103008930695FFF7AD
:1047F000AFFE21000398FEF749FCDCE721B0F0BDD5
:10480000026810B5146840688B00E418FFF7C1F91E
:10481000206010BD10B504000221FFF7F1FF200059
:104820000321FFF7EDFF20000421FFF7E9FF20003F
:104830000521FFF7E5FF20000621FFF7E1FF20003B
:104840000721FFF7DDFF20000821FFF7D9FF200037
:104850000921FFF7D5FF20000A21FFF7D1FF200033
:104860000B21FFF7CDFF20000C21FFF7C9FF20002F
:104870000D21FFF7C5FF20000E21FFF7C1FF0F211B
:104880002000FFF7BDFF10BD10B54C688EB0079437
:10489000CC6805AB08944C69C96900900C916946D5
:1048A0000490019101A80021029303920B94FFF759
:1048B000A7FF012101A8FFF7A3FF01A8FFF7AAFFA7
:1048C0000EB010BD30B5040025008DB00A0001A85F
:1048D000FDF7F9FE019B103523602800FDF778FDF8
:1048E00028006A4602A9FFF7CFFF20000DB030BDB7
:1048F000F0B52724C7B002ABE41824092401260030
:10490000436805000193A036002B31D1002330000D
:1049100003A90393FDF7A1FE200031005030FDF7FD
:1049200067FD002303A920000393FDF796FE266D83
:104930002068311C03F0F4FE002817D0301C03F06F
:104940006FFC2300011C061C0390FC2060338005D3
:10495000049304F0A9F80690200004A92660103002
:10496000FFF7F6FD21002800FFF77EFD47B0F0BD00
:10497000019B002B06DC9C21184B194A1948FF317A
:1049800006F0A0FC03682000B0300093FDF720FD86
:1049900020000099FFF796FF21003000FEF776FB1C
:1049A0005023019A009F5343009A5037D318019324
:1049B000019BBB42B0D02300503318003900009354
:1049C000FFF780FF31002000009AFFF76DFC210007
:1049D0003000FEF75BFB5037EAE7C04609F0000005
:1049E00016130100A8F10000F0B5754C0D00A544A8
:1049F0003F2406ABE4182409240126004136FF3683
:104A000002903000FFF75EFF290020005031FFF7D1
:104A100059FF8C239B00E3182200180031000493F7
:104A2000FFF742FC2B00A033190030000693FFF77C
:104A300049FF2B00F033190020000593FFF742FFD8
:104A40002300C133FF331800220031000393FFF726
:104A50002BFC039A20000499FFF726FCA0239B005F
:104A6000E318210018000793FDF7C2FC00230EA9EC
:104A700020000E93FDF7F1FDA0239B00E158206874
:104A8000029F03F04DFE002800D178E02A00802725
:104A9000103220000F92A0222B683F06DB19520033
:104AA0005130A3500FA9FF300E93FFF763FCE022B3
:104AB0002B6D5200DB19A3500B9323002900D13337
:104AC000FF33603118000C910CA91F00FFF752FC56
:104AD0008022069B12061B68B0359B188C22920020
:104AE000A350089390239B00E01809A90995FFF7AC
:104AF00041FC059B039A310020000093049BFEF7C4
:104B000084FC07990498FDF773FC2500049938008C
:104B1000FDF76EFCA02261355200FF35A45039002C
:104B20002800FDF765FCFC340298FDF78DFE636CF0
:104B300029000493049A039B38005A60FDF758FC3F
:104B4000029B00210B930BAB0E93039B0EA80F93BC
:104B500008AB1093029B1193FFF75BFC01210EA899
:104B6000FFF757FC02210EA8FFF753FC03210EA804
:104B7000FFF74FFC0298C9239B009D44F0BD002322
:104B80000EA903980E931034FDF767FD03993000CA
:104B9000FDF72EFC31002000FDF72AFC0298FDF7FE
:104BA00053FE21003000FDF723FC029C4134FF340A
:104BB000380031005037FEF769FABC42F8D1D9E726
:104BC000DCFCFFFFF0B550273F2445684F43290028
:104BD000BBB004ABE418036824091B682401DB198B
:104BE00002936B692000DB1930310393FDF700FC61
:104BF0002B0090331A682100D21905A8FDF763FD38
:104C0000059B26002365230060331800019350366E
:104C1000FDF7DEFB019804AA06A9FFF735FEA035D3
:104C2000320020000399FFF73FFB2A682100300083
:104C3000D219FFF739FB31000298FEF727FA3BB093
:104C4000F0BD00003F23F0B5594CA544059206AADB
:104C50009B181B091E0102910C910E913100042238
:104C60000023F0310191039011920198059A0CA94B
:104C70000F93FFF783F8019908AF0791089107A9EF
:104C80000D9106A90E9101990CA80F9100210C9786
:104C9000FFF726FB0CA80121FFF722FB0CA802213D
:104CA000FFF71EFB300035000299E1301035F0317E
:104CB000FF300490FDF79CFB04992800FDF798FB5A
:104CC0008221C900741820002900FDF791FBFC2106
:104CD00089007518019905982967D42189007050B9
:104CE000E0208000210030180590FDF781FBD520E1
:104CF0000023042280003418286F0F93E067029885
:104D00000CAB19000C900E9011923000019AFFF735
:104D100035F8D4218900735805990193019A049BB1
:104D20001A6188239B00F31818000193FDF760FBBC
:104D30009C239B00F3180293E36F03980593059A55
:104D4000029B1A60A4239B00F5182E60FDF794FCCB
:104D5000A822049B92001B69B4186361B4239B00D2
:104D60000199F018FDF744FB029B38001A68CC2328
:104D70009B00F3181A60D0232A689B00F3181A606E
:104D8000039B0021079307AB089306ABBB60039B13
:104D90007C60FB60FFF716FF38000121FFF712FF70
:104DA00038000221FFF70EFF0398024B9D44F0BD2F
:104DB0003CFBFFFFC4040000F0B5BA4C0D00A54455
:104DC00067240390A02008ABE41824092401C00044
:104DD0002018160005900B000A002800E133F0307F
:104DE00091324131FF33FF32FF3100900598FEF7D9
:104DF0000CFB8C23BE219B00EB1807221793032387
:104E00000901671838001B9217A9093218931A95DF
:104E10001D92FEF716FA0A20C8211B908900AF20C8
:104E20006B181022179303230001201817A9189359
:104E30001A951D920790FEF704FA8220C0002B18E5
:104E4000A02017930323102200011A95251828008B
:104E5000189317A90A331B931D92FEF7F2F99122BA
:104E6000002003231201A2181B9006301D9017A9E1
:104E70001000179618931A960892FDF781FF0323E6
:104E800018931B938223320006201B011A96E61802
:104E900017AB19000C321D9030001792FDF770FF10
:104EA0000398FDF7BFFA03230022039917A8FDF723
:104EB000D7FA3A0020000599FFF7C4FE210017A891
:104EC000FEF7E4F9C8200023C00020180CA90C93B9
:104ED0000490FDF7C2FBA0231B01E158E13BFF3B1F
:104EE000E05804F0C5F883221201A318E132FF3222
:104EF0000EAF0E907B60A318BB60A0239B00E05018
:104F0000E0180690A42080000FA92018FEF7CCFD21
:104F1000306D8826296D04F0ABF83601A319E1360F
:104F200012ADFF3612906B60A319AB60A0235B003B
:104F3000E0502000513013A9FF30E618FEF7B4FD11
:104F40008C2000012318E130FF3022181168186806
:104F500004F08EF88D221790206020001201A31813
:104F6000E132FF32189318A9A31810301993FEF7F5
:104F70009BFDF02080002018099004982300320047
:104F8000069900900998FEF740FA099A0599069843
:104F9000FEF774FFB420C822800092002318A218E4
:104FA000A030211800923000069AFEF72EFA042352
:104FB0000322039917A8FDF753FA00237B60189B7F
:104FC000FE60042B0AD00122042117A8FDF7B4FECD
:104FD000354B364A3649374806F074F9179B280096
:104FE0000C930CAB12930BABAB6017ABEB606F6029
:104FF000FFF7D5FBCD2300261B01E318180039006D
:1050000006930E96FDF729FB290004981296FDF7EA
:1050100024FB294B17A920001793FDF71EFBE6235D
:10502000DB00E618049A230006993000FEF709FA1F
:1050300003230722039917A8FDF712FA2000059908
:10504000FFF7D2FC320021000498FFF7FBFD089B1C
:10505000AB60079BEB60049B2B61189B032B07D075
:105060000122032117A8FDF767FE0F4B134AB1E792
:10507000179B38000C930CAB3B600BABBB6017ABC2
:10508000FB607D60FEF738FD06230A22039917A80E
:10509000FDF7E6F917A8FEF721F90398084B9D44A0
:1050A000F0BDC0465CF2FFFF4C0301006315010038
:1050B000FD0200007B040100C3F51C41181801002B
:1050C000A40D0000F0B5494C1600A54407936F23CA
:1050D00008AA9B18A0221B091B0152019D1807005A
:1050E000280001910093FDF79DF9009AF023944662
:1050F0001B0163443200180001990293FFF75CFE24
:10510000079805F0F1FF0022394B0490059105F056
:1051100043F906F031F8019B0EAC0E93029B21007F
:105120000690E06028002361FFF782FA009AA0232E
:1051300094461B0163443200290018000393FFF7D3
:105140003BFE019B21000E93069B2800E360039B1E
:105150002361FFF76DFA009AA0239446DB006344B5
:105160003200290018000693FFF726FE019B21005C
:105170000E93079B2800E360069B2361FFF758FA14
:10518000320029000098FFF717FE3800FDF74AF9B2
:1051900004980599019B00226360164B04F0F6FC0D
:1051A00005F0EAFF029B039A23628023DB05A362DA
:1051B000A363069BE0602364009B0AA8636409ABB9
:1051C0000A9308AB22630C9309970B940D97FFF792
:1051D00081FA0423032239002000FDF741F9200061
:1051E000FFF786FB3800044B9D44F0BD74E6FFFFDB
:1051F0000000E03F000018408C190000F0B5674C3B
:105200000500A5444724019304ABE4182409009247
:105210002401002A05D13921614B624A624806F017
:1052200051F8019B002B14D1A023DB00E61840228B
:10523000300006F0C1F82A0031002000AB69FEF70B
:1052400075FB40222100009806F0B6F8574B9D44AC
:10525000F0BDF0231B010C91E0180CA9FDF7B0FF85
:10526000A0231B01E7183800FDF7DCF80026F02327
:105270001B01E318310018000293FCF761FF3200B4
:10528000039008A90CA8FDF78FF8039808AA10301E
:105290000CA90136FDF78BFC102EE8D1A023DB0012
:1052A000E61830000299FDF7AEF82A003100AB692C
:1052B0002000A026FFF706FF0025F600A0231B0113
:1052C000E018611940195035FDF7E0FEB542F5D1FF
:1052D0000024012621003800FCF732FF009A036801
:1052E000A5005351019B210038005D19FCF728FFF0
:1052F0000021019B10300E9306AB089305AB099378
:1053000004AB05900A9308A80CAB0B930F94109173
:105310000C9511960695FDF7B1FB012108A8FDF744
:10532000ADFB022108A8FDF7A9FB032108A8FDF7A2
:10533000A5FB042108A8FDF7A1FB052108A8FDF79E
:105340009DFB062108A8FDF799FB072108A8FDF79A
:1053500095FB082108A8FDF791FB092108A8FDF796
:105360008DFB0A2108A8FDF789FB0B2108A8FDF792
:1053700085FB0C2108A8FDF781FB0D2108A8FDF78E
:105380007DFB0E2108A8FDF779FB01340F2108A849
:10539000FDF774FB102C9DD158E7C046ACEBFFFF26
:1053A0007D0D0100F31B0100800F0100541400006B
:1053B000F0B56725BDB0019313AC04ABED18230025
:1053C0000391060083CA83C383CA83C307AB0893D0
:1053D00006AB0CAF0021099308A805AB0A9306940D
:1053E00007970B97FDF742FB012108A8FDF73EFB4D
:1053F000022108A8FDF73AFB032108A8FDF736FBB8
:10540000042108A8FDF732FB052108A8FDF72EFBB3
:105410002D09019B2D01BB612B0040334022180058
:105420000399029305F0C8FF2800FCF7D1FF002282
:105430000023111C5A510433402BFBD18022D2008F
:105440003300B218300705D06D210C4B0C4A0D48C3
:1054500005F038FF02C39342FCD13B00220083CB0E
:1054600083C283CB83C2019B2000A3612A00330047
:105470000299FFF7C3FE30003DB0F0BD08ED00001B
:10548000F31D010084EE0000F0B53A4C0121A54463
:105490000D202F2400F0C0FF9621374D6C442409C5
:1054A00028008901240101F005FC280001F004FC1A
:1054B000002803D10A3000F027FEF6E728002F4924
:1054C00001F090F89C231B01E61802AF3900300070
:1054D000FDF785FD01A800210197FDF7C7FD01A893
:1054E0000121FDF7C3FD01A80221FDF7BFFD01A8C1
:1054F0000321FDF7BBFD01A80421FDF7B7FD01A8BD
:105500000521FDF7B3FD3A001D4B31002000FEF7E9
:105510000DFA28001B4901F065F828001A4901F02E
:1055200061F83A0031002000154BFFF741FF80235E
:10553000DB00E7181A002100380005F03DFF3800B5
:10554000FCF7B2FE2800104901F04CF831002000B1
:10555000FEF762F88023E0221B01E51821005200CB
:10556000280005F029FF2800FCF7EAFE074B9D44C0
:10557000F0BDC046D4F5FFFFCC0C0020811E010019
:10558000CDCCCC3D9E1E0100AB1E01002C0A0000BC
:1055900070470000012110B52822114B49421148E3
:1055A00000F0EEFB00231048104AFE218263C26522
:1055B0000F4AC3634266020003644364C364036525
:1055C0004365002389056C328164138009490A4AC6
:1055D000836503668366036702F01AFE10BDC0464A
:1055E000B8030020C00200209C0200200B001027FE
:1055F0000000FF7F9155000000000020F0B504007E
:1056000085B01E000AAB1B78103001930BAB1B78E2
:10561000170002930CAB1B780D00039300F0C2F847
:105620002000243000F0BEF8220000234832A3639B
:10563000E363236463641370537063729D4205D106
:105640002721084B084A094805F03CFE2000019B31
:1056500025606371029B2771E371039BA67123721E
:1056600005B0F0BDBE1E0100CF1E0100231F0100CA
:1056700030B5040085B002AD00680291039201F0DC
:10568000B7F86B79227AE17920680093002301F062
:105690004BFA2979029A206801F0CEF8206801F0CF
:1056A0009DF805B030BD000007B5837A00910192E6
:1056B000002B07D09A070AD5EFF310835A425341C3
:1056C000C37272B60099019AFFF7D2FF07BDDB07DC
:1056D000F8D5C368014A9BB29360F3E70018004015
:1056E000837A002B05D09A0704D5C37A002B00D00B
:1056F00062B67047DB07FCD5C368024A9BB2D36031
:10570000F7E7C0460018004010B5006801F079F8CE
:1057100010BD00001FB5094A094B0A491360002358
:1057200093800293013301931633009316220133C1
:105730000548FFF763FF05B000BDC04678030020B1
:1057400000093D00300C00202C030020084B196894
:10575000002909D1EFF31080064A002803D172B660
:10576000BFF35F8F013111701A6801321A60704700
:105770008403002080030020084B1A68002A0CD004
:105780001A68013A1A601B68002B06D1044B1B787B
:10579000002B02D0BFF35F8F62B6704784030020F6
:1057A00080030020FF2310B50370C02300210400F4
:1057B0009B004170418083800C22083005F018FE68
:1057C000200010BD01230A0010B51A40194208D06C
:1057D0000C4A1370033343708368002B00D0984742
:1057E00010BD0223194204D006490B70C3684270F1
:1057F000F3E704231942F3D0024A137003334370D2
:105800000369EAE74E48004110B5FFF79FFF0C4BD4
:105810001B8C1B071B0F0B2B0FD80A4A99008858AB
:1058200000280AD00F2408490A78A24313430B70BA
:10583000064B1978C9B2FFF7C5FFFFF79DFF10BDF2
:1058400000480041880300203F4800414E48004185
:1058500000207047F8B505000E0017000024BC4278
:1058600008D02B682800315D1B689847002801D0BC
:105870000134F4E72000F8BD70470300FC33196AD7
:10588000DA69914203D01B6AC018007E704701207C
:105890004042FBE70300FC33D8691B6AC01A01D5FC
:1058A0000130FF3070470000F7B50193FA238027DD
:1058B000002504009B008360114B7F0008330E001D
:1058C00045602900009203603A00183005F090FD11
:1058D00023002000FC332130DD613A001D622900E5
:1058E000FF3005F085FD87239B00E3185D609D6018
:1058F000009B20002375019B2661A5756375FEBD85
:10590000881F01008A2300229B00C1540C3BC3184E
:105910005A609A600123837570470200FC32536815
:1059200010B501339468DBB29C4202D05468015533
:10593000536010BDF7B50193002304001500180053
:105940009A422FD02200FC32D361206913620122D7
:1059500000F0AEFF002826D02700206901F02AF8C9
:10596000183701003800FFF7D8FF01262069B5423B
:105970000ED000F07DFF0221206900F083FF206936
:1059800001F018F801003800FFF7C7FF0136EDE716
:1059900000F065FF019B002B03D00321206900F07C
:1059A00071FFE8B2FEBD0500FBE710B50123FFF76C
:1059B000C1FF10BD10B50300827D002082420ED0D1
:1059C000872292009C186268A4680132D2B2A24277
:1059D00005D02133FF331800FFF79FFF012010BDD2
:1059E0000300FC3399685A68914206D09A68805C3B
:1059F0009A680132D2B29A60704701204042FBE7B8
:105A000000228A2370B59B00827505000E00C15CE0
:105A1000006900F04DFF002806D10321286900F03D
:105A200031FF0224200070BD872328009B00EA1864
:105A3000536894682130FF301C1B01D50134FF34BA
:105A4000002C0ED02C69FFF7CBFFC1B2200000F074
:105A50006DFF0028E8D10321286900F013FF03241B
:105A6000E0E7002EDED00321286900F00BFFD9E724
:105A700010B50121FFF7C4FF10BD10B51830FFF7B6
:105A8000AFFF10BD70B50400006900F071FF002881
:105A900014D0206900F07AFF002810D0206900F0AF
:105AA000E7FE0321206900F0EDFE8C239B00E55802
:105AB000002D39D10023FC34E361236270BD2069DD
:105AC00000F06EFF002809D0206900F064FF002874
:105AD00004D0206900F069FF0028DFD0206900F0C1
:105AE0005FFF002826D1206900F04BFF0028E5D099
:105AF000206900F05AFF002837D087239B00E21866
:105B0000536892689B1A01D50133FF33FF21002BA4
:105B100005D020002130FF30FFF762FFC1B22069BD
:105B200000F017FFA075C9E7236820001B6998479C
:105B3000A847BFE7206900F09BFE2069032100F021
:105B4000A1FE206900F031FF0028B7D08723002292
:105B50009B00E3185A609A600123A3758B239B0076
:105B6000E3589342AAD09847A8E72200FC32D369B1
:105B7000126A0133DBB22069934206D100F06FFE56
:105B80000321206900F07EFE98E700F013FF01007A
:105B900020001830FFF7C1FE206900F069FEEFE732
:105BA00010B50248FFF76EFF10BDC046B8030020D5
:105BB00010B51523142202490248FFF775FE10BDE7
:105BC0002C0C0020B803002013B56B460268D97175
:105BD0000733546819000122A04716BD7047000022
:105BE000FA239B0010B583600C4B0021083303603F
:105BF0000B4B040003610B4B416083610A23C361BB
:105C0000013B0362073B818243628162C16201639F
:105C10004163816300F0B1FF200010BDAC1F0100A3
:105C200000127A002C03002070B504000E0015004D
:105C30000021C06900F020FC62692169A069FFF7BA
:105C400033FD3100A069FFF75FFD2900A069FFF770
:105C50005BFD0500A069FFF743FDE069012100F04D
:105C60000BFC280070BD7F2310B500221940FFF700
:105C7000DBFF10BD10B504001321FFF7F4FFE36A4A
:105C8000C01A10BD036810B51B69040098470028AE
:105C900007D0E36A002101332000E362FFF7E3FF4E
:105CA00010BD01204042FBE7F7B50D002221140092
:105CB0000600FFF7D8FF03190700FF2B01D9FF24C7
:105CC000241A2B190193019B9D4206D02A7880212A
:105CD0003000FFF7A9FF0135F5E73A193000A2219E
:105CE000D2B2FFF7A1FF2000FEBD036870B51B69AB
:105CF00004009847002810D00D212000FFF7B3FFC3
:105D0000002106002000FFF7AEFF050032008D21C4
:105D10002000FFF789FF280070BD01204042FBE70B
:105D200010B50248FFF75CFF10BDC046EC0500202F
:105D30007047704770B50C00050028220021200034
:105D400005F056FB0B222000084906F028FA002334
:105D50000122E372E260EA686362002322610322A7
:105D6000A361E361024B6261236270BDD01F010039
:105D70000AD7233C10B5040002F0B8F9200010BD8A
:105D800010B5034C08340460C1604271836010BDDB
:105D9000D81F0100F8B505000F001E00417980688A
:105DA0001400FFF7AFFDA868390003681B68984727
:105DB000A868FFF75DFE32006979A868FFF7F5FD76
:105DC000A619B44206D0A86803685B69984720709A
:105DD0000134F6E70120F8BDF7B50D0017000021EA
:105DE0001822040005F004FB06220021684605F095
:105DF000FFFA06236A4628003900FFF7CBFF6B46FF
:105E00006A465B7810781B021843D37896781B0299
:105E10001E43537915791B021D4300B236B22DB2D1
:105E20001A2F25D007D80E2F22D0142F20D0082FBC
:105E300005D02000FEBD282F01D02E2FF9D105F06E
:105E4000FDF80022184B03F0A1FE206061603000D5
:105E500005F0F4F80022144B03F098FEA060E16016
:105E6000280005F0EBF800220F4B03F08FFE17E03F
:105E700005F0E4F800220D4B04F08EFA206061601A
:105E8000300005F0DBF80022084B04F085FAA06032
:105E9000E160280005F0D2F80022044B04F07CFAFF
:105EA00020616161C5E7C046000059400000B03F75
:105EB00030B5202287B00C000500081D002105F038
:105EC00097FA24232360EB6863600323A36000F048
:105ED000E5F81A22290020616846FFF77DFF009847
:105EE000019905F049F960610298039905F044F9B8
:105EF000A0610498059905F03FF9E061012007B021
:105F000030BD000010B5024801F0D0FF10BDC04602
:105F10002806002010B5024801F0C8FF10BDC04699
:105F200024090020F7B501240326154F1549380030
:105F300000F0BEFB1449154800F0BAFB144915489F
:105F400000F0B6FB1449154800F0B2FB144915489F
:105F500000F0AEFB144D1549280000F0A9FB3900F4
:105F60002300009600220194114801F035FF29001A
:105F700000961E231F2201940E4801F02DFFF7BD4D
:105F8000200C002000080042000C0042240C0020DD
:105F900000100042280C0020001400422C0C0020AD
:105FA00000180042300C0020340C0020001C00427D
:105FB000280600202409002070B50024094D0A4B52
:105FC0001B68A34200D870BD084E2A6833691A4284
:105FD00005D0074BA200D35898472B683361013492
:105FE0000435ECE77C0C0020C00C002000180040B9
:105FF000380C0020054B10B51B6C002B00D09847C7
:106000000123034AD1780B43D37010BD380C002014
:1060100000180040FEE70000034B10B51B68002B82
:1060200000D0984710BDC046C40C00200F4A10484D
:10603000110010B50F4B824202D0934209D11300D8
:10604000824209D100F084F802F02AF8FEE710CB72
:1060500010C18142FBD3F3E7074A8B42F2D0002103
:10606000064B9A42EED202C2FBE7C0460000002077
:10607000800200206829010080020020CC1200204C
:1060800010B500F062F8002801D100F053F810BDFF
:10609000014B18607047C046C40C0020014B1868C3
:1060A0007047C046C80C0020F7B51348012284464B
:1060B0001249134C8E68636805689B0E1340019269
:1060C00088686268019F920E3A4067463F68934233
:1060D0000ED1BD420CD186420AD35B19FA2548681D
:1060E000AD00861B07486B437043000DC018FEBD12
:1060F0003D0013000600E3E7C80C002010E000E0BC
:1061000000ED00E05555000070B5041E11D0FFF7FA
:10611000CBFFFA260500B60000F016F8FFF7C4FF23
:10612000401BB042F8D3FA23013C9B00ED18002C31
:10613000F4D170BD10B5034A13680133136000F049
:106140007DFA10BDC80C0020704700207047000089
:106150001E2270B546484749436893431C3A13438F
:10616000436008238C6923438B61434C434B9C82DF
:106170009C8A14439C82DC681442FCD00124404A6F
:1061800014701578254203D055786DB2002DF8DBD8
:1061900001249460547864B2002CFBDB394C5460C9
:1061A000547864B2002CFBDB8224E40154805478E0
:1061B00064B2002CFBDB02249C840E34DD68254293
:1061C000FCD0314CDC621024DD682542FCD09D8C73
:1061D0002E4C2C439C841024DD682542FCD00224E4
:1061E0009D8C80262C439C844024DD683542FCD065
:1061F000DD682542F9D01024DD682542FCD000245A
:106200009460547864B2002CFBDB214C54605478C9
:1062100064B2002CFBDB1C6A1E4D2C4080251C62E6
:106220001C6AAC431C62032393601B4B536053787E
:106230005BB2002BFBDB0023FF240B72174A4B726F
:106240008B72CB72164B1A60164B174A1B6811687B
:106250009A065B01C90E2340520F12020B431343EF
:10626000124A1385802342681343436070BDC046C1
:1062700000400041000400400C06000000080040FF
:10628000000C004001050100B905FF7D040A000073
:1062900000070300FFFCFFFF03060100006CDC02A7
:1062A0000400002024608000206080000040004244
:1062B000FA212E4B10B51868890002F06BF8802384
:1062C00001385B0498424FD229492A4A4860C020CD
:1062D000136A00061B021B0A0343136200238B6030
:1062E00007330B608021136A09061B021B0A0B434C
:1062F0001362FC22204B196A0A431A62FF22196AB0
:1063000012020A431A62A022196AD2020A431A62CE
:106310001A4B1C005A7852B2002AFBDB184A5A80EA
:10632000184B1A00597EC9090129FBD0C8218900E0
:1063300099800521D970537EDB09012BFBD0C02346
:1063400000205B011361907000F022F863785BB26B
:10635000002BFBDB0C4B0D4A6380D379DB09012B4F
:10636000FBD04123537010BDFEE7C046040000205F
:1063700010E000E000ED00E000040040000C0040F0
:106380001E40000000400042214000000048004242
:106390001F4900B50B004A7ED209012AFBD0013803
:1063A0000A282FD801F0ECFF1B2E2E2E2E2E062EA3
:1063B0002E2411001A6917490A400F211A615A78D0
:1063C0008A43110001220A4310E01A6911490A4068
:1063D0000F211A615A788A4311000322F3E71A69E0
:1063E0000C490A400F211A615A788A435A7000BD3D
:1063F0001A6908490A400F211A615A788A43110024
:106400000222E0E7F022196912050A43F3E7C046C9
:1064100000400042FFFFFFF0182310B50824584346
:10642000134A13181C57013412D001245B6882569A
:106430009C4003290CD808000E49D2015218D318E9
:10644000403301F09DFF0210060B022119705460C9
:1064500010BD0621197054609461F9E70621197086
:1064600054605461F4E7022119709460F0E7C0466B
:10647000F41F0100004400411823F0B508245843DC
:10648000114A13181C5701341BD0012635005F68D0
:106490008356BD400D4ADB019A18906805420BD126
:1064A0000C00601E8441D21940321078344003360B
:1064B000A400B04320431070044A9B18002901D166
:1064C0005D61F0BD9D61FCE7F41F010000440041E7
:1064D000182370B5082643432A4AD518AE5734000E
:1064E000013607D0072907DC00291DDA01314C42AB
:1064F0004C416442200070BD0B00083BDBB200241D
:10650000032BF7D8092903D12100FFF785FFF1E715
:106510000A2904D10839FFF77FFF0024EAE70024A5
:106520000B29E7D10A39F0E76C68012520009B565A
:10653000C9B262082840DB012C4211D012480E3546
:106540001B189A1830321078090128400143C9B24B
:10655000117041221B19403319780A431A70DCE785
:106560000F26094D5B199A18303215781B19B5435F
:106570002943117041224033197804000A431A70EC
:10658000B8E7C046F41F010000440041F8B505001B
:106590000E0017000024BC4208D02B682800315D93
:1065A0001B689847002801D00134F4E72000F8BDAB
:1065B00070B505000C00081E07D005F0E9FD2B683A
:1065C0000200210028005B68984770BD10B5FFF7F6
:1065D000EFFF10BD10B50249FFF7EAFF10BDC0463E
:1065E0004424010070B50400FFF7E2FF050020001D
:1065F000FFF7F0FF401970BD0EB410B5040097B05E
:1066000019AB04CB502102A8019305F007FE20002E
:1066100002A9FFF7CDFF17B010BC08BC03B01847A4
:10662000014B18607047C046080000200122024B51
:1066300052421A607047C04608000020164A10B542
:106640001368591C27D0013B1360002B23D172B66D
:106650008122124B92000433934213D3104A01213A
:106660001000147D0C42FCD02021148BFF319B08BC
:106670005B0021431183D3610A4B13800123027D08
:106680001A42FCD0BFF34F8F074B084ADA60BFF3C2
:106690004F8FC046FDE710BD08000020002000001D
:1066A0000040004102A5FFFF00ED00E00400FA05F4
:1066B000016070479446F0B505AC25789C1E621EBB
:1066C0009441624606689207376824063A4322439B
:1066D0000724326000682140AD010024426829434C
:1066E000022B00D05C030A4322434260F0BD30B568
:1066F000C0250368AD031C6812052A402243C0244C
:106700000904A40221400A431A6003685A6814432A
:106710005C6030BD0123026811680B43136003689D
:106720001A68D207FCD4DA69D207F9D47047022379
:10673000026811680B4313600268D3699B07FCD49D
:10674000704703681A7ED20702D41A7E9207FCD5DE
:106750007047002203685A8370470368187E400719
:10676000C00F70470368187EC00970478023026815
:106770005B42117E0B43137670470368588B80078A
:10678000C00F704702230268518B0B43538370473D
:106790000368187EC007C00F70470368188DC0B229
:1067A000704703681A7ED207FCD589B2012019858B
:1067B0007047012203689A757047012203681A75B1
:1067C00070470123026811680B43136003681A685D
:1067D000D207FCD4DA69D207F9D4704702230268E1
:1067E00011680B4313600268D3699B07FCD47047A0
:1067F0000368DA699207FCD402211A688A431A6096
:1068000070470268936A5B0A5B020B4393620368FA
:106810001A7E5207FCD5986AC0B2704710B5054879
:10682000490001F0B7FD80B2002801D0013880B2E4
:10683000C0B210BD006CDC0270B50C000126110066
:106840006308026833403440156824075B0723431C
:106850002B4313600468FFF7E1FF207370BD8023B2
:106860000268DB02116851680B43536070470000F7
:10687000036803491A685A680A405A607047C0465C
:10688000FFFFFBFF032230B5036811401C68074D72
:106890005A6809042A40E4061143640F5960052C24
:1068A00003D10268D3695B07FCD430BDFFFFFCFF56
:1068B00030B503680400588B8006800F022813D07F
:1068C0005D8B0020AD06AD0F032D2ED0588B8007B9
:1068D00005D55D8B0020AD06AD0F012D25D15D8B5B
:1068E000AD06AD0F281E20D04800596A1043C90AD2
:1068F000C0B2C902014359622368002A08D11A7E36
:10690000D207FCD5588B01234007C00F58400CE03C
:106910001A7E9207D00F002AF4DB1A7ED207F7D531
:10692000C022596892020A435A6030BD0368283376
:1069300019700268137EDB07D80F002B03D1538B2D
:10694000DB07F7D570470123508B4007C00F584035
:10695000F8E70368283319700268137E5B07D80FC5
:10696000002B04DA0123508B4007C00F58407047BA
:1069700003681868C006400F043843425841C0B24B
:1069800070470368187E4007C00F70470368187E81
:10699000C007C00F70470368588BC006C00F704710
:1069A0000368187E8007C00F70470368588B000784
:1069B000C00F704703681A68D206520F052A02D129
:1069C0001A7E9207FCD528331878C0B270470000B1
:1069D0000368104A934213D00F4A934212D00F4AD1
:1069E000934211D00E4A934210D00E4A93420FD0D8
:1069F00001200D4A4042934201D1063040B2704717
:106A00000020FBE70120F9E70220F7E70320F5E784
:106A10000420F3E700080042000C0042001000428E
:106A20000014004200180042001C0042F8B5FFF7B5
:106A3000CFFF00282CDB1D4BC0001818052304795C
:106A4000C3560320FF221840C0008240C021D24319
:106A50008140002B1DDB1F2501201D40C026A840C2
:106A6000134D7600A851C0269B089B005B19B60009
:106A70009F593A401143995128603F232340802475
:106A8000E4011C430B4B5C805A7852B2002AFBDBBA
:106A9000F8BD0F200340083B07489B089B001B18CC
:106AA000D86902401143D961E7E7C0464824010094
:106AB00000E100E0000C004000ED00E0F8B504004B
:106AC0000F0016001D00FFF7B1FF2000FFF722FEA8
:106AD0001C21BB000B4071072268090C0B4313609B
:106AE000842322689375012F1AD11021012E00D022
:106AF00008390C4B69431868C00001F04BFC0722B1
:106B0000216802408B895203DB04DB0C13438B8129
:106B1000226803049089DB0C400B400318439081EA
:106B2000F8BDC04604000020F7B50500019308AB8E
:106B30000C0016001F78FFF744FE2800FFF776FFD1
:106B4000C021C022890224040C409203BF073605ED
:106B5000274316403E430C2707222B683E431E6006
:106B6000019B296813401A0080239B0213434B604A
:106B70002A68D3695B07FCD4F7BD816070473F206A
:106B8000704713B56B460268D97107335468190012
:106B90000122A04716BD10B50221006900F03EFC9D
:106BA00010BD10B50321006900F04EFC10BD0000BF
:106BB00010B51300084A0400D279002A03D101233A
:106BC0000020636010BD0A000069032100F034FD5D
:106BD0000028F4D0F6E7C0461000002010B5054CA0
:106BE00003002068421C04D11A68180052699047BB
:106BF000206010BD5C000020074A0300106810B53B
:106C0000411C03D001235B42136010BD02211869AF
:106C100000F004FDF9E7C0465C00002010B50378E1
:106C20004222023303700249024800F0B1FD10BD58
:106C300018000020E80C002010B50178030042780D
:106C40000020A12908D1212A05D1174917481A3A4D
:106C500000F09EFD012010BD2129FCD1202A13D176
:106C600011491248193A00F033FC96220E4BD2001B
:106C7000196891420ED1DA7901231A420AD1FA2019
:106C8000FFF7CEFC0020E6E7222A06D19A78064BD1
:106C9000DA71EAE7FFF7CAFCF4E7232ADBD15A8866
:106CA000034B1A60D7E7C04610000020E80C002014
:106CB0000C0000207047000010B5FFF7EFF9FA2331
:106CC00000245B00984207D3044B0A20DC79631E42
:106CD0009C41E4B2FFF718FA200010BD100000201C
:106CE000FA220021054B92009A60054A08321A6088
:106CF000044A59601A6119767047C046CC0C0020CE
:106D000078240100E80C0020704770B50F26CB1DD9
:106D100002003240D5B22C0000093034092A00DDCF
:106D200007341C705A1E994200D170BD1300EFE762
:106D300010B50400806904F035FBA06A04F032FB52
:106D4000200010BD10B50400FFF7F2FF200001F095
:106D5000CDF9200010BD000070B5032908D1324BD9
:106D60008000C058002802D00368DB68984770BDD7
:106D700082291FD1C3B22D4D5A01AA1891692C4CFA
:106D800080010C40C02189052143916129490833C4
:106D90004018802150612A685B01D018047949426B
:106DA000214301717020995C814308003021014327
:106DB0009954DCE70029DAD1C024C1B21B4E4A0144
:106DC000B21893681A4DA4052B40234393601A4BC5
:106DD0008001C0180B0050603068072608335B0143
:106DE000195CB1430E0001213143195491690D40E2
:106DF0002C43946170240F495161195CA1430C002C
:106E000010212143195491680C4CC3180C40802167
:106E10004903214391609168890B89039160402265
:106E200059790A435A71A2E7EC0C0020A011002006
:106E3000FFFFFF8F140D0020D40E0020FF3F00F055
:106E4000EFF3108303600123436072B67047036859
:106E5000002B02D162B6BFF36F8F704737B505695B
:106E600004006846002D14D1FFF7EAFF019B621D64
:106E7000013B02D3D57FEDB2FAE768460193FFF7F5
:106E8000E6FF002D01D100203EBD206AE369C01A53
:106E9000FAE7FFF7D5FF22000025019B3432013BC2
:106EA00002D31578EDB2FAE768460193FFF7CFFFFA
:106EB000002DE8D0206BE36AE9E70000F0B5FF257C
:106EC00001264268836811682B405B01CC18641965
:106ED000A77AD3183E43A672C6689C680B4FB604C7
:106EE00036093C4034439C6083682B405B01D218D8
:106EF0009468A40BA4039460402283682B40083359
:106F00005B01CB1819790A431A71F0BDFF3F00F0FD
:106F1000F7B5056904000E0017006846002D43D13F
:106F2000FFF78EFF019B601D013B5A1C0BD0C27FF7
:106F3000591E002A05D168460193FFF788FF2800F3
:106F4000FEBD0B00F1E768460193FFF780FFE369A0
:106F5000AF420AD0226A9A4207D95A1CE261A2695A
:106F6000D3181B7873550135F1E7226A9A42E6D1AE
:106F70000023E361013368462361FFF761FF2200CC
:106F80000021019B671D013B3532581CD3D0F97796
:106F900010785E1E002805D0200011700193FFF7C5
:106FA0008DFFECE73300F0E7FFF74AFF2000019B7D
:106FB0003430013B5A1C06D00278591ED5B2002A43
:106FC000B9D00B00F6E7684601930025FFF73FFFB5
:106FD000E36ABD4202D0226B9A421CD8226B9A42CD
:106FE000ADD100236846E3622361FFF729FF270044
:106FF00022000021019B3437013B3532581C9AD0C6
:10700000397010785E1E00280DD020001170019399
:10701000FFF754FFEBE75A1CE262A26AD3181B7811
:1070200073550135D4E73300E8E7F7B58268436864
:10703000D2B2110004000831186849014118C8791A
:10704000C00729D501255201CD719B189A68616945
:107050009204920C002923D12262226A002A41D094
:10706000A26A656168465A60FFF7EAFE34229446D8
:107070002200019B671D013BA4443532591C2DD0D1
:107080006146FD770978581ECEB2002905D00193DC
:1070900068461570FFF7DBFEF7BD03001670EDE7DD
:1070A0002263226B002A1DD0002227006261A269A0
:1070B00068465A60FFF7C4FE019B621D9446013B7F
:1070C00034373032591C09D061463D70C97F581E93
:1070D000CEB20029DBD103001670F3E768460193B6
:1070E000FFF7B5FE2000FFF7E9FED5E713B56A46C6
:1070F00000230C00D01DD371FFF790FD23681818F2
:10710000206001F02BF86B46D91D00F0F3FF2368D7
:1071100018186B462060D87916BD000003290ED1DF
:1071200080220E4B62311B68FF31585C5242024391
:107130005A5468226339FF32FF3999547047012944
:10714000FCD18022054B24311B68FF31585C524230
:1071500002435A5428222339FF32EDE7A0110020C0
:1071600070B500252F4B012104001A201D70FFF778
:1071700053F901211A20FFF77FF92B4B0121192028
:107180001D70FFF749F901211920FFF775F9202338
:10719000264A0F20D1690B43D361012224490B7881
:1071A00013430B70234B19788143197006211D7806
:1071B0002943197020490D782A430A701A78024031
:1071C0001A70602219780A431A701C4B1C4A5A80A4
:1071D0005A78D209FCD11B48FEF75AFF1A4D2800F5
:1071E00000F0D0FF280000F0E3FF7F212B68C120D2
:1071F0001A7880000A401A70042219780A430C2178
:107200001A701A898A4311491A810A581202120AFD
:107210000A5080220A6019787E3A0A431A700123C4
:10722000237070BD090D0020080D002000040040EF
:10723000584400413C44004159440041000C004086
:1072400006400000197C0000A011002000E100E0D1
:107250000078002810D00121084B1B681A898A4346
:107260001A810822198B0A431A830422198B0A43B4
:107270001A830022024B1A607047C046A0110020FA
:10728000981100200A000E498B699B0B9B038B61B0
:107290000B680221FF331972987982390143997181
:1072A000197A8907FCD57F20064B0240997A8143E1
:1072B000114380229972997A52420A439A72704716
:1072C000A01100200050004110B50B790C00002BDC
:1072D0000CD10800FFF7B0FC002801D0012010BD40
:1072E000094A93699B0B9B039361F7E700F036FF14
:1072F000210000F023FF0028F0D1034A93699B0B83
:107300009B039361EBE7C046A0110020F7B50D0089
:107310001100832A19D1EBB2324C5A01A21891699B
:107320003148AD010840C0218905014391612F49D1
:1073300020686D187021083355615B011A5C8A431F
:10734000110040220A431A54F7BD022A45D1284AA7
:10735000AB009858002802D003685B699847382032
:1073600000F0C0FE234B8027036000231D4E7F00EA
:10737000421D036203614361C36146608560C7606B
:10738000D3772F32C3620363040013703800537045
:1073900003F0FEFF0190A061380003F0F9FFEBB2AB
:1073A0005A01A062B21891680F4808330840C02102
:1073B000890501439160316807265B01585CAD0087
:1073C000B0430600032030435854019B2000536013
:1073D000FFF774FD064B5C51B6E72800FFF7BCFCD5
:1073E000B2E7C046A0110020FFFFFF8F140D002060
:1073F000EC0C0020A424010070B505000124064B0C
:10740000A200D258002A05D021002800FFF77EFFF5
:107410000134F4E770BDC04660000020084B8A00CC
:10742000D05810B5002803D003689B68984710BD5A
:10743000044BC9B24901591888688004800CF6E7EA
:10744000EC0C0020A011002010B50C00FFF7E6FFA7
:1074500000280CD0064BE4B219688023083464017C
:107460000C1962795B42134363710223E37110BD0F
:10747000A011002070B5CBB2124A13485C018901FB
:107480008918021951609168104D08330D40802110
:1074900089022943402591609168890B8903916095
:1074A00001685A018A1816793543157195796D0668
:1074B000FCD55B01C918CB79DB07FCD500198068C6
:1074C000C0B270BDD40E0020A0110020FF3F00F01C
:1074D00070B5140040220B4B0D001B68FF33597927
:1074E0000A435A710021FFF7C5FFA04200D92000CE
:1074F00000230549A34203D0CA5CEA540133F9E7EB
:1075000070BDC046A0110020D40E002010B50C485C
:10751000C9B24901421893689B049B0C3F2B0BD9BD
:107520009468403B9B04A40B9B0CA40323439360EF
:1075300041188868C0B210BD93689B0B9B03F6E7A7
:10754000A0110020F0B51C002F4B85B01B68060071
:107550000D000192002B54D02C4F3B78D9B2002B58
:1075600002D11920FEF788FF64233B70284BAA0044
:10757000D058002808D0036822005B68019998471A
:107580000400200005B0F0BD29003000FFF746FFE1
:10759000844204D929003000FFF740FF040029008D
:1075A0003000FFF7B3FF0121EBB21A4F03935B01E9
:1075B0000293029A3B6801989B18FF335A7A0A4358
:1075C0005A72154BA9012200C91803F0F5FE002CD0
:1075D000D7D029003000FFF721FF0028D1D140216A
:1075E000039B3A6808335B01D3181879014319717A
:1075F0000121D971029BD318FF339A7A0A439A72F8
:10760000BFE701246442BCE798110020080D002068
:10761000EC0C0020A0110020D40E002013B56B4606
:10762000DC1D22000123FFF78DFF012801D1207806
:1076300016BD01204042FBE7F0B51C003A4B85B077
:107640001B680E000192002B3FD08023DB019C427F
:107650003BD8364D2B78D9B2002B02D11A20FEF739
:107660000BFF642300272B70314BB201D318029318
:10767000002C2CD02F4B1B680393FF2333401D009D
:1076800000930835039B6D015D19AB79DB0921D0AF
:10769000294B2A49186800F07DFE294B17215843D1
:1076A00000F078FE274BEA79920713D49A5D002AFE
:1076B00001D10138F7D201229A55009B5A011D4B86
:1076C0009B189A69920B92039A6101277F423800B6
:1076D00005B0F0BD00221B4B25009A55402C00D967
:1076E00040252A000199029803F066FE009BA90438
:1076F0005A01104B890C9B18029A7F195A619A699A
:10770000641B920B92030A439A61009B039A08330D
:107710005B01D3180222DA715979823A0A435A710D
:10772000019B5B190193A3E798110020090D00202C
:10773000140D0020A01100200400002040420F0082
:10774000701101000B0D002070B50C001D000D4BD9
:10775000A601F618110030002A0003F02DFEE4B255
:10776000094A640114196661A369084928000B409D
:10777000A361A169AB04890B9B0C89031943A16127
:1077800070BDC046140D0020A0110020FF3F00F086
:10779000F7B5104B0F001B7814000190002B0CD193
:1077A0000D4B16001D78002D09D00C4E0C48358865
:1077B00028182D1903F000FE35802000FEBD002E94
:1077C000FBD033007A1900210198FFF7BDFF2D1877
:1077D000361AF4E79410002095110020961100202D
:1077E00095100020F8B500200D00140000AF012A0C
:1077F00027D9D31D6A46DB08DB00D31A9D46080053
:1078000004F0C6FC6E460323022200210130400032
:1078100030707370A2420DD2287800280AD0531C11
:10782000DBB20135B0549C4203D00232F154D2B2E3
:10783000F0E7220031000448FFF7AAFF431E9841F9
:10784000C0B2BD46F8BDC046E80C0020F0B500252A
:10785000012785B0184B0E0069461F700400009583
:10786000FFF744FC154B01A90B806A3BFF3BCB7132
:107870006E3B0B72009B320009334B800E4B8D71B7
:107880004F7108711D70092E0FD00D4E09223770EF
:107890000C4F200000953D80FFF77AFF69462000DD
:1078A000FFF724FC3A88084935702000FFF770FF85
:1078B000012005B0F0BDC046941000200902000070
:1078C000951100209611002095100020F0B5CF787A
:1078D00005000E0093B0022F09D1C9882B48FFF78D
:1078E000B5FF441EA041C4B2200013B0F0BD00F0AB
:1078F00035FC310000F012FC002803D0C417241A14
:10790000E40FF1E7012F0BD1F2882149112A11D898
:10791000D2B2002A0ED02800FFF73AFF0124E3E795
:107920000400032FE0D1B378002B05D1F288194968
:10793000032AEDD90A78EEE7022B06D1B27916496F
:107940002800FFF74FFF0400CEE7012B02D1B279E8
:107950001249F5E7032BC7D1114B01A91868FFF7AE
:10796000D4F9104B03A91868FFF7CFF90E4B05A9FE
:107970001868FFF7CAF90D4B07A91868FFF7C5F992
:107980006B460533DC77B27901A9D9E7E80C002012
:10799000D5240100C8240100BC240100CC2401002E
:1079A0000CA0800040A0800044A0800048A080007F
:1079B00037B5050048780C000B2810D800F0E0FC23
:1079C000061B0F310F484D7551546E71097801AA8D
:1079D000002906D1022311802800FFF7B5FE0120FF
:1079E0003EBD00231380324B1B78012B00D1137056
:1079F00002230021F0E78A780023012A09D16A4690
:107A000093802C4B1B78012B00D11371022301AA08
:107A1000EFE7274A1370284A93699B0B9B039361F6
:107A2000DDE78C78012C07D1224B01AA1C70234B77
:107A30001B7813702300DCE700208442D0D11C4B5C
:107A400001301D4A187093699B0B9B039361C7E734
:107A500028008978FFF716FCC1E72800FFF736FFFA
:107A6000BEE70123164AC4E70B780020DB06B7D136
:107A70002800FFF7C1FC2A200221A278104BFF301A
:107A80001A600D4A13681C5C21434A241954FF34C0
:107A9000195D2938FF3801431955D4E70123094AF4
:107AA000A7E78A78074B1A60B5E7002098E7C04639
:107AB0000A0D0020120D0020A01100204624010014
:107AC000981100209C1100204B4BF7B51C78070043
:107AD000002C00D083E0494E33689B8B1B070ED5EA
