:102000000080002021E30000E9E2000009E3000075
:1020100000000000000000000000000000000000C0
:1020200000000000000000000000000009E30000C4
:10203000000000000000000009E3000075E300005C
:1020400009E3000009E3000009E3000009E30000E0
:10205000ADE2000009E30000FDDA00000DE300003E
:1020600009E30000F9E1000009E3000009E30000D2
:1020700095DE000009E3000009E2000009E300002A
:1020800009E3000009E3000009E3000009E30000A0
:102090000000000009E3000009E3000009E300007C
:1020A00009E3000009E3000009E3000009E3000080
:1020B0000000000010B5064C2378002B07D1054B1B
:1020C000002B02D0044800E000BF0123237010BDA4
:1020D0009002002000000000245B0200044B10B5B9
:1020E000002B03D00349044800E000BF10BDC046E8
:1020F0000000000094020020245B020070470000F2
:10210000122110B5024B034A0348FF3111F050FA77
:1021100068650100F76601008067010010B50B00DB
:102120000400002B02DD04C4013BFAE7CB43DB17BC
:1021300019408900401810BD122110B5024B034A06
:102140000348FF3111F034FA68650100FC670100B3
:102150008067010070B5566804001500002E05DA8E
:1021600047210B4B0B4A0C4811F022FAC1608660E4
:102170004C222900103011F095FA6B689E4204D071
:102180007421064B064A0748EEE7200070BDC046A2
:10219000BC680100516901004C6A0100C76A010076
:1021A000006B0100406E0100012010B540420EF0AE
:1021B0000FF910BD10B5002803D00438006811F0E5
:1021C00067FA10BD70B50500103011F057FA041E03
:1021D00004D1002D09D0FFF7E7FF06E00F2302002E
:1021E0009A43130010331C00D060200070BD10B55E
:1021F00064200CF003F910BD70B5050090220C00AE
:1022000011F050FA2900230090310A00903343CB9B
:1022100043C243CB43C22900A8310A0043CB43C287
:1022200043CB43C22900C0310A0043CB43C243CB56
:1022300043C22900D8310A0043CB43C243CB43C237
:102240002900F0310A0043CB43C243CB43C22B00E9
:10225000220009330932FF33FF3243CA43C343CA62
:1022600043C3223A528CFC341A80A26A243B9A62FD
:10227000E26A2800DA62226B1A63626B5A6370BDED
:10228000F7B545680600002D3BD006DC9C211D4BB0
:102290001D4A1E48FF3111F08BF90368AD001F0085
:1022A00001CF0193011C0EF03FFF019B041C5D193F
:1022B000AF4209D001CF011C0EF036FF011C201CDB
:1022C0000EF0CCFB041CF3E70021201C0EF0B2FB47
:1022D000002816D0201C0EF019F97368051C002B7D
:1022E00004DA47210A4B0B4A0B48D4E736689B00B7
:1022F0009C19A64205D03068291C0EF04BFD01C682
:10230000F7E7F7BDBA6E0100FE6E010059700100DB
:10231000BC680100CB7001004C6A010010B50F29A8
:1023200006D9CD21044B054A0548490011F040F972
:1023300050235943401810BDC1710100DE710100E6
:102340002273010010B5062906D9CD21044B054A98
:102350000548490011F02CF950235943401810BD8D
:10236000C17101009E7301002273010010B5940039
:102370000C1904604360002B05DAB021094B0A4AAE
:102380000A4811F015F9C160102102618161002A2B
:1023900002DBCB1A9A4204DD9221054B054A06481E
:1023A000EFE710BDE07401008A750100827601003C
:1023B000F6760100857701008778010010B594005A
:1023C0000C1904604360002B05DAB021094B0A4A5E
:1023D0000A4811F0EDF8C1600F2102618161002A05
:1023E00002DBCB1A9A4204DD9221054B054A0648CE
:1023F000EFE710BDE0740100F9780100827601007A
:10240000F6760100FB79010087780100836810B53A
:102410000268032B0FD1C46843681B190024846031
:1024200001344360C460032B05DD48210D4B0E4A87
:102430000E4811F0BDF88368022B03DD4B210C4BD5
:10244000094AF5E7C468012C03D04D21094B064A1F
:10245000EEE75C1C846044689B0009681B199B00C4
:10246000995010BD077B0100567B0100237C0100C1
:10247000A07C0100F77C010030B50F23040091B06F
:1024800018401C4205D06D212D4B2E4A2E4811F0CC
:102490008FF8CB680A68039380254B6889682D06FE
:1024A0000691012104925219226005930D905B1947
:1024B0000E910F910CA807A907930C94FFF7A6FFA4
:1024C000069B08A95B190893FFF7A0FF03A9FFF774
:1024D0009DFF069B09A95B190993FFF797FF05A9C3
:1024E000FFF794FF06A9FFF791FF03A9FFF78EFFFF
:1024F000049B0AA95B190A93FFF788FF059B0BA9A8
:102500005B190B93FFF782FF04A9FFF77FFF03A975
:10251000FFF77CFF0D9B00930F9B0193019A009B9B
:1025200094466344042B02D10E9B032B04D07A21E2
:10253000064B074A0748AAE7200011B030BDC04645
:102540000D7D0100FC7D0100897E0100027F0100FC
:10255000A07F0100237C0100002310B5436082604E
:102560000F2A05D97821034B034A044811F020F8BB
:1025700010BDC0460E800100B580010087780100C3
:1025800010B504000022E121FFF7C8FD200010BDB6
:1025900010B5040000222421FFF7C0FD200010BD6B
:1025A00010B5030705D06D21024B034A034810F014
:1025B000FFFF10BD0D7D0100D8810100897E010063
:1025C00010B5030705D06D21024B034A034810F0F4
:1025D000EFFF10BD0D7D010065820100897E0100C5
:1025E00010B504000B68402203601031103011F068
:1025F00059F8200010BDF8B5A02705000E000024F2
:10260000FF00311928195034FFF7EAFFBC42F8D116
:102610002800F8BD10B5030705D06D21024B034A11
:10262000034810F0C5FF10BD0D7D0100F3820100CD
:10263000897E010010B5012905D08521024B034A8E
:10264000034810F0B5FF10BD818301008F830100A6
:10265000F483010010B5030705D06D21024B034A36
:10266000034810F0A5FF10BD0D7D01006F8401002F
:10267000897E010010B594000C1904604360002BA2
:1026800005DAB021094B0A4A0A4810F091FFC160EF
:10269000062102618161002A02DBCB1A9A4204DD25
:1026A0009221054B054A0648EFE710BDE074010092
:1026B000FD84010082760100F676010009860100A2
:1026C0008778010010B5030705D06D21024B034A3E
:1026D000034810F06DFF10BD0D7D0100198701004A
:1026E000897E0100A02370B504000500DB00C61838
:1026F000280050351030FFF753FFAE42F8D12307C2
:1027000005D06D21034B044A044810F051FF20000E
:1027100070BDC0460D7D0100A6870100897E0100C5
:1027200010B5502454430C1904604360002B05DAA3
:10273000B0210A4B0A4A0B4810F03AFFC160102141
:1027400002618161002A02DBCB1A9A4204DD9221E8
:10275000054B064A0648EFE710BDC046E07401008D
:102760006188010082760100F6760100BF890100D0
:10277000877801008C2370B5040005009B00C61803
:10278000280050351030FFF70BFFAE42F8D1230779
:1027900005D06D21034B044A044810F009FF2000C6
:1027A00070BDC0460D7D0100F98A0100897E0100DF
:1027B00010B5030705D06D21024B034A034810F002
:1027C000F7FE10BD0D7D0100B38B0100897E010075
:1027D000F0B5D36889B000930B68CD680193136896
:1027E000040002934B68281C039353689668049373
:1027F0008B68009905930EF097FC0299071C0198CD
:102800000EF092FC011C381C0EF0A8FD0499071C68
:1028100003980EF089FC011C381C0EF09FFD311C42
:10282000071C05980EF080FC011C381C0EF096FD6C
:1028300002990690281C0EF077FC0199071C00985D
:102840000EF072FC011C381C0EF008F9311C071C3C
:1028500003980EF069FC011C381C0EF0FFF8059976
:10286000071C04980EF060FC011C381C0EF076FD6D
:1028700004990790281C0EF057FC0399071C009838
:102880000EF052FC011C381C0EF0E8F80599071CEC
:1028900002980EF049FC011C381C0EF0DFF8311CC8
:1028A000071C01980EF040FC011C381C0EF056FD70
:1028B000311C071C281C0EF037FC0599051C0098DC
:1028C0000EF032FC011C281C0EF0C8F80499051CFF
:1028D00001980EF029FC011C281C0EF0BFF803998A
:1028E000051C02980EF020FC011C281C0EF036FD81
:1028F000051C2000FFF75CFF2000079B676023603A
:10290000A560069BE36009B0F0BDF0B50F248BB065
:10291000029104AB5168E41813680600081C150006
:10292000976801930EF000FC391C0390381C0EF0E0
:10293000FBFB011C03980EF091F80199071C081C81
:102940000EF0F2FB011C381C0EF088F8FE21890500
:102950000EF084F80DF0DAFD011CFE2080050EF06B
:1029600019FA2968071C0EF0DFFB69680190381C12
:102970000EF0DAFBA9680390381C0EF0D5FB240991
:102980002401051C2000FFF713FF019B300023608A
:10299000039B220002996360A560E760FFF718FFC0
:1029A00030000BB0F0BD000010B5062423005343E7
:1029B0009B00CB18036000238160C3600261446107
:1029C000052A05D97821034B034A044810F0F0FD8D
:1029D00010BDC0460E8001003F8C010087780100C9
:1029E000F7B5036818691A68011C5D689C68DE68A1
:1029F0005F6900920EF098FB391C0190381C0EF0B4
:102A000093FB011C01980EF029F8311C071C301CA7
:102A10000EF08AFB011C381C0EF020F8291C061C45
:102A2000281C0EF081FB211C051C201C0EF07CFBD9
:102A3000011C281C0EF012F80099041C081C0EF052
:102A400073FB011C201C0EF009F8011C301C0EF059
:102A500005F8FEBDF8B506273C005C43A418069DAA
:102A6000079EA4000C19046045608660002D01DB00
:102A7000002E05DAB0210C4B0C4A0D4810F098FDE1
:102A8000C160026143618761002A07DB7D1B9542BB
:102A900004DB002B02DBBE1B9E4204DA9221054BB5
:102AA000054A0648EAE7F8BDE07401001D8D010003
:102AB00082760100F67601001E8E01008778010003
:102AC0009C46F7B5099B0624019363465C43089B2B
:102AD0000F68A418A4004360019B3C190460836044
:102AE000002C0BD0089B002B02DB019B002B05DA8E
:102AF000B021164B164A174810F05AFD04000F007B
:102B00000C3468CF68C468CF68C43F6863462760E8
:102B100006248262C3620463002A10DB089B002B38
:102B20000DDB4C68E61A964209DB6346002B06DB98
:102B3000019B002B03DB8A68D51A654504DA9221D4
:102B4000054B064A0648D7E7FEBDC046E0740100C3
:102B5000298F010082760100F6760100479001007E
:102B600087780100F7B50B68876801938B680400CC
:102B70009F4205D00A4B0B4A0B490C4810F018FD38
:102B800000250668BD4209DA18236B43019A3068B4
:102B9000D1580DF063FF013501C6F3E72000FEBDFB
:102BA0006F910100A4910100F2020000FD9201006A
:102BB000030030B534C934C330BD000070B5966829
:102BC00004001500002E05DA47210A4B0A4A0B487B
:102BD00010F0EEFCC160866011001030FFF7E8FFD6
:102BE000AB689E4204D07421054B064A0648EFE7C5
:102BF000200070BDBC680100516901004C6A0100F1
:102C0000C76A010079930100406E0100F7B5CB68F7
:102C1000876800930B69040001938B699F4205D07C
:102C20000C4B0D4A0D490E4810F0C2FC00260568F9
:102C3000BE420DDA019AB300D15800980EF074FA32
:102C4000011C28680EF08AFB013628601835EFE772
:102C50002000FEBD6F91010013960100F2020000FA
:102C6000FD92010010B5040000221021FFF756FA72
:102C7000200010BD70B5050004000B68103503601E
:102C80002800FFF78DFC2800FFF7ECFF200070BD47
:102C9000F8B560C94368032B06D00621084B094AE2
:102CA0000948FF3110F084FC002407683159285985
:102CB0000EF054FB385104340C2CF7D1F8BDC0464B
:102CC000319801009A98010042990100436810B5BB
:102CD000032B06D00621074B074A0848FF3110F0A6
:102CE00067FC0A6803681A604A685A608A689A60D2
:102CF00010BDC046319801009A9801004299010028
:102D0000436870B5042B02D18368032B06D00621DB
:102D10000A4B0B4A0B48FF3110F04AFC00230568B0
:102D200000229C0018010C192818A658865004325D
:102D3000102AFAD104330C2BF2D170BD3198010066
:102D4000B899010042990100F8B54368042B02D1FB
:102D50008368032B06D006210B4B0C4A0C48FF312D
:102D600010F026FC00231C26056830000022584382
:102D70001C010C192818A75887500432102AFAD1C0
:102D80000133032BF1D1F8BD319801005A9A0100AB
:102D900042990100F7B506275F430193BF180B68FE
:102DA000BF00DF19089B05000C000760436009990C
:102DB00008301600FFF73EFC002F0BD0089B002BBD
:102DC00002DB099B012B05D0B021164B164A174890
:102DD00010F0EEFB2B000C3307CC07C307CC07C366
:102DE000019B6E62002B04D08521114B114A1248C1
:102DF000EEE70623099AEB62012A04D090210F4BDB
:102E00000F4A1048E4E7002E05DB089A002A02DB8F
:102E10009B1AB34203DA92210B4B094AF1E72800CF
:102E2000FEBDC046E0740100FA9A010082760100FE
:102E300081830100149C0100F4830100799C01004E
:102E4000F69C010087780100F6760100F8B5456828
:102E50000024002D1CD006DC9C210E4B0E4A0F488E
:102E6000FF3110F0A5FB0768AD003E0001CE7D19D3
:102E7000011C0EF059F9041CB54209D001CE011C09
:102E80000EF052F9011C201C0DF0E8FD041CF3E7C4
:102E9000201CF8BDBA6E01001A9E01005970010095
:102EA000436810B5002B05DA4721074B074A08484D
:102EB00010F07EFB002102689B009B18934201D01A
:102EC00002C2FBE710BDC046BC680100B99F01000B
:102ED0004C6A0100F8B50C689300E3188C68036035
:102EE0008460002B07D0002C05DAB0210E4B0F4A6E
:102EF0000F4810F05DFB03000C000C33E0CCE0C386
:102F0000E0CCE0C324681C600023C362013382620A
:102F10000363002A02DB4B689A4204DB7821054BED
:102F2000054A0648E5E7F8BDE0740100AEA00100DF
:102F3000827601000E800100CBA10100877801009C
:102F4000F8B51F0004000E0002C011001500FFF7C5
:102F500071FB3B68A360002E01DB012D05D04721EA
:102F6000034B044A044810F023FB2000F8BDC04680
:102F7000BC680100C8A201004C6A010010B5040041
:102F800000225A21FFF7CAF8200010BD10B5040036
:102F90001030FFF705FB20006030FFF701FB200039
:102FA000B030FFF7FDFA230705D06D21034B044A2B
:102FB000044810F0FDFA200010BDC0460D7D010050
:102FC000C3A30100897E01004B684360CB68C360E6
:102FD0004B694361CB69C3617047F0B50B681768F3
:102FE0008DB006000D00181C391C140000930EF063
:102FF0009BF8012102AB01905818FFF71BFB012140
:1030000002AB5818FFF716FB3000009B10350993F0
:10301000019B103408C002A9039505970794FFF798
:10302000D3FF30000DB0F0BD70B505000C000430CA
:103030000431FFF7C9FF280021002C302C31FFF7A5
:10304000C3FF280070BDF0B514000D0097B002CC8E
:10305000060001CD0EF082F92900071C01A8FFF738
:10306000B3FF21000BA8FFF7AFFF3000694680C017
:10307000FFF7DAFF300017B0F0BD70B505000C00A7
:1030800004300431FFF7D0FF280021005C305C31B0
:10309000FFF79AFF280070BD70B505000C000430E2
:1030A0000431FFF791FF280021002C302C31FFF76D
:1030B0008BFF280070BDF0B514000D0097B002CC56
:1030C000060001CD0DF0CAFC2900071C01A8FFF77E
:1030D0007BFF21000BA8FFF777FF3000694680C017
:1030E000FFF7DAFF300017B0F0BD70B505000C0037
:1030F00004300431FFF7D0FF280021005C305C3140
:10310000FFF762FF280070BDF0B514000D00A3B0FA
:1031100002CC060001CD0DF0A1FC2900071C01A87E
:10312000FFF7BAFF210017A8FFF74EFF30006946EE
:1031300080C0FFF7DAFF300023B0F0BDF0B5150016
:103140000F00AFB0040002CD01CF0EF007F9390037
:10315000061C01A8FFF7C9FF290023A8FFF734FFC9
:10316000200040C001A90430FFF7BFFF200023A9C1
:103170009030FFF729FF20002FB0F0BD70B506009A
:10318000040005004136FF36280050351030FFF7A7
:1031900007FAAE42F8D1230705D06D21034B044A4C
:1031A000044810F005FA200070BDC0460D7D0100F6
:1031B0007DA40100897E0100F8B504000E0002C064
:1031C00011001F001500FFF735FA200039001030FC
:1031D000FFF706FA002E01DB012D05D04721034B36
:1031E000034A044810F0E4F92000F8BDBC6801006F
:1031F00037A501004C6A0100436810B5994201D11E
:10320000012A06D00621034B034A0448FF3110F07F
:10321000CFF910BD319801008AA601004299010042
:10322000436810B5032B09D001220321FFF7E4FF07
:10323000064B074A0749084810F0BAF90A680368BC
:103240001A604A685A608A689A6010BD2AA701000D
:1032500059A70100FD020000FD920100F8B5436886
:103260008D68CE68042B09D001220421FFF7C4FF2A
:10327000084B094A09490A4810F09AF900240768DE
:103280003059291C0DF050FF38510434102CF7D15F
:10329000F8BDC0462AA7010059A80100FD020000A0
:1032A000FD9201004368F7B54E688F680D69032BE6
:1032B00009D001220321FFF79FFF0B4B0B4A0C495A
:1032C0000C4810F075F900240368019339593059FE
:1032D0000EF044F829590EF041F8019B18510434BE
:1032E0000C2CF3D1F7BDC0462AA7010014AA010097
:1032F000FD020000FD920100436810B5002B05DAC5
:103300004721074B074A084810F052F9002102688C
:103310009B009B18934201D002C2FBE710BDC04640
:10332000BC680100CB7001004C6A0100F0B50024BC
:10333000036845681B6887B001936B682F6B029325
:103340002B6A05932B6C04936B6C03933959A86A11
:103350000DF0EAFE059B19590DF080FB049B061C3D
:103360001959A86B0DF0E0FE011C301C0DF076FB26
:10337000039B19590DF072FBE9680DF0D5FE029B15
:1033800019590DF06BFB019B18510434402CDDD111
:1033900007B0F0BD0368E1221968436810B51868EA
:1033A00000239200C458CC5004339342FAD110BD8C
:1033B00000B589B003AB049302AB0390059307906B
:1033C00001AB04A802910693FFF7E4FF09B000BD2A
:1033D00010B5012902D18368934206D00621034B20
:1033E000034A0448FF3110F0E3F810BD31980100A2
:1033F000FCAB010042990100436889001B685A58E0
:1034000003681B685A50704710B54B68040088B0B9
:10341000032B01D0FEF774FE0B680190029301AB01
:10342000049302AB05936B460790002104A8069312
:10343000FFF7E2FF04A80121FFF7DEFF04A8022145
:10344000FFF7DAFF200008B010BD436889001B6851
:103450005A5803681B685A50704710B54B680400EF
:1034600088B0032B01D0FEF74BFE0B68019002934E
:1034700001AB049302AB05936B460790002104A8AF
:103480000693FFF7E2FF04A80121FFF7DEFF04A87F
:103490000221FFF7DAFF200008B010BD70B50CC89C
:1034A00015685A689B688C00195910590DF0D6FAA6
:1034B000285170BD10B504000A688AB004924A68A9
:1034C00003AB0592029002AA0793099001AB06A8EC
:1034D000002106920893FFF7E1FF06A80121FFF7FC
:1034E000DDFF06A80221FFF7D9FF20000AB010BDBA
:1034F000F0B5C725BFB002AB29ACED180600032319
:103500000092200000222D092D010F00FEF72EFF52
:10351000210002A8FFF778FF2B0020331800019349
:10352000FFF746F93B6939002B627B6907226B6222
:10353000BB692000AB62FB68EB620323FEF716FF5A
:10354000210005A8FFF760FF390003230A222000AD
:10355000FEF70CFF210008A8FFF756FF39000323F0
:103560000D222000FEF702FF21000BA8FFF74CFF01
:103570000323002200992000FEF720FF21000EA85F
:10358000FFF76BFF032300991A002000FEF716FFD8
:10359000210011A8FFF761FF0323062200992000F4
:1035A000FEF70CFF210014A8FFF757FF03230922A1
:1035B00000992000FEF702FF210017A8FFF74DFF3A
:1035C0000C22032300992000FEF7F8FE21001AA820
:1035D000FFF743FF02AB299321000EAB1DA86360E8
:1035E000FFF768FF01991022280010F05BF8230014
:1035F00011AA83CA83C32800220029001030FFF7D4
:1036000084F905AB2993210014AB20A86360FFF770
:1036100051FF08AB2993210017AB23A86360FFF784
:1036200049FF0BAB2100299326A81AAB6360FFF773
:1036300041FF3000FEF7B4FF0323002231002000D9
:10364000FEF794FE20001DA9FFF7EAFDEB690722B3
:10365000F3602B69310033616B6920007361AB69E2
:10366000B3610323FEF782FE200020A9FFF7D8FDF7
:1036700003230A2231002000FEF778FE200023A950
:10368000FFF7CEFD03230D2231002000FEF76EFE72
:10369000200026A9FFF7C4FD30003FB0F0BD43680D
:1036A00089001B685A5803681B685A50704710B548
:1036B0004B68040088B0032B01D0FEF721FD0B6896
:1036C0000190029301AB049302AB05936B46079004
:1036D000002104A80693FFF7E2FF04A80121FFF7E9
:1036E000DEFF04A80221FFF7DAFF200008B010BDBA
:1036F0000023036043608360C36003617047000080
:10370000F0B58B6885B002930A68436801939342D1
:1037100003D187684B689F4205D00F4B0F4A104971
:1037200010480FF045FF002503680393BD4210DAEF
:10373000182400266C43039B1C19019B9E4206DA49
:10374000206802990DF0F0FC013601C4F5E701355F
:10375000ECE705B0F0BDC0466F910100AEAC0100D2
:10376000F2020000FD9201001FB542688368040068
:10377000019202930391002A01DB002B05DA472115
:10378000054B064A06480FF013FF6A4601A9FFF7EA
:10379000B7FF200004B010BDBC6801000BAE0100F3
:1037A0004C6A01000F234B4300689B1800689B0084
:1037B000C318914202D000221A607047FE2292057F
:1037C000FAE770B505000024210000222800FFF769
:1037D000E9FF210001222800FFF7E4FF2100022277
:1037E0002800FFF7DFFF210003222800FFF7DAFFA0
:1037F000210004222800FFF7D5FF21000522280020
:10380000FFF7D0FF210006222800FFF7CBFF2100A1
:1038100007222800FFF7C6FF210008222800FFF733
:10382000C1FF210009222800FFF7BCFF21000A2266
:103830002800FFF7B7FF21000B222800FFF7B2FF97
:1038400021000C222800FFF7ADFF21000D222800E7
:10385000FFF7A8FF21000E2228000134FFF7A2FF86
:103860000F2CB1D170BD436889001B685A5803689A
:103870001B685A50704743688A001B688901D258F8
:1038800003681B68CA50704743688A001B6810B5FC
:10389000D45803681A681C2359438C5010BD10B5C6
:1038A00004000121FFF7F0FF20000221FFF7ECFFE9
:1038B00020000321FFF7E8FF20000421FFF7E4FFC9
:1038C00020000521FFF7E0FF20000621FFF7DCFFC5
:1038D00020000721FFF7D8FF20000821FFF7D4FFC1
:1038E00020000921FFF7D0FF20000A21FFF7CCFFBD
:1038F00020000B21FFF7C8FF20000C21FFF7C4FFB9
:1039000020000D21FFF7C0FF20000E21FFF7BCFFB4
:103910000F212000FFF7B8FF10BD0CC870B5156867
:10392000DA688C00105959680DF0FEFB285170BD03
:10393000F0B57F24B9B006AB160007271B921E9284
:10394000E41800220323240924010D0001901BA97F
:1039500009A81C931F922197FFF7A9FE2000403071
:10396000FEF726FF3169032302917169002203915A
:10397000B16921970491F16826000CAF05913036AA
:103980001BA938001B951E951C931F92FFF78FFEF5
:103990003000FEF70DFF0022032329691F922163E7
:1039A000696906326163A9692192A163E96816AD6C
:1039B000E163019916971B911E9109A9179112A90C
:1039C0000A001BA8290027001C93FFF761F90622B3
:1039D0000323019920370C311B91019921921E91EB
:1039E0000A32310038001C931F930FF05BFE200059
:1039F000FEF7DEFE802212069446029B203E6344C0
:103A00002360039B3A0063446360049B210063448A
:103A1000A360059B3000E360FEF7DAFEE0690FF07B
:103A2000D9FC02000B00002011490EF025FA0FF01E
:103A300019FD0FAB089308AB129307AB68601493A2
:103A400012A80FAB0021EE6015931395FFF765FFE9
:103A500012A80121FFF761FF12A80221FFF75DFF05
:103A60001BA82A000FA9FFF731F9019839B0F0BD62
:103A70000000F03F30B50C004168230109689B1835
:103A80009B005D580F215143036809191B68890089
:103A9000CD5030BD70B50500002422000021280063
:103AA000FFF7E8FF220001212800FFF7E3FF2200D3
:103AB00002212800FFF7DEFF220003212800FFF784
:103AC000D9FF220004212800FFF7D4FF220005219E
:103AD0002800FFF7CFFF220006212800FFF7CAFFCA
:103AE000220007212800FFF7C5FF22000821280037
:103AF000FFF7C0FF220009212800FFF7BBFF2200CB
:103B00000A212800FFF7B6FF22000B212800FFF74B
:103B1000B1FF22000C212800FFF7ACFF22000D218D
:103B20002800FFF7A7FF22000E2128000134FFF72D
:103B3000A1FF102CB1D170BDF0B5304C0500A544EB
:103B400037246C442409240120000E00FEF782FD76
:103B50000022F0212000FEF7E1FA2100FE23FC31D3
:103B60009B054B618B65CC21220049006350443199
:103B700063504431635044316350443163504431A5
:103B8000635044316350443163508832443153644C
:103B9000635023606364136004230493013B059323
:103BA00007930893FC234432039210229B00E718EA
:103BB00031003800099206940FF074FDF0239B0049
:103BC000E6183900300002AFFEF756FC3A0031002B
:103BD00003A8FFF795F82800FEF73CFD01AB04931E
:103BE0006B4603A801940295039705930695FFF78A
:103BF00051FF2800024B9D44F0BDC046CCFBFFFFA7
:103C00003404000030B507230C00634341689B185F
:103C100009689B005D5806215143036809191B6818
:103C20008900CD5030BD000010B50B68040088B08D
:103C3000984206D1D921724B724A734849000FF05D
:103C4000B7FC0022029303AB049302AB1100039074
:103C50000593079001AB04A80693FFF7D3FF04A8D0
:103C600000220121FFF7CEFF04A800220221FFF766
:103C7000C9FF04A800220321FFF7C4FF04A8002203
:103C80000421FFF7BFFF04A800220521FFF7BAFFB8
:103C900004A801220021FFF7B5FF012204A81100AA
:103CA000FFF7B0FF04A801220221FFF7ABFF04A831
:103CB00001220321FFF7A6FF04A801220421FFF738
:103CC000A1FF04A801220521FFF79CFF04A80222FE
:103CD0000021FFF797FF04A802220121FFF792FFBE
:103CE000022204A81100FFF78DFF04A8022203217D
:103CF000FFF788FF04A802220421FFF783FF04A82E
:103D000002220521FFF77EFF04A803220021FFF70E
:103D100079FF04A803220121FFF774FF04A80322FE
:103D20000221FFF76FFF032204A81100FFF76AFFCB
:103D300004A803220421FFF765FF04A8032205213C
:103D4000FFF760FF04A804220021FFF75BFF04A82F
:103D500004220121FFF756FF04A804220221FFF7E5
:103D600051FF04A804220321FFF74CFF042204A8FA
:103D70001100FFF747FF04A804220521FFF742FFC7
:103D800004A805220021FFF73DFF04A80522012118
:103D9000FFF738FF04A805220221FFF733FF04A82C
:103DA00005220321FFF72EFF04A805220421FFF7B7
:103DB00029FF052204A81100FFF724FF04A806220A
:103DC0000021FFF71FFF04A806220121FFF71AFFB9
:103DD00004A806220221FFF715FF04A806220321EA
:103DE000FFF710FF04A806220421FFF70BFF04A829
:103DF00006220521FFF706FF200008B010BDC046CF
:103E000001AF010014B0010045B10100F0B5C5B02B
:103E100005000E0000222A2108A8D724FEF77EF90B
:103E2000FE236C449B0524092401089310931893E6
:103E300020932893309320AB01932700042308AAF2
:103E400002933037013B3100039304920593102213
:103E500006933800043307930FF024FC3900200048
:103E6000FEF70AFB6A46210001A8FEF76DFF08ABCA
:103E7000280001A90193FFF7D7FE280045B0F0BD47
:103E800010B5037A0400002B02D00068FEF792F907
:103E9000200010BD436889001B685A5803681B68DE
:103EA0005A50704710B588B001AB049302AB05932C
:103EB0006B460400029101900790002104A806932C
:103EC000FFF7E8FF04A80121FFF7E4FF04A802219F
:103ED000FFF7E0FF04A80321FFF7DCFF04A804219B
:103EE000FFF7D8FF04A80521FFF7D4FF04A8062197
:103EF000FFF7D0FF200008B010BD0CC870B51568E2
:103F00005A688C00105999680DF00EF9285170BD4F
:103F1000436889001B685A5803681B685A507047E9
:103F200003688A001B689B184268506892680918E9
:103F3000914202D000221A607047FE229205FAE7F1
:103F400010B504000021FFF7EBFF20000121FFF76F
:103F5000E7FF20000221FFF7E3FF20000321FFF726
:103F6000DFFF20000421FFF7DBFF20000521FFF722
:103F7000D7FF20000621FFF7D3FF20000721FFF71E
:103F8000CFFF20000821FFF7CBFF20000921FFF71A
:103F9000C7FF20000A21FFF7C3FF20000B21FFF716
:103FA000BFFF20000C21FFF7BBFF20000D21FFF712
:103FB000B7FF20000E21FFF7B3FF0F212000FFF70E
:103FC000AFFF10BD10B54C6889688AB002AB049190
:103FD000019001A9099006A80394069107930892FD
:103FE000FFF7AEFF0AB010BD436889001B685A583E
:103FF00003681B685A50704710B54B68040088B0BE
:10400000032B01D0FEF77CF80B680190029301AB03
:10401000049302AB05936B460790002104A8069316
:10402000FFF7E2FF04A80121FFF7DEFF04A8022149
:10403000FFF7DAFF200008B010BD436889001B6855
:104040005A5803681B685A50704710B54B680400F3
:1040500088B0032B01D0FEF753F80B680190029350
:1040600001AB049302AB05936B460790002104A8B3
:104070000693FFF7E2FF04A80121FFF7DEFF04A883
:104080000221FFF7DAFF200008B010BD70B528C884
:104090001E686B698C001859E9680DF045F86B686B
:1040A00019590CF0DBFC305170BD0000F7B50091E0
:1040B0000A98099C044300200500844215D1DC4382
:1040C000E4170194089C84421ADD00240099AE0094
:1040D0008E19A3420FDD5768116867433F18BF0070
:1040E0007958A700F1510134F3E7064B064A074916
:1040F00007480FF05DFA019C01301C402D19E1E7E3
:10410000F7BDC046BBB1010016B201003E08000079
:104110008EB30100F0B585B002910B980C9908435D
:1041200005D0274B274A284928480FF041FA032495
:104130000A990600C91721400A9C0919DC43E417B3
:104140001C4089100194A40089000394814220DD61
:10415000029DB4002C190025AC46634512DD67466C
:1041600055687D4317682D18AD007D192F682760AD
:104170006F686760AF68A760ED68E560012510347F
:10418000AC44EAE7039C04303619DFE701980131BB
:1041900036180A98884211DD0298B40004190020EC
:1041A0008342F3DD5568176845436D18AD00ED593E
:1041B000AC466746850067510130F1E705B0F0BDB8
:1041C000BBB101001BB40100D30900008EB3010094
:1041D0000F2370B541C81C0054434B436418E321BE
:1041E000890071589B187268A4009B0005680959E2
:1041F00098580CF033FC285170BD70B505000024B0
:10420000220000212800FFF7E3FF220001212800FF
:10421000FFF7DEFF220002212800FFF7D9FF22006E
:1042200003212800FFF7D4FF220004212800FFF714
:10423000CFFF220005212800FFF7CAFF2200062138
:104240002800FFF7C5FF220007212800FFF7C0FF65
:10425000220008212800FFF7BBFF220009212800C7
:10426000FFF7B6FF22000A212800FFF7B1FF220066
:104270000B212800FFF7ACFF22000C212800FFF7DC
:10428000A7FF22000D212800FFF7A2FF22000E2128
:1042900028000134FFF79CFF0F2CB1D170BD0368DB
:1042A0008A0041681B6809689B18891808681A68A1
:1042B00018600A6070470000F7B50B684668019304
:1042C0008B6C0F6DB34206D006210B4B0B4A0C488A
:1042D000FF310FF06DF9002403680093B44209DA4E
:1042E000019BA5005859391C0CF054FD009B01346A
:1042F0005851F3E7F7BDC046319801005FB50100A2
:1043000042990100F0B51C0005684368AFB09C46B7
:104310000091013B291D170006910793002B05DA38
:10432000B021354B354A36480FF042F909AB46C843
:1043300046C346C846C346C846C346C846C301230B
:1043400015930533179363460026012B03D006A867
:10435000FEF77CFD061C8021301C09042D680CF042
:104360005FFB002807D0002300983B602560FEF724
:1043700097FD2FB0F0BD291C281C0CF0D5FE311C78
:104380000CF06CFB0CF0C2F80021061C281C0CF091
:104390005BFB002827D126602168281C0CF0DEFF7B
:1043A00002AB01220799029003A8FEF7C9FD48223B
:1043B00006A918A80FF076F9059A039B01922C9292
:1043C000079A2A939A4212D103AA009818A9FFF7D4
:1043D00073FF2468291C201C0CF0C0FF211C0CF06A
:1043E000D9FC3860C5E780231B06F618D3E7742193
:1043F000044B054A054897E7E07401003DB601000B
:1044000082760100C76A01007FB70100406E01009B
:104410009300CB1810B50360002303610133816062
:10442000C26043610E2A05D97821034B034A044830
:104430000FF0BEF810BDC0460E8001007EBA01002C
:10444000877801000023F0B5060091B0019332682F
:10445000019B126874689B00D3182168019A04A814
:104460000293FFF7D5FF182204A90AA80FF01AF942
:104470000A9D64682B00F033196820690CF054FE23
:104480002B00FC33196B071C60690CF04DFE011CFE
:10449000381C0CF0E3FA2B00B4331968071CE068F1
:1044A0000CF042FE011C381C0CF0D8FAE96B0390AA
:1044B00060680CF039FEA96F071CA0680CF034FE90
:1044C000011C381C0CF0CAFA2968071C20680CF083
:1044D0002BFE011C381C0CF0C1FA011C03980CF0D7
:1044E000BDFA029B1860019B013301930F2BAED1E3
:1044F00011B0F0BD0F2330B51C004C434568534349
:104500002D680068A418A400645902685B189B0019
:104510009C5030BD70B50500002422000021280009
:10452000FFF7E8FF220001212800FFF7E3FF220048
:1045300002212800FFF7DEFF220003212800FFF7F9
:10454000D9FF220004212800FFF7D4FF2200052113
:104550002800FFF7CFFF220006212800FFF7CAFF3F
:10456000220007212800FFF7C5FF220008212800AC
:10457000FFF7C0FF220009212800FFF7BBFF220040
:104580000A212800FFF7B6FF22000B212800FFF7C1
:10459000B1FF22000C212800FFF7ACFF22000D2103
:1045A0002800FFF7A7FF22000E2128000134FFF7A3
:1045B000A1FF0F2CB1D170BD436810B5994201D154
:1045C000012A06D00621034B034A0448FF310EF0AE
:1045D000EFFF10BD319801005BBB01004299010063
:1045E000502210B54A430468890023689B1842682A
:1045F00012688A581A6010331800FEF733FB10BD9A
:1046000030B50D0089B00400FEF7C0FC6B68032BC9
:1046100001D0FDF791FD2B6804A8029301AB049330
:1046200002AB05936B460021069301940794FFF7B4
:10463000D7FF04A80121FFF7D3FF04A80221FFF749
:10464000CFFF200009B030BD036810B51C68436877
:1046500089001B686418206859580CF0FFF9206025
:1046600010BDF8B5079E089D099C0A9F88008258D6
:10467000090132605B18186828605A686A609A6895
:10468000AA60DB68EB60206031680CF04DFD2060B3
:10469000011C38680CF0E2F9386068682060316805
:1046A0000CF042FD0B9B2060011C18680CF0D6F941
:1046B0000B9B1860A868206031680CF035FD0C9BDE
:1046C0002060011C18680CF0C9F90C9B1860E868A0
:1046D000206031680CF028FD0D9B2060011C1868DB
:1046E0000CF0BCF90D9B1860F8BDF0B5A9B0379D72
:1046F00008902D011295379D3198AD000C958500DD
:1047000017952F9D0E006843339D32994019800004
:10471000349C12180A920A01149222019A181392D8
:104720008A0016923A9A51430C19A4001B1915934A
:104730002F9B309A934200DBF5E1139B0D930023EE
:104740000993099B3A9A934200DB54E100230999AB
:1047500019931A931B931C931D931E931F932093DD
:1047600073682F98594332680918890051181191BC
:1047700009990D9F01315943091889005118109169
:1047800009990A9D023159430918890051180F915E
:10479000099903314B431B189B00D3180E93002338
:1047A0000B930B9B369A934200DBB9E01CAB07934B
:1047B0001BAB06931AAB059319AB049323AB03937E
:1047C00024AB029321AB002401936B461C702A009A
:1047D0003B0008980021FFF744FF20AB07931FAB75
:1047E00006931EAB05931DAB049323AB039324AB3D
:1047F000029322AB01936B461C702A003B00089881
:104800000121FFF72EFF1CAB07931BAB06931AABDE
:10481000059319AB049323AB039324AB029321AB11
:1048200001936B461C702A003B0008980221FFF799
:1048300018FF20AB07931FAB06931EAB05931DAB70
:10484000049323AB039324AB029322AB01936B46F7
:104850001C702A003B0008980321FFF702FF1CABE5
:1048600007931BAB06931AAB059319AB049323ABC9
:10487000039324AB029321AB01936B461C702A0077
:104880003B0008980421FFF7ECFE20AB07931FAB19
:1048900006931EAB05931DAB049323AB039324AB8C
:1048A000029322AB01936B461C702A003B000898D0
:1048B0000521FFF7D6FE1CAB07931BAB06931AAB83
:1048C000059319AB049323AB039324AB029321AB61
:1048D00001936B461C702A003B0008980621FFF7E5
:1048E000C0FE20AB07931FAB06931EAB05931DAB19
:1048F000049323AB039324AB029322AB01936B4647
:104900001C702A003B0007210898FFF7AAFE129BA3
:10491000FF180C9BED18379A0B9B944663443FE7B6
:104920001D9919980CF09AF81E9919901A980CF084
:1049300095F81F991A901B980CF090F820991B90ED
:104940001C980CF08BF8369B1C900B930B9B399AA0
:1049500093421BDA1CAB07931BAB06931AAB059370
:1049600019AB049323AB039324AB029321AB0193C4
:1049700000246B461C702A003B0000210898FFF7BA
:1049800070FE0B9B103704350133DEE71A992E9821
:104990000CF0CAFB109B19680CF060F81999041C04
:1049A0002E980CF0C1FB119B011C18680CF056F8F6
:1049B000119B1860109B2E981C601C990CF0B4FB86
:1049C0000E9B19680CF04AF81B99041C2E980CF0E9
:1049D000ABFB0F9B011C18680CF040F80F9B186094
:1049E0000E9B1C60099B043309930D9B149A9446FB
:1049F00063440D93A5E6159B0E933A9B0993099B7F
:104A0000389A934200DB85E0099A73680025534386
:104A10002F9A0E9F9B1832689B00D3180F93002388
:104A20000A9C0B930B9B369A934247DA21683868AD
:104A30000CF07AFB291C0CF011F8051C61687868F1
:104A40000CF072FB291C0CF009F8051CA168B86871
:104A50000CF06AFB291C0CF001F8051CE168F868F1
:104A60000CF062FB291C0BF0F9FF051C2169386969
:104A70000CF05AFB291C0BF0F1FF051C61697869E9
:104A80000CF052FB291C0BF0E9FF051CA169B86969
:104A90000CF04AFB291C0BF0E1FF051CE169F869E9
:104AA0000CF042FB291C0BF0D9FF051C0C9BFF18D6
:104AB000E418379A0B9B94466344B2E7369B0D93F8
:104AC00000230B93399A0D9B93420FDA0B9BE1580D
:104AD000F8580CF029FB011C281C0BF0BFFF051C2B
:104AE0000D9B01330D930B9B0433EAE72E99281C91
:104AF0000CF01AFB0F9B011C18680BF0AFFF169A05
:104B00000F9B94461860099B013309930E9B6344E5
:104B10000E9374E7179A2F9B944601332F930A9BA9
:104B200063440A9304E629B0F0BDF0B593B01C9D30
:104B3000199C1A9F1D9E0F936B1C00D12500731C9E
:104B400000D126000323F8171840C01980108000F8
:104B50000C9008200A9707270990079000201F9BB8
:104B60000B9406931E9BBC430593189B01900293E4
:104B70001B9B0894009304960F9B039511A8FFF7C5
:104B8000B4FD13B0F0BD0000F0B5ADB008AF3A64AD
:104B90000822BB60BC23BA18D31808221C68B023B3
:104BA000BA18D3181B68F864F965012B05D0AE213B
:104BB000C84BC94AC9480EF0FBFC23697B65A36852
:104BC000BB63BA6BFB6C7B64934200DD7A64E36881
:104BD0003B653A6DFB6DBB64934200DDBA647B6D4F
:104BE0007E6C7A6D5E43BB6C5343FB638023DB05B5
:104BF0009E4201D3FDF7D8FA2368B500BB65002BB0
:104C000010D180239B029D4200D9B2E02B006A465E
:104C10001633DB08DB00D31A9D462F200F23684490
:104C20009843B8652368082059424B41BA6D5B42EE
:104C300058211A40182338184118CB185E60802676
:104C4000B602AE42AD416D421D728023BA67FA6B67
:104C5000DB057E639A4201D3FDF7A6FAFB6B66681B
:104C60009D00002E0ED17B6B9D4200D985E02B006C
:104C70006A461633DB08DB00D31A9D460F232F3616
:104C80006E449E436368320059424B4108205B42A8
:104C900058211A40242338184118C9186033FB18CA
:104CA0001A60FB6BBA6B4B6080239B02AB42AD4139
:104CB00000237B63FB6C6D420D7293420DDD7B6DB7
:104CC0003A6C934209D1FB6D3A6D396DF86DDB0F8B
:104CD000D21781425341DBB27B637B6C08229B007D
:104CE000FB60AC23BA180821D318A0221B687918DE
:104CF0008A1812683B627B6D08215343A8227918F9
:104D00009B008A181268BB617B6D08215343B42253
:104D100079189B008A1812683B61BB6C53439B0057
:104D20007B6100233B653A6DFB6C934200DCBEE087
:104D300013007A6CF96C944663447B628B4200DD0D
:104D40000B003A6D9B1AFB619300BA68D3180822D6
:104D50003B63A423BA18D3181B68BB6200233A6CC8
:104D600093420FDBFA683B6A944663443B627B6A7A
:104D7000D8E72800FDF726FA53E72800FDF722FAC6
:104D800006007FE77A6D396C9A181400BA638A427C
:104D900000DD0C00E31A3B603B6B082208203B67F8
:104DA0005821A0230025BA18381808244118D31810
:104DB0005C2010221B683C197B6702950195FB69FA
:104DC0008A1800933B68B96D2018FFF76FF93B6AAA
:104DD000FB632B00FA6D93420BDBBA693B6B944685
:104DE0003A69634494463B63BB6A6344BB62BB6BF2
:104DF000B5E7BA6CF96D9A181500FA628A4200DDBF
:104E00000D00EA1A7A607A6B002A02D03A6D002A05
:104E10001DD1BA6A9B009B1808223B67A823582122
:104E2000BA18D3181B6808247B67002308250800DC
:104E30001022029301937B683C1961187C1900933E
:104E400020188A183B6831004019FFF763F9FB6BA3
:104E500008223B67B423082058251021BA18D3181C
:104E60001B6808227B670023082438184019411862
:104E70000C2007930693013B05930493BA18B933AA
:104E8000D3181B683C1903937B68651902933B6830
:104E900028180193FB690093BA6D3300FFF745FEB4
:104EA0007A69FB6B94466344FB63FB6A92E70822D2
:104EB00058242423BA181219D018FEF7E1FF08224B
:104EC0001823BA181219D018FEF7DAFFBD4625B01C
:104ED000F0BDC04633BC01003BBC010005BD010074
:104EE000062370B541C81C004B4354439B183269DC
:104EF000B03664183168A4009B00056809599858B9
:104F00000BF0ACFD285170BD70B5050000242200E7
:104F100000212800FFF7E4FF220001212800FFF70D
:104F2000DFFF220002212800FFF7DAFF2200032121
:104F30002800FFF7D5FF220004212800FFF7D0FF4B
:104F40002200052128000134FFF7CAFF062CDED11C
:104F500070BD00000023F0B58361CB6885B002937B
:104F60000B69040003934B690D00002B09D0062B3D
:104F700006D91221164B174A1748FF310EF018FBBD
:104F80008361A26900260192934204D0134B144A14
:104F900014491548F2E7019B9E4208DA039BB700CB
:104FA000D85902990CF0C0F80136E051F3E7290016
:104FB000200044311C30FDF7FBFDE3692000236332
:104FC000636AE462A3630123E36305B0F0BDC046F6
:104FD000686501007FBD0100806701002AA701000C
:104FE00012BE0100FD020000FD920100F0B58BB081
:104FF0001F0004911199129B194305D0354B364A75
:10500000364937480EF0D4FA0320109B0D00DB1709
:10501000034010981B18F843C01738409B109B00A2
:105020000390800000930990009B8B423BDD546805
:1050300000232000484380000290481C6043800009
:105040000890881C604380000790C81C4443A0005F
:105050000690029C106801930619049CA800201871
:10506000019B9F4216DD3368089C0360029BF31A84
:105070009C461B59079C436063461B59069C8360F2
:10508000059363461B590436C360019B10300133FE
:105090000193E5E7099B0431ED18C5E7039BED1883
:1050A000009B01330093109B00998B420FDD5468E5
:1050B00013684C430021A4001C19049BA800181875
:1050C0008F42EBDD8E00A35901318351F8E70BB01D
:1050D000F0BDC046BBB1010003C00100580900008B
:1050E0008EB30100F0B5ADB008AFFA630822BB6023
:1050F000BC23BA18D31808221C68B023BA18D318D6
:105100001B68F864F965012B05D0AE21C34BC44A76
:10511000C4480EF04DFA2369BB64A3687B637A6BC5
:10512000FB6C3B64934200DD3A64E3683B653A6D97
:10513000FB6D7B64934200DD7A64BB6C3E6CBA6CA1
:105140005E437B6C5343BB638023DB059E4201D3EC
:10515000FDF72AF82368B500BB65002B10D180232A
:105160009B029D4200D9ADE02B006A461633DB0856
:10517000DB00D31A9D462F200F2368449843B8655F
:105180002368082059424B41BA6D5B4258211A40AE
:10519000182338184118CB185E608026B602AE423C
:1051A000AD416D421D728023BA67BA6BDB059A422E
:1051B00001D3FCF7F9FF63687B65BB6B9D007B6DDA
:1051C000002B0ED1B54200D980E02B006A46163381
:1051D000DB08DB00D31A9D462F200F236844984339
:1051E00078656368082059424B417A6D5B425821CB
:1051F0001A40242338184118C9186033FB181A6064
:10520000BB6B7A6B4B6080239B02AB42AD410023AA
:105210003B63FB6C6D420D7293420DDDBB6CFA6B10
:10522000934209D1FB6D3A6D396DF86DDB0FD217E2
:1052300081425341DBB23B633B6C08229B003B61E4
:10524000AC23BA180821D318A0221B6879188A1831
:105250001268BB62BB6C08215343B42279189B00CF
:105260008A181268FB607B6C08215343A8227918C6
:105270009B008A181268BB617B6C53439B007B6167
:1052800000233B653A6DFB6C934200DCB4E01300F5
:105290003A6CF96C944663447B628B4200DD0B00F0
:1052A00000263A6D9B1AFB619300BA68D318FB6223
:1052B000FB6B9E420EDB3A69BB6A94466344BB6259
:1052C0007B6ADEE72800FCF77DFF58E72800FCF743
:1052D00079FF85E7BB6CFA6BF3181D003B629342C4
:1052E00000DD1500AB1B3B60FB6A082208203B6712
:1052F0005821A0230024BA18381808254118D318BB
:105300005C2010221B687D197B6702940194FB6965
:105310008A1800933B68B96D2818FEF7C7FEA423CE
:10532000EB181B68B6009E19BB6ABB63FB6D9C4201
:1053300006DBFA68FB6A944663443E6AFB62B7E7A1
:105340007B6CF96DE3187B638B4200DD0B001B1B4C
:105350007B603B6B002B02D03B6D002B1AD10822E7
:10536000A82308245821BA18D3181B683C197B6756
:10537000002308006118082410223E67029301935D
:105380007B683D19009328188A183B68796D0019CD
:10539000FFF72CFEBB6B08223B67B4230820582480
:1053A0001021BA18D3181B6808227B670023082530
:1053B0003818001941180C2007930693013B0593F8
:1053C0000493BA18B933D3181B687D1903937B680B
:1053D0002C1902933B6820180193FB6900937B6DA5
:1053E000BA6DFFF7A2FBBA69BB6B94466344BB631B
:1053F0007B697C6BF61899E7082258242423BA1895
:105400001219D018FEF73CFD08221823BA181219F9
:10541000D018FEF735FDBD4625B0F0BD33BC010008
:105420003BBC010005BD0100F0B5334C0D00A544A7
:105430003724119308ABE418FC2324092401DB0072
:10544000E7180F9038001092FDF704F92B6800223E
:105450000D936B68F02138000E93FCF75FFE20007F
:10546000FEF746F92300203323600B93F8239B00BB
:10547000E3180F25636010260C930023A560E660F7
:1054800026610893FE2301220E999B0528000693AE
:1054900004920D9B3200019107943100059503970A
:1054A00002960095FFF71EFE1099200009680D91E5
:1054B000119909680E91FEF71BF9002301220B993F
:1054C000A56021600C99E5606160266108930E9BE0
:1054D000049206930F9B320003930D9B29000193C6
:1054E00028003B000794059502950095FFF74CFBBB
:1054F000024B9D44F0BDC0460CF4FFFFF40B0000CE
:1055000010B504000022E121FCF708FE200010BDC8
:10551000F0B52C4C1F00A5442B4C06ABE4180B68CF
:1055200024090D934B6824010F9011A816000E93C7
:10553000FDF726F82000FEF7DBF823002033236078
:105540000B93EC239B00E3180F2563600C9300235F
:10555000A560E56025610893FE23012211A903914E
:105560000E999B052800069304920D9B2A00019139
:1055700007942900059502950095FFF7B3FD2000DB
:1055800036683F68FEF7B4F8002301220B99A56046
:1055900021600C99E5606160256108930F9B04927E
:1055A000039311AB01932A003300290028000794CC
:1055B0000697059502950095FFF7E6FA034B9D4483
:1055C000F0BDC046ECF4FFFFBF030000140B000069
:1055D00070B50CC815685A689B688C001959105929
:1055E0000BF0BCFE285170BD30B50D0004008BB02F
:1055F000FCF7D6FF2A6803AB04926A68079305920A
:1056000001AB02AA06A8002106920893029409940D
:10561000FFF7DEFF06A80121FFF7DAFF06A8022147
:10562000FFF7D6FF06A80321FFF7D2FF06A8042143
:10563000FFF7CEFF06A80521FFF7CAFF06A806213F
:10564000FFF7C6FF06A80721FFF7C2FF06A808213B
:10565000FFF7BEFF06A80921FFF7BAFF06A80A2137
:10566000FFF7B6FF06A80B21FFF7B2FF06A80C2133
:10567000FFF7AEFF06A80D21FFF7AAFF06A80E212F
:10568000FFF7A6FF06A80F21FFF7A2FF20000BB02F
:1056900030BDF0B50B68176885B004000E00181C0B
:1056A000391C150000930BF075FB012102AB019032
:1056B0005818FCF7BFFF012102AB5818FCF7BAFFDE
:1056C000012102AB5818FCF7B5FF019B103623608F
:1056D000009B10356362391CE6606761E561381C28
:1056E0000BF022FD011CFE2080050BF053FB6063D4
:1056F000200005B0F0BD70B528C81E68AB698C00ED
:10570000185929690BF010FDAB6819590BF0A6F96F
:10571000EB6919590BF0A2F9305170BDF0B54B6827
:105720009FB0039353689668049313688F6805933A
:105730000B680C000290311C0398019206930BF049
:10574000F3FC0499051C381C0BF0EEFC011C281C12
:105750000BF004FE05990C90381C0BF0E5FC069943
:10576000051C301C0BF0E0FC011C281C0BF0F6FDA6
:1057700006990D9004980BF0D7FC0599051C039829
:105780000BF0D2FC011C281C0BF0E8FD16AF0FAB90
:1057900012AE0CAD0E90179338000BAB002118938E
:1057A0000F95129516961995FEF74EFF38000121B8
:1057B000FEF74AFF38000221FEF746FFE36809932F
:1057C000636803930E9B03980493A368049905935D
:1057D0000D9B06930C9B0793236808930BF0A4FC86
:1057E0000699041C05980BF09FFC011C201C0BF073
:1057F000B5FD07990F9005980BF096FC0899041CCD
:1058000004980BF091FC011C201C0BF0A7FD0899DB
:10581000109006980BF088FC0799041C03980BF075
:1058200083FC011C201C0BF099FD019B1190BB60B7
:10583000099B30003B610FABFB61029B00210B9386
:105840000BAB12930AABB360029BBD61F360776050
:10585000FFF751FF30000121FFF74DFF300002211B
:10586000FFF749FF02981FB0F0BD10B50EF0C2FD62
:105870000BF052FF011C0BF0F1F8C02189050BF071
:1058800053FCFE2189050BF069FD10BD10B50468BD
:1058900089006418FFF7E9FF206010BD13B504000C
:1058A000FCF77EFE01A800210194FFF7EFFF01A89D
:1058B0000121FFF7EBFF01A80221FFF7E7FF01A895
:1058C0000321FFF7E3FF01A80421FFF7DFFF01A891
:1058D0000521FFF7DBFF01A80621FFF7D7FF01A88D
:1058E0000721FFF7D3FF01A80821FFF7CFFF01A889
:1058F0000921FFF7CBFF01A80A21FFF7C7FF01A885
:105900000B21FFF7C3FF01A80C21FFF7BFFF01A880
:105910000D21FFF7BBFF01A80E21FFF7B7FF01A87C
:105920000F21FFF7B3FF200016BD10B504688900F2
:105930006418FFF79AFF206010BD10B50468890055
:105940006418FFF792FF206010BD10B50400062117
:10595000FEF7DEFA20000721FEF7DAFA2000082120
:10596000FEF7D6FA20000921FEF7D2FA20000A211C
:10597000FEF7CEFA20000B21FEF7CAFA20000C2118
:10598000FEF7C6FA20000D21FEF7C2FA20000E2114
:10599000FEF7BEFA0F212000FEF7BAFA10BD10B5CF
:1059A00004000021FEF7B4FA20000121FEF7B0FA4E
:1059B00020000221FEF7ACFA20000321FEF7A8FA2E
:1059C00020000421FEF7A4FA05212000FEF7A0FA2A
:1059D0002000FFF7BAFF10BD0B6810B5036003008D
:1059E000040088B003AA049202AA10331031059271
:1059F00004A801AA0291039306920793FFF7CFFF31
:105A0000200008B010BD30B550250F2403684D4369
:105A10001B6897B05D1943686C445B6824092401D6
:105A2000890059182000FDF725F921002800FFF70B
:105A3000D3FF17B030BD10B504000121FFF7E3FF1D
:105A400020000221FFF7DFFF20000321FFF7DBFF2B
:105A500020000421FFF7D7FF20000521FFF7D3FF27
:105A600020000621FFF7CFFF20000721FFF7CBFF23
:105A700020000821FFF7C7FF20000921FFF7C3FF1F
:105A800020000A21FFF7BFFF20000B21FFF7BBFF1B
:105A900020000C21FFF7B7FF20000D21FFF7B3FF17
:105AA00020000E21FFF7AFFF0F212000FFF7ABFF13
:105AB00010BD30B50D0089B00400FCF713FE02AB39
:105AC00005936B462A680021039204A801AA049258
:105AD000069301940794FFF796FF04A8FFF7ABFF26
:105AE000200009B030BD502330B50F24594303685E
:105AF00097B01D6843686C441B68240924016D1825
:105B000020005918FCF76CFD21002800FFF764FF06
:105B100017B030BD30B50D0089B00400FDF736FA7E
:105B20006B68032B01D0FCF707FB2B6804A80293DA
:105B300001AB049302AB05936B46002106930194DD
:105B40000794FFF7D0FF04A80121FFF7CCFF04A8BA
:105B50000221FFF7C8FF200009B030BD436870B5CF
:105B60000C00032B09D001220321FEF725FD0B4B6E
:105B70000B4A0C490C480DF01BFD05682800FFF787
:105B80002BFF2800210050305031FFF725FF28005F
:105B90002100A030A031FFF71FFF70BD2AA7010030
:105BA00047C10100FD020000FD920100F0B517247D
:105BB000DFB002ABE418240924012600002305000D
:105BC0001136FF3603A930000393FDF753F8310077
:105BD00020006F68FCF704FD20002300012239003B
:105BE0006030FDF7E9FA210020007031FCF7F8FC85
:105BF0006B68216E0093994209D001222800FEF7BC
:105C0000DBFC0F4B0F4A104910480DF0D1FC002669
:105C10002B680193009B9E420EDA2700C0372100BB
:105C20003800FCF7DDFC50207043019B3900181848
:105C3000FFF7D2FE0136EDE728005FB0F0BDC046A9
:105C40002AA7010012C30100FD020000FD9201001D
:105C5000502330B50F245943036897B01D6843683B
:105C60006C441B68240924016D1820005918FCF7A6
:105C7000B7FC21002800FFF7AFFE17B030BD30B5EC
:105C800089B004000D00FCF775FD01AB049302AB75
:105C900005936B4604A8002106930295019407948E
:105CA000FFF7D6FF04A80121FFF7D2FF04A80221C5
:105CB000FFF7CEFF04A80321FFF7CAFF04A80421C1
:105CC000FFF7C6FF04A80521FFF7C2FF04A80621BD
:105CD000FFF7BEFF200009B030BDF8B504000F008B
:105CE00016001D00FDF74AFA39002000FFF774FE88
:105CF000200031005030FFF76FFE20002900A03057
:105D0000FFF76AFE20000699F030FFF765FE2000DD
:105D1000F8BDF8B504000F0016001D00FDF736F9B8
:105D200039002000FFF758FE200031005030FFF707
:105D300053FE20002900A030FFF74EFE2000F8BDE2
:105D4000F0B5484CA5444F24029304ABE418240951
:105D500001922401002A05D13921434B434A44488A
:105D60000DF026FC029B0DAD002B11D1402220002E
:105D70000DF098FC21002800FEF794F8019B07CD58
:105D800007C307CD07C32A681A603A4B9D44F0BD8C
:105D9000A023DB000D91E0182900FFF78AFEC32342
:105DA0001B01E318180003930025FCF7E3FCA02374
:105DB000DB00E71829003800FCF7B0FA06002A00DB
:105DC00009A90DA8FCF7C8FB300009AA10300DA9DD
:105DD0000135FEF7F7F8102DE9D139002000FCF766
:105DE0000AFCA0231B01E618210030008C27FFF7D6
:105DF00046FF0025BF00C3231B01E018711940199D
:105E00005035FFF7E9FDBD42F5D100240126210000
:105E10000398FCF797FA019A0368A5005351029B77
:105E2000210003985D19FCF78DFA0021029B1030C8
:105E30000F9307AB099306AB0A9305AB06900B9340
:105E400009A80DAB109411910C930D95129607951E
:105E50000134FDF719FD09A8FDF721FD072CD6D166
:105E600093E7C04644F1FFFF52C5010057C501004A
:105E700055C70100BC0E000070B52F250026040098
:105E80009AB06D442D092D01402228000DF00AFC26
:105E9000321C072101A8FCF741F92000FCF7BAFBEE
:105EA000321C70212000FCF739F9684623002900D4
:105EB00001AAFFF745FF20001AB070BDF0B51F24FE
:105EC000B5B006ABE418C36806005B682409049308
:105ED000002324010193019B049A934239DA502351
:105EE000019A776853430293029A336894461B6879
:105EF0009B180593BB689D18FB6828686344196864
:105F0000103503930BF02AFA07952500039B1035F3
:105F100010330690206007A928000893FFF764FB60
:105F20003F69029B2068FF1839680BF017FA06904A
:105F30002065200007A91037603007950897FFF704
:105F400053FB210005985031FFF746FD019B0133BB
:105F5000C0E735B0F0BD00B589B003AB049302AB28
:105F600003900593079001AB04A802910693FFF7F5
:105F700016FD09B000BD000010B5062423005343F0
:105F80009B00CB18036000238160C3600261446101
:105F9000052A05D97821034B034A04480DF008FB74
:105FA00010BDC0460E800100E2C7010087780100E5
:105FB0000023F0B5070099B001933C23019A5343A5
:105FC0000393002302933B687C68039A1B682100BB
:105FD0009B180CA8029A0493FEF71AFA18220CA92F
:105FE00012A80DF05FFB21007131019AFF3106A864
:105FF000FFF7C2FF129D069C2B00F0331968206941
:106000000BF092F82B00FC33196B061C60690BF047
:106010008BF8011C301C0AF021FD2B00B4331968E9
:10602000061CE0680BF080F8011C301C0AF016FD1D
:10603000E96B061C60680BF077F8A96F0590A06803
:106040000BF072F8011C05980AF008FD296805900C
:1060500020680BF069F8011C05980AF0FFFC011C90
:10606000301C0AF0FBFC049B1860029B0133029376
:10607000039B04330393029B0F2BA4D1019B013399
:106080000193062B99D119B0F0BD0CC870B51568F5
:106090005A688C00105999680BF046F8285170BD69
:1060A0000CC870B515685A688C00105999680AF0C8
:1060B00071FE285170BDF0B5372495B004ABE418DB
:1060C0004B680E6800938B6805000193CB680199BB
:1060D0000293081C0BF028F80299071C081C0BF00F
:1060E00023F8011C381C0AF0B9FC311C0390301C49
:1060F0000BF01AF80099071C081C0BF015F8011C8E
:10610000381C0AF0ABFC011C03980AF0A7FC240918
:1061100000212401071C0AF08DFC002831D020004A
:10612000FCF746FB80228023120694461B06F618D5
:10613000009B280063446360019B26606344A36066
:10614000029BE360FCF734FB06AB05AA00210B932E
:106150000AA804AB0A920C930794089705950D952D
:10616000FFF79EFF01210AA8FFF79AFF02210AA864
:10617000FFF796FF03210AA8FFF792FF280015B04A
:10618000F0BD2800FCF714FB002204212800FBF7D7
:10619000C5FFF3E7F0B59724BDB004ABE4182409BC
:1061A000240123000D0040330090180016000193D5
:1061B000FCF7FEFA2B69032723646B691FA963644C
:1061C000AB6904A8A364EB682295E3642B001C333D
:1061D0001F9307232393093325932097FDF70CFF83
:1061E0002A00283210231F920A221FA907A82295ED
:1061F000239225932097FDF7FFFE2A000D233432CA
:1062000023931FA9DB190AA81F9222952593209793
:10621000FDF7F2FE3B00002231001FA8FCF72AFA2E
:106220001FA90DA8FDF711FF3B003A0031001FA880
:10623000FCF720FA1FA910A8FDF707FF0098FCF74C
:10624000AFF93B00009900221FA8FCF78FF804AAC1
:10625000019919A8FFF762FA19A91FA8FCF7E0FF36
:106260000A9910980BF07AF80B99029011980BF09C
:1062700075F826000C99039012980BF06FF83036E1
:10628000051C3000FCF794FAA56320000025029B52
:1062900032002363039B01996363E563203E203052
:1062A000FCF796FA3000FCF783FAE36A3A002361C0
:1062B000236A00996361636A1FA8A361A36AE3610B
:1062C0000423FCF753F819A91FA81B951C96FCF78B
:1062D000C5FF144B0722009915931FA83B00139587
:1062E0001495FCF743F816AD20000199FFF7E3FE83
:1062F00013AA21002800FFF711FA0DAB1A9319A970
:1063000007AB1FA81B931D95FCF7CCFF06230A22A1
:1063100000991FA8FCF72AF81FA8FCF7EDFF0098CA
:106320003DB0F0BDC3F51C410623534370B51500C5
:106330000A689B00D3184A6804000E00036042609C
:10634000002B07D0002A05DAB0210E4B0E4A0F4869
:106350000DF02EF92000342231000C300DF0A2F99E
:106360000023236406336564A364002D02DBB36855
:106370009D4204DB7821064B064A0748E8E72000E7
:1063800070BDC046E0740100C6C8010082760100FD
:106390000E8001000BCA010087780100F0B5066885
:1063A0000A00456897B0002E07D0002D05DAB0210D
:1063B0001A4B1B4A1B480DF0FBF8010003A83031B3
:1063C000FFF7B2FF049BAB4209D10024002D22D07D
:1063D0000ADC9C21144B154A1548FF31EBE7742168
:1063E000144B154A1548E6E7039F316838680AF0F0
:1063F0009BFEAB000025041C0193019B04359D42CC
:1064000009D0715978590AF08FFE011C201C0AF03E
:1064100025FB041CF1E7201C17B0F0BDE07401005F
:106420002ACB010082760100BA6E010004D001007F
:1064300059700100C76A010084CC0100406E010060
:10644000F0B59FB06D460A002B000C00060083CA11
:1064500083C383CA83C383CA83C383CA83C321001C
:10646000342230310CA80DF01DF9009BA26B6B6635
:106470000C9BB768EB6663686B67BA4209D0012171
:106480003000FCF7A5FF0A4B0A4A0B490B480DF0F8
:106490008FF800243668BC4207DA21002800FFF795
:1064A0007DFFA300F0500134F5E71FB0F0BDC046FA
:1064B0002AA7010065D20100FD020000FD92010043
:1064C000836970B58D000400C16958590AF02CFE2B
:1064D000A368061CE16858590AF026FE011C301C0E
:1064E0000AF0BCFA70BDF0B5036846681B6885B059
:1064F00001933300370000243033039324330C37E7
:106500000293783621003800FFF7DAFF2100051CDE
:106510000398FFF7D5FF011C281C0AF01FFF21007C
:10652000051C0298FFF7CCFF011C281C0AF016FF7F
:106530002100051C3000FFF7C3FF011C281C0AF0D6
:106540000DFF019BA20001349850102CDAD105B048
:10655000F0BDF0B5036846681B6885B00193330051
:10656000370000243033039324330C3702937836FA
:1065700021003800FFF7A4FF2100051C0398FFF756
:106580009FFF011C281C0AF069FA2100051C0298D3
:10659000FFF796FF291C0AF061FA2100051C300064
:1065A000FFF78EFF011C281C0AF0D8FE019BA200F9
:1065B00001349850102CDBD105B0F0BD30B50C0083
:1065C000AFB00500FBF7ECFF226907AB0C92A269A4
:1065D00003A80D92226A1092A26A1192A26B1592E0
:1065E000226C1692A26C1992226D1A92626E1E9201
:1065F000E26E1F92626F2292E26F2392220090322B
:106600001268279222009832126828922200A03243
:106610001268A8342B9222682C9202AA049301AB30
:106620000295039205930695FFF793FF28002FB07C
:1066300030BD036889001A68436880205B680006E3
:106640005B581B185350704730B50D0089B00400DB
:10665000FBF7A6FF02AB05936B462A6804A80392DA
:10666000002101AA0492069301940794FFF7E1FF29
:1066700004A80121FFF7DDFF04A80221FFF7D9FFDD
:1066800004A80321FFF7D5FF04A80421FFF7D1FFD9
:1066900004A80521FFF7CDFF04A80621FFF7C9FFD5
:1066A00004A80721FFF7C5FF04A80821FFF7C1FFD1
:1066B00004A80921FFF7BDFF04A80A21FFF7B9FFCD
:1066C00004A80B21FFF7B5FF04A80C21FFF7B1FFC9
:1066D00004A80D21FFF7ADFF04A80E21FFF7A9FFC5
:1066E00004A80F21FFF7A5FF200009B030BD10B5A9
:1066F00004000721FDF7CAFC20000821FDF7C6FCB5
:1067000020000921FDF7C2FC20000A21FDF7BEFC94
:1067100020000B21FDF7BAFC20000C21FDF7B6FC90
:1067200020000D21FDF7B2FC20000E21FDF7AEFC8C
:106730000F212000FDF7AAFC10BD00B58DB006ABFF
:1067400003936B460A6801900792CA680590099204
:106750000A6902A80B92002101AA02920493FDF794
:1067600095FC02A80121FDF791FC02A80221FDF78A
:106770008DFC02A80321FDF789FC02A80421FDF786
:1067800085FC02A80521FDF781FC062102A8FDF782
:106790007DFC02A8FFF7ABFF0DB000BDF0B5F3B074
:1067A00007936F23160008AA9B181B091B015D1C89
:1067B000FF350700280001910093FBF7F1FE009BD5
:1067C0003200C033180001990293FFF7E3FC0798E9
:1067D0000CF000FE00224B4B049005910BF052FF91
:1067E0000CF040FE192308AA9B18069001211800FE
:1067F000FBF720FF019B0EAC0E93069B2100E3608C
:10680000029B28002361FFF798FF009B3200803332
:10681000290018000393FFF7BDFC192308AA9B1851
:1068200001211800FBF706FF019B21000E93069B38
:106830002800E360039B2361FFF77FFF009B32008A
:106840004033290018000693FFF7A4FC192308AA77
:106850009B1801211800FBF7EDFE019B21000E9310
:10686000079B2800E360069B2361FFF766FF320069
:1068700029000098FFF78EFC192308AA9B18012114
:106880001800FBF7D7FE192308AA9B18012118004E
:10689000FBF7D0FE192308AA9B1801211800FBF76B
:1068A000C9FE3800FBF77CFE04980599019B002285
:1068B0006360154B0BF0E0FA0CF0D4FD029B039AD9
:1068C00023628023DB05A362A363069BE06023644D
:1068D000009B0AA8636409AB0A9308AB22630C937C
:1068E00009970B940D97FCF721FD0423032239002F
:1068F0002000FBF73BFD2000FBF7C2FC380073B023
:10690000F0BDC0460000E03F000018400023F0B595
:10691000060087B0029301931C23019A534303930B
:1069200000230093736800991A685C68039B5518EC
:10693000E4183368029A1B68A96F9B186069049376
:106940000AF0F2FB2B0090331968071CA0690AF0CB
:10695000EBFB011C381C0AF081F8A96C0590E0687B
:106960000AF0E2FB296E071C20690AF0DDFB011C1E
:10697000381C0AF073F8011C05980AF06FF8A96931
:10698000059060680AF0D0FB296B071CA0680AF02C
:10699000CBFB011C381C0AF061F82968071C206831
:1069A0000AF0C2FB011C381C0AF058F8011C0598BB
:1069B0000AF054F8009A049B985013000433009393
:1069C000182BAFD1019B01330193029B1833029323
:1069D000019B102BA0D107B0F0BD0000F0B5524CC8
:1069E0001500A544C02404ABFF34E418AC232409EB
:1069F0002401DB00E3180C9018000D93FBF72AFE2E
:106A000092231B01E31818000B93FBF703FE2900E8
:106A10002000FFF731FAE022210052000B980CF021
:106A200041FEC7231B01E6183000FBF7C1FEC72358
:106A30002A691B01E2506B6910227360AB69310057
:106A4000B360EB68F360AE231B01E71838000CF06D
:106A500029FE39002000FDF76FF8F0222100920096
:106A60000D980CF01FFE290015A8FDF71BFAC62390
:106A70001B01E5182800FBF79BFEC623199A1B0192
:106A8000E2501A9B29006B601B9B1022AB60189B85
:106A90002000EB6046AD0CF005FE21002800FDF75C
:106AA000B5F92900A8221CA80CF0FCFD0C98FCF7F5
:106AB00065FA1CAB46930B9B11A86B601CABAB60DB
:106AC0000B9B1097EB6007232B6110AB11930FAB5F
:106AD000139312951497FFF719FF2000FCF708FE97
:106AE000102323612300203323608133FF3363604D
:106AF00006200F210023A060E1600893FE239B0580
:106B00000693012304930C9B059003930D9B009027
:106B1000019310223B0007940291FEF735F80C9880
:106B2000024B9D44F0BDC046B4F1FFFF4C0E000087
:106B3000F0B52E4C1700A544A0240F93FF3406ABEC
:106B4000E4180B6824090C934B6824010E9010A8DC
:106B50000D93FCF713FA2000FCF7CAFD2300203345
:106B600023600A937133FF33062563600F260B936E
:106B70000023A560E66026610893FE23012210A988
:106B800003910D999B052800069304920C9B3200FB
:106B9000019107943100059502960095FEF7A2FA3F
:106BA0000F99200009683F680C91FCF7A1FD0023B4
:106BB00001220A99A56021600B99E5606160266158
:106BC00008930C9B049206930E9B3200039310AB28
:106BD000019329003B002800079405950295009534
:106BE000FDF7D2FF024B9D44F0BDC0462CF9FFFFDC
:106BF000D4060000930010B5CB18C26003608B6907
:106C000081604361002A01DB9A4205DB7821034B56
:106C1000034A04480CF0CCFC10BDC0460E800100B5
:106C200041D401008778010070B50400150093007D
:106C30000A680E00D31803600830FBF7B9FF236918
:106C4000E5612362002D02DBB3689D4205DB7821FC
:106C5000034B044A04480CF0ABFC200070BDC04656
:106C60000E80010027D50100877801008B68C36082
:106C70000B6903618B69C3610B6A03620B6B03636E
:106C80008B6B43630B6C03648B6C43647047F0B590
:106C90000C0095B00500FBF783FC210001A8FFF76D
:106CA000E5FF0024210002A8FFF70AFC2100061CD2
:106CB0000BA8FFF705FC011C301C0AF04FFBA700D6
:106CC0000134E851102CEDD1280015B0F0BD0000C2
:106CD000F0B53C4C0D68A5443B4C06AB1600E418DF
:106CE0002B00A0365033170019003200049006A87C
:106CF0000393FCF772F92B00A03302933B0050334F
:106D00001A00029911A80193FCF767F911AA06A9C4
:106D100048A8FCF798F92409489B240149A960A8D0
:106D20005F93FCF781F9230020005F9AA0331A607B
:106D300060A9B0300593FFF7AAFF3A0002991CA89A
:106D4000FCF74BF93200290027A8FCF746F927AADF
:106D50001CA976A8FCF777F9769B77A98EA88D9366
:106D6000FCF762F920008D9B8EA923656030FFF748
:106D70008EFF2900019A32A8FCF72FF93A000399F7
:106D80003DA8FCF72AF93DAA32A9A4A8FCF75BF9B3
:106D9000A49BA5A9BCA8BB932600FCF745F920003D
:106DA000BB9BBCA9236050361030FFF770FF230057
:106DB000320005990498FEF7ACFF0498034B9D44FC
:106DC000F0BDC046BCFBFFFF3F03000044040000D1
:106DD000F0B5C84CC84BA54403920AAA9B181B09DE
:106DE0001C010B00F0330993039B0A90F0331A0047
:106DF00002910CA809990893FCF7EFF8039A0299FD
:106E000017A8FCF7EAF817AA0CA9BCA8FCF71BF90D
:106E1000029B22A850330793039B079950331A0013
:106E20000693B64DFCF7D9F82299BC980AF096FA69
:106E30000AABED188A230AAA1B019B18061CBDA9E0
:106E40001800FCF7F1F8AE480AAB23A9C018FCF70C
:106E5000BBF8FFABFFA829005E6668306433FCF71F
:106E60000CF9029B2DA8A0330593039B0599A03331
:106E70001A000493FCF7B1F8FFAB2D99586E6433F8
:106E80000AF06CFA8A230AAA1B019B18FFA9061CA8
:106E900068311800FCF7F1F89A4B0AAA9B182EA942
:106EA0001800FCF791F8CD230AAADB009B181E609E
:106EB0008A23CE201B019B18C00019008018FCF704
:106EC000DCF8DF208F4B0AAA9B18C000190080183D
:106ED000FCF77AF82300F0331A000B93CD230AA9AC
:106EE000DB005B181B68661CFF3613603000864FA2
:106EF000FBF756FB0AAB8549FF18C9183800FFF7A6
:106F0000B5FEDA230AAADB009B181B680AA9EB6509
:106F1000CD23DB009B181B6F2B66DC23DB009B184B
:106F20001B68EB66DD23DB009B181B682B67784B27
:106F30009B18784A521812681A60774B774A5B1888
:106F40001B685218FB67764B12685B181A60932314
:106F5000744A1B01521812685B181A60FC23724FA6
:106F6000DB007F185B181F60704B714A5B181D6057
:106F7000FD23DB005B1852181A606E4B3E605B18F5
:106F80001E60FC23DB005B181800FFF7ACFA039AC5
:106F9000099938A8FCF721F8089A029943A8FCF748
:106FA0001CF843AA38A9D3A8FCF785F8049A0799D6
:106FB0004EA8FCF712F8FFA84EAAD3A9F030FCF7B0
:106FC000A3F8069A059959A8FCF707F8FFA9380015
:106FD00059AAF031FCF7B2F8E5212000524B0AAA79
:106FE0009B181B68603EC90033608918B030FFF7FA
:106FF000E5FA069A099964A8FBF7EFFF089A079942
:107000006FA8FBF7EAFF6FAA64A9EAA8FCF753F898
:10701000039A05997AA8FBF7E0FFAA230AA8DB00E8
:107020001B1818007AAAEAA9FCF76EF8049A0299CC
:1070300085A8FBF7D2FFAA230AA9DB005B18190079
:10704000FC230AA8DB001B18180085AAFCF776F8B9
:10705000FC2320000AAADB009B181B683349236528
:1070600089186030FFF7AAFA049A099990A8FBF7EB
:10707000B4FF089A05999BA8FBF7AFFFFFA89BAA4E
:1070800090A90830FCF717F8069A0299A6A8FBF712
:10709000A4FF274B0AA81B18FFA91800A6AA0831AD
:1070A000FCF732F8039A0799B1A8FBF796FF204B3B
:1070B0000AA95B1819002800B1AAFCF73FF80F4B8A
:1070C0000AAA9B181B68200023608A2327001B0143
:1070D0009B1819001030FFF771FA0B9B5037009383
:1070E0003A00230031000A98FEF7F7FD0A98124B88
:1070F0009D44F0BD34F5FFFF670900009C080000C7
:10710000F808000028090000A40800007406000028
:107110001C090000FC060000040700000C0700002A
:107120002C0900001407000024070000E4070000F9
:10713000DC050000EC070000CC0A000070B50CC8AC
:1071400015685A689B688C001959105909F086FC1B
:10715000285170BD10B50C68496888B00391694624
:1071600001AB009004910790002104A805930692BA
:107170000294FFF7E3FF04A80121FFF7DFFF04A853
:107180000221FFF7DBFF04A80321FFF7D7FF04A8C4
:107190000421FFF7D3FF04A80521FFF7CFFF04A8C0
:1071A0000621FFF7CBFF04A80721FFF7C7FF04A8BC
:1071B0000821FFF7C3FF04A80921FFF7BFFF04A8B8
:1071C0000A21FFF7BBFF04A80B21FFF7B7FF04A8B4
:1071D0000C21FFF7B3FF04A80D21FFF7AFFF04A8B0
:1071E0000E21FFF7ABFF0F2104A8FFF7A7FF08B0A0
:1071F00010BD70B514000D00060086B01168286837
:10720000103409F02BFC04943400103402903060E8
:10721000103520000395FBF7C3F9200001AA03A94C
:10722000FFF798FF300006B070BD70B550240368BA
:1072300061431D6843686D181C6886B06418216836
:1072400028682E0009F00AFC1036103402900396CC
:10725000049401AA286003A93000FFF77BFF06B061
:1072600070BD10B504000421FEF70FFF20000521BA
:10727000FEF70BFF20000621FEF707FF2000072185
:10728000FEF703FF20000821FEF7FFFE2000092182
:10729000FEF7FBFE20000A21FEF7F7FE20000B217F
:1072A000FEF7F3FE20000C21FEF7EFFE20000D217B
:1072B000FEF7EBFE20000E21FEF7E7FE0F21200077
:1072C000FEF7E3FE10BD30B50D008BB00400FBF7F8
:1072D00067F902AB07936B462A6806A80392AA686F
:1072E0000021049201AA0692089301940994FEF7E2
:1072F000CCFE06A80121FEF7C8FE06A80221FEF773
:10730000C4FE032106A8FEF7C0FE06A8FFF7A9FFEA
:1073100020000BB030BDF0B5502527246A439FB044
:107320004D6902ABCF68E4184B68AD1829689B180B
:107330000600381C019309F0F7FE240902AB240172
:1073400000900121581DFBF775F92000009B04A94E
:10735000236010351030039304950697FFF7B3FFB1
:10736000300022000199FFF744FF30001FB0F0BD4C
:107370000A00502130B50F2497B0514303686C4484
:107380001D68240924016D1841682000FFF7C3FF20
:1073900021002800FEF720FB17B030BD10B5040017
:1073A0000221FFF7E5FF20000321FFF7E1FF2000A6
:1073B0000421FFF7DDFF20000521FFF7D9FF2000A2
:1073C0000621FFF7D5FF20000721FFF7D1FF20009E
:1073D0000821FFF7CDFF20000921FFF7C9FF20009A
:1073E0000A21FFF7C5FF20000B21FFF7C1FF200096
:1073F0000C21FFF7BDFF20000D21FFF7B9FF200092
:107400000E21FFF7B5FF0F212000FFF7B1FF10BDE0
:1074100000B58DB006AB03936B460A6801900792E6
:10742000CA68059009920A6902A80B92002101AA74
:1074300002920493FFF79CFF012102A8FFF798FF37
:1074400002A8FFF7ABFF0DB000BDF0B52724CDB00B
:1074500008ABE4180023240904902401019350236D
:10746000019A200053430293049B029A1B6894469E
:107470001B689B180693049B019A5D6829006B6842
:107480001C3163440793EB680393FFF744FF2B6CB5
:10749000029AAF6B9E183168381C09F045FE08ABA4
:1074A00001210590581DFBF7C5F8059B103609937F
:1074B000236523000A960C972600270060331800E6
:1074C0000AA95036A0370593FFF7FDFE32002100D0
:1074D0003800FFF78EFE029B6A6C3900D21820003C
:1074E000FFF787FE2168039809F01EFE08AB051C14
:1074F0000121581DFBF79EF8230010330A93039BCC
:107500000AA9059825650C930995FFF7DCFE320062
:1075100020000799FFF76DFE21000698FEF75CFA40
:10752000019B01330193102B99D14DB0F0BDF0B503
:10753000272405000026A1B004ABE418C368240981
:107540005B6824010293029B9E4228DA50272A6836
:10755000774312680136D3196A6803935368D26877
:10756000181CD7193968009309F0DEFD04AB01211E
:107570000190581DFBF75EF8019B200005933B002E
:1075800010330693009B06A90893019B10302360DB
:10759000FFF799FE21000398FEF71EFAD3E721B00A
:1075A000F0BDF0B500248B6885B001938B690F693D
:1075B00002930B6B0E6A03900093019B381C1959C0
:1075C00009F0B2FD029B051C1959301C09F0ACFDF5
:1075D000011C281C09F0C2FE009909F0A5FD039BBF
:1075E00018510434402CE8D105B0F0BD70B55026D8
:1075F0004F24BAB003684E4341686C441D682409A7
:107600004B682401AD1920009E191031FAF7E8FFEC
:1076100031002600220001A8FEF73BF8019B5036FE
:10762000236560342000FAF7BBFF6A46200002A9F8
:10763000FFF7B7FF31002800FEF7CEF93AB070BD72
:10764000F0B54F24D9B002ABE418240924014668F0
:1076500005002000FAF7C4FF2000230001223100BA
:107660006030FBF7A9FD210020007031FAF7B8FF68
:107670006B68226E0193934205D0144B144A15494E
:1076800015480BF095FF00232E680093009B019A8C
:10769000934217DA2700C03721003800FAF7A0FF1D
:1076A00031003A0003A8FDF7F4FF3000039B1030CF
:1076B000336002AA04A9FFF774FF009B5036013320
:1076C0000093E3E7280059B0F0BDC0466F91010078
:1076D00032D60100F2020000FD92010070B51400E4
:1076E000836905694B439B18C2689B004A43416804
:1076F000121992005859515809F016FD70BDF0B595
:1077000004000025B3B0E3689B689D4252DA182359
:1077100000266B430193E3685B689E4248DA236866
:107720006768019A1B6839009B1806A8320002930B
:10773000FFF760FA182206A90CA80BF0B3FF390076
:1077400019AF2A001C313800FFF76EFA18220CA975
:1077500022A80BF0A7FF199B04AA0493BB8804A9D5
:10776000938028A806220BF09DFF1BA92AA8FBF7EF
:107770001FFA0022FB6911002F933B6A12A8309375
:10778000229B01361393249B9B6903931593289B9B
:1077900016932C9B1893FFF7A1FF029B011C1868FE
:1077A00009F0DCFD029B1860019B04330193B2E7F2
:1077B0000135A8E733B0F0BDF0B54468F3B006007A
:1077C0001D00106803910592012C0AD1011CFE20B6
:1077D000800509F0C3FD011C3000FBF7C5FF73B045
:1077E000F0BD002109F00CF9031EF8D1B2680A952A
:1077F0000C92002A05DAA6216E4B6F4A6F480BF0F7
:10780000D7FE013C00943100019212A80122FBF73F
:1078100057F92FAB1A00039931C931C231C931C2AE
:1078200031C931C231C931C2039A40A954680A0032
:10783000309423CB23C223CB23C223CB23C223CB1D
:1078400023C2342212A94CA80BF02CFF149B0493E2
:10785000139B9C4204D06021594B5A4A5A48CEE7A8
:10786000049B0C9A934204D01A0001210AA8FBF74A
:10787000AFFD419440AD59AC23002A0083CA83C3B5
:1078800083CA83C383CA83C383CA83C3049B34224A
:107890004CA965A84E930BF005FF21001FAA0AA86A
:1078A000FEF7CEFD310000222000FBF713FB210084
:1078B0000AA8FBF757F9310000222000FBF70AFB6A
:1078C000059B0AAA19682800FBF778F9290020000F
:1078D000FBF79CF9059B03991B68012249684093BB
:1078E00020002B00FBF72CFB599B039A309333AB02
:1078F000A168C1CAC1C3C1CAC1C3C1CAC1C3C1CAC7
:10790000C1C3039B59985B6833AA984219D1309B35
:107910004193E96044AB43CA43C343CA43C343CA28
:1079200043C343CA43C30AA951A8FBF741F9139BB8
:10793000459944AA8B4209D0B021244B244A2548BA
:107940005DE77421244B254A254858E7149B539939
:107950008B42F1D16B685A93EB68E3605DAB23CA4D
:1079600023C323CA23C323CA23C323CA23C351A9BE
:107970006AA8FBF71DF921001FA8FDF7EBFA139B7E
:107980005E9A934203D1149B6C9A934204D00F4B9E
:10799000144A1549154832E7129B0EA8089308AB04
:1079A0000E931FAB0F9307AB109312AB1193FFF71E
:1079B000A6FE14E778D8010085D801008276010080
:1079C00081D901000DDA010069DC01006F9101002D
:1079D00097DF0100B9E50100C76A0100DDDC0100A5
:1079E000406E010037E60100F2020000FD92010046
:1079F0000300F033F0B51D000024B9B003900993E3
:107A00002200039926A8FAF7CFFF26A8FAF7E8FF85
:107A100008F07CFD0134A86101C5062CF0D1099B5A
:107A20001D68039BF4331C68039B201CF8331E68FD
:107A3000311C08F0EBFF002800D0341C211C281C4E
:107A400008F0E4FF002800D0251C039CFC34A36848
:107A50006768191C381C2668049308F0D7FF0028B3
:107A600000D0049F391C301C08F0D0FF002800D043
:107A70003E1C311C281C08F0C9FF002800D0351C12
:107A8000D021281C890509F04FFB011C09F04CFB93
:107A9000D44909F07FF9002606230022039F0D90A8
:107AA0002363E262903707960B930B9B01259B1B88
:107AB00006933B006033089300233C6E0593069BBE
:107AC000AB4200D080E1059B039DF318FC35049385
:107AD0002B6B062B11D1069809F01EFE0D9909F0AB
