:1020000000800020857400004D7400006D74000095
:1020100000000000000000000000000000000000C0
:102020000000000000000000000000006D740000CF
:1020300000000000000000006D740000D974000072
:102040006D7400006D7400006D7400006D7400000C
:10205000117400006D740000616C00007174000068
:102060006D7400005D7300006D7400006D740000FD
:10207000F96F00006D7400006D7300006D74000056
:102080006D7400006D7400006D7400006D740000CC
:10209000000000006D7400006D7400006D7400009D
:1020A0006D7400006D7400006D7400006D740000AC
:1020B0000000000010B5064C2378002B07D1054B1B
:1020C000002B02D0044800E000BF0123237010BDA4
:1020D000900200200000000064440100044B10B591
:1020E000002B03D00349044800E000BF10BDC046E8
:1020F00000000000940200206444010070470000CA
:10210000122110B5024B034A0348FF310AF05AFB73
:1021100094F7000023F90000ACF900008900411891
:1021200004C08842FCD17047122110B5024B034A0B
:102130000348FF310AF046FB94F7000028FA00003C
:10214000ACF90000012010B5404207F04BFA10BD79
:1021500070B5050010300AF09BFB041E04D1002D61
:1021600009D0FFF7EFFF06E00F2302009A431300A8
:1021700010331C00D060200070BD07B500200BF0AC
:10218000A3FA6B460733181A0EBD10B5642005F08C
:10219000E7F910BDF7B545680600002D3BD006DC19
:1021A0009C211D4B1D4A1E48FF310AF00BFB0368A2
:1021B000AD001F0001CF0193011C08F0BFF8019B87
:1021C000041C5D19AF4209D001CF011C08F0B6F81C
:1021D000011C201C07F04CFD041CF3E70021201C0F
:1021E00007F032FD002816D0201C07F099FA73681A
:1021F000051C002B04DA47210A4B0B4A0B48D4E795
:1022000036689B009C19A64205D03068291C07F04F
:10221000CBFE01C6F7E7F7BDE8FA00002CFB000093
:1022200087FC0000F9FC00008EFD000084FE000029
:1022300010B50F2906D9CD21044B054A05484900A0
:102240000AF0C0FA50235943401810BDFFFE0000A9
:102250001CFF00006000010010B594000C19046020
:102260004360002B05DAB021094B0A4A0A480AF0FC
:10227000A9FAC160102102618161002A02DBCB1A38
:102280009A4204DD9221054B054A0648EFE710BD4E
:10229000DC000100860101007E020100F202010063
:1022A0008103010083040100836810B50268032BD9
:1022B0000FD1C46843681B19002484600134436053
:1022C000C460032B05DD48210D4B0E4A0E480AF071
:1022D00079FA8368022B03DD4B210C4B094AF5E7A1
:1022E000C468012C03D04D21094B064AEEE75C1C63
:1022F000846044689B0009681B199B00995010BDBD
:10230000F504010044050100110601008E060100DC
:10231000E506010030B50F23040091B018401C42BF
:1023200005D06D212D4B2E4A2E480AF04BFACB6872
:102330000A68039380254B6889682D060691012160
:1023400004925219226005930D905B190E910F9122
:102350000CA807A907930C94FFF7A6FF069B08A9F2
:102360005B190893FFF7A0FF03A9FFF79DFF069BEA
:1023700009A95B190993FFF797FF05A9FFF794FFD8
:1023800006A9FFF791FF03A9FFF78EFF049B0AA997
:102390005B190A93FFF788FF059B0BA95B190B9349
:1023A000FFF782FF04A9FFF77FFF03A9FFF77CFF78
:1023B0000D9B00930F9B0193019A009B94466344ED
:1023C000042B02D10E9B032B04D07A21064B074A23
:1023D0000748AAE7200011B030BDC046FB06010047
:1023E000EA07010077080100F00801008E090100EA
:1023F00011060100002310B5436082600F2A05D941
:102400007821034B034A04480AF0DCF910BDC046AA
:10241000FC090100A30A01008304010010B50400B7
:102420000022E121FFF77AFE200010BD10B503075E
:1024300005D06D21024B034A03480AF0C3F910BDD1
:10244000FB060100C60B01007708010010B504006F
:102450000B6840220360103110300AF02DFA200082
:1024600010BDF8B5A02705000E000024FF003119AB
:1024700028195034FFF7EAFFBC42F8D12800F8BD14
:1024800010B5030705D06D21024B034A03480AF03B
:1024900099F910BDFB060100530C010077080100FB
:1024A000A02370B504000500DB00C61828005035D5
:1024B0001030FFF7BBFFAE42F8D1230705D06D21E6
:1024C000034B044A04480AF07DF9200070BDC04661
:1024D000FB060100E10C01007708010010B5502453
:1024E00054430C1904604360002B05DAB0210A4BF9
:1024F0000A4A0B480AF066F9C16010210261816145
:10250000002A02DBCB1A9A4204DD9221054B064ACF
:102510000648EFE710BDC046DC0001009C0D01003D
:102520007E020100F2020100FA0E010083040100A4
:1025300010B5030705D06D21024B034A03480AF08A
:1025400041F910BDFB0601003410010077080100BD
:10255000F0B5D36889B000930B68CD680193136818
:10256000040002934B68281C0393536896680493F5
:102570008B680099059307F0E1FE0299071C01980A
:1025800007F0DCFE011C381C07F0F2FF0499071C61
:10259000039807F0D3FE011C381C07F0E9FF311C3B
:1025A000071C059807F0CAFE011C381C07F0E0FF65
:1025B00002990690281C07F0C1FE0199071C00989B
:1025C00007F0BCFE011C381C07F052FB311C071C35
:1025D000039807F0B3FE011C381C07F049FB05996E
:1025E000071C049807F0AAFE011C381C07F0C0FF66
:1025F00004990790281C07F0A1FE0399071C009876
:1026000007F09CFE011C381C07F032FB0599071CE3
:10261000029807F093FE011C381C07F029FB311CBF
:10262000071C019807F08AFE011C381C07F0A0FF68
:10263000311C071C281C07F081FE0599051C009819
:1026400007F07CFE011C281C07F012FB0499051CF6
:10265000019807F073FE011C281C07F009FB039981
:10266000051C029807F06AFE011C281C07F080FF79
:10267000051C2000FFF75CFF2000079B67602360BC
:10268000A560069BE36009B0F0BD10B50400002210
:102690001021FFF743FD200010BD70B505000400B8
:1026A0000B68103503602800FFF7C0FE2800FFF715
:1026B000ECFF200070BD0000436870B5042B02D110
:1026C0008368032B06D006210A4B0B4A0B48FF31C7
:1026D0000AF078F80023056800229C0018010C1904
:1026E0002818A65886500432102AFAD104330C2B2D
:1026F000F2D170BDC010010047120100D1110100DC
:1027000010B504001030FFF791FE20006030FFF795
:102710008DFE2000B030FFF789FE230705D06D2124
:10272000034B044A04480AF04DF8200010BDC0468F
:10273000FB060100E9120100770801004B684360C5
:10274000CB68C3604B694361CB69C36170470B00C1
:1027500010B50400086811688AB010321033019374
:1027600003910592079007F0E9FD230001C3694634
:102770001800FFF7E3FF20000AB010BD70B5050098
:102780000C0004300431FFF7D9FF280021002C3061
:102790002C31FFF7D3FF280070BDF0B514000D00F9
:1027A00097B002CC060001CD07F0E2FE2900071C1D
:1027B00001A8FFF7C3FF21000BA8FFF7BFFF300000
:1027C000694680C0FFF7DAFF300017B0F0BD70B582
:1027D00005000C0004300431FFF7D0FF2800210071
:1027E0005C305C31FFF7AAFF280070BD70B50500B2
:1027F0000C0004300431FFF7A1FF280021002C3029
:102800002C31FFF79BFF280070BDF0B514000D00C0
:1028100097B002CC060001CD07F02AFA2900071C68
:1028200001A8FFF78BFF21000BA8FFF787FF3000FF
:10283000694680C0FFF7DAFF300017B0F0BD70B511
:1028400005000C0004300431FFF7D0FF2800210000
:102850005C305C31FFF772FF280070BDF0B51400EA
:102860000D00A3B002CC060001CD07F001FA29004B
:10287000071C01A8FFF7BAFF210017A8FFF75EFFAA
:102880003000694680C0FFF7DAFF300023B0F0BDAA
:10289000F0B515000F00AFB0040002CD01CF07F076
:1028A00067FE3900061C01A8FFF7C9FF290023A80D
:1028B000FFF744FF200040C001A90430FFF7BFFF2D
:1028C000200023A99030FFF739FF20002FB0F0BD82
:1028D00070B50600040005004136FF36280050356B
:1028E0001030FFF7A3FDAE42F8D1230705D06D21CC
:1028F000034B044A044809F065FF200070BDC04640
:10290000FB060100A31301007708010070B50D005C
:10291000040019000560012A05D08521084B094AE9
:10292000094809F04FFF1030FFF790FD002D04DA41
:102930004721064B064A0748F3E7200070BDC04612
:102940005D1401006B140100D0140100F9FC0000BB
:102950004B15010084FE0000436810B5994201D177
:10296000012A06D00621034B034A0448FF3109F02F
:1029700029FF10BDC01001009E160100D1110100F9
:10298000436810B5032B09D001220321FFF7E4FFB0
:10299000064B074A0749084809F014FF0A6803680C
:1029A0001A604A685A608A689A6010BD3E17010032
:1029B0006D170100FD0200006D180100F8B54368B5
:1029C0008D68CE68042B09D001220421FFF7C4FFD3
:1029D000084B094A09490A4809F0F4FE002407682F
:1029E0003059291C07F0AAFC38510434102CF7D1B7
:1029F000F8BDC0463E170100E9180100FD020000C5
:102A00006D1801004368F7B54E688F680D69032B98
:102A100009D001220321FFF79FFF0B4B0B4A0C4902
:102A20000C4809F0CFFE002403680193395930594E
:102A300007F09EFD295907F09BFD019B18510434B6
:102A40000C2CF3D1F7BDC0463E170100A41A0100BB
:102A5000FD0200006D180100436810B5002B05DA77
:102A60004721074B074A084809F0ACFE00210268DD
:102A70009B009B18934201D002C2FBE710BDC046E9
:102A8000F9FC00008EFD000084FE0000F0B500247B
:102A9000036845681B6887B001936B682F6B0293CE
:102AA0002B6A05932B6C04936B6C03933959A86ABA
:102AB00007F044FC059B195907F0DAF8049B061C43
:102AC0001959A86B07F03AFC011C301C07F0D0F82C
:102AD000039B195907F0CCF8E96807F02FFC029B1B
:102AE000195907F0C5F8019B18510434402CDDD169
:102AF00007B0F0BD436889001B685A5803681B681B
:102B00005A50704743688A001B688901D25803688D
:102B10001B68CA50704730B50C0041682301096832
:102B20009B189B005D580F215143036809191B68CE
:102B30008900CD5030BD70B5050000242200002171
:102B40002800FFF7E8FF220001212800FFF7E3FF3C
:102B5000220002212800FFF7DEFF220003212800C7
:102B6000FFF7D9FF220004212800FFF7D4FF22003D
:102B700005212800FFF7CFFF220006212800FFF7DC
:102B8000CAFF220007212800FFF7C5FF2200082105
:102B90002800FFF7C0FF220009212800FFF7BBFF34
:102BA00022000A212800FFF7B6FF22000B2128008F
:102BB000FFF7B1FF22000C212800FFF7ACFF220035
:102BC0000D212800FFF7A7FF22000E212800013465
:102BD000FFF7A1FF102CB1D170BD0000F0B5304C53
:102BE0000500A54437246C442409240120000E006C
:102BF000FFF746FC0022F0212000FFF78FFA2100AA
:102C0000FE23FC319B054B618B65CC2122004900E2
:102C10006350443163504431635044316350443114
:102C200063504431635044316350443163508832BF
:102C3000443153646350236063641360042304933A
:102C4000013B059307930893FC234432039210221F
:102C50009B00E718310038000992069409F02CFE19
:102C6000F0239B00E6183900300002AFFFF752FB5B
:102C70003A00310003A8FFF71FFD2800FFF700FC12
:102C800001AB04936B4603A8019402950397059347
:102C90000695FFF750FF2800024B9D44F0BDC0464B
:102CA000CCFBFFFF340400000CC870B515685A68EF
:102CB0008C001059996807F041FB285170BD43689A
:102CC00089001B685A5803681B685A50704710B532
:102CD000037A0400002B06D00368002B03D0043BCA
:102CE000186809F0DFFD200010BD0F2370B541C842
:102CF0001C0054434B436418E321890071589B180E
:102D00007268A4009B0005680959985806F0B0FF46
:102D1000285170BD70B50500002422000021280054
:102D2000FFF7E3FF220001212800FFF7DEFF22006A
:102D300002212800FFF7D9FF220003212800FFF716
:102D4000D4FF220004212800FFF7CFFF2200052135
:102D50002800FFF7CAFF220006212800FFF7C5FF61
:102D6000220007212800FFF7C0FF220008212800C9
:102D7000FFF7BBFF220009212800FFF7B6FF220062
:102D80000A212800FFF7B1FF22000B212800FFF7DE
:102D9000ACFF22000C212800FFF7A7FF22000D2125
:102DA0002800FFF7A2FF22000E2128000134FFF7C0
:102DB0009CFF0F2CB1D170BD03688A001B689B1863
:102DC0004268506892680918914202D000221A6045
:102DD0007047FE229205FAE7436889001B685A583B
:102DE00003681B685A50704710B54B68040088B0E0
:102DF000032B01D0FFF784F90B680190029301AB1C
:102E0000049302AB05936B460790002104A8069338
:102E1000FFF7E2FF04A80121FFF7DEFF04A802216B
:102E2000FFF7DAFF200008B010BD436889001B6877
:102E30005A5803681B685A50704710B54B68040015
:102E400088B0032B01D0FFF75BF90B680190029368
:102E500001AB049302AB05936B460790002104A8D5
:102E60000693FFF7E2FF04A80121FFF7DEFF04A8A5
:102E70000221FFF7DAFF200008B010BD70B528C8A6
:102E80001E686B698C001859E96807F057FA6B687F
:102E9000195906F0EDFE305170BD0000F7B50091F4
:102EA0000A98099C044300200500844215D1DC43A4
:102EB000E4170194089C84421ADD00240099AE00B6
:102EC0008E19A3420FDD5768116867433F18BF0092
:102ED0007958A700F1510134F3E7064B064A074938
:102EE000074809F06FFC019C01301C402D19E1E7F7
:102EF000F7BDC0468C1C0100E71C01003E08000025
:102F00005F1E0100F0B585B002910B980C99084343
:102F100005D0274B274A2849284809F053FC0324A9
:102F20000A990600C91721400A9C0919DC43E417D5
:102F30001C4089100194A40089000394814220DD83
:102F4000029DB4002C190025AC46634512DD67468E
:102F500055687D4317682D18AD007D192F682760CF
:102F60006F686760AF68A760ED68E56001251034A1
:102F7000AC44EAE7039C04303619DFE701980131DD
:102F800036180A98884211DD0298B400041900200E
:102F90008342F3DD5568176845436D18AD00ED5960
:102FA000AC466746850067510130F1E705B0F0BDDA
:102FB0008C1C0100EC1E0100D30900005F1E010003
:102FC000436810B5994201D1012A06D00621034B6E
:102FD000034A0448FF3109F0F5FB10BDC0100100A1
:102FE00030200100D1110100502210B54A4304687D
:102FF000890023689B18426812688A581A60103347
:103000001800FFF742FB10BD30B50D0089B0040079
:10301000FFF776FB6B68032B01D0FFF785F82B6871
:1030200004A8029301AB049302AB05936B46002105
:10303000069301940794FFF7D7FF04A80121FFF737
:10304000D3FF04A80221FFF7CFFF200009B030BD55
:1030500010B504000421FFF732FE20000521FFF720
:103060002EFE20000621FFF72AFE20000721FFF791
:1030700026FE20000821FFF722FE20000921FFF78D
:103080001EFE20000A21FFF71AFE20000B21FFF789
:1030900016FE20000C21FFF712FE20000D21FFF785
:1030A0000EFE20000E21FFF70AFE0F212000FFF781
:1030B00006FE10BD10B504000021FFF700FE200041
:1030C0000121FFF7FCFD20000221FFF7F8FD03219D
:1030D0002000FFF7F4FD2000FFF7BAFF10BD0B68DA
:1030E00010B503600300040088B003AA049202AA8A
:1030F00010331031059204A801AA0291039306929D
:103100000793FFF7D7FF200008B010BD30B550255A
:103110000F2403684D431B6897B05D1943686C44E6
:103120005B6824092401890059182000FFF7B5FACB
:1031300021002800FFF7D3FF17B030BD10B5040001
:103140000321FFF7E3FF20000421FFF7DFFF20004A
:103150000521FFF7DBFF20000621FFF7D7FF200046
:103160000721FFF7D3FF20000821FFF7CFFF200042
:103170000921FFF7CBFF20000A21FFF7C7FF20003E
:103180000B21FFF7C3FF20000C21FFF7BFFF20003A
:103190000D21FFF7BBFF20000E21FFF7B7FF0F2126
:1031A0002000FFF7B3FF10BD30B50D0089B004005B
:1031B000FFF776F902AB05936B462A6804A80392E1
:1031C000002101AA0492069301940794FFF79EFF41
:1031D00004A80121FFF79AFF022104A8FFF796FF38
:1031E00004A8FFF7ABFF200009B030BD502330B575
:1031F0000F245943036897B01D6843686C441B68EB
:10320000240924016D1820005918FFF71FF9210027
:103210002800FFF764FF17B030BD30B50D0089B04E
:103220000400FFF76DFA6B68032B01D0FEF77CFFFB
:103230002B6804A8029301AB049302AB05936B4681
:103240000021069301940794FFF7D0FF04A8012101
:10325000FFF7CCFF04A80221FFF7C8FF200009B048
:1032600030BD0000436870B50C00032B09D001226B
:103270000321FFF7A5FE0B4B0B4A0C490C4809F044
:10328000A1FA05682800FFF72AFF28002100503026
:103290005031FFF724FF28002100A030A031FFF7B4
:1032A0001EFF70BD3E17010008210100FD02000055
:1032B0006D180100F0B51724DFB002ABE418240943
:1032C00024012600002305001136FF3603A9300033
:1032D0000393FFF7E2F9310020006F68FFF7B6F8BB
:1032E00020002300012239006030FFF70FFB21008E
:1032F00020007031FFF7AAF86B68216E00939942A5
:1033000009D001222800FFF75BFE0F4B0F4A10493E
:10331000104809F057FA00262B680193009B9E4243
:103320000EDA2700C03721003800FFF78FF8502051
:103330007043019B39001818FFF7D1FE0136EDE705
:1033400028005FB0F0BDC0463E170100D322010047
:10335000FD0200006D180100F8B504000F00160012
:103360001D00FFF7B5FA39002000FFF7B8FE200076
:1033700031005030FFF7B3FE20002900A030FFF7E6
:10338000AEFE20000699F030FFF7A9FE2000F8BD40
:10339000F8B504000F0016001D00FFF7B1F9390061
:1033A0002000FFF79CFE200031005030FFF797FE11
:1033B00020002900A030FFF792FE2000F8BD00B5E4
:1033C00089B003AB049302AB03900593079001AB64
:1033D00004A802910693FFF76DFE09B000BD0368D3
:1033E00010B51C68436889001B6864182068595828
:1033F00006F03EFC206010BDF8B5079E089D099CB4
:103400000A9F88008258090132605B18186828609A
:103410005A686A609A68AA60DB68EB60206031686D
:1034200006F08CFF2060011C386806F021FC386033
:1034300068682060316806F081FF0B9B2060011CEA
:10344000186806F015FC0B9B1860A86820603168AE
:1034500006F074FF0C9B2060011C186806F008FC45
:103460000C9B1860E8682060316806F067FF0D9BD0
:103470002060011C186806F0FBFB0D9B1860F8BD6E
:10348000F0B5A9B0379D08902D011295379D319860
:10349000AD000C95850017952F9D0E006843339D58
:1034A000329940198000349C12180A920A01149231
:1034B00022019A1813928A0016923A9A51430C19D3
:1034C000A4001B1915932F9B309A934200DBF5E162
:1034D000139B0D9300230993099B3A9A934200DBB7
:1034E00054E10023099919931A931B931C931D937C
:1034F0001E931F93209373682F98594332680918BD
:1035000089005118119109990D9F013159430918EA
:1035100089005118109109990A9D023159430918DF
:10352000890051180F91099903314B431B189B00D7
:10353000D3180E9300230B930B9B369A934200DB18
:10354000B9E01CAB07931BAB06931AAB059319AB01
:10355000049323AB039324AB029321AB0024019388
:103560006B461C702A003B0008980021FFF744FFBF
:1035700020AB07931FAB06931EAB05931DAB0493C3
:1035800023AB039324AB029322AB01936B461C70D5
:103590002A003B0008980121FFF72EFF1CAB079380
:1035A0001BAB06931AAB059319AB049323AB0393A0
:1035B00024AB029321AB01936B461C702A003B00A5
:1035C00008980221FFF718FF20AB07931FAB069363
:1035D0001EAB05931DAB049323AB039324AB029363
:1035E00022AB01936B461C702A003B000898032114
:1035F000FFF702FF1CAB07931BAB06931AAB0593B7
:1036000019AB049323AB039324AB029321AB019337
:103610006B461C702A003B0008980421FFF7ECFE63
:1036200020AB07931FAB06931EAB05931DAB049312
:1036300023AB039324AB029322AB01936B461C7024
:103640002A003B0008980521FFF7D6FE1CAB079324
:103650001BAB06931AAB059319AB049323AB0393EF
:1036600024AB029321AB01936B461C702A003B00F4
:1036700008980621FFF7C0FE20AB07931FAB069307
:103680001EAB05931DAB049323AB039324AB0293B2
:1036900022AB01936B461C702A003B00072108985F
:1036A000FFF7AAFE129BFF180C9BED18379A0B9B95
:1036B000944663443FE71D99199806F0D9FA1E997C
:1036C00019901A9806F0D4FA1F991A901B9806F0D0
:1036D000CFFA20991B901C9806F0CAFA369B1C90D2
:1036E0000B930B9B399A93421BDA1CAB07931BABD2
:1036F00006931AAB059319AB049323AB039324AB46
:10370000029321AB019300246B461C702A003B00FE
:1037100000210898FFF770FE0B9B1037043501332A
:10372000DEE71A992E9806F009FE109B196806F03C
:103730009FFA1999041C2E9806F000FE119B011C9B
:10374000186806F095FA119B1860109B2E981C6063
:103750001C9906F0F3FD0E9B196806F089FA1B9977
:10376000041C2E9806F0EAFD0F9B011C186806F059
:103770007FFA0F9B18600E9B1C60099B0433099312
:103780000D9B149A944663440D93A5E6159B0E93E6
:103790003A9B0993099B389A934200DB85E0099A8A
:1037A0007368002553432F9A0E9F9B1832689B0025
:1037B000D3180F9300230A9C0B930B9B369A9342CA
:1037C00047DA2168386806F0B9FD291C06F050FA7E
:1037D000051C6168786806F0B1FD291C06F048FAFE
:1037E000051CA168B86806F0A9FD291C06F040FA7E
:1037F000051CE168F86806F0A1FD291C06F038FAFE
:10380000051C2169386906F099FD291C06F030FA7B
:10381000051C6169786906F091FD291C06F028FAFB
:10382000051CA169B86906F089FD291C06F020FA7B
:10383000051CE169F86906F081FD291C06F018FAFB
:10384000051C0C9BFF18E418379A0B9B94466344A5
:10385000B2E7369B0D9300230B93399A0D9B93424D
:103860000FDA0B9BE158F85806F068FD011C281C84
:1038700006F0FEF9051C0D9B01330D930B9B0433E1
:10388000EAE72E99281C06F059FD0F9B011C1868C9
:1038900006F0EEF9169A0F9B94461860099B0133C7
:1038A00009930E9B63440E9374E7179A2F9B9446DB
:1038B00001332F930A9B63440A9304E629B0F0BDB9
:1038C000F0B593B01C9D199C1A9F1D9E0F936B1C05
:1038D00000D12500731C00D126000323F8171840DF
:1038E000C019801080000C9008200A9707270990C3
:1038F000079000201F9B0B9406931E9BBC430593CF
:10390000189B019002931B9B0894009304960F9BB5
:10391000039511A8FFF7B4FD13B0F0BDF0B5ADB03D
:1039200008AF3A640822BB60BC23BA18D318082237
:103930001C68B023BA18D3181B68F864F965012B0A
:1039400005D0AE21C84BC94AC94808F03BFF2369DE
:103950007B65A368BB63BA6BFB6C7B64934200DD41
:103960007A64E3683B653A6DFB6DBB64934200DDAE
:10397000BA647B6D7E6C7A6D5E43BB6C5343FB63B4
:103980008023DB059E4201D3FEF7DCFB2368B500F4
:10399000BB65002B10D180239B029D4200D9B2E071
:1039A0002B006A461633DB08DB00D31A9D462F2016
:1039B0000F2368449843B8652368082059424B4157
:1039C000BA6D5B4258211A40182338184118CB1899
:1039D0005E608026B602AE42AD416D421D7280230C
:1039E000BA67FA6BDB057E639A4201D3FEF7AAFB46
:1039F000FB6B66689D00002E0ED17B6B9D4200D94B
:103A000085E02B006A461633DB08DB00D31A9D469F
:103A10000F232F366E449E436368320059424B4158
:103A200008205B4258211A40242338184118C9182D
:103A30006033FB181A60FB6BBA6B4B6080239B02F0
:103A4000AB42AD4100237B63FB6C6D420D72934230
:103A50000DDD7B6D3A6C934209D1FB6D3A6D396D8A
:103A6000F86DDB0FD21781425341DBB27B637B6C75
:103A700008229B00FB60AC23BA180821D318A022AF
:103A80001B6879188A1812683B627B6D08215343C2
:103A9000A82279189B008A181268BB617B6D0821E7
:103AA0005343B42279189B008A1812683B61BB6C9F
:103AB00053439B007B6100233B653A6DFB6C934253
:103AC00000DCBEE013007A6CF96C944663447B62C0
:103AD0008B4200DD0B003A6D9B1AFB619300BA68C4
:103AE000D31808223B63A423BA18D3181B68BB62FF
:103AF00000233A6C93420FDBFA683B6A94466344B6
:103B00003B627B6AD8E72800FEF722FB53E72800D8
:103B1000FEF71EFB06007FE77A6D396C9A181400D9
:103B2000BA638A4200DD0C00E31A3B603B6B08225B
:103B300008203B675821A0230025BA18381808240C
:103B40004118D3185C2010221B683C197B67029532
:103B50000195FB698A1800933B68B96D2018FFF73F
:103B60009DF93B6AFB632B00FA6D93420BDBBA694C
:103B70003B6B94463A69634494463B63BB6A634437
:103B8000BB62BB6BB5E7BA6CF96D9A181500FA62A7
:103B90008A4200DD0D00EA1A7A607A6B002A02D0B0
:103BA0003A6D002A1DD1BA6A9B009B1808223B6718
:103BB000A8235821BA18D3181B6808247B67002350
:103BC000082508001022029301937B683C196118B4
:103BD0007C19009320188A183B6831004019FFF7C0
:103BE00091F9FB6B08223B67B4230820582510216C
:103BF000BA18D3181B6808227B67002308243818DA
:103C0000401941180C2007930693013B0593049338
:103C1000BA18B933D3181B683C1903937B6865192C
:103C200002933B6828180193FB690093BA6D330037
:103C3000FFF746FE7A69FB6B94466344FB63FB6ABD
:103C400092E7082258242423BA181219D018FFF733
:103C50003EF808221823BA181219D018FFF737F8BF
:103C6000BD4625B0F0BDC046132501001B2501004F
:103C7000E5250100F0B58BB01F0004911199129B4E
:103C8000194305D0354B364A3649374808F09AFD76
:103C90000320109B0D00DB17034010981B18F843FE
:103CA000C01738409B109B00039080000093099040
:103CB000009B8B423BDD546800232000484380007A
:103CC0000290481C604380000890881C604380007C
:103CD0000790C81C4443A0000690029C1068019302
:103CE0000619049CA8002018019B9F4216DD33682A
:103CF000089C0360029BF31A9C461B59079C436077
:103D000063461B59069C8360059363461B59043622
:103D1000C360019B103001330193E5E7099B043137
:103D2000ED18C5E7039BED18009B01330093109B32
:103D300000998B420FDD546813684C430021A400A6
:103D40001C19049BA80018188F42EBDD8E00A359A4
:103D500001318351F8E70BB0F0BDC0468C1C010067
:103D60005F260100580900005F1E0100F0B5ADB0EC
:103D700008AFFA630822BB60BC23BA18D318082224
:103D80001C68B023BA18D3181B68F864F965012BB6
:103D900005D0AE21C34BC44AC44808F013FD2369C3
:103DA000BB64A3687B637A6BFB6C3B64934200DD6E
:103DB0003A64E3683B653A6DFB6D7B64934200DDDA
:103DC0007A64BB6C3E6CBA6C5E437B6C5343BB63E2
:103DD0008023DB059E4201D3FEF7B4F92368B500CA
:103DE000BB65002B10D180239B029D4200D9ADE022
:103DF0002B006A461633DB08DB00D31A9D462F20C2
:103E00000F2368449843B8652368082059424B4102
:103E1000BA6D5B4258211A40182338184118CB1844
:103E20005E608026B602AE42AD416D421D728023B7
:103E3000BA67BA6BDB059A4201D3FEF783F9636870
:103E40007B65BB6B9D007B6D002B0ED1B54200D90D
:103E500080E02B006A461633DB08DB00D31A9D4650
:103E60002F200F23684498437865636808205942DF
:103E70004B417A6D5B4258211A402423381841186F
:103E8000C9186033FB181A60BB6B7A6B4B608023D8
:103E90009B02AB42AD4100233B63FB6C6D420D7254
:103EA00093420DDDBB6CFA6B934209D1FB6D3A6D09
:103EB000396DF86DDB0FD21781425341DBB23B63A2
:103EC0003B6C08229B003B61AC23BA180821D31835
:103ED000A0221B6879188A181268BB62BB6C082183
:103EE0005343B42279189B008A181268FB607B6CDC
:103EF00008215343A82279189B008A181268BB61D5
:103F00007B6C53439B007B6100233B653A6DFB6CEC
:103F1000934200DCB4E013003A6CF96C94466344BD
:103F20007B628B4200DD0B0000263A6D9B1AFB6121
:103F30009300BA68D318FB62FB6B9E420EDB3A69B2
:103F4000BB6A94466344BB627B6ADEE72800FEF7E7
:103F5000FFF858E72800FEF7FBF885E7BB6CFA6B23
:103F6000F3181D003B62934200DD1500AB1B3B6064
:103F7000FB6A082208203B675821A0230024BA18B6
:103F8000381808254118D3185C2010221B687D19A9
:103F90007B6702940194FB698A1800933B68B96DB2
:103FA0002818FEF77BFFA423EB181B68B6009E19A8
:103FB000BB6ABB63FB6D9C4206DBFA68FB6A9446F6
:103FC00063443E6AFB62B7E77B6CF96DE3187B6381
:103FD0008B4200DD0B001B1B7B603B6B002B02D078
:103FE0003B6D002B1AD10822A82308245821BA18A7
:103FF000D3181B683C197B6700230800611808244C
:1040000010223E67029301937B683D1900932818A4
:104010008A183B68796D0019FFF72CFEBB6B0822EC
:104020003B67B423082058241021BA18D3181B6802
:1040300008227B67002308253818001941180C2036
:1040400007930693013B05930493BA18B933D31829
:104050001B687D1903937B682C1902933B68201819
:104060000193FB6900937B6DBA6DFFF729FCBA6978
:10407000BB6B94466344BB637B697C6BF61899E722
:10408000082258242423BA181219D018FEF71FFE4C
:1040900008221823BA181219D018FEF718FEBD46C8
:1040A00025B0F0BD132501001B250100E525010009
:1040B000F0B52E4C0D00A5443724119308ABE4183D
:1040C000FC2324092401DB00E7180F90380010922C
:1040D000FEF7D6F92B6800220D936B68F0213800AB
:1040E0000E93FEF71BF82300203323600B93F82375
:1040F0009B00E3180F25636010260C930023A56036
:10410000E66026610893FE2301220E989B0531008C
:10411000069304920D9B32000190079428000595A8
:10412000039702960095FFF721FE1098A56003689B
:104130001198E56002680B98266120600C980021B8
:1041400060600692012204920F9A089103920193F3
:1041500032003B0029002800079405950295009540
:10416000FFF7DCFB024B9D44F0BDC0460CF4FFFFA3
:10417000F40B0000F0B50E00354C364DA54406ABEF
:10418000ED18F4ABE1210B900F9218000022F3938D
:10419000FDF7C4FF336811A80D9373682D090E93C2
:1041A000FEF73CF9EC232D012F000F249B00EA18A9
:1041B000FE206A600C9201230022203711A92F6093
:1041C000AC60EC602C6103910E998005089206901A
:1041D00022002000049301910D9B21000795059476
:1041E00002940094FFF7C2FD0022FE202F600C9F76
:1041F000AC60EC602C616F60089201320492F4AA0A
:104200000392800511AA2100B36806900192200054
:1042100022000795059402940094FFF77FFBEC21A0
:10422000E323F26806A8890041189B00CA500B9B43
:1042300011A8109310AB1193F2AB12930F9B139331
:104240000B9B1493FEF766FD034B9D44F0BDC046E7
:104250005CF1FFFF4F070000A40E000010B5040042
:104260000421FEF7A9FD20000521FEF7A5FD200091
:104270000621FEF7A1FD20000721FEF79DFD20008D
:104280000821FEF799FD20000921FEF795FD200089
:104290000A21FEF791FD20000B21FEF78DFD200085
:1042A0000C21FEF789FD20000D21FEF785FD200081
:1042B0000E21FEF781FD0F212000FEF77DFD10BDD0
:1042C00010B54C6889688AB0049101A902AB0190CD
:1042D00006910990002106A8079308920394FEF71F
:1042E0006BFD06A80121FEF767FD06A80221FEF777
:1042F00063FD032106A8FEF75FFD06A8FFF7AEFFEA
:104300000AB010BD70B50CC815685A689B688C005F
:104310001959105906F02CF9285170BD10B5040038
:104320000021FFF7EFFF20000121FFF7EBFF200046
:104330000221FFF7E7FF20000321FFF7E3FF200042
:104340000421FFF7DFFF20000521FFF7DBFF20003E
:104350000621FFF7D7FF20000721FFF7D3FF20003A
:104360000821FFF7CFFF20000921FFF7CBFF200036
:104370000A21FFF7C7FF20000B21FFF7C3FF200032
:104380000C21FFF7BFFF20000D21FFF7BBFF20002E
:104390000E21FFF7B7FF0F212000FFF7B3FF10BD7D
:1043A00030B50D0004008BB0FEF740F82A6803AB6F
:1043B00004926A680793059201AB02AA06A80294C8
:1043C000069208930994FFF7A9FF20000BB030BDB7
:1043D000F0B51F24B5B006ABE418C36806005B68EF
:1043E00024090493002324010193019B049A93421E
:1043F00039DA5023019A776853430293029A33685B
:1044000094461B689B180593BB689D18FB68286839
:10441000634419681035039306F0AAF80795250040
:10442000039B103510330690206007A928000893DD
:10443000FFF7B6FF3F69029B2068FF18396806F056
:1044400097F806902065200007A91037603007957F
:104450000897FFF7A5FF210005985031FEF73FFEB2
:10446000019B0133C0E735B0F0BDF7B50B681768A5
:10447000040015000E00181C391C019305F094FD72
:10448000019B10361035391C2060E6606761E561DC
:104490006362381C05F052FF011CFE20800505F008
:1044A00083FD60632000FEBD70B528C81E68AB693F
:1044B0008C001859296905F041FFAB68195905F0BE
:1044C000D7FBEB69195905F0D3FB305170BDF0B53E
:1044D0004B689FB0039353689668049313688F6882
:1044E00005930B680C000290311C0398019206930F
:1044F00005F024FF0499051C381C05F01FFF011C62
:10450000281C06F035F805990C90381C05F016FFAC
:104510000699051C301C05F011FF011C281C06F033
:1045200027F806990D90049805F008FF0599051CD9
:10453000039805F003FF011C281C06F019F816AFBC
:104540000FAB12AE0CAD0E90179338000BAB0021E1
:1045500018930F95129516961995FEF740FF38009F
:104560000121FEF73CFF38000221FEF738FFE36827
:104570000993636803930E9B03980493A3680499BB
:1045800005930D9B06930C9B07932368089305F0F6
:10459000D5FE0699041C059805F0D0FE011C201CD0
:1045A00005F0E6FF07990F90059805F0C7FE0899FA
:1045B000041C049805F0C2FE011C201C05F0D8FF65
:1045C00008991090069805F0B9FE0799041C039805
:1045D00005F0B4FE011C201C05F0CAFF019B1190E0
:1045E000BB60099B30003B610FABFB61029B00216C
:1045F0000B930BAB12930AABB360029BBD61F360EC
:104600007760FFF751FF30000121FFF74DFF3000C9
:104610000221FFF749FF02981FB0F0BD10B508F066
:10462000F3FF06F083F9011C05F022FBC021890588
:1046300005F084FEFE21890505F09AFF10BD10B536
:10464000046889006418FFF7E9FF206010BD13B506
:104650000400FDF7EBFE01A800210194FFF7EFFF36
:1046600001A80121FFF7EBFF01A80221FFF7E7FFF7
:1046700001A80321FFF7E3FF01A80421FFF7DFFFF3
:1046800001A80521FFF7DBFF01A80621FFF7D7FFEF
:1046900001A80721FFF7D3FF01A80821FFF7CFFFEB
:1046A00001A80921FFF7CBFF01A80A21FFF7C7FFE7
:1046B00001A80B21FFF7C3FF01A80C21FFF7BFFFE3
:1046C00001A80D21FFF7BBFF01A80E21FFF7B7FFDF
:1046D00001A80F21FFF7B3FF200016BD10B5046835
:1046E00089006418FFF79AFF206010BD10B50468B8
:1046F00089006418FFF792FF206010BD0CC870B5E8
:1047000015685A688C001059996805F017FE2851F1
:1047100070BD0CC870B515685A688C00105999683E
:1047200005F042FC285170BDF0B5372495B004ABBC
:10473000E4184B680E6800938B6805000193CB6802
:1047400001990293081C05F0F9FD0299071C081C49
:1047500005F0F4FD011C381C05F08AFA311C0390A9
:10476000301C05F0EBFD0099071C081C05F0E6FD68
:10477000011C381C05F07CFA011C039805F078FA3E
:10478000240900212401071C05F05EFA002831D01D
:104790002000FDF7CDFE80228023120694461B06E2
:1047A000F618009B280063446360019B2660634405
:1047B000A360029BE360FDF7BBFE06AB05AA0021E8
:1047C0000B930AA804AB0A920C93079408970595DB
:1047D0000D95FFF79EFF01210AA8FFF79AFF02211E
:1047E0000AA8FFF796FF03210AA8FFF792FF280007
:1047F00015B0F0BD2800FDF79BFE00220421280023
:10480000FDF78CFCF3E70000F0B59724BDB004ABD6
:10481000E4182409240123000D0040330700180088
:1048200000920193FDF784FE2B69032623646B69D4
:104830001FA96364AB6904A8A364EB682295E364D1
:104840002B001C331F9307232393093325932096B2
:10485000FEF7CAFA2A00283210231F920A221FA943
:1048600007A82295239225932096FEF7BDFA2A00E9
:104870000D23343223931FA99B190AA81F92229556
:1048800025932096FEF7B0FA009B00251F932293F4
:1048900006231FA90DA8239525932096FEF7CDFA90
:1048A0000623009A1FA90C321F92009A10A8229288
:1048B000259320962396FEF7C0FA3800FDF7B6FD43
:1048C00033002A0039001FA8FDF7C6FC04AA01998D
:1048D00019A8FFF7FCFD19A91FA8FEF751F80A99BE
:1048E000109805F045FE0B990290119805F040FED6
:1048F0000C990390129805F03BFE23003033051C01
:1049000018000093FDF714FEA56320000025029B0C
:10491000009A2363039B01996363E5632030FDF7ED
:1049200017FE2300103318000093FDF701FEE36A21
:1049300032002361236A39006361636A1FA8A3619F
:10494000A36AE3610423FDF787FC009B19A91FA854
:104950001B951C93FEF732F8144B07223900159370
:104960001FA8330013951495FDF776FC16AD2000B3
:104970000199FFF7D9FE13AA21002800FFF7A7FD30
:104980000DAB1A9319A907AB1FA81B931D95FEF732
:1049900039F806230A2239001FA8FDF75DFC1FA87D
:1049A000FEF75AF838003DB0F0BDC046C3F51C41D3
:1049B00010B504000621FEF761FA20000721FEF77A
:1049C0005DFA20000821FEF759FA20000921FEF7C0
:1049D00055FA20000A21FEF751FA20000B21FEF7BC
:1049E0004DFA20000C21FEF749FA20000D21FEF7B8
:1049F00045FA20000E21FEF741FA0F212000FEF7B4
:104A00003DFA10BD10B50C688CB00794CC680969EC
:104A100006AB0B9101A9019002910590002102A81B
:104A2000039304920994FEF729FA02A80121FEF7E4
:104A300025FA02A80221FEF721FA02A80321FEF7B7
:104A40001DFA02A80421FEF719FA052102A8FEF7B3
:104A500015FA02A8FFF7ACFF0CB010BDF0B5F3B02B
:104A600007936F23160008AA9B181B091B015D1CE6
:104A7000FF350700280001910093FDF7D7FC009B4C
:104A80003200C033180001990293FFF7BDFE07986A
:104A900007F0AAFD0022374B0490059106F0FCFEBA
:104AA00007F0EAFD019B0EAC0E93029B21000690DD
:104AB000E0600AAA28002361FFF7A4FF009B3200F0
:104AC0008033290018000393FFF79EFE019B21000D
:104AD0000E93069B2800E360039B0AAA2361FFF75D
:104AE00091FF009B32004033290018000693FFF726
:104AF0008BFE019B21000E93079B2800E360069B21
:104B00000AAA2361FFF77EFF320029000098FFF711
:104B10007BFE3800FDF78AFC04980599019B002272
:104B20006360154B06F0B2FA07F0A6FD029B039AEC
:104B300023628023DB05A362A363069BE0602364FA
:104B4000009B0AA8636409AB0A9308AB22630C9329
:104B500009970B940D97FDF799FF04230322390061
:104B60002000FDF779FB2000FDF714FB380073B03F
:104B7000F0BDC0460000E03F00001840836970B5FA
:104B80008D000400C169585905F0D8FBA368061CC4
:104B9000E168585905F0D2FB011C301C05F068F89B
:104BA00070BDF0B5036846681B6885B0019333009B
:104BB000370000243033039324330C3702937836C4
:104BC00021003800FFF7DAFF2100051C0398FFF7EA
:104BD000D5FF011C281C05F04BF82100051C02988C
:104BE000FFF7CCFF291C05F043F82100051C30001D
:104BF000FFF7C4FF011C281C05F0BAFC019BA200B2
:104C000001349850102CDBD105B0F0BD30B50C004C
:104C1000AFB00500FDF70AFC226907AB0C92A26950
:104C200003A80D92226A1092A26A1192A26B1592A9
:104C3000226C1692A26C1992226D1A92626E1E92CA
:104C4000E26E1F92626F2292E26F239222009032F4
:104C50001268279222009832126828922200A0320D
:104C60001268A8342B9222682C9202AA049301ABFA
:104C70000295039205930695FFF793FF28002FB046
:104C800030BDF0B5036846681B6885B001933300FA
:104C9000370000243033039324330C3702937836E3
:104CA00021003800FFF76AFF2100051C0398FFF779
:104CB00065FF011C281C05F05BFC2100051C029807
:104CC000FFF75CFF011C281C05F052FC2100051CAD
:104CD0003000FFF753FF011C281C05F049FC019B25
:104CE000A20001349850102CDAD105B0F0BD036851
:104CF00089001A68436880205B6800065B581B18AF
:104D0000535070478B68C3600B6903618B69C36143
:104D10000B6A03620B6B03638B6B43630B6C036463
:104D20008B6C43647047F0B50C0095B00500FDF73F
:104D30007DFB210001A8FFF7E5FF0024210002A868
:104D4000FFF71CFF2100061C0BA8FFF717FF011C33
:104D5000301C05F00DFCA7000134E851102CEDD1FA
:104D6000280015B0F0BD0000F0B53C4C0D68A5441E
:104D70003B4C06AB1600E4182B00A036503317004E
:104D800019003200049006A80393FDF7E0FC2B0005
:104D9000A03302933B0050331A00029911A80193EB
:104DA000FDF7D5FC11AA06A948A8FDF7F6FC2409D1
:104DB000489B240149A960A85F93FDF7DFFC23000D
:104DC00020005F9AA0331A6060A9B0300593FFF706
:104DD000AAFF3A0002991CA8FDF7B9FC320029008D
:104DE00027A8FDF7B4FC27AA1CA976A8FDF7D5FCD7
:104DF000769B77A98EA88D93FDF7C0FC20008D9B34
:104E00008EA923656030FFF78EFF2900019A32A832
:104E1000FDF79DFC3A0003993DA8FDF798FC3DAADB
:104E200032A9A4A8FDF7B9FCA49BA5A9BCA8BB9373
:104E30002600FDF7A3FC2000BB9BBCA923605036D5
:104E40001030FFF770FF2300320005990498FEF739
:104E50009FFA0498034B9D44F0BDC046BCFBFFFF86
:104E60003F03000044040000F0B5C84CC84BA54403
:104E700003920AAA9B181B091C010B00F03309932B
:104E8000039B0A90F0331A0002910CA80999089329
:104E9000FDF75DFC039A029917A8FDF758FC17AAC5
:104EA0000CA9BCA8FDF779FC029B22A850330793FC
:104EB000039B079950331A000693B64DFDF747FC44
:104EC0002299BC9805F054FB0AABED188A230AAA74
:104ED0001B019B18061CBDA91800FDF74FFCAE482E
:104EE0000AAB23A9C018FDF729FCFFABFFA82900D6
:104EF0005E6668306433FDF76AFC029B2DA8A03320
:104F00000593039B0599A0331A000493FDF71FFC3A
:104F1000FFAB2D99586E643305F02AFB8A230AAA49
:104F20001B019B18FFA9061C68311800FDF74FFCF8
:104F30009A4B0AAA9B182EA91800FDF7FFFBCD2358
:104F40000AAADB009B181E608A23CE201B019B1837
:104F5000C00019008018FDF73AFCDF208F4B0AAA29
:104F60009B18C00019008018FDF7E8FB2300F03300
:104F70001A000B93CD230AA9DB005B181B68661C83
:104F8000FF3613603000864FFDF750FA0AAB8549B3
:104F9000FF18C9183800FFF7B5FEDA230AAADB00AC
:104FA0009B181B680AA9EB65CD23DB009B181B6FC0
:104FB0002B66DC23DB009B181B68EB66DD23DB0024
:104FC0009B181B682B67784B9B18784A52181268FD
:104FD0001A60774B774A5B181B685218FB67764B51
:104FE00012685B181A609323744A1B0152181268E6
:104FF0005B181A60FC23724FDB007F185B181F6080
:10500000704B714A5B181D60FD23DB005B18521862
:105010001A606E4B3E605B181E60FC23DB005B1861
:105020001800FFF72EFE039A099938A8FDF78FFBA9
:10503000089A029943A8FDF78AFB43AA38A9D3A886
:10504000FDF7E3FB049A07994EA8FDF780FBFFA844
:105050004EAAD3A9F030FDF701FC069A059959A88C
:10506000FDF775FBFFA9380059AAF031FDF710FCD8
:10507000E5212000524B0AAA9B181B68603EC9001C
:1050800033608918B030FFF7C1FD069A099964A80A
:10509000FDF75DFB089A07996FA8FDF758FB6FAA0B
:1050A00064A9EAA8FDF7B1FB039A05997AA8FDF770
:1050B0004EFBAA230AA8DB001B1818007AAAEAA94B
:1050C000FDF7CCFB049A029985A8FDF740FBAA23C3
:1050D0000AA9DB005B181900FC230AA8DB001B18D7
:1050E000180085AAFDF7D4FBFC2320000AAADB00E8
:1050F0009B181B683349236589186030FFF786FDCC
:10510000049A099990A8FDF722FB089A05999BA893
:10511000FDF71DFBFFA89BAA90A90830FDF775FBC2
:10512000069A0299A6A8FDF712FB274B0AA81B189E
:10513000FFA91800A6AA0831FDF790FB039A07996A
:10514000B1A8FDF704FB204B0AA95B181900280041
:10515000B1AAFDF79DFB0F4B0AAA9B181B68200004
:1051600023608A2327001B019B1819001030FFF7CA
:105170004DFD0B9B503700933A00230031000A98F5
:10518000FEF7EAF80A98124B9D44F0BD34F5FFFF94
:10519000670900009C080000F808000028090000CA
:1051A000A4080000740600001C090000FC060000B2
:1051B000040700000C0700002C0900001407000081
:1051C00024070000E4070000DC050000EC070000F5
:1051D000CC0A000070B50CC815685A689B688C0032
:1051E0001959105904F044FD285170BD10B5040040
:1051F0000421FFF77CFD20000521FFF778FD20004A
:105200000621FFF774FD20000721FFF770FD200045
:105210000821FFF76CFD20000921FFF768FD200041
:105220000A21FFF764FD20000B21FFF760FD20003D
:105230000C21FFF75CFD20000D21FFF758FD200039
:105240000E21FFF754FD0F212000FFF750FD10BD88
:1052500030B50D0089B00400FDF7E8F802AB059306
:105260006B462A6804A80392002101AA04920693BF
:1052700001940794FFF73BFD04A80121FFF737FDD8
:1052800004A80221FFF733FD032104A8FFF72FFD37
:1052900004A8FFF7ABFF200009B030BD10B5040033
:1052A0000621FFF72BFA20000721FFF727FA20003D
:1052B0000821FFF723FA20000921FFF71FFA200039
:1052C0000A21FFF71BFA20000B21FFF717FA200035
:1052D0000C21FFF713FA20000D21FFF70FFA200031
:1052E0000E21FFF70BFA0F212000FFF707FA10BD80
:1052F00030B50D008BB00400FDF798F802AB0793B2
:105300006B462A6806A80392AA680021049201AAA3
:105310000692089301940994FFF7F0F906A8012179
:10532000FFF7ECF906A80221FFF7E8F906A8032128
:10533000FFF7E4F906A80421FFF7E0F9052106A824
:10534000FFF7DCF906A8FFF7A9FF20000BB030BD7E
:10535000F0B5272406000027A1B004ABE418C36809
:1053600024095B6824010293029B9F421FDA5023A9
:1053700032687B4312680137D21803927268516811
:10538000D5680191ED182968019804F0D7FF0590C0
:1053900020602000019B06A9103510300893069567
:1053A000FFF7A6FF21000398FDF799FEDCE721B087
:1053B000F0BDF0B500248B6885B001938B690F694F
:1053C00002930B6B0E6A03900093019B381C1959D2
:1053D00004F0B4FF029B051C1959301C04F0AEFF09
:1053E000011C281C05F0C4F8009904F0A7FF039BDA
:1053F00018510434402CE8D105B0F0BD70B55026EA
:105400004F24BAB003684E4341686C441D682409B8
:105410004B682401AD1920009E191031FDF716F8D4
:1054200031002600220001A8FFF71FF8019B50362B
:10543000236560342000FCF7F9FF6A46200002A9CA
:10544000FFF7B7FF31002800FDF749FE3AB070BD05
:10545000F0B54F24D9B002ABE41824092401466802
:1054600005002000FCF7F2FF20002300012231009C
:105470006030FDF74BFA210020007031FCF7E6FFA9
:105480006B68226E0193934205D0144B144A154960
:10549000154807F097F900232E680093009B019AA6
:1054A000934217DA2700C03721003800FCF7CEFFFF
:1054B00031003A0003A8FEF7D8FF3000039B1030FC
:1054C000336002AA04A9FFF774FF009B5036013332
:1054D0000093E3E7280059B0F0BDC046332A01002D
:1054E000682A0100F20200006D180100026810B580
:1054F000146840688B00E418FFF740FB206010BD83
:1055000010B504000121FFF7F1FF20000221FFF791
:10551000EDFF20000321FFF7E9FF20000421FFF742
:10552000E5FF20000521FFF7E1FF20000621FFF73E
:10553000DDFF20000721FFF7D9FF20000821FFF73A
:10554000D5FF20000921FFF7D1FF20000A21FFF736
:10555000CDFF20000B21FFF7C9FF20000C21FFF732
:10556000C5FF20000D21FFF7C1FF20000E21FFF72E
:10557000BDFF0F212000FFF7B9FF10BD10B54C682B
:105580008EB00794CC6805AB08944C69C96900904B
:105590000C9169460490019101A8002102930392A5
:1055A0000B94FFF7A3FF01A8FFF7AAFF0EB010BDF1
:1055B00030B5040025008DB00A0001A8FDF7C7F83A
:1055C000019B103523602800FCF730FF28006A4655
:1055D00002A9FFF7D3FF20000DB030BD10B50400C5
:1055E0000621FFF7F7FD20000721FFF7F3FD20005C
:1055F0000821FFF7EFFD20000921FFF7EBFD200058
:105600000A21FFF7E7FD20000B21FFF7E3FD200053
:105610000C21FFF7DFFD20000D21FFF7DBFD20004F
:105620000E21FFF7D7FD0F212000FFF7D3FD10BD9E
:1056300010B50C68496888B00391694601AB0090C9
:1056400004910790002104A8059306920294FFF7A5
:10565000C1FD04A80121FFF7BDFD04A80221FFF749
:10566000B9FD04A80321FFF7B5FD04A80421FFF745
:10567000B1FD052104A8FFF7ADFD04A8FFF7AEFFBB
:1056800008B010BD70B514000D00060086B011689A
:105690002868103404F0ECFA0494340010340290BA
:1056A0003060103520000395FCF7C0FE200001AAF1
:1056B00003A9FFF7BDFF300006B070BDF0B550255F
:1056C00027246A439FB04D6902ABCF68E4184B684A
:1056D000AD1829689B180600381C019304F02EFEB3
:1056E0002409240103902060200004A91035103003
:1056F00004950697FFF7FCFD300022000199FFF7A3
:10570000C1FF30001FB0F0BD0A00502130B50F249A
:1057100097B0514303686C441D68240924016D1837
:1057200041682000FFF7CAFF21002800FDF7D7FCE1
:1057300017B030BD00B58DB006AB03936B460A6859
:1057400001900792CA68059009920A6902A80B9213
:10575000002101AA02920493FFF7D6FF02A80121BB
:10576000FFF7D2FF02A80221FFF7CEFF02A8032114
:10577000FFF7CAFF02A80421FFF7C6FF02A8052110
:10578000FFF7C2FF02A80621FFF7BEFF02A807210C
:10579000FFF7BAFF02A80821FFF7B6FF02A8092108
:1057A000FFF7B2FF02A80A21FFF7AEFF02A80B2104
:1057B000FFF7AAFF02A80C21FFF7A6FF02A80D2100
:1057C000FFF7A2FF02A80E21FFF79EFF0F2102A8FC
:1057D000FFF79AFF0DB000BDF0B52724CDB008ABA0
:1057E000E418002324090490240101935023019A12
:1057F000200053430293049B029A1B6894461B6843
:105800009B180693049B019A5D6829006B681C3104
:1058100063440793EB680393FFF750FF2B6C029AE6
:10582000AF6B9E183168381C04F088FD10362300D9
:105830000A960C97260027006033099020650AA974
:1058400018005036A0370593FFF752FD32002100B3
:105850003800FFF717FF029B6A6C3900D21820004E
:10586000FFF710FF2168039804F068FD2300103350
:105870000A93039B099020650AA905980C93FFF7EA
:1058800037FD320020000799FFF7FCFE2100069843
:10589000FDF725FC019B01330193102BA6D14DB0E0
:1058A000F0BD0000F0B5754C0D00A5443F2406ABDB
:1058B000E4182409240126004136FF360290300006
:1058C000FFF776FE290020005031FFF771FE8C2390
:1058D0009B00E3182200180031000493FFF7D2FE6A
:1058E0002B00A033190030000693FFF761FE2B0058
:1058F000F033190020000593FFF75AFE2300C1334F
:10590000FF331800220031000393FFF7BBFE039A18
:1059100020000499FFF7B6FEA0239B00E3182100A6
:1059200018000793FCF792FD00230EA920000E93A8
:10593000FCF7B3FEA0239B00E1582068029F04F00F
:105940006FF9002800D178E02A008027103220006B
:105950000F92A0222B683F06DB1952005130A35052
:105960000FA9FF300E93FFF773FCE0222B6D52005E
:10597000DB19A3500B9323002900D133FF3360318F
:1059800018000C910CA91F00FFF762FC8022069BF7
:1059900012061B68B0359B188C229200A350089306
:1059A00090239B00E01809A90995FFF751FC059B7E
:1059B000039A310020000093049BFDF7CDFC07996A
:1059C0000498FCF743FD250004993800FCF73EFDE0
:1059D000A02261355200FF35A45039002800FCF7A1
:1059E00035FDFC340298FCF773FF636C29000493C7
:1059F000049A039B38005A60FCF728FD029B0021A3
:105A00000B930BAB0E93039B0EA80F9308AB109355
:105A1000029B1193FFF7F2FC01210EA8FFF7EEFCA9
:105A200002210EA8FFF7EAFC03210EA8FFF7E6FC0F
:105A30000298C9239B009D44F0BD00230EA9039842
:105A40000E931034FCF729FE03993000FCF7FEFC9E
:105A500031002000FCF7FAFC0298FCF739FF210026
:105A60003000FCF7F3FC029C4134FF343800310075
:105A70005037FDF734FBBC42F8D1D9E7DCFCFFFF1F
:105A8000F0B52724C7B002ABE4182409240126008E
:105A9000436805000193A036002B31D1002330006C
:105AA00003A90393FCF7F9FD200031005030FCF707
:105AB000CDFC002303A920000393FCF7EEFD266D27
:105AC0002068311C04F0ACF8002817D0301C03F01B
:105AD00027FE2300011C061C0390FC206033800578
:105AE000049304F061FA0690200004A926601030A7
:105AF000FFF7FEFB21002800FFF7AAFC47B0F0BD2E
:105B0000019B002B06DC9C21184B194A1948FF31D8
:105B100006F058FE03682000B0300093FCF786FCC6
:105B200020000099FFF744FD21003000FDF7D7FA6F
:105B30005023019A009F5343009A5037D318019382
:105B4000019BBB42B0D023005033180039000093B2
:105B5000FFF72EFD31002000009AFFF793FD210092
:105B60003000FDF7BCFA5037EAE7C046E8FA00001B
:105B7000AE2C010087FC0000F0B550273F2445689B
:105B80004F432900BBB004ABE418036824091B6829
:105B90002401DB1902936B692000DB193031039378
:105BA000FCF754FC2B0090331A682100D21905A889
:105BB000FCF7CDFD059B260023652300603318000C
:105BC00001935036FCF732FC019804AA06A9FFF7AE
:105BD000D5FCA035320020000399FFF753FD2A6859
:105BE00021003000D219FFF74DFD31000298FDF77A
:105BF00076FA3BB0F0BD70B55024036861431D6870
:105C000043686D181C6886B06418216828682E00E7
:105C100004F02EF81036103402900396049401AA72
:105C2000286003A93000FFF703FD06B070BD000037
:105C30003F23F0B5594CA544059206AA9B181B09B1
:105C40001E0102910C910E91310004220023F031CB
:105C50000191039011920198059A0CA90F93FFF7F7
:105C600083F8019908AF0791089107A90D9106A93A
:105C70000E9101990CA80F9100210C97FFF7BBFF23
:105C80000CA80121FFF7B7FF0CA80221FFF7B3FF13
:105C9000300035000299E1301035F031FF300490CA
:105CA000FCF7D4FB04992800FCF7D0FB8221C90043
:105CB000741820002900FCF7C9FBFC218900751825
:105CC000019905982967D42189007050E02080004F
:105CD000210030180590FCF7B9FBD52000230422E1
:105CE00080003418286F0F93E06702980CAB1900FE
:105CF0000C900E9011923000019AFFF735F8D421E4
:105D00008900735805990193019A049B1A618823AD
:105D10009B00F31818000193FCF798FB9C239B0051
:105D2000F3180293E36F03980593059A029B1A6098
:105D3000A4239B00F5182E60FCF7E2FCA822049B2C
:105D400092001B69B4186361B4239B000199F01899
:105D5000FCF77CFB029B38001A68CC239B00F318ED
:105D60001A60D0232A689B00F3181A60039B002155
:105D7000079307AB089306ABBB60039B7C60FB609B
:105D8000FFF7FAFE38000121FFF7F6FE3800022186
:105D9000FFF7F2FE0398024B9D44F0BD3CFBFFFF72
:105DA000C4040000F0B5BA4C0D00A544672403906C
:105DB000A02008ABE41824092401C0002018160014
:105DC00005900B000A002800E133F0309132413198
:105DD000FF33FF32FF3100900598FDF7BDFA8C23A9
:105DE000BE219B00EB1807221793032309016718B4
:105DF00038001B9217A9093218931A951D92FDF7C6
:105E00000CFA0A20C8211B908900AF206B181022C1
:105E1000179303230001201817A918931A951D92B0
:105E20000790FDF7FAF98220C0002B18A0201793E5
:105E30000323102200011A9525182800189317A98A
:105E40000A331B931D92FDF7E8F9912200200323EA
:105E50001201A2181B9006301D9017A9100017966A
:105E600018931A960892FDF7CFF8032318931B9303
:105E70008223320006201B011A96E61817AB190080
:105E80000C321D9030001792FDF7BEF80398FCF716
:105E900007FB03230022039917A8FCF71FFB3A0016
:105EA00020000599FFF7C4FE210017A8FDF7DAF9D5
:105EB000C8200023C00020180CA90C930490FCF704
:105EC000ECFBA0231B01E158E13BFF3BE05804F051
:105ED0004FFB83221201A318E132FF320EAF0E9066
:105EE0007B60A318BB60A0239B00E050E0180690E5
:105EF000A42080000FA92018FEF752FA306D8826E2
:105F0000296D04F035FB3601A319E13612ADFF36D9
:105F100012906B60A319AB60A0235B00E0502000DF
:105F2000513013A9FF30E618FEF73AFA8C20000131
:105F30002318E130FF3022181168186804F018FBAC
:105F40008D221790206020001201A318E132FF3249
:105F5000189318A9A31810301993FEF721FAF0200E
:105F600080002018099004982300320006990090C0
:105F70000998FDF7F1F9099A05990698FEF774FF5B
:105F8000B420C822800092002318A218A030211843
:105F900000923000069AFDF7DFF9042303220399EB
:105FA00017A8FCF79BFA00237B60189BFE60042B6C
:105FB0000AD00122042117A8FDF702F8354B364A12
:105FC0003649374806F0FEFB179B28000C930CABB4
:105FD00012930BABAB6017ABEB606F60FFF7B8F9D8
:105FE000CD2300261B01E3181800390006930E96F6
:105FF000FCF753FB290004981296FCF74EFB294B43
:1060000017A920001793FCF748FBE623DB00E618EE
:10601000049A230006993000FDF7BAF903230722FA
:10602000039917A8FCF75AFA20000599FFF73AFCE4
:10603000320021000498FFF7FBFD089BAB60079B33
:10604000EB60049B2B61189B032B07D001220321DB
:1060500017A8FCF7B5FF0F4B134AB1E7179B3800A1
:106060000C930CAB3B600BABBB6017ABFB607D6074
:10607000FEF7AEF906230A22039917A8FCF72EFAB9
:1060800017A8FDF717F90398084B9D44F0BDC046CB
:106090005CF2FFFF3E170100FB2E0100FD02000035
:1060A0006D180100C3F51C41B0310100A40D0000C2
:1060B000F0B5494C1600A54407936F2308AA9B1816
:1060C000A0221B091B0152019D1807002800019105
:1060D0000093FCF7E5F9009AF02394461B01634412
:1060E0003200180001990293FFF75CFE079806F052
:1060F0007BFA0022394B0490059105F0CDFB06F0A8
:10610000BBFA019B0EAC0E93029B21000690E0604F
:1061100028002361FFF70EFB009AA02394461B0181
:1061200063443200290018000393FFF73BFE019BF4
:1061300021000E93069B2800E360039B2361FFF779
:10614000F9FA009AA0239446DB0063443200290048
:1061500018000693FFF726FE019B21000E93079B74
:106160002800E360069B2361FFF7E4FA3200290070
:106170000098FFF717FE3800FCF792F9049805998C
:10618000019B00226360164B04F080FF06F074FA56
:10619000029B039A23628023DB05A362A363069B11
:1061A000E0602364009B0AA8636409AB0A9308AB10
:1061B00022630C9309970B940D97FFF70DFB0423B3
:1061C000032239002000FCF789F92000FFF758FC72
:1061D0003800044B9D44F0BD74E6FFFF0000E03F33
:1061E000000018408C190000F0B5674C0500A5446C
:1061F0004724019304ABE418240900922401002AE7
:1062000005D13921614B624A624806F0DBFA019BF5
:10621000002B14D1A023DB00E6184022300006F04A
:106220004BFB2A0031002000AB69FEF717FC40222F
:106230002100009806F040FB574B9D44F0BDF02331
:106240001B010C91E0180CA9FCF7AEFFA0231B0169
:10625000E7183800FCF724F90026F0231B01E318A7
:10626000310018000293FBF7E3FF3200039008A906
:106270000CA8FCF7BFF8039808AA10300CA9013647
:10628000FEF71EF8102EE8D1A023DB00E618300040
:106290000299FCF7E6F82A003100AB692000A0263D
:1062A000FFF706FF0025F600A0231B01E018611987
:1062B00040195035FCF713FFB542F5D100240126F3
:1062C00021003800FBF7B4FF009A0368A500535182
:1062D000019B210038005D19FBF7AAFF0021019BFB
:1062E00010300E9306AB089305AB099304AB0590F1
:1062F0000A9308A80CAB0B930F9410910C95119670
:106300000695FCF7FFFB012108A8FCF7FBFB022127
:1063100008A8FCF7F7FB032108A8FCF7F3FB04210E
:1063200008A8FCF7EFFB052108A8FCF7EBFB06210A
:1063300008A8FCF7E7FB072108A8FCF7E3FB082106
:1063400008A8FCF7DFFB092108A8FCF7DBFB0A2102
:1063500008A8FCF7D7FB0B2108A8FCF7D3FB0C21FE
:1063600008A8FCF7CFFB0D2108A8FCF7CBFB0E21FA
:1063700008A8FCF7C7FB01340F2108A8FCF7C2FBF3
:10638000102C9DD158E7C046ACEBFFFFA3270100BE
:106390008B350100A629010054140000F0B56726D2
:1063A000ADB0039304ABF6183609330113AC019377
:1063B00023000700029123CA23C323CA23C307ABC8
:1063C000089306AB0CAD0021099308A805AB0A930E
:1063D000069407950B95FCF78DFB012108A8FCF7A7
:1063E00089FB022108A8FCF785FB032108A8FCF71C
:1063F00081FB042108A8FCF77DFB052108A8FCF718
:1064000079FB039B0198AB61FCF710F80022102187
:106410000198FBF783FE3B0705D06D210D4B0E4A1B
:106420000E4806F0CFF98021002249003800FBF722
:1064300075FE23002A0043CA43C343CA43C3AB6962
:106440002000A361019A3B000299FFF7CDFE3800BE
:106450002DB0F0BDFB0601008B370100770801006D
:10646000F0B5344C0D00A5441F24029304ABE4188E
:1064700024092401029B009020000192FFF78EFF67
:10648000BE231B01E6183000FCF752F8BE232A6930
:106490001B01E2506B6910227360AB693100B3607D
:1064A000EB68F3608023DB00E718380006F004FA9D
:1064B000F823DB00E318390018000393FCF78EFB88
:1064C000B8231B01E6182900019A3000029BFEF751
:1064D000C5FABD231B01E5182800FCF729F8BD23E8
:1064E00032691B01E250736910226B60B3692900A5
:1064F000AB60F368EB60BC231B01E618300006F0CC
:10650000DBF931003800FCF769FB039B0098079327
:1065100005970694FBF782FFFE239B0500980493E2
:1065200007AA04AB05A9FDF7C3FD0098024B9D44E3
:10653000F0BDC046E4F3FFFF1C0C0000F0B5434C77
:10654000434BA544069206AA9B181B091B01059103
:1065500004930390FBF711FE3E4E3F4D3F4C6223E8
:10656000320029000090200001F074FA049F4022BC
:1065700040373800039906F09FF9E122039B92000F
:10658000403319000EA8079306F096F9FE22039BEC
:1065900092009918EFA8743A06F08EF9FBF7EDFD1A
:1065A0006623320029000090200001F053FA3900E0
:1065B000069B059A0498FEF751FAFBF7DEFD692366
:1065C000320029000090200001F044FAE520390053
:1065D000C00006AF069B059AC019FFF741FFFBF705
:1065E000CCFD6B23320029000090200001F032FA2C
:1065F000E52306AADB009B1809930EAB0A93E5235B
:10660000174FDB009B18BF1809A908AA38000B9385
:10661000EFAB0C93FDF7AEFDFBF7AFFD6D23320042
:1066200029000090200001F015FA04990398FCF766
:10663000C6FEE12200239200F8580799C85004339F
:106640009342F9D1074B9D44F0BDC0462CF1FFFFAA
:106650003F0E00007638010081380100F014002060
:10666000AC0A0000D40E0000F0B501210D20A9B045
:10667000672501F0FDF896214B4C6D442D09200053
:1066800089012D0101F096FD200001F095FD002803
:1066900003D10A3000F064FFF6E7FBF76EFD0A2233
:1066A0000100200001F031FA0FA92800FDF7CFFF0B
:1066B00002AB0FA800210F93FEF710F80FA80121DD
:1066C000FEF70CF80FA80221FEF708F80FA8032127
:1066D000FEF704F80FA80421FEF700F80FA8052123
:1066E000FDF7FCFF08AB0FA800210F93FDF7FEFF9D
:1066F0000FA80121FDF7FAFF0FA80221FDF7F6FF11
:106700000FA80321FDF7F2FF0FA80421FDF7EEFF0C
:106710000FA80521FDF7EAFF0FA80621FDF7E6FF08
:106720000423032229000FA8FBF796FD0FA8FBF70F
:1067300031FD1E4F29003800FCF741FEFBF71DFD1F
:106740001B4E1C4D320029003E230090200001F01A
:1067500081F9FBF712FD320029004623009020004A
:1067600001F078F9FBF709FD4C2332002900009075
:10677000200001F06FF920000F4901F061F90F4A84
:10678000380002A9FFF7DAFE0D49200001F058F9A0
:10679000FBF7F3FC5223009032002900200001F0A7
:1067A00059F929B0F0BDC046F0140020B002002015
:1067B000F03801008138010006390100CDCCCC3D14
:1067C0001E39010010B504001721FCF76DFA2000F6
:1067D0001821FCF769FA20001921FCF765FA20005E
:1067E0001A21FCF761FA20001B21FCF75DFA20005A
:1067F0001C21FCF759FA20001D21FCF755FA200056
:106800001E21FCF751FA20001F21FCF74DFA200051
:106810002021FCF749FA20002121FCF745FA20004D
:106820002221FCF741FA23212000FCF73DFA10BD9C
:1068300010B504000D21FCF737FA20000E21FCF7FB
:1068400033FA20000F21FCF72FFA20001021FCF76B
:106850002BFA20001121FCF727FA20001221FCF767
:1068600023FA20001321FCF71FFA20001421FCF763
:106870001BFA20001521FCF717FA16212000FCF75F
:1068800013FA2000FFF79EFF10BD10B50400002191
:10689000FCF70AFA20000121FCF706FA2000022189
:1068A000FCF702FA20000321FCF7FEF92000042186
:1068B000FCF7FAF920000521FCF7F6F92000062183
:1068C000FCF7F2F920000721FCF7EEF9200008217F
:1068D000FCF7EAF920000921FCF7E6F920000A217B
:1068E000FCF7E2F920000B21FCF7DEF90C21200077
:1068F000FCF7DAF92000FFF79BFF10BDF0B58DB073
:10690000040000910192FBF791FDF023DB00E718F2
:10691000230705D06D21204B204A214805F052FF66
:10692000FE239B00E5182800FBF778FDF723FE26E1
:10693000DB00E2182B00B6051E6040339342FBD10A
:10694000002224213800FBF7E9FBF023DB00E650AE
:10695000144BE6501C33E650134BE6501C33E65004
:10696000124BE650124BE6182868009903F0E6FC3B
:1069700001C5AE42F8D1019A04AB0692099303AA6D
:1069800002AB08A80597039708920A930B97FFF7A5
:106990007CFF20000DB0F0BDFB0601003339010083
:1069A000770801009C070000D40700000C080000D5
:1069B0007C070000074B10B51A68074C074B2000F6
:1069C0001968FFF79BFF2000054A064902F0A0FE68
:1069D00010BDC04608000020B002002004000020C6
:1069E00000000020FD20000070470000012110B5CC
:1069F0002822114B4942114800F0EEFB00231048B9
:106A0000104AFE218263C2650F4AC36342660200D8
:106A100003644364C36403654365002389056C32E2
:106A20008164138009490A4A8365036683660367A4
:106A300002F06EFE10BDC046DC0B0020E40A002010
:106A4000C00A00200B0010270000FF7FE96900004A
:106A500000000020F0B5040085B01E000AAB1B78D2
:106A6000103001930BAB1B78170002930CAB1B7813
:106A70000D00039300F0C2F82000243000F0BEF8AF
:106A8000220000234832A363E3632364636413702A
:106A9000537063729D4205D12721084B084A09486B
:106AA00005F090FE2000019B25606371029B277119
:106AB000E371039BA671237205B0F0BDC0390100DC
:106AC000D1390100253A010030B5040085B002AD8E
:106AD00000680291039201F00BF96B79227AE17957
:106AE00020680093002301F09FFA2979029A206818
:106AF00001F022F9206801F0F1F805B030BD000086
:106B000007B5837A00910192002B07D09A070AD526
:106B1000EFF310835A425341C37272B60099019A3F
:106B2000FFF7D2FF07BDDB07F8D5C368014A9BB268
:106B30009360F3E700180040837A002B05D09A0792
:106B400004D5C37A002B00D062B67047DB07FCD5B2
:106B5000C368024A9BB2D360F7E7C0460018004002
:106B600010B5006801F0CDF810BD00001FB5094A4E
:106B7000094B0A4913600023938002930133019368
:106B800016330093162201330548FFF763FF05B063
:106B900000BDC0469C0B002000093D00541400209D
:106BA000500B0020084B1968002909D1EFF3108021
:106BB000064A002803D172B6BFF35F8F013111700E
:106BC0001A6801321A607047A80B0020A40B00203D
:106BD000084B1A68002A0CD01A68013A1A601B6820
:106BE000002B06D1044B1B78002B02D0BFF35F8F24
:106BF00062B67047A80B0020A40B0020FF2310B53D
:106C00000370C023002104009B00417041808380F9
:106C10000C22083005F06CFE200010BD01230A0094
:106C200010B51A40194208D00C4A13700333437050
:106C30008368002B00D0984710BD0223194204D06E
:106C400006490B70C3684270F3E704231942F3D07E
:106C5000024A1370033343700369EAE74E48004168
:106C600010B5FFF79FFF0C4B1B8C1B071B0F0B2B4B
:106C70000FD80A4A9900885800280AD00F240849DA
:106C80000A78A24313430B70064B1978C9B2FFF779
:106C9000C5FFFFF79DFF10BD00480041AC0B002071
:106CA0003F4800414E48004100207047F8B50500BC
:106CB0000E0017000024BC4208D02B682800315D6C
:106CC0001B689847002801D00134F4E72000F8BD84
:106CD00070470300FC33196ADA69914203D01B6ADA
:106CE000C018007E704701204042FBE70300FC33E0
:106CF000D8691B6AC01A01D50130FF307047000007
:106D0000F7B50193FA238027002504009B008360D8
:106D1000114B7F0008330E0045602900009203608C
:106D20003A00183005F0E4FD23002000FC33213048
:106D3000DD613A001D622900FF3005F0D9FD87238F
:106D40009B00E3185D609D60009B20002375019B04
:106D50002661A5756375FEBD8C3A01008A23002269
:106D60009B00C1540C3BC3185A609A600123837581
:106D700070470200FC32536810B501339468DBB2EF
:106D80009C4202D054680155536010BDF7B5019381
:106D900000230400150018009A422FD02200FC3274
:106DA000D36120691362012201F002F8002826D085
:106DB0002700206901F07EF8183701003800FFF73E
:106DC000D8FF01262069B5420ED000F0D1FF022184
:106DD000206900F0D7FF206901F06CF8010038004D
:106DE000FFF7C7FF0136EDE700F0B9FF019B002B6D
:106DF00003D00321206900F0C5FFE8B2FEBD050005
:106E0000FBE710B50123FFF7C1FF10BD10B503006C
:106E1000827D002082420ED0872292009C186268F8
:106E2000A4680132D2B2A24205D02133FF33180048
:106E3000FFF79FFF012010BD0300FC3399685A68DB
:106E4000914206D09A68805C9A680132D2B29A6008
:106E5000704701204042FBE700228A2370B59B0067
:106E6000827505000E00C15C006900F0A1FF0028DA
:106E700006D10321286900F085FF0224200070BD9F
:106E8000872328009B00EA18536894682130FF305C
:106E90001C1B01D50134FF34002C0ED02C69FFF7E8
:106EA000CBFFC1B2200000F0C1FF0028E8D10321D0
:106EB000286900F067FF0324E0E7002EDED00321FD
:106EC000286900F05FFFD9E710B50121FFF7C4FF83
:106ED00010BD10B51830FFF7AFFF10BD70B504003E
:106EE000006900F0C5FF002814D0206900F0CEFF33
:106EF000002810D0206900F03BFF0321206900F03A
:106F000041FF8C239B00E558002D39D10023FC3430
:106F1000E361236270BD206900F0C2FF002809D040
:106F2000206900F0B8FF002804D0206900F0BDFF00
:106F30000028DFD0206900F0B3FF002826D12069A7
:106F400000F09FFF0028E5D0206900F0AEFF002888
:106F500037D087239B00E218536892689B1A01D5AB
:106F60000133FF33FF21002B05D020002130FF30FB
:106F7000FFF762FFC1B2206900F06BFFA075C9E79F
:106F8000236820001B699847A847BFE7206900F0E5
:106F9000EFFE2069032100F0F5FE206900F085FF77
:106FA0000028B7D0872300229B00E3185A609A601C
:106FB0000123A3758B239B00E3589342AAD09847E3
:106FC000A8E72200FC32D369126A0133DBB22069E0
:106FD000934206D100F0C3FE0321206900F0D2FEE7
:106FE00098E700F067FF010020001830FFF7C1FEAE
:106FF000206900F0BDFEEFE710B50248FFF76EFF15
:1070000010BDC046DC0B002010B515231422024928
:107010000248FFF775FE10BD50140020DC0B002065
:1070200013B56B460268D971073354681900012201
:10703000A04716BD70470000FA239B0010B583607F
:107040000C4B0021083303600B4B040003610B4B16
:10705000416083610A23C361013B0362073B818274
:1070600043628162C16201634163816301F005F89B
:10707000200010BDB03A010000127A00500B002031
:1070800070B504000E0015000021C06900F020FC5E
:1070900062692169A069FFF733FD3100A069FFF73C
:1070A0005FFD2900A069FFF75BFD0500A069FFF700
:1070B00043FDE069012100F00BFC280070BD7F2337
:1070C00010B500221940FFF7DBFF10BD10B504001A
:1070D0001321FFF7F4FFE36AC01A10BD036810B56F
:1070E0001B6904009847002807D0E36A0021013398
:1070F0002000E362FFF7E3FF10BD01204042FBE701
:10710000F7B50D00222114000600FFF7D8FF031980
:107110000700FF2B01D9FF24241A2B190193019B8F
:107120009D4206D02A7880213000FFF7A9FF013563
:10713000F5E73A193000A221D2B2FFF7A1FF2000F3
:10714000FEBD036870B51B6904009847002810D085
:107150000D212000FFF7B3FF002106002000FFF7FC
:10716000AEFF050032008D212000FFF789FF2800C7
:1071700070BD01204042FBE710B50248FFF75CFFFD
:1071800010BDC046100E00207047704770B50C004F
:10719000050028220021200005F0AAFB0B22200078
:1071A000084906F07CFA00230122E372E260EA68F3
:1071B0006362002322610322A361E361024B6261E7
:1071C000236270BDD43A01000AD7233C10B50400F5
:1071D00002F00CFA200010BD10B5034C0834046016
:1071E000C1604271836010BDDC3A0100F8B5050052
:1071F0000F001E00417980681400FFF7AFFDA868FA
:10720000390003681B689847A868FFF75DFE3200E5
:107210006979A868FFF7F5FDA619B44206D0A868F9
:1072200003685B69984720700134F6E70120F8BDD8
:10723000F7B50D00170000211822040005F058FBD7
:1072400006220021684605F053FB06236A46280003
:107250003900FFF7CBFF6B466A465B7810781B025C
:107260001843D37896781B021E43537915791B0275
:107270001D4300B236B22DB21A2F25D007D80E2FDB
:1072800022D0142F20D0082F05D02000FEBD282F9B
:1072900001D02E2FF9D105F051F90022184B03F03F
:1072A000F5FE20606160300005F048F90022144BC3
:1072B00003F0ECFEA060E160280005F03FF9002239
:1072C0000F4B03F0E3FE17E005F038F900220D4BF9
:1072D00004F0E2FA20606160300005F02FF900222E
:1072E000084B04F0D9FAA060E160280005F026F907
:1072F0000022044B04F0D0FA20616161C5E7C0466A
:10730000000059400000B03F30B5202287B00C008B
:107310000500081D002105F0EBFA24232360EB682B
:1073200063600323A36000F0E5F81A2229002061BE
:107330006846FFF77DFF0098019905F09DF96061AF
:107340000298039905F098F9A0610498059905F051
:1073500093F9E061012007B030BD000010B502488C
:1073600002F024F810BDC0464C0E002010B50248B3
:1073700002F01CF810BDC04648110020F7B50124EA
:107380000326154F1549380000F012FC1449154822
:1073900000F00EFC1449154800F00AFC1449154889
:1073A00000F006FC1449154800F002FC144D154984
:1073B000280000F0FDFB3900230000960022019414
:1073C000114801F089FF290000961E231F22019415
:1073D0000E4801F081FFF7BD441400200008004270
:1073E000000C004248140020001000424C14002001
:1073F00000140042501400200018004254140020D1
:1074000058140020001C00424C0E0020481100209F
:1074100070B50024094D0A4B1B68A34200D870BD0B
:10742000084E2A6833691A4205D0074BA200D35888
:1074300098472B68336101340435ECE7A014002031
:10744000E4140020001800405C140020054B10B527
:107450001B6C002B00D098470123034AD1780B43C3
:10746000D37010BD5C14002000180040FEE700003F
:10747000034B10B51B68002B00D0984710BDC046C9
:10748000E81400200F4A1048110010B50F4B82423B
:1074900002D0934209D11300824209D100F084F84E
:1074A00002F07EF8FEE710CB10C18142FBD3F3E778
:1074B000074A8B42F2D00021064B9A42EED202C21A
:1074C000FBE7C04600000020900200206844010055
:1074D00090020020F01A002010B500F062F8002899
:1074E00001D100F053F810BD014B18607047C04641
:1074F000E8140020014B18687047C046EC140020C7
:10750000F7B51348012284461249134C8E6863680C
:1075100005689B0E1340019288686268019F920E75
:107520003A4067463F6893420ED1BD420CD1864235
:107530000AD35B19FA254868AD00861B07486B43E0
:107540007043000DC018FEBD3D0013000600E3E7C8
:10755000EC14002010E000E000ED00E055550000C4
:1075600070B5041E11D0FFF7CBFFFA260500B60058
:1075700000F016F8FFF7C4FF401BB042F8D3FA231F
:10758000013C9B00ED18002CF4D170BD10B5034AEE
:1075900013680133136000F0D1FA10BDEC14002021
:1075A00070470020704700001E2270B546484749CA
:1075B000436893431C3A1343436008238C69234375
:1075C0008B61434C434B9C829C8A14439C82DC68B5
:1075D0001442FCD00124404A14701578254203D08F
:1075E00055786DB2002DF8DB01249460547864B2B4
:1075F000002CFBDB394C5460547864B2002CFBDB6C
:107600008224E4015480547864B2002CFBDB022411
:107610009C840E34DD682542FCD0314CDC621024A1
:10762000DD682542FCD09D8C2E4C2C439C8410247C
:10763000DD682542FCD002249D8C80262C439C844E
:107640004024DD683542FCD0DD682542F9D01024A5
:10765000DD682542FCD000249460547864B2002C8C
:10766000FBDB214C5460547864B2002CFBDB1C6AB9
:107670001E4D2C4080251C621C6AAC431C620323F7
:1076800093601B4B536053785BB2002BFBDB0023F2
:10769000FF240B72174A4B728B72CB72164B1A6017
:1076A000164B174A1B6811689A065B01C90E2340E6
:1076B000520F12020B431343124A13858023426870
:1076C0001343436070BDC0460040004100040040C9
:1076D0000C06000000080040000C004001050100FD
:1076E000B905FF7D040A000000070300FFFCFFFF4F
:1076F00003060100006CDC020C0000202460800006
:107700002060800000400042FA212E4B10B518681E
:10771000890002F0BFF8802301385B0498424FD201
:1077200029492A4A4860C020136A00061B021B0A26
:107730000343136200238B6007330B608021136ABD
:1077400009061B021B0A0B431362FC22204B196A19
:107750000A431A62FF22196A12020A431A62A0221D
:10776000196AD2020A431A621A4B1C005A7852B2A2
:10777000002AFBDB184A5A80184B1A00597EC909A7
:107780000129FBD0C821890099800521D970537E39
:10779000DB09012BFBD0C02300205B01136190703B
:1077A00000F022F863785BB2002BFBDB0C4B0D4A38
:1077B0006380D379DB09012BFBD04123537010BDCB
:1077C000FEE7C0460C00002010E000E000ED00E005
:1077D00000040040000C00401E4000000040004239
:1077E00021400000004800421F4900B50B004A7EBE
:1077F000D209012AFBD001380A282FD802F040F81C
:107800001B2E2E2E2E2E062E2E2411001A691749FD
:107810000A400F211A615A788A43110001220A4353
:1078200010E01A6911490A400F211A615A788A43F7
:1078300011000322F3E71A690C490A400F211A616B
:107840005A788A435A7000BD1A6908490A400F21C4
:107850001A615A788A4311000222E0E7F02219697E
:1078600012050A43F3E7C04600400042FFFFFFF065
:10787000182310B508245843134A13181C57013411
:1078800012D001245B6882569C4003290CD8080062
:107890000E49D2015218D318403301F0F1FF021003
:1078A000060B02211970546010BD06211970546036
:1078B0009461F9E70621197054605461F4E70221DC
:1078C00019709460F0E7C046F83A010000440041A6
:1078D0001823F0B508245843114A13181C570134D3
:1078E0001BD0012635005F688356BD400D4ADB0181
:1078F0009A18906805420BD10C00601E8441D21981
:107900004032107834400336A400B0432043107056
:10791000044A9B18002901D15D61F0BD9D61FCE71F
:10792000F83A010000440041182370B5082643438B
:107930002A4AD518AE573400013607D0072907DC8C
:1079400000291DDA01314C424C416442200070BDD7
:107950000B00083BDBB20024032BF7D8092903D125
:107960002100FFF785FFF1E70A2904D10839FFF765
:107970007FFF0024EAE700240B29E7D10A39F0E76A
:107980006C68012520009B56C9B262082840DB01C3
:107990002C4211D012480E351B189A18303210782C
:1079A000090128400143C9B2117041221B1940331B
:1079B00019780A431A70DCE70F26094D5B199A18EB
:1079C000303215781B19B5432943117041224033D9
:1079D000197804000A431A70B8E7C046F83A010063
:1079E00000440041F8B505000E0017000024BC4219
:1079F00008D02B682800315D1B689847002801D00B
:107A00000134F4E72000F8BD70B505000C00081E35
:107A100007D005F03DFE2B680200210028005B68BE
:107A2000984770BD10B503681B68984710BD0000EB
:107A300010B50249FFF7E8FF10BDC046483F0100FE
:107A400070B50400FFF7E0FF05002000FFF7F0FF2E
:107A5000401970BD0EB410B5040097B019AB04CB3B
:107A6000502102A8019305F065FE200002A9FFF74E
:107A7000CBFF17B010BC08BC03B01847F0B58BB0F3
:107A80006B4614000022053307000D00DA77012C45
:107A900000D80A2409AE2800210001F081FF03006C
:107AA000CAB2080029001D0013003733DBB20928D1
:107AB00002D813003033DBB2013E33708C42EAD976
:107AC00031003800FFF7A0FF0BB0F0BDF8B507009C
:107AD0000D00161E04D10368C9B21B689847F8BD93
