:10200000008000201D2E0000E52D0000052E0000A0
:1020100000000000000000000000000000000000C0
:10202000000000000000000000000000052E00007D
:102030000000000000000000052E0000712E0000CE
:10204000052E0000052E0000052E0000052E0000C4
:10205000A92D0000052E0000F9250000092E000022
:10206000052E0000F52C0000052E0000052E0000B6
:1020700091290000052E0000052D0000052E00000E
:10208000052E0000052E0000052E0000052E000084
:1020900000000000052E0000052E0000052E0000A7
:1020A000052E0000052E0000052E0000052E000064
:1020B0000000000010B5064C2378002B07D1054B1B
:1020C000002B02D0044800E000BF0123237010BDA4
:1020D000800200200000000044B90000044B10B54D
:1020E000002B03D00349044800E000BF10BDC046E8
:1020F000000000008402002044B9000010B56420F4
:1021000000F0FAFE10BD002303604360704700003A
:10211000F8B50500174C184F2000390001F04EF9B2
:10212000286805F0FDFB154E02000B002000310071
:1021300001F048F9A86805F0F3FB02000B0020004D
:102140000F4901F03FF93900200001F037F96868C4
:1021500005F0E6FB02000B002000310001F032F92F
:10216000E86805F0DDFB02000B002000044901F0E7
:1021700029F9F8BDCC0C0020A8AA0000ABAA0000E9
:10218000B1AA000010B5012906D9CD21044B054A9A
:102190000548490005F0B2FC0C235943401810BD16
:1021A000B8AA0000D5AA000015AC00000B680360B7
:1021B0004B68436070471FB5030002680C205B68E2
:1021C00048435B6814688900CB58241802A801931F
:1021D000FFF799FF2000019B6A4608C002A9FFF79C
:1021E000E5FF1FBD03688A001B689B1842685068A2
:1021F00092680918914202D000221A607047FE22AC
:102200009205FAE7F0B515001C0093B0002A05D13D
:102210003921334B334A344805F070FC002B05D18B
:102220000B6813604B68536013B0F0BD01AA0C92A9
:1022300002AA0D926A4606AB03910CA800210193F5
:102240000E920F93FFF7B7FF01210CA8FFF7B3FF22
:102250000026310006A8FFF795FF01AB00270C937D
:1022600002AB0D936B460430390001900F900CA81F
:10227000039704960E93FFF7B5FF01210CA8FFF713
:10228000B1FF012E2AD1069B02AA07A90DA80C9323
:10229000FFF78CFF099B02AA0AA910A80F93FFF76A
:1022A00085FF39000CA8FFF76DFF036839002B602C
:1022B0000CA8FFF767FF43683100236083680CA810
:1022C000A360FFF75FFF036831006B600CA8FFF7A6
:1022D00059FF436863608368E360A5E70126B8E7B8
:1022E00091AC000096AC00009DAE000010B506F069
:1022F00021FB03F0B7FC011C03F036F8C02189056F
:1023000003F0CEF9FE21890503F0E4FA10BD10B503
:102310008CB0FFF7EBFF27240290FFF7E7FF0023C5
:102320006C4424092401039023606360A360E3608C
:1023300004A8FFF7E8FE230004AA02A901A8FFF7FA
:1023400061FF2000FFF7E4FE0CB010BD01210D205D
:1023500010B500F059FF9621084C8901200001F0CA
:102360008FFB200001F08EFB002803D10A3000F023
:10237000C3FDF6E7FFF7CBFF10BDC046CC0C002035
:1023800070470000012110B52822114B4942114825
:1023900000F0EEFB00231048104AFE218263C26564
:1023A0000F4AC3634266020003644364C364036567
:1023B0004365002389056C328164138009490A4A08
:1023C000836503668366036702F008FE10BDC0469E
:1023D000B8030020C00200209C0200200B00102740
:1023E0000000FF7F8123000000000020F0B5040002
:1023F00085B01E000AAB1B78103001930BAB1B7825
:10240000170002930CAB1B780D00039300F0C2F889
:102410002000243000F0BEF8220000234832A363DD
:10242000E363236463641370537063729D4205D148
:102430002721084B084A094805F060FB2000019B52
:1024400025606371029B2771E371039BA671237260
:1024500005B0F0BD2AAF00003BAF00008FAF000019
:1024600030B5040085B002AD00680291039201F01E
:10247000A5F86B79227AE17920680093002301F0B6
:1024800039FA2979029A206801F0BCF8206801F035
:102490008BF805B030BD000007B5837A009101923A
:1024A000002B07D09A070AD5EFF310835A42534105
:1024B000C37272B60099019AFFF7D2FF07BDDB071E
:1024C000F8D5C368014A9BB29360F3E70018004057
:1024D000837A002B05D09A0704D5C37A002B00D04D
:1024E00062B67047DB07FCD5C368024A9BB2D36073
:1024F000F7E7C0460018004010B5006801F067F823
:1025000010BD00001FB5094A094B0A49136000239A
:102510009380029301330193163300931622013303
:102520000548FFF763FF05B000BDC04678030020F3
:1025300000093D00300C00202C030020084B1968D6
:10254000002909D1EFF31080064A002803D172B6A2
:10255000BFF35F8F013111701A6801321A60704742
:102560008403002080030020084B1A68002A0CD046
:102570001A68013A1A601B68002B06D1044B1B78BD
:10258000002B02D0BFF35F8F62B670478403002038
:1025900080030020FF2310B50370C0230021040036
:1025A0009B004170418083800C22083005F036FB8F
:1025B000200010BD01230A0010B51A40194208D0AE
:1025C0000C4A1370033343708368002B00D0984784
:1025D00010BD0223194204D006490B70C368427033
:1025E000F3E704231942F3D0024A13700333437014
:1025F0000369EAE74E48004110B5FFF79FFF0C4B17
:102600001B8C1B071B0F0B2B0FD80A4A99008858ED
:1026100000280AD00F2408490A78A24313430B70FC
:10262000064B1978C9B2FFF7C5FFFFF79DFF10BD34
:1026300000480041880300203F4800414E480041C7
:1026400000207047F8B505000E0017000024BC42BA
:1026500008D02B682800315D1B689847002801D0FE
:102660000134F4E72000F8BD70470300FC33196A19
:10267000DA69914203D01B6AC018007E70470120BE
:102680004042FBE70300FC33D8691B6AC01A01D53E
:102690000130FF3070470000F7B50193FA2380271F
:1026A000002504009B008360114B7F0008330E005F
:1026B00045602900009203603A00183005F0AEFA38
:1026C00023002000FC332130DD613A001D62290027
:1026D000FF3005F0A3FA87239B00E3185D609D603F
:1026E000009B20002375019B2661A5756375FEBDC7
:1026F000F4AF00008A2300229B00C1540C3BC31896
:102700005A609A600123837570470200FC32536857
:1027100010B501339468DBB29C4202D05468015575
:10272000536010BDF7B50193002304001500180095
:102730009A422FD02200FC32D36120691362012219
:1027400000F09CFF002826D02700206901F018F82F
:10275000183701003800FFF7D8FF01262069B5427D
:102760000ED000F06BFF0221206900F071FF20699C
:1027700001F006F801003800FFF7C7FF0136EDE76A
:1027800000F053FF019B002B03D00321206900F0D0
:102790005FFFE8B2FEBD0500FBE710B50123FFF7C0
:1027A000C1FF10BD10B50300827D002082420ED013
:1027B000872292009C186268A4680132D2B2A242B9
:1027C00005D02133FF331800FFF79FFF012010BD14
:1027D0000300FC3399685A68914206D09A68805C7D
:1027E0009A680132D2B29A60704701204042FBE7FA
:1027F00000228A2370B59B00827505000E00C15C23
:10280000006900F03BFF002806D10321286900F091
:102810001FFF0224200070BD872328009B00EA18B8
:10282000536894682130FF301C1B01D50134FF34FC
:10283000002C0ED02C69FFF7CBFFC1B2200000F0B6
:102840005BFF0028E8D10321286900F001FF032481
:10285000E0E7002EDED00321286900F0F9FED9E779
:1028600010B50121FFF7C4FF10BD10B51830FFF7F8
:10287000AFFF10BD70B50400006900F05FFF0028D5
:1028800014D0206900F068FF002810D0206900F003
:10289000D5FE0321206900F0DBFE8C239B00E55868
:1028A000002D39D10023FC34E361236270BD20691F
:1028B00000F05CFF002809D0206900F052FF0028DA
:1028C00004D0206900F057FF0028DFD0206900F015
:1028D0004DFF002826D1206900F039FF0028E5D0FF
:1028E000206900F048FF002837D087239B00E218BA
:1028F000536892689B1A01D50133FF33FF21002BE7
:1029000005D020002130FF30FFF762FFC1B22069FF
:1029100000F005FFA075C9E7236820001B699847F0
:10292000A847BFE7206900F089FE2069032100F075
:102930008FFE206900F01FFF0028B7D087230022F8
:102940009B00E3185A609A600123A3758B239B00B8
:10295000E3589342AAD09847A8E72200FC32D369F3
:10296000126A0133DBB22069934206D100F05DFEAA
:102970000321206900F06CFE98E700F001FF0100E0
:1029800020001830FFF7C1FE206900F057FEEFE786
:1029900010B50248FFF76EFF10BDC046B803002017
:1029A00010B51523142202490248FFF775FE10BD29
:1029B0002C0C0020B803002013B56B460268D971B7
:1029C0000733546819000122A04716BD7047000064
:1029D000FA239B0010B583600C4B00210833036081
:1029E0000B4B040003610B4B416083610A23C361FD
:1029F000013B0362073B818243628162C1620163E2
:102A00004163816300F09FFF200010BD18B00000FB
:102A100000127A002C03002070B504000E0015008F
:102A20000021C06900F020FC62692169A069FFF7FC
:102A300033FD3100A069FFF75FFD2900A069FFF7B2
:102A40005BFD0500A069FFF743FDE069012100F08F
:102A50000BFC280070BD7F2310B500221940FFF742
:102A6000DBFF10BD10B504001321FFF7F4FFE36A8C
:102A7000C01A10BD036810B51B69040098470028F0
:102A800007D0E36A002101332000E362FFF7E3FF90
:102A900010BD01204042FBE7F7B50D0022211400D4
:102AA0000600FFF7D8FF03190700FF2B01D9FF2409
:102AB000241A2B190193019B9D4206D02A7880216C
:102AC0003000FFF7A9FF0135F5E73A193000A221E0
:102AD000D2B2FFF7A1FF2000FEBD036870B51B69ED
:102AE00004009847002810D00D212000FFF7B3FF05
:102AF000002106002000FFF7AEFF050032008D2107
:102B00002000FFF789FF280070BD01204042FBE74D
:102B100010B50248FFF75CFF10BDC046EC05002071
:102B20007047704770B50C00050028220021200076
:102B300005F074F80B222000084905F046FF002339
:102B40000122E372E260EA686362002322610322E9
:102B5000A361E361024B6261236270BD3CB000007F
:102B60000AD7233C10B5040002F0A6F9200010BDDE
:102B700010B5034C08340460C1604271836010BD1D
:102B800044B00000F8B505000F001E0041798068D0
:102B90001400FFF7AFFDA868390003681B68984769
:102BA000A868FFF75DFE32006979A868FFF7F5FDB8
:102BB000A619B44206D0A86803685B6998472070DC
:102BC0000134F6E70120F8BDF7B50D00170000212C
:102BD0001822040005F022F806220021684605F0BC
:102BE0001DF806236A4628003900FFF7CBFF6B4625
:102BF0006A465B7810781B021843D37896781B02DC
:102C00001E43537915791B021D4300B236B22DB213
:102C10001A2F25D007D80E2F22D0142F20D0082FFE
:102C200005D02000FEBD282F01D02E2FF9D104F0B1
:102C300021FE0022184B03F0C5FB206061603000CC
:102C400004F018FE0022144B03F0BCFBA060E1600E
:102C5000280004F00FFE00220F4B03F0B3FB17E037
:102C600004F008FE00220D4B03F0B2FF206061600B
:102C7000300004F0FFFD0022084B03F0A9FFA06024
:102C8000E160280004F0F6FD0022044B03F0A0FFF1
:102C900020616161C5E7C046000059400000B03FB7
:102CA00030B5202287B00C000500081D002104F07B
:102CB000B5FF24232360EB6863600323A36000F067
:102CC000E5F81A22290020616846FFF77DFF009889
:102CD000019904F06DFE60610298039904F068FEAA
:102CE000A0610498059904F063FEE061012007B03B
:102CF00030BD000010B5024801F0BEFF10BDC04657
:102D00002806002010B5024801F0B6FF10BDC046ED
:102D100024090020F7B501240326154F1549380072
:102D200000F0ACFB1449154800F0A8FB1449154805
:102D300000F0A4FB1449154800F0A0FB1449154805
:102D400000F09CFB144D1549280000F097FB39005A
:102D50002300009600220194114801F023FF29006E
:102D600000961E231F2201940E4801F01BFFF7BDA1
:102D7000200C002000080042000C0042240C00201F
:102D800000100042280C0020001400422C0C0020EF
:102D900000180042300C0020340C0020001C0042BF
:102DA000280600202409002070B50024094D0A4B94
:102DB0001B68A34200D870BD084E2A6833691A42C6
:102DC00005D0074BA200D35898472B6833610134D4
:102DD0000435ECE77C0C0020C00C002000180040FB
:102DE000380C0020054B10B51B6C002B00D0984709
:102DF0000123034AD1780B43D37010BD380C002057
:102E000000180040FEE70000034B10B51B68002BC4
:102E100000D0984710BDC046C40C00200F4A10488F
:102E2000110010B50F4B824202D0934209D113001A
:102E3000824209D100F084F802F018F8FEE710CBC6
:102E400010C18142FBD3F3E7074A8B42F2D0002145
:102E5000064B9A42EED202C2FBE7C04600000020B9
:102E60008002002048B9000080020020CC1200201F
:102E700010B500F062F8002801D100F053F810BD41
:102E8000014B18607047C046C40C0020014B186805
:102E90007047C046C80C0020F7B51348012284468D
:102EA0001249134C8E68636805689B0E13400192AB
:102EB00088686268019F920E3A4067463F68934275
:102EC0000ED1BD420CD186420AD35B19FA2548685F
:102ED000AD00861B07486B437043000DC018FEBD54
:102EE0003D0013000600E3E7C80C002010E000E0FE
:102EF00000ED00E05555000070B5041E11D0FFF73D
:102F0000CBFFFA260500B60000F016F8FFF7C4FF65
:102F1000401BB042F8D3FA23013C9B00ED18002C73
:102F2000F4D170BD10B5034A13680133136000F08B
:102F30006BFA10BDC80C00207047002070470000DD
:102F40001E2270B546484749436893431C3A1343D1
:102F5000436008238C6923438B61434C434B9C8221
:102F60009C8A14439C82DC681442FCD00124404AB1
:102F700014701578254203D055786DB2002DF8DB1A
:102F800001249460547864B2002CFBDB394C54600B
:102F9000547864B2002CFBDB8224E4015480547822
:102FA00064B2002CFBDB02249C840E34DD682542D5
:102FB000FCD0314CDC621024DD682542FCD09D8CB5
:102FC0002E4C2C439C841024DD682542FCD0022426
:102FD0009D8C80262C439C844024DD683542FCD0A7
:102FE000DD682542F9D01024DD682542FCD000249C
:102FF0009460547864B2002CFBDB214C546054780C
:1030000064B2002CFBDB1C6A1E4D2C4080251C6228
:103010001C6AAC431C62032393601B4B53605378C0
:103020005BB2002BFBDB0023FF240B72174A4B72B1
:103030008B72CB72164B1A60164B174A1B681168BD
:103040009A065B01C90E2340520F12020B43134331
:10305000124A1385802342681343436070BDC04603
:1030600000400041000400400C0600000008004041
:10307000000C004001050100B905FF7D040A0000B5
:1030800000070300FFFCFFFF03060100006CDC02E9
:103090000400002024608000206080000040004286
:1030A000FA212E4B10B51868890001F0A9FF802382
:1030B00001385B0498424FD229492A4A4860C0200F
:1030C000136A00061B021B0A0343136200238B6072
:1030D00007330B608021136A09061B021B0A0B438E
:1030E0001362FC22204B196A0A431A62FF22196AF2
:1030F00012020A431A62A022196AD2020A431A6211
:103100001A4B1C005A7852B2002AFBDB184A5A802C
:10311000184B1A00597EC9090129FBD0C821890022
:1031200099800521D970537EDB09012BFBD0C02388
:1031300000205B011361907000F022F863785BB2AD
:10314000002BFBDB0C4B0D4A6380D379DB09012B91
:10315000FBD04123537010BDFEE7C04604000020A1
:1031600010E000E000ED00E000040040000C004032
:103170001E40000000400042214000000048004284
:103180001F4900B50B004A7ED209012AFBD0013845
:103190000A282FD801F02AFF1B2E2E2E2E2E062EA7
:1031A0002E2411001A6917490A400F211A615A7812
:1031B0008A43110001220A4310E01A6911490A40AA
:1031C0000F211A615A788A4311000322F3E71A6922
:1031D0000C490A400F211A615A788A435A7000BD7F
:1031E0001A6908490A400F211A615A788A43110066
:1031F0000222E0E7F022196912050A43F3E7C0460C
:1032000000400042FFFFFFF0182310B50824584388
:10321000134A13181C57013412D001245B688256DC
:103220009C4003290CD808000E49D2015218D3182B
:10323000403301F0DBFE0210060B022119705460CE
:1032400010BD0621197054609461F9E706211970C8
:1032500054605461F4E7022119709460F0E7C046AD
:1032600060B00000004400411823F0B50824584322
:10327000114A13181C5701341BD0012635005F6812
:103280008356BD400D4ADB019A18906805420BD168
:103290000C00601E8441D21940321078344003364D
:1032A000A400B04320431070044A9B18002901D1A8
:1032B0005D61F0BD9D61FCE760B00000004400412D
:1032C000182370B5082643432A4AD518AE57340050
:1032D000013607D0072907DC00291DDA01314C42ED
:1032E0004C416442200070BD0B00083BDBB200245F
:1032F000032BF7D8092903D12100FFF785FFF1E758
:103300000A2904D10839FFF77FFF0024EAE70024E7
:103310000B29E7D10A39F0E76C68012520009B569C
:10332000C9B262082840DB012C4211D012480E3588
:103330001B189A1830321078090128400143C9B28D
:10334000117041221B19403319780A431A70DCE7C7
:103350000F26094D5B199A18303215781B19B543A1
:103360002943117041224033197804000A431A702E
:10337000B8E7C04660B0000000440041F8B5050061
:103380000E0017000024BC4208D02B682800315DD5
:103390001B689847002801D00134F4E72000F8BDED
:1033A00070B505000C00081E07D005F007FB2B6860
:1033B0000200210028005B68984770BD10B5FFF738
:1033C000EFFF10BD0EB410B5040097B019AB04CBDD
:1033D000502102A8019305F037FB200002A9FFF756
:1033E000DFFF17B010BC08BC03B01847014B1860D2
:1033F0007047C046080000200122024B52421A606A
:103400007047C04608000020164A10B51368591CC2
:1034100027D0013B1360002B23D172B68122124BBF
:1034200092000433934213D3104A01211000147DFB
:103430000C42FCD02021148BFF319B085B00214300
:103440001183D3610A4B13800123027D1A42FCD001
:10345000BFF34F8F074B084ADA60BFF34F8FC04668
:10346000FDE710BD080000200020000000400041E2
:1034700002A5FFFF00ED00E00400FA0501607047BF
:103480009446F0B505AC25789C1E621E94416246B8
:1034900006689207376824063A43224307243260BD
:1034A00000682140AD01002442682943022B00D06E
:1034B0005C030A4322434260F0BD30B5C025036877
:1034C000AD031C6812052A402243C0240904A4024B
:1034D00021400A431A6003685A6814435C6030BD97
:1034E0000123026811680B43136003681A68D2074E
:1034F000FCD4DA69D207F9D4704702230268116854
:103500000B4313600268D3699B07FCD470470368C0
:103510001A7ED20702D41A7E9207FCD57047002289
:1035200003685A8370470368187E4007C00F7047CE
:103530000368187EC0097047802302685B42117ED1
:103540000B43137670470368588B8007C00F704792
:1035500002230268518B0B43538370470368187E24
:10356000C007C00F70470368188DC0B2704703686A
:103570001A7ED207FCD589B2012019857047012235
:1035800003689A757047012203681A757047012312
:10359000026811680B43136003681A68D207FCD4F1
:1035A000DA69D207F9D470470223026811680B4325
:1035B00013600268D3699B07FCD470470368DA691B
:1035C0009207FCD402211A688A431A607047026885
:1035D000936A5B0A5B020B43936203681A7E52078D
:1035E000FCD5986AC0B2704710B50548490001F093
:1035F00007FD80B2002801D0013880B2C0B210BDF2
:10360000006CDC0270B50C00012611006308026832
:1036100033403440156824075B0723432B43136072
:103620000468FFF7E1FF207370BD80230268DB02AE
:10363000116851680B4353607047000003680349E9
:103640001A685A680A405A607047C046FFFFFBFF7D
:10365000032230B5036811401C68074D5A680904FD
:103660002A40E4061143640F5960052C03D1026817
:10367000D3695B07FCD430BDFFFFFCFF30B50368A6
:103680000400588B8006800F022813D05D8B002029
:10369000AD06AD0F032D2ED0588B800705D55D8B61
:1036A0000020AD06AD0F012D25D15D8BAD06AD0F10
:1036B000281E20D04800596A1043C90AC0B2C90266
:1036C000014359622368002A08D11A7ED207FCD52B
:1036D000588B01234007C00F58400CE01A7E920718
:1036E000D00F002AF4DB1A7ED207F7D5C022596822
:1036F00092020A435A6030BD036828331970026889
:10370000137EDB07D80F002B03D1538BDB07F7D5D4
:1037100070470123508B4007C00F5840F8E70368FB
:10372000283319700268137E5B07D80F002B04DA68
:103730000123508B4007C00F58407047036818683A
:10374000C006400F043843425841C0B27047036876
:10375000187E4007C00F70470368187EC007C00F6F
:1037600070470368588BC006C00F70470368187E07
:103770008007C00F70470368588B0007C00F704761
:1037800003681A68D206520F052A02D11A7E9207E0
:10379000FCD528331878C0B2704700000368104A7F
:1037A000934213D00F4A934212D00F4A934211D042
:1037B0000E4A934210D00E4A93420FD001200D4A78
:1037C0004042934201D1063040B270470020FBE7EF
:1037D0000120F9E70220F7E70320F5E70420F3E7EB
:1037E00000080042000C0042001000420014004299
:1037F00000180042001C0042F8B5FFF7CFFF002878
:103800002CDB1D4BC000181805230479C356032078
:10381000FF221840C0008240C021D2438140002BCB
:103820001DDB1F2501201D40C026A840134D76003A
:10383000A851C0269B089B005B19B6009F593A40CF
:103840001143995128603F2323408024E4011C4305
:103850000B4B5C805A7852B2002AFBDBF8BD0F207C
:103860000340083B07489B089B001B18D86902408F
:103870001143D961E7E7C046B0B4000000E100E0C1
:10388000000C004000ED00E0F8B504000F00160049
:103890001D00FFF7B1FF2000FFF722FE1C21BB0037
:1038A0000B4071072268090C0B43136084232268C4
:1038B0009375012F1AD11021012E00D008390C4B1D
:1038C00069431868C00001F09BFB07222168024091
:1038D0008B895203DB04DB0C13438B8122680304C6
:1038E0009089DB0C400B400318439081F8BDC04623
:1038F00004000020F7B50500019308AB0C0016008A
:103900001F78FFF744FE2800FFF776FFC021C02292
:10391000890224040C409203BF0736052743164052
:103920003E430C2707222B683E431E60019B2968FB
:1039300013401A0080239B0213434B602A68D3690B
:103940005B07FCD4F7BD816070473F20704713B51B
:103950006B460268D9710733546819000122A047E9
:1039600016BD10B50221006900F03EFC10BD10B577
:103970000321006900F04EFC10BD000010B51300DB
:10398000084A0400D279002A03D101230020636091
:1039900010BD0A000069032100F034FD0028F4D0B6
:1039A000F6E7C0461000002010B5054C0300206863
:1039B000421C04D11A68180052699047206010BD5B
:1039C0005C000020074A0300106810B5411C03D0BA
:1039D00001235B42136010BD0221186900F004FD51
:1039E000F9E7C0465C00002010B50378422202339C
:1039F00003700249024800F0B1FD10BD180000201C
:103A0000E80C002010B50178030042780020A129BD
:103A100008D1212A05D1174917481A3A00F09EFD0E
:103A2000012010BD2129FCD1202A13D111491248AF
:103A3000193A00F033FC96220E4BD20019689142DD
:103A40000ED1DA7901231A420AD1FA20FFF7CEFC0F
:103A50000020E6E7222A06D19A78064BDA71EAE7D7
:103A6000FFF7CAFCF4E7232ADBD15A88034B1A601C
:103A7000D7E7C04610000020E80C00200C00002012
:103A80007047000010B5FFF701FAFA2300245B002D
:103A9000984207D3044B0A20DC79631E9C41E4B2B0
:103AA000FFF72AFA200010BD10000020FA220021A2
:103AB000054B92009A60054A08321A60044A596020
:103AC0001A6119767047C046CC0C0020E0B40000A3
:103AD000E80C0020704770B50F26CB1D0200324065
:103AE000D5B22C0000093034092A00DD07341C70DF
:103AF0005A1E994200D170BD1300EFE710B50400C3
:103B0000806904F065F8A06A04F062F8200010BD36
:103B100010B50400FFF7F2FF200001F0CDF92000FE
:103B200010BD000070B5032908D1324B8000C05889
:103B3000002802D00368DB68984770BD82291FD136
:103B4000C3B22D4D5A01AA1891692C4C80010C402A
:103B5000C0218905214391612949083340188021FA
:103B600050612A685B01D0180479494221430171F0
:103B70007020995C81430800302101439954DCE7AF
:103B80000029DAD1C024C1B21B4E4A01B218936891
:103B90001A4DA4052B40234393601A4B8001C01893
:103BA0000B0050603068072608335B01195CB14395
:103BB0000E0001213143195491690D402C43946149
:103BC00070240F495161195CA1430C00102121435D
:103BD000195491680C4CC3180C40802149032143AF
:103BE00091609168890B89039160402259790A4359
:103BF0005A71A2E7EC0C0020A0110020FFFFFF8FFC
:103C0000140D0020D40E0020FF3F00F0EFF31083CE
:103C100003600123436072B670470368002B02D132
:103C200062B6BFF36F8F704737B505690400684609
:103C3000002D14D1FFF7EAFF019B621D013B02D367
:103C4000D57FEDB2FAE768460193FFF7E6FF002D56
:103C500001D100203EBD206AE369C01AFAE7FFF7F0
:103C6000D5FF22000025019B3432013B02D3157899
:103C7000EDB2FAE768460193FFF7CFFF002DE8D0D9
:103C8000206BE36AE9E70000F0B5FF2501264268F2
:103C9000836811682B405B01CC186419A77AD3188C
:103CA0003E43A672C6689C680B4FB60436093C407A
:103CB00034439C6083682B405B01D2189468A40B4A
:103CC000A4039460402283682B4008335B01CB1827
:103CD00019790A431A71F0BDFF3F00F0F7B5056985
:103CE00004000E0017006846002D43D1FFF78EFF39
:103CF000019B601D013B5A1C0BD0C27F591E002A3C
:103D000005D168460193FFF788FF2800FEBD0B0030
:103D1000F1E768460193FFF780FFE369AF420AD0FD
:103D2000226A9A4207D95A1CE261A269D3181B7809
:103D300073550135F1E7226A9A42E6D10023E36127
:103D4000013368462361FFF761FF22000021019BD8
:103D5000671D013B3532581CD3D0F97710785E1EB1
:103D6000002805D0200011700193FFF78DFFECE7CC
:103D70003300F0E7FFF74AFF2000019B3430013B9E
:103D80005A1C06D00278591ED5B2002AB9D00B00B1
:103D9000F6E7684601930025FFF73FFFE36ABD425F
:103DA00002D0226B9A421CD8226B9A42ADD10023DA
:103DB0006846E3622361FFF729FF27002200002104
:103DC000019B3437013B3532581C9AD0397010783A
:103DD0005E1E00280DD0200011700193FFF754FFE4
:103DE000EBE75A1CE262A26AD3181B7873550135BF
:103DF000D4E73300E8E7F7B582684368D2B2110030
:103E000004000831186849014118C879C00729D54C
:103E100001255201CD719B189A6861699204920C38
:103E2000002923D12262226A002A41D0A26A656158
:103E300068465A60FFF7EAFE342294462200019B4E
:103E4000671D013BA4443532591C2DD06146FD77D6
:103E50000978581ECEB2002905D001936846157026
:103E6000FFF7DBFEF7BD03001670EDE72263226B60
:103E7000002A1DD0002227006261A26968465A60AC
:103E8000FFF7C4FE019B621D9446013B343730327C
:103E9000591C09D061463D70C97F581ECEB2002919
:103EA000DBD103001670F3E768460193FFF7B5FE18
:103EB0002000FFF7E9FED5E713B56A4600230C00A2
:103EC000D01DD371FFF790FD23681818206001F012
:103ED0002BF86B46D91D00F0F3FF236818186B46CA
:103EE0002060D87916BD000003290ED180220E4B28
:103EF00062311B68FF31585C524202435A546822B7
:103F00006339FF32FF39995470470129FCD180226F
:103F1000054B24311B68FF31585C524202435A540E
:103F200028222339FF32EDE7A011002070B50025CB
:103F30002F4B012104001A201D70FFF765F90121A4
:103F40001A20FFF791F92B4B012119201D70FFF763
:103F50005BF901211920FFF787F92023264A0F205A
:103F6000D1690B43D361012224490B7813430B70B1
:103F7000234B19788143197006211D782943197044
:103F800020490D782A430A701A7802401A7060227C
:103F900019780A431A701C4B1C4A5A805A78D20965
:103FA000FCD11B48FEF76CFF1A4D280000F0D0FF33
:103FB000280000F0E3FF7F212B68C1201A788000E1
:103FC0000A401A70042219780A430C211A701A89BF
:103FD0008A4311491A810A581202120A0A50802291
:103FE0000A6019787E3A0A431A700123237070BD63
:103FF000090D0020080D0020000400405844004135
:104000003C44004159440041000C0040064000007F
:10401000E5490000A011002000E100E00078002840
:1040200010D00121084B1B681A898A431A81082283
:10403000198B0A431A830422198B0A431A8300221C
:10404000024B1A607047C046A01100209811002052
:104050000A000E498B699B0B9B038B610B68022145
:10406000FF3319729879823901439971197A890756
:10407000FCD57F20064B0240997A81431143802270
:104080009972997A52420A439A727047A01100209D
:104090000050004110B50B790C00002B0CD108002A
:1040A000FFF7B0FC002801D0012010BD094A936938
:1040B0009B0B9B039361F7E700F036FF210000F0B4
:1040C00023FF0028F0D1034A93699B0B9B03936164
:1040D000EBE7C046A0110020F7B50D001100832AC0
:1040E00019D1EBB2324C5A01A21891693148AD0195
:1040F0000840C0218905014391612F4920686D184E
:104100007021083355615B011A5C8A43110040221B
:104110000A431A54F7BD022A45D1284AAB009858E1
:10412000002802D003685B699847382000F0C0FE81
:10413000234B8027036000231D4E7F00421D036236
:1041400003614361C36146608560C760D3772F32E6
:10415000C3620363040013703800537003F02EFD34
:104160000190A061380003F029FDEBB25A01A06272
:10417000B21891680F4808330840C02189050143EF
:104180009160316807265B01585CAD00B0430600C2
:10419000032030435854019B20005360FFF774FD07
:1041A000064B5C51B6E72800FFF7BCFCB2E7C046FF
:1041B000A0110020FFFFFF8F140D0020EC0C002049
:1041C0000CB5000070B505000124064BA200D258C2
:1041D000002A05D021002800FFF77EFF0134F4E714
:1041E00070BDC04660000020084B8A00D05810B552
:1041F000002803D003689B68984710BD044BC9B2E0
:104200004901591888688004800CF6E7EC0C0020FE
:10421000A011002010B50C00FFF7E6FF00280CD01D
:10422000064BE4B219688023083464010C196279E2
:104230005B42134363710223E37110BDA0110020A0
:1042400070B5CBB2124A13485C0189018918021972
:1042500051609168104D08330D4080218902294337
:10426000402591609168890B8903916001685A012A
:104270008A1816793543157195796D06FCD55B0161
:10428000C918CB79DB07FCD500198068C0B270BDB6
:10429000D40E0020A0110020FF3F00F070B51400E4
:1042A00040220B4B0D001B68FF3359790A435A71AA
:1042B0000021FFF7C5FFA04200D9200000230549D7
:1042C000A34203D0CA5CEA540133F9E770BDC0468B
:1042D000A0110020D40E002010B50C48C9B249012D
:1042E000421893689B049B0C3F2B0BD99468403B6E
:1042F0009B04A40B9B0CA403234393604118886880
:10430000C0B210BD93689B0B9B03F6E7A011002081
:10431000F0B51C002F4B85B01B6806000D00019204
:10432000002B54D02C4F3B78D9B2002B02D119204E
:10433000FEF79AFF64233B70284BAA00D058002850
:1043400008D0036822005B680199984704002000A8
:1043500005B0F0BD29003000FFF746FF844204D9C4
:1043600029003000FFF740FF040029003000FFF76C
:10437000B3FF0121EBB21A4F03935B010293029A40
:104380003B6801989B18FF335A7A0A435A72154BBF
:10439000A9012200C91803F025FC002CD7D0290060
:1043A0003000FFF721FF0028D1D14021039B3A685C
:1043B00008335B01D3181879014319710121D971B0
:1043C000029BD318FF339A7A0A439A72BFE70124FB
:1043D0006442BCE798110020080D0020EC0C00207E
:1043E000A0110020D40E002013B56B46DC1D220066
:1043F0000123FFF78DFF012801D1207816BD012090
:104400004042FBE7F0B51C003A4B85B01B680E003C
:104410000192002B3FD08023DB019C423BD8364DDC
:104420002B78D9B2002B02D11A20FEF71DFF64238E
:1044300000272B70314BB201D3180293002C2CD0E3
:104440002F4B1B680393FF2333401D000093083557
:10445000039B6D015D19AB79DB0921D0294B2A49FA
:10446000186800F0CDFD294B1721584300F0C8FD16
:10447000274BEA79920713D49A5D002A01D10138BB
:10448000F7D201229A55009B5A011D4B9B189A693D
:10449000920B92039A6101277F42380005B0F0BD6C
:1044A00000221B4B25009A55402C00D940252A009C
:1044B0000199029803F096FB009BA9045A01104B46
:1044C000890C9B18029A7F195A619A69641B920B96
:1044D00092030A439A61009B039A08335B01D31845
:1044E0000222DA715979823A0A435A71019B5B19A7
:1044F0000193A3E798110020090D0020140D00205E
:10450000A01100200400002040420F0070110100A3
:104510000B0D002070B50C001D000D4BA601F61808
:10452000110030002A0003F05DFBE4B2094A640187
:1045300014196661A369084928000B40A361A169A9
:10454000AB04890B9B0C89031943A16170BDC04664
:10455000140D0020A0110020FF3F00F0F7B5104B14
:104560000F001B7814000190002B0CD10D4B16008E
:104570001D78002D09D00C4E0C48358828182D19AF
:1045800003F030FB35802000FEBD002EFBD0330051
:104590007A1900210198FFF7BDFF2D18361AF4E7AC
:1045A00094100020951100209611002095100020F5
:1045B000F8B500200D00140000AF012A27D9D31D43
:1045C0006A46DB08DB00D31A9D46080004F0F6F9C2
:1045D0006E460323022200210130400030707370C8
:1045E000A2420DD2287800280AD0531CDBB2013534
:1045F000B0549C4203D00232F154D2B2F0E7220010
:1046000031000448FFF7AAFF431E9841C0B2BD46DF
:10461000F8BDC046E80C0020F0B50025012785B0A4
:10462000184B0E0069461F7004000095FFF744FC0C
:10463000154B01A90B806A3BFF3BCB716E3B0B72A4
:10464000009B320009334B800E4B8D714F71087106
:104650001D70092E0FD00D4E092237700C4F20000F
:1046600000953D80FFF77AFF69462000FFF724FCA4
:104670003A88084935702000FFF770FF012005B027
:10468000F0BDC046941000200902000095110020E2
:104690009611002095100020F0B5CF7805000E008F
:1046A00093B0022F09D1C9882B48FFF7B5FF441EEC
:1046B000A041C4B2200013B0F0BD00F035FC3100C1
:1046C00000F012FC002803D0C417241AE40FF1E70D
:1046D000012F0BD1F2882149112A11D8D2B2002A18
:1046E0000ED02800FFF73AFF0124E3E70400032F70
:1046F000E0D1B378002B05D1F2881949032AEDD90E
:104700000A78EEE7022B06D1B27916492800FFF7A6
:104710004FFF0400CEE7012B02D1B2791249F5E731
:10472000032BC7D1114B01A91868FFF7D4F9104B1F
:1047300003A91868FFF7CFF90E4B05A91868FFF712
:10474000CAF90D4B07A91868FFF7C5F96B46053381
:10475000DC77B27901A9D9E7E80C00203DB500006B
:1047600030B5000024B5000034B500000CA0800076
:1047700040A0800044A0800048A0800037B505001C
:1047800048780C000B2810D800F030FC061B0F31C5
:104790000F484D7551546E71097801AA002906D150
:1047A000022311802800FFF7B5FE01203EBD002343
:1047B0001380324B1B78012B00D113700223002190
:1047C000F0E78A780023012A09D16A4693802C4BAE
:1047D0001B78012B00D11371022301AAEFE7274AAE
:1047E0001370284A93699B0B9B039361DDE78C78D8
:1047F000012C07D1224B01AA1C70234B1B7813708C
:104800002300DCE700208442D0D11C4B01301D4A3C
:10481000187093699B0B9B039361C7E72800897805
:10482000FFF716FCC1E72800FFF736FFBEE70123BC
:10483000164AC4E70B780020DB06B7D12800FFF743
:10484000C1FC2A200221A278104BFF301A600D4AC9
:1048500013681C5C21434A241954FF34195D29381C
:10486000FF3801431955D4E70123094AA7E78A789D
:10487000074B1A60B5E7002098E7C0460A0D0020F4
:10488000120D0020A01100207FB60000981100201A
:104890009C1100204B4BF7B51C780700002C00D072
:1048A00083E0494E33689B8B1B070ED52100200007
:1048B000FFF738F9326810231100FF31887A03437B
:1048C0008B72424B1C600823938333689A8B520788
:1048D0001FD504229A833E4A1378002B0AD01378FE
:1048E000013BDBB213701378002B03D101211A2096
:1048F000FEF7BAFC374A1378002B0AD01378013B35
:10490000DBB213701378002B03D101211920FEF7BD
:10491000ABFC3368FF331A7AD2061ED510221A7206
:10492000597930320A435A7160232B4938000A788A
:104930001A423BD1FFF722FF3368FF33002838D0FB
:104940008022997952420A439A711A7A520604D502
:1049500040221A72597A0A435A72336800241D8C15
:1049600001239D43EDB20193E1B2002D1DD02B0038
:104970002341019A134215D02300326808335B01AA
:10498000D318DA79D20702D4DB799B0707D5134B0A
:10499000A200D058002810D003681B689847019BDC
:1049A000A3409D430134092CDED1F7BDFFF772FB14
:1049B000C2E720210A4A9171C7E73800FFF794FA4D
:1049C000EDE7C04695110020A011002098110020AD
:1049D000090D0020080D0020D40E0020EC0C002052
:1049E000FF50004110B50248FFF754FF10BDC0460C
:1049F000E80C0020014B024A1A607047A011002009
:104A0000005000410120704710B50368014A1B6A3D
:104A1000984710BD130400000300FC33D96F9A6F50
:104A2000914203D0DB6FC018007D704701204042E7
:104A3000FBE710B504000069FEF752FD22000023D9
:104A4000FC329367D3679E229200A4186366A36624
:104A500010BDF0231B011940802306209B009942C2
:104A60000AD00133FF330130994205D08023002062
:104A70005B00994200D1053070470F2001400020B3
:104A8000012903D00239481E8141481C70470000AB
:104A9000B923F0B5182785B002919B000400C05CD3
:104AA0003B0008214343324E1500F3185956FEF7D8
:104AB00007FC304B0821E05C3B004343F318595698
:104AC000FEF7FEFB2C4BE25C0393022A09D1113363
:104AD000E05CFF2805D008214743F7197956FEF717
:104AE000EFFBBA27BF00E05DFF2819D00121FEF7D8
:104AF0008BFB1822E35D21495A43B356B618DB01FC
:104B00005818BB21890060501D4901225B18BC2147
:104B10008900635071688A40BD21890062501A6023
:104B20000122029B11002069FEF7AEFE2900200041
:104B3000FFF78FFF290006002000FFF79EFFF022FD
:104B40001540303D6A425541030031002069012281
:104B50000095FEF795FC0B4B2069E25C039BE15C42
:104B6000FEF7ABFC2069FEF7C8FC05B0F0BDC046FF
:104B700060B00000E5020000E702000018440041B8
:104B800014440041E6020000AF2210B504000021E9
:104B9000520003F043F823000022FC3320005A6641
:104BA0009A6610BDF7B51D0008AB1B780400009392
:104BB00009AB1B781600019300234360FA239B0086
:104BC0008360104B0F00083303601430FFF7DCFFE5
:104BD00020007D30FF30FFF7D7FFB9239B0027610E
:104BE000E654094B009AE554084B2000E254019A20
:104BF000074BE254BA22E93BFF3B9200A354103228
:104C0000A354FEBD50B50000E5020000E60200001E
:104C1000E70200000300FC33586E9B6EC01A01D5FA
:104C20005F30FF30704710B5040020007D30FF304A
:104C3000FFF7F0FF0028F8D12069FEF768FC10BDEF
:104C400010B51430FFF7E6FF10BD0300FC33596EBA
:104C50009A6E914205DB5A6E986E801A5E30FF3074
:104C60007047986E5B6EC01A0138F9E710B57D3059
:104C7000FF30FFF7EAFF10BD70B504000069FEF7D2
:104C800062FC002805D02069FEF76DFC2069FEF764
:104C90005FFC2069FEF747FC002824D0250020692E
:104CA000FEF761FCAF21FC350600A86F490001301A
:104CB00000F02CFAEB6F994203D0AB6FE3181E752E
:104CC000A967BA239B00E35CFF2B0CD020001430B3
:104CD000FFF7BBFF092806DCBB23BD229B00920027
:104CE000E358A2581A602069FEF738FC00281DD04E
:104CF00020007D30FF30FFF78DFF002825D09E2358
:104D00009B00E618B26E736E9A421BD0BE22AF2192
:104D1000B36EB06EE3185200013049009D5C00F0A4
:104D2000F5F9B1662069E9B2FEF721FC2069FEF7CA
:104D3000FFFB002805D02069FEF7FEFB2069FEF787
:104D4000EEFB70BD01256D42ECE72069FEF71BFC10
:104D5000ECE70000F7B5040000690E00FEF7FEFB6B
:104D6000002847D1AF277F009E239B00E518686E7F
:104D7000AB6E39000130019300F0C8F9019B9942F4
:104D800024D1EFF31083DB070ED4204B5B68DB05E7
:104D9000DA0D002BE8D0103A53B212060DD49B085E
:104DA0001B4AC0339B009B582069FEF7D7FB0028A5
:104DB000DAD02000FFF760FFD6E70F221340083B50
:104DC000144A9B089B009B181B68EDE7AF21686E97
:104DD0004900013000F09AF9AB6E994205D0BE222D
:104DE0006B6E5200E3189E5469662069FEF7C7FB9C
:104DF0000120FEBD20007D30FF30FFF70BFF0028B3
:104E0000B0D131002069FEF7B2FBF1E700ED00E020
:104E100000E100E01CED00E070B50500FC35EA6F34
:104E2000AB6F04009A421DD0AF21EB6F4900C3184D
:104E3000E86F1E7D013000F069F9E967BA239B0035
:104E4000E35CFF2B0CD020001430FFF7FEFE0A2895
:104E500006DDBC23BD229B009200E358A2581A60D5
:104E6000300070BD01267642E8E7704710B5FEF7C6
:104E700017F902F07FFEFFF7F8FF0120FEF73CF87C
:104E8000094C2000FFF752F82000FFF7C7F8FDF7A4
:104E90005DFAFDF733F9FEF74FF8044B002BF8D01D
:104EA00000E000BFF5E7C046E80C0020000000006D
:104EB00010B502F083FE10BD10B502F089FE10BDE2
:104EC00070B50E0000254468002C0BD0236831001B
:104ED00020005B689847002802DBE4682D18F3E7A0
:104EE00001256D42280070BD70B50D004468002C8E
:104EF00008D02368290020009B689847002802D129
:104F0000E468F4E7200070BD70B50D004468002C23
:104F100008D02368290020001B689847002802D188
:104F2000E468F4E7200070BD064A0123116810B55B
:104F30000C0005481C40194203D10449446001801B
:104F4000136010BDA4120020A8120020020400006B
:104F500070B50400012320CC00212A7820001343DF
:104F600080222B70520002F059FEAB78DB07FCD494
:104F7000AB789B07F9D46C6270BD00001F22144B04
:104F800070B51B68590B9C0C9B0111405B0F2240B4
:104F90001F2900D11A391F2A00D1023A072B00D14C
:104FA000043B1F2500688E01048D0A492A402140D8
:104FB00031430185018D14000A00AA432243028572
:104FC000028D1903044B13400B43038570BDC0468B
:104FD000246080003FF8FFFFFF8FFFFF030010B544
:104FE0000800190002F0A8FD10BD000002B47146CF
:104FF00049084900095C49008E4402BC7047C0461C
:10500000002243088B4274D303098B425FD3030A07
:105010008B4244D3030B8B4228D3030C8B420DD31A
:10502000FF22090212BA030C8B4202D312120902A8
:1050300065D0030B8B4219D300E0090AC30B8B42E6
:1050400001D3CB03C01A5241830B8B4201D38B0394
:10505000C01A5241430B8B4201D34B03C01A524139
:10506000030B8B4201D30B03C01A5241C30A8B427C
:1050700001D3CB02C01A5241830A8B4201D38B0267
:10508000C01A5241430A8B4201D34B02C01A52410B
:10509000030A8B4201D30B02C01A5241CDD2C3097D
:1050A0008B4201D3CB01C01A524183098B4201D3F9
:1050B0008B01C01A524143098B4201D34B01C01AE4
:1050C000524103098B4201D30B01C01A5241C3085C
:1050D0008B4201D3CB00C01A524183088B4201D3CB
:1050E0008B00C01A524143088B4201D34B00C01AB7
:1050F0005241411A00D20146524110467047FFE723
:1051000001B5002000F0F0F802BDC0460029F7D03C
:1051100076E7704703460B437FD4002243088B4257
:1051200074D303098B425FD3030A8B4244D3030B2E
:105130008B4228D3030C8B420DD3FF22090212BAF3
:10514000030C8B4202D31212090265D0030B8B426F
:1051500019D300E0090AC30B8B4201D3CB03C01A59
:105160005241830B8B4201D38B03C01A5241430B34
:105170008B4201D34B03C01A5241030B8B4201D324
:105180000B03C01A5241C30A8B4201D3CB02C01A8F
:105190005241830A8B4201D38B02C01A5241430A07
:1051A0008B4201D34B02C01A5241030A8B4201D3F6
:1051B0000B02C01A5241CDD2C3098B4201D3CB019D
:1051C000C01A524183098B4201D38B01C01A52414C
:1051D00043098B4201D34B01C01A524103098B4250
:1051E00001D30B01C01A5241C3088B4201D3CB003B
:1051F000C01A524183088B4201D38B00C01A52411E
:1052000043088B4201D34B00C01A5241411A00D2CD
:1052100001465241104670475DE0CA0F00D0494236
:10522000031000D34042534000229C4603098B42A6
:105230002DD3030A8B4212D3FC22890112BA030A2E
:105240008B420CD3890192118B4208D389019211B0
:105250008B4204D389013AD0921100E08909C30935
:105260008B4201D3CB01C01A524183098B4201D337
:105270008B01C01A524143098B4201D34B01C01A22
:10528000524103098B4201D30B01C01A5241C3089A
:105290008B4201D3CB00C01A524183088B4201D309
:1052A0008B00C01A5241D9D243088B4201D34B0024
:1052B000C01A5241411A00D20146634652415B1066
:1052C000104601D34042002B00D549427047634647
:1052D0005B1000D3404201B5002000F005F802BD8C
:1052E0000029F8D016E770477047C0468446101C66
:1052F00062468C46191C634600E0C0461FB501F0AB
:10530000F7FB002801D40021C8421FBD10B501F0F1
:1053100041FB4042013010BD10B501F0E9FB00280F
:1053200001DB002010BD012010BDC04610B501F00A
:10533000DFFB002801DD002010BD012010BDC046AC
:1053400010B501F063FB002801DC002010BD012036
:1053500010BDC04610B501F059FB002801DA00204D
:1053600010BD012010BDC046F0B54646D6464F469A
:105370004D024202C0B5520A6E0A4700B0463F0EC7
:105380004E00C40FD00094463B008246360EC90F33
:10539000AD098C426DD0B81B814600284DDD002E32
:1053A00000D188E0FF2F5AD08023DB041D434B46F9
:1053B00001221B2B0ADC2B004A464946D3402022FF
:1053C000521A95402A00551EAA411A4353469A1A6A
:1053D000530100D4B9E092019609300002F070FB4D
:1053E00005388640874200DDD4E03300C71B20200B
:1053F0000137FB40C71BBE403200561EB24100279A
:105400001A43530704D00F231340042B00D0043257
:10541000530100D49CE07B1CFE2F00D19AE0920146
:10542000520A9446DBB2D8056346E407184320438A
:105430001CBC90469946A246F0BD002849D0F31BFB
:10544000002F00D0B6E05246002A60D0013B002B6E
:1054500000D1FCE0FF2E00D0B4E00C004246002A50
:1054600078D08020C00310434202530A9C46FF2399
:10547000D9E7B91B002971DD002E3FD0FF2FEED0F8
:105480008023DB041D4301221B2907DC2A00202383
:10549000CA40591A8D406B1E9D412A435244530104
:1054A00053D50137FF2F55D001237B4913405208B4
:1054B0000A401A43A5E7002D2CD001235B429C46ED
:1054C000E1444B46002B00D1ADE0FF2F00D06EE74A
:1054D000C5E7FE207E1C304260D1002F00D093E053
:1054E0005246002A00D1B6E0002D9CD0521B50013C
:1054F00000D4C3E053460C00EA1A82E7002D09D01D
:105500000139002900D18BE0FF2FBCD1A7E70C00A7
:1055100042463700FF2FA2D05202530A9C46FBB2EC
:1055200081E7FE210137394265D1002B7ED1002869
:1055300000D1AAE0002D00D175E72A0052440027CF
:10554000530102D5554B01371A40530700D05AE793
:10555000D208DFE70022FF23944664E70029E0D069
:10556000F31B002F3ED0FF2E00D177E780220100F1
:10557000D20411438A4601221B2B08DC524620210B
:105580005046DA40CB1A9840431E984102433700F8
:10559000521984E7414A3F1A324032E753465E1BB4
:1055A00073012DD4002E00D017E700220024002321
:1055B000944638E7FF2E00D14FE780225046D204B0
:1055C0001043824601221B2B08DC52462024504601
:1055D000DA40E31A9840431E984102430C0037001A
:1055E000AA1AF5E6002893D0013B002B4FD0FF2EDE
:1055F000C1D1424633E7FF2FACD055446A08A4E737
:1056000053460C00EE1AE8E65346002B28D1002D35
:1056100000D022E78023DB039C460024FF2302E71F
:105620002A0052443BE753465A1BD1E6002800D1DA
:1056300014E7002D00D112E78023DB031A4200D1CA
:105640000DE74146194200D009E7424607E70C0042
:105650003700AA1ABCE6002D13D00C00C446E2E6BF
:10566000002D00D1FBE68023DB031A4200D1F6E6D1
:105670004046184200D0F2E60C00EFE6002A00D0C7
:1056800063E7002200249446CDE6C446CBE62A0018
:105690003700524403E7C046FFFFFF7DFFFFFFFBDB
:1056A000F8B557464E464546DE464402E0B545004D
:1056B0000F1C640A2D0EC60F002D47D0FF2D4DD0B4
:1056C000002380209A469B46E400C00404437F3DAB
:1056D0007802430A99467A00FB0F9846120E4B4611
:1056E00044D0FF2A11D0D8008023DB04034399461D
:1056F00000207F3AAD18474653467740691C0F2B70
:105700003FD8724A9B00D3589F46FF35002B00D0EC
:1057100079E0524602231A4392460220EBE74746BD
:105720004C4683465B46022B28D0032B00D1C6E0B3
:10573000012B4FD100200024C005FF072043384330
:105740003CBC90469946A246AB46F8BD002C71D1B0
:1057500004239A46033B00259B46B9E7002C63D1FE
:1057600008239A46063BFF259B46B1E7002B50D104
:10577000524601331A4392460120BCE7FF20002421
:10578000DAE74846260C2404220C0404240C4B4679
:1057900020001B0C504374435A435E431219030C00
:1057A0009B189C4203D9802252029446664400040E
:1057B0001A04000C12189401601E84411B0C920EF6
:1057C0009B1914439B011C431B0172D501206308E4
:1057D00004401C4308007F3000283CDD630704D0F0
:1057E0000F232340042B00D00434230103D5803140
:1057F0000800374B1C40FE28C0DCA401640AC0B27C
:105800009AE737008EE7524603231A439246032055
:1058100071E7484602F054F94A46431F9A402D1A50
:1058200091460020763D66E70C239A46093BFF250A
:105830009B464DE7200002F043F97625431F9C402C
:1058400000236D429A469B462D1A41E7802400278B
:10585000FF20E40370E701231B1A1B2B00DD69E71F
:105860009E3120008C40D840631E9C410443630756
:1058700004D00F232340042B00D0043463011AD535
:105880000120002458E78020C003044209D04B4681
:10589000034206D14C46044364024746FF20640A93
:1058A0004AE78020C003044364023700FF20640AF3
:1058B00042E729008EE7A4010020640A3CE780202B
:1058C000C00304436402FF20640A35E784B5000086
:1058D000FFFFFFF7F0B54646D6464F4643025B0A48
:1058E000DA0094464A02C0B54400560A051CB04688
:1058F000240E4E0092091F0020009246ED0F360E36
:10590000C90FFF2E00D17FE0012251408D4251D0BE
:10591000A21B9146002A00DC7EE0002E00D199E017
:10592000FF2C00D18CE080235246DB041A439246C0
:105930004A4601231B2A08DC53462021D340891AFA
:1059400052468A40511E8A4113436246D31A5A0175
:1059500000D4F3E09B019E09300002F0B1F8053855
:105960008640844200DDF7E03200041B2020013431
:10597000E240041BA64033005E1EB34100241343E3
:105980005A0704D00F221A40042A00D004335A01C7
:1059900000D4D6E0621CFE2C00D1DAE09B015F0A45
:1059A000D0B2C0053843ED0728431CBC9046994649
:1059B000A246F0BDA21B9146002A63DD002E00D155
:1059C00099E0FF2C3CD080235246DB041A439246D8
:1059D0004A4601231B2A08DC53462021D340891A5A
:1059E00052468A40511E8A41134363445A0100D4EF
:1059F000A4E00134FF2C00D1ABE0012297491A400A
:105A00005B080B401343BBE7002A32D08D4235D0F0
:105A1000FF2252429146A1444A46002A51D0301BEF
:105A2000002C00D09CE06346002B00D1DFE0013861
:105A3000002800D1F7E0FF2E00D099E00D0043468A
:105A4000002B00D185E08027FF031F437F02FF204A
:105A50007F0AA6E75246002A74D00122524290469D
:105A6000C1444A46002A00D1C8E0FF2C00D05FE7BD
:105A7000E6E701225140A94200D049E7FF22524205
:105A80009146A1444A46002A43D0311B002C00D144
:105A90008CE0FF2E00D192E080236246DB041A43A3
:105AA000944601231B2909DC202063466246CB4033
:105AB000411A8A401100481E81410B43340053446F
:105AC00094E7FE22661C324264D1002C00D082E0B2
:105AD0006346002B00D1ABE05346002B00D160E7BA
:105AE000634652469B1A5A0100D4AAE063465246C6
:105AF0000D00D31A44E75246002A23D00122524215
:105B00009046C1444A46002A75D0FF2C00D05FE77A
:105B100096E7FE260134264253D1002872D163460F
:105B2000002B00D193E05346002B00D139E76344AA
:105B300000245A0102D54A4A013413405A0700D0C2
:105B400020E7DB08FF2C00D17AE75B025F0AE0B2B6
:105B500027E7FF20002724E7414B241A33400FE7B3
:105B6000FF2E00D16AE780236246DB041A43944685
:105B700001231B2809DC202463466246C340201A07
:105B800082401000441EA041034352460D003400E1
:105B9000D31ADCE6634652469E1A730117D4002ED0
:105BA00000D0D9E6002500200027FAE66346002B46
:105BB00044D0013900294CD0FF2E00D071E7434674
:105BC0003EE7FF2CC5D0524662445308B6E7634611
:105BD0000D00D61AC0E66246002A16D15346002BA5
:105BE00000D02BE780270025FF20FF03D9E60D001A
:105BF00043463400A6E753466344F7E663465246FD
:105C00009B1AA4E66246002AD9D05246002A00D147
:105C100016E78022D203134200D111E7404610421A
:105C200000D00DE70AE752460D003400D31A8EE685
:105C30005346002B08D00D004746B2E643463400D9
:105C400080E7002B00D079E700250027A9E647462A
:105C5000A7E6534634006344C8E6C046FFFFFF7D15
:105C6000FFFFFFFB70B5002813D0C317C5185D40B8
:105C7000C40F280001F024FF9E2301001B1A962B5D
:105C80000FDC082801DD08398D406D026D0AD8B29D
:105C900002E0002400200025C0052843E40720433B
:105CA00070BD992B0BDD05222E00121AD640020082
:105CB0001B3295402800451EA841350005430529A3
:105CC00001DD4A1F95402A00084E3240680709D07E
:105CD0000F202840042805D00432500102D59F230C
:105CE00032405B1A9201550AD8B2D5E7FFFFFFFB9D
:105CF000F0B54F46D64646460D0001001800C0B527
:105D000017002B035A0A4B0F1343CA009146020394
:105D10006E004100520AEC0F7D0F1543760D490DC0
:105D2000C00F8246AC46FF00721A844200D198E050
:105D3000002A00DC81E0002900D1B6E0C9498E428A
:105D400000D172E180212800090408438446382AE2
:105D500000DD5EE11F2A00DDEEE12020390065460E
:105D6000801A8740D14085400D4339004F1EB9410C
:105D70006746D7402943DB1B4A46551AA945894146
:105D800049425B1A984643461B0200D4CCE0434686
:105D90005B025B0A98464346002B00D12CE140464B
:105DA00001F08EFE01000839202228004346521AD5
:105DB0008B40D0408D4003438E4200DD17E18E1BA7
:105DC000721C1F2A00DDA7E1202118002E00891A6D
:105DD0008D408840D640D340691E8D41304398465F
:105DE000002605436B0709D00F232B40042B05D059
:105DF0002B1DAB42AD416D42A8441D0043461B0222
:105E000000D494E0974B721C9A4200D19DE0414629
:105E1000954BED0819400B00520549075B022943D9
:105E20001B0B520D12051343E4072343080019000E
:105E30001CBC90469946A246F0BD002A43D08A1B5E
:105E4000002E00D02AE14C461C4300D1D1E1541E63
:105E5000012A00D11FE2834DAA4200D172E2220042
:105E600023E1002A00DC98E0002942D07D498E42DF
:105E700000D1DAE080212800090408438446382A4A
:105E800000DD29E11F2A00DC87E111006546203989
:105E9000CD40202A04D040206146821A91400F4311
:105EA00039004F1EB9410D431BE12900394300D190
:105EB000B5E0511E012A00D1ABE16A48824200D10F
:105EC000B2E10A0043E76949751C0D4200D0CFE0FA
:105ED000002E00D093E14946194300D1D1E161463B
:105EE000394300D0E3E149465807C9080143DB08BC
:105EF00026E02900394300D191E0511E012A05D046
:105F00005848824200D18FE10A00B8E73D004D4475
:105F10004D45894163449846494288444346022698
:105F20001B0200D5EBE0013E6B0700D05CE7434667
:105F3000E9085A0711433200DB084A48824221D05F
:105F40001B0352051B0B520D6CE70023002169E770
:105F50002A003A4369D04A465807D108DA08802314
:105F60001B0308431A4207D02900ED081D4203D144
:105F70002A00FF0848073843430FC1005B07C908E0
:105F8000194313000A001A4300D113E280221203BE
:105F900013431B03334A1B0B44E7002A4BD08A1BD5
:105FA000002E00D1E7E02F48814200D195E180200A
:105FB00000040343382A00DD43E11F2A00DDDBE152
:105FC00020201D004E46801A8540D64035434E465F
:105FD00086403000D340461EB0419C440543ED1935
:105FE000BD429B415B42634498460E007FE01E4ADF
:105FF000761A13409846F5E6280001F061FD01008D
:1060000018311F2900DCCFE62B000838834000251B
:10601000D2E662463A4311004F1EB941ACE649460A
:106020005807C9080143DB0887E749465A07C908EA
:106030001143DB08A6E70D49701C084200D0BBE005
:10604000002E00D014E14946194300D175E1290022
:10605000394300D07EE149465807C9080143DB08AF
:106060006EE7C046FF070000FFFF7FFFFE0700004E
:106070004946CD1B6146581AA9458941494288467F
:1060800001004046091A8846090200D5A6E04146AB
:10609000294300D07FE60023002451E7C74CA142EA
:1060A00000D1C7E0802424042343382A54DC1F2A6B
:1060B00000DDCCE020244846A41A1D004E46A04036
:1060C000D640A5400400D34062463543661EB44125
:1060D000D31A9C46254344E062463A4315006F1E9E
:1060E000BD414D444D458941494288469844434607
:1060F0001B0200D418E7B14B01369E4249D04246FC
:10610000AF4B01211A4013006A080D401543D9070F
:106110005B0898460D4365E618001F3EF040202AB4
:1061200003D040218A1A93401D43691E8D410023EC
:10613000002698460543F7E6110065462039CD4014
:10614000202A04D040206146821A91400F43390032
:106150004F1EB94129430FE64A4613431D006B1EEB
:106160009D417D1BAF429B4162465B42D31A9846DC
:1061700054460E0007E64846184300D1B3E0501ECF
:10618000012A00D10DE18D4DAA4200D1A5E0020007
:1061900010E732000023002144E620213800891A4C
:1061A00065468F408D40D040791E8F4105433D4369
:1061B0006746D740DB1994E7804A904200D1ECE073
:1061C0003900494449459241634452429B18DD07D6
:1061D00049085B08984606000D43A5E64A46BD1AE5
:1061E000AF42894162464942D31A5B1A98465446E7
:1061F000D1E56C07F9082143EB0804009DE64A4607
:106200001A4375D16146394314D1802300241B03FE
:10621000BCE64A46D51BA9458941624649429B1ABC
:106220005B1A98460126AEE54A46D1085A07114343
:10623000DB08A7E66346F9085A0754461143DB0812
:10624000A0E64A4613431D006B1E9D41C7E614009D
:106250001E00203CE640202A05D04024A21A93408C
:106260004A461A4391464D466B1E9D41354378E799
:106270004A461A4300D06BE66B07F9081943EB084E
:1062800080E66146394354D06346F9085C072143F0
:10629000DB08040054E64A46BD1AAF428941624613
:1062A0004942D31A5B1A9846040001266BE54A4618
:1062B000D51BA9458941624649429A1A521A90460D
:1062C000120232D54A46BD1AAF428941624649425E
:1062D000D31A5B1A9846040084E56346F9085A0706
:1062E0001143DB084EE6F90868070143EB0824E692
:1062F00062463A4300D198E64A46D1085A0711430C
:10630000DA0880231B031A4208D06046C5081D42E4
:1063100004D154462A00F908430719434B0FC9001A
:106320005B07C908194313002CE64146294300D0F6
:10633000FAE500230A00002402E66B07F908194376
:10634000EB08FDE56346F9085B0719436346040063
:10635000DB0817E63D004D4463444D4589419846AE
:106360004942884443461B0200D4DDE54246144BB3
:1063700001261A409046D7E510001E002038C6407E
:10638000202A05D04020821A93404A461A4391465B
:106390004D466B1E9D41354321E60200002300213E
:1063A00040E54A46D519BD42894163449846494271
:1063B0008844B3E50021014A0B0033E5FF070000E4
:1063C000FFFF7FFFF0B557464E464546DE46E0B537
:1063D000814605000C03480092461F0085B0240B3F
:1063E000400DCE0F002859D0874B984200D198E03D
:1063F0006B0FE4001C4380231B0423439846834B0C
:10640000ED009B4600239946834400933C037B00A8
:106410005046240B5B0DFF0F002B67D07A4A934246
:1064200018D07A49420F8C46E40059461443802222
:1064300063441204CB1A14439B46C200002033006D
:106440007B409A464B460F2B00D9EFE070499B00EA
:10645000CB589F466F4B52469C462243E344002A4A
:1064600000D095E0494602231943894600240220C2
:10647000E5E700230024002552461B052343D207ED
:1064800013432800190005B03CBC90469946A2462B
:10649000AB46F0BD002400255B4BEDE74B462343A4
:1064A000984600D189E0002C00D1E0E1200001F005
:1064B00007FB010002000B391D235B1A494610003F
:1064C000D940083884400B004D4623439846854008
:1064D00051483C03831A9B460023994600937B0056
:1064E0005046240B5B0DFF0F002B97D152462243E1
:1064F00055D0002C00D1CAE1200001F0E1FA0200E1
:106500000B3A1D2301009B1A52460839DA408C4091
:10651000144352468A40414B58449B4683440020D2
:106520008DE74B462343984640D108239946063BC6
:1065300000258346009369E7B246009B022BA9D051
:10654000032B00D111E2012B93D0354A5A44002A83
:1065500000DC3CE16B0700D0A7E1ED084346DB011E
:1065600006D542462F4B1A4090468022D2005A440C
:106570002D4B9A428EDC4346520558075C02054378
:10658000240B530D78E7BA46A04615000090D4E7D7
:106590004A4603231A439146032052464FE7494691
:1065A0000123194389460024012048E70C2399461A
:1065B000093BA0468346009328E70423994600231D
:1065C0009B4601330025009320E7002380249A4650
:1065D00000250D4B24034FE7802341461B0319423E
:1065E00008D01C4206D11C432403BA461500064BB2
:1065F000240B41E78024434624031C432403B24672
:10660000014B240B38E7C046FF07000001FCFFFFE9
:10661000C4B5000001F8FFFF0DFCFFFFF30300000D
:10662000FF030000FFFFFFFEFE070000444500D20D
:1066300016E100D111E101235B429C462E00404649
:106640000025E3442302140E1C431B0C994623042B
:106650001F0C1202494600920197FEF757FD0200F7
:106660007A430B04310C804619438A420BD901232B
:106670005B429C460919E0448C4204D88A4202D904
:10668000831E98460919881A4946FEF73FFD0904FA
:106690008C4631046646019A090C4243030031439B
:1066A0008A4204D90919013B8C4200D811E1891AA8
:1066B0004246009E12041A43330C1F00100C9046F1
:1066C000029313043204160C32001B0C5A43039637
:1066D0007B4346437843170CBC469B1963449E4258
:1066E00003D980267602B44660441E0C3018160486
:1066F0001B04360C9E19814200D29CE000D197E029
:10670000AE1B091AB54280414042081A844200D1AA
:1067100011E14946FEF7FAFC019A0B044243310CA1
:10672000050019438A4207D90919013D8C4203D853
:106730008A4201D9851E0919881A4946FEF7E6FCE6
:1067400009048C4631046646019A090C4243030051
:1067500031438A4207D90919013B8C4203D88A4246
:1067600001D9831E0919039E891A32002D041D4385
:10677000029F2B041B0C5A437B439C46280C464328
:10678000130CB444634478439E4203D980267602B6
:10679000B44660441E0C12041B04120C30189B18E3
:1067A000814206D302D001231D43CEE6002B00D147
:1067B000CBE661186E1EA14200D2A4E0814200D255
:1067C000C9E000D1D9E03500EDE701256D42012196
:1067D000891A382900DD4CE61F2900DC7FE01F23E1
:1067E0005B429A1A4346D340202904D04446654A66
:1067F0005A44944025436A1E954107222B431500B5
:1068000000241D401A4200D1A1E00F2200241A40AA
:10681000042A00D198E01A1D9A429B415B42E41879
:106820001300220200D48FE001230024002523E678
:10683000B54200D364E743465A1E009B9C4665441C
:106840001F009D429B415B421B19C9188C423AD2E2
:10685000884263D860D0904652E7AA4200D9EAE65F
:106860004346DE0758086B081E43ED07EAE6484634
:1068700001F026F901000200153120321C2900DC4C
:106880001AE64B46083883400025984620E601F07A
:1068900017F903001A00153220301C2A00DC30E6FC
:1068A0005446083B00229C4035E60F232B40042B26
:1068B00000D152E605235B42AB429B4104355B426B
:1068C000ED0898444AE68C42C5D1AF42C0D9904603
:1068D00016E78A4200D8EAE6831E0919E7E62A4A43
:1068E00028005A44434695409340C8406A1E95414B
:1068F000444603432B43CC405A0792D00F221A4000
:10690000042A88D18DE73500814200D04BE7009AF8
:10691000934200D047E718E6AE429CD902235B427F
:106920009C46009BE0449C4665449D429B415B42E3
:106930001B19C918E4E6154A5A44002A00DC44E74A
:1069400001230025984409E665076402240BDB084F
:106950001D43002390E5009E023D7200B242BF41FC
:106960007F423C1909190092CEE780244346240354
:106970001C432403064B240B7EE5009A9A42EAD37B
:106980003500C4E73E0400001E040000FF030000C1
:10699000FF070000F0B54F464646D646944691465E
:1069A0001A03120B184DC0B54C000F0392465A0043
:1069B000060080463F0B0120640DC90F520DDB0F0E
:1069C000AC420AD0AA4203D0944201D157450DD01F
:1069D0001CBC90469946A246F0BD3D003543F7D118
:1069E000A242F5D1524665462A43F1D10120C8455D
:1069F000EED1994206D0002CEAD13E433000461E2B
:106A0000B041E5E70020E3E7FF070000F0B54E46A0
:106A100045465746DE4604001800E0B516001B0345
:106A20001B0B324D0F034A0099464300A446B04663
:106A30003F0B520DC90F5B0DC00FAA4229D0AB42CC
:106A400018D0002A2AD13C43A34665426541002B59
:106A500002D14C46264327D0002D15D1814228D0A3
:106A600002200139084001383CBC90469946A246B4
:106A7000AB46F0BD4D462E432FD1002AEED13C430C
:106A800065426541002DE9D00028EDD1012040424A
:106A9000EAE73D00254320D19342EBD0002BDDD126
:106AA0004C462643DAD1DBE75B460020002BDBD0E7
:106AB000D6E79A420ADCE7DB4F45D1D810D0002058
:106AC0004F45D1D20029E1D00800CDE743425841DB
:106AD0000223404218400138C6E702204042C3E783
:106AE000C445BDD80020C445BED2EBE7FF07000077
:106AF000F0B54E4645465746DE4604001800E0B560
:106B000016001B031B0B314D0F034A00994643002F
:106B1000A446B0463F0B520DC90F5B0DC00FAA42F1
:106B200011D0AB4214D0002A2FD13C43A34665427A
:106B30006541002B14D14C46264311D15B46002001
:106B4000002B17D010E03D00254312D193421CD1F9
:106B50004D462E430DD1002A04D13C436542654188
:106B6000002D0DD1814216D0022001390840013894
:106B700000E002203CBC90469946A246AB46F0BDE0
:106B80000028F7D101204042F4E7002BEAD14C461F
:106B90002643E7D1E8E79A4206DD43425841022303
:106BA000404218400138E5E79A42E9DB4F45DBD81F
:106BB00006D000204F45DDD20029E3D00800D9E7F8
:106BC000C445D1D80020C445D4D2F5E7FF07000062
:106BD000F0B557464E464546DE46E0B598460C03AE
:106BE0004B000600924687B0240B5B0DCF0F002BA5
:106BF0006CD0DD4A934200D186E0420FE40014439A
:106C0000802212041443D94AC50094466344009379
:106C1000002399469B46434642461E03D20F5B0023
:106C200050469046360B5B0D00D178E0CE4A934239
:106C30001DD0CE49420F8C4600996344F6008C4625
:106C4000164380229C44120463461643C20000206F
:106C500000930099434601318C4649467B4001939D
:106C60000F2900D97EE0C24B890059588F46524601
:106C7000009B324300D056E1BB4900268C4663445A
:106C8000494600930223194389460220E1E743461F
:106C900001933400150083465B46022B5ED0032B24
:106CA00000D1F3E1012B00D018E1002200240025DF
:106CB000019B12052243DB071A432800110007B08D
:106CC0003CBC90469946A246AB46F0BD2500054324
:106CD00000D141E1002C00D1ADE1200000F0F0FE38
:106CE000010002000B391D2310005B1A3100350032
:106CF00008388440D94085400C439E48831A00934D
:106D0000002399469B4686E70500254300D01CE1F9
:106D1000082200930223002491469B467BE75246BB
:106D2000324300D10AE1002E00D176E1300000F0BC
:106D3000C7FE02000B3A1D2301009B1A5246083978
:106D4000DA408E40164352468A40009B8949181A01
:106D500003008C466344002000937AE7002400255A
:106D6000814AA5E72F0C2D042D0C2B00110C1204C9
:106D7000120C53439846130028007B43994648431E
:106D80004844834640460B00000C824658467B43ED
:106D900050440293814506D99A4680235B02994666
:106DA000CA4453460293030C9B4643461B0400040B
:106DB0001B0C9846030043440493330C99462B0064
:106DC0003604360C7343984633007B439A464B4651
:106DD0005D435F4343465544180C4019824503D92F
:106DE00080235B029A465744050CEB1905934346F2
:106DF0001D042D0C00044019250C2404240C27002C
:106E000057436A4390462A003B0C9A464A436143E3
:106E1000414451448344884503D980235B0298460A
:106E200042443F040B0C3F0C0904C9192700984643
:106E30004B4677435C436E435D433B0C9946A41934
:106E40004C4442440395A64204D980235B029846F1
:106E500045440395029B3F045B441E0083428041EE
:106E600023049846059B3F0C4744984676188E426B
:106E70008941474440423D18A846934649428A46C4
:106E8000C3449F42BF4180458041039BDA449846FA
:106E9000534640427F420743240C934592418A4522
:106EA00089413F19DC0D049B75021D43681E854115
:106EB0005346524249420A43BF184744F60D7F02E7
:106EC00035435A023C431543FB0100D4C1E0012184
:106ED0006A080D401543E2071543640826496144DA
:106EE000002956DD6B0709D00F222A40042A05D05D
:106EF0002A1DAA42AD416D4264191500E30104D573
:106F000080211E4AC900144061441D4A914200DD9F
:106F100024E76207ED08640249051543240B4A0D76
:106F2000C6E60197B8E6104A0320944663444A46F1
:106F3000009303231A43914652468AE649460123A9
:106F4000194389460026012083E60C22009303237F
:106F5000050091469B465EE6042399460023009374
:106F6000013300249B4656E6FF07000001FCFFFFAB
:106F700004B600000DFCFFFFFF030000FFFFFFFE53
:106F8000FE070000002380240025444A01932403C7
:106F90008EE60120401A382800DD86E61F285BDDDA
:106FA0001F2223005242511ACB401900202803D03F
:106FB0003B4A6244944025436A1E95412A000A4395
:106FC00007210D000024154011425BD00F21002441
:106FD0001140042953D0111D914292415242A418EC
:106FE0000A0023024BD501220024002560E68023FD
:106FF0001B031C4209D01E4207D133431C034346E6
:107000001500240B254A019352E6802212031443F3
:107010002403224A240B01974AE600F051FD0300A5
:107020001A00153220301C2A00DC84E65646083B44
:1070300000229E4089E600F043FD01000200153168
:1070400020321C2900DC4EE634000838002584403C
:1070500053E6009B9C4641E71249220061442E0002
:107060008D408A40C640691E8D4132432A43C44048
:107070005307B6D00F2111400429ACD1B1E7650701
:107080006402240BD2081543002211E68022120369
:1070900014432403014A240B0AE6C046FF070000FC
:1070A0003E0400001E040000F8B557464E46454613
:1070B000DE460400E0B51F0010000B03620F4E0017
:1070C000CD0F5B0A39031343490AE200440F214301
:1070D000C24C91469246C0007A008046760D520D11
:1070E000FF0FA24200D1B4E001246740BB46BD427D
:1070F00000D188E0B41AA446002C00DCB2E0002ADB
:1071000000D1C5E0B54A964200D18BE2802212043C
:1071100011436246382A00DDA1E11F2A00DD16E294
:1071200020270C00BF1ABC400200A0466446B840AD
:10713000E240444614430200501E82416046C14072
:1071400022435B1A49468C1AA145924152429B1A2E
:10715000984643461B0200D417E143465B025B0A94
:1071600098464346002B00D16CE1404600F0A8FC55
:107170000200083A202120004346891A9340C84063
:1071800094400343964200DD57E1961B711C1F2972
:1071900000DDCBE1202218002600521A94409040D6
:1071A000CE40CB40621E94413043984600260443B3
:1071B000630709D00F232340042B05D0231DA342CE
:1071C000A4416442A0441C0043461B0200D4DFE0FB
:1071D000824B01369E4200D1FBE04246804BE408E0
:1071E0001A401300710552075B0222431B0B490D25
:1071F0000905ED071943294310003CBC9046994608
:10720000A246AB46F8BDB41AA446002C58DD002AAD
:1072100000D19EE0714A964200D13BE180221204E7
:1072200011436246382A00DDC1E01F2A00DCBBE1C1
:107230000C00203AD44022006446202C04D0402781
:107240003F1BB940084380464446611E8C411443AD
:10725000B1E00C0004432AD0BB46BD422DD0614CA6
:10726000A446B4446446002C5CD0941BA446002E73
:1072700000D015E14D461D4300D1C3E1651E012C30
:1072800000D10CE2554EB44200D1F8E1AC460EE11B
:107290000A00024300D136E12200013A012C00D15C
:1072A000C6E14E4CA44500D1F4E0944631E70124F8
:1072B0006740BB46BD4200D01CE74A4CA446B444DC
:1072C0006446002C00D1CFE0941BA446002E00D1D0
:1072D0005CE1424EB24200D1ECE1802636043343F9
:1072E0006446382C00DDB3E11F2C00DD38E2202697
:1072F000361B1C00B4404F46A0466446E740444657
:107300003C434F46B7403E00771EBE41344366467D
:10731000F340C918241884429B415B4298461600EA
:1073200088444EE0304A741C144200D0D6E04A46ED
:107330001A43002E00D05BE1002A00D1A5E10A002B
:10734000024300D0BBE14A465907D2080A43DB0892
:1073500027E00A00024300D174E12200013A012C27
:1073600005D01E4CA44500D194E0944659E748440A
:10737000484592415B189846040052429044434667
:1073800002261B0200D5C4E0013E630700D011E7CE
:107390004346B4465907E2080A43DB080F498C45C7
:1073A00040D061461B0349051B0B490D20E70143F3
:1073B0000C00611E8C414C444C4592415242904617
:1073C000984443461B02E0D5044B01369E4200D050
:1073D0009FE03100002300220AE7C046FF070000BB
:1073E000FFFF7FFF01F8FFFFFE070000002A00D12A
:1073F00060E10A0002434DD04A465C07D2082243AE
:107400008024DB082403234207D0CE08264204D17F
:107410005D463300C20849070A43510FD200D20823
:1074200049070A431100194300D1C8E1802109032B
:107430000B431B03D5491B0BDAE6D549B61A0B40A3
:107440009846B5E6200000F03BFB020018321F2AE8
:1074500000DC8FE6230008388340002492E60843CE
:107460000200501E82416DE6CA4C721C224200D0BE
:10747000ADE04A461A43002EB8D1002A00D158E1A7
:107480000A00024300D059E14A465907D2080A438C
:10749000DB0886E74A465907D2080A43DB08C1E7FA
:1074A000BA4DAA4200D11EE180252D042B4364462B
:1074B000382C5DDC1F2C00DDD0E0202567462D1B1D
:1074C0004E461C00FE40AC4034434E46AE403500B4
:1074D000FB406E1EB541C91A2C434EE04A46141AB1
:1074E000A1459241524290465F1A3A004746D21B4C
:1074F0009046120200D58BE04246224300D030E68F
:10750000002300254DE74A465907D2080A43DB0805
:1075100044E742469E4B61081A4013000122144082
:107520000C43DA075B089846144341E61A001F3EF5
:10753000F2401600202903D04022511A8B401C43F0
:10754000621E944100233443984600261DE70C0038
:10755000203AD44022006446202C04D040273F1B10
:10756000B940084380464446611E8C412243E9E508
:107570004C4623431C00631E9C41041BA0429B41BC
:107580005B42CB1A98465D461600E2E54E461E4326
:1075900000D1AEE0661E012C00D1FDE07B4FBC4265
:1075A00000D107E1B4469BE664462022121B0C0082
:1075B000944007009040A0466446421E90416246B7
:1075C000E7404446D1403C4304435B18F3E66F4C2C
:1075D000A24200D1D5E048445B1848458941494260
:1075E0005B18DC0740085B08984616000443CCE6AD
:1075F000002A00D082E00A00024340D18023002507
:107600001B0313E74B07C2081A435D46CB08C5E6C8
:107610004A46841AA0429241CB1A52429B1A98467B
:107620005D469EE54A465907D2080A43DB08F9E65B
:107630004A46141AA14592415B1A52429B1A984637
:10764000012686E54A465907D2080A43DB08A5E623
:107650004C4623431C00631E9C415BE665461E00AE
:10766000203DEE40202C05D040252D1BAB404C4644
:107670001C43A2465446631E9C4134437DE74B079E
:10768000C2081A435D46CB08CCE60A00024300D18B
:1076900036E74B07C2081A435D46CB0881E64A46E7
:1076A000841AA0429241CB1A52429B1A98465D46D8
:1076B00001264EE54B07C2081A43CB08B2E64A46FC
:1076C000141AA14592415F1A5242BA1A9046120208
:1076D0006BD54A46841AA0429241CB1A52429B1A59
:1076E00098465D4664E54B07C2081A435D46CB08E1
:1076F00098E64B07C2081A43CB084FE60A0002433C
:1077000090D04A465C07D20814438022DB0812035B
:10771000134208D0CE08164205D1C00849070843D5
:1077200004005D463300610FE2004907D2080A43B6
:1077300078E64B07C2081A43CB0832E648445B1888
:1077400048459241984652429044434604001B02E9
:1077500000D41AE642460E4B01261A40904614E623
:1077600066461F00203EF740202C05D04026361BE1
:10777000B3404C461C43A2465446631E9C413C43C6
:10778000C8E511000023002232E5C046FF070000D3
:10779000FFFF7FFFFE0700004A4614188442924113
:1077A0005B18984652429044E9E54246224300D194
:1077B000A6E6EAE54B07C2081A43CB0832E60022E8
:1077C0000149130014E5C046FF07000070B505002D
:1077D0000C480C03160049001A035B00240B490DEA
:1077E000120B5B0D814208D0064900208B4203D169
:1077F00032431000421E904170BD01202C43FBD14A
:10780000F2E7C046FF0700000A0030B5134C5300F2
:1078100009030500090B00205B0DD20FA34204DD14
:107820000F48834202DD0F4BD01830BD802040034B
:1078300001430D48C01A1F2808DD0C48C31AD9405F
:107840000B005842002AF0D11800EEE7084CC54062
:10785000A446634499400B002B43F2E7FE0300006B
:107860001D040000FFFFFF7F33040000130400002D
:10787000EDFBFFFF70B5002816D0C317C5185D409B
:10788000C40F280000F01CF9114A121A0A2816DC4D
:1078900003002E0015339E400B23181AC5405305D4
:1078A0002D032D0B5B0D03E0002400230025002693
:1078B0001B052B43E40723433000190070BD0B3830
:1078C000854053052D0300262D0B5B0DF0E7C046C8
:1078D0001E04000010B5041E10D000F0F1F80F4B8C
:1078E0001B1A0A2811DC0B222100121AD140153074
:1078F0000A035B058440120B5B0D01E000230022AC
:107900001B0513432000190010BD22000B388240D4
:107910005B0512030024120B5B0DF1E71E0400004F
:1079200070B543004602C40FFE201B0E591C750A99
:1079300008420CD0E022920094466D07360B634457
:107940001B053343E40723432800190070BD002BB7
:1079500014D1002D1BD0280000F0B2F80A281CDC3E
:107960000B232A001B1ADA40030015339D400E4BEF
:1079700012031B1A5B05160B5B0DE1E7002D09D006
:10798000320B80263603094B6D071643D8E70023D8
:107990000026D5E70026054BD2E703002A000B3B63
:1079A0009A400025E3E7C04689030000FF07000076
:1079B00002004B00F0B508035B0D3D4ECC0F400AB2
:1079C000510F5F1C0843D50037420AD039495E1871
:1079D000FE2E16DDFF230021DB050B43E0071843D5
:1079E000F0BD002B06D1284327D005218901490A83
:1079F000DBB2F1E70543EDD08021C903FF2301434A
:107A0000EAE7002E1CDD920111004A1E9141C000E0
:107A10006D0F014329434B0748D00F230B40042B24
:107A200000D004318023DB040B403FD0721CFE2EBB
:107A3000D0D08901490AD3B2CEE700230021CBE799
:107A40003200173222DB80211E2209040843921BD8
:107A50001F2A1DDD022149428E1B0100F1400E004C
:107A6000202A04D0144A94466344984005432900D0
:107A70004D1EA941314300264B07CED180200B007B
:107A8000C004012203400142D3D1AFE70023ACE799
:107A90000A498C4629006344D1409D400A002900D0
:107AA00098404D1EA94101431143E4E733009DE78F
:107AB000FE07000080FCFFFFA2FCFFFF82FCFFFF2F
:107AC0001C2101231B04984201D3000C10391B0A0E
:107AD000984201D3000A08391B09984201D30009D2
