:10200000008000200DA80000D5A70000F5A7000063
:1020100000000000000000000000000000000000C0
:10202000000000000000000000000000F5A7000014
:102030000000000000000000F5A7000061A80000FB
:10204000F5A70000F5A70000F5A70000F5A7000020
:1020500099A70000F5A70000A5940000F9A70000CB
:10206000F5A70000E1A40000F5A70000F5A7000017
:102070001D9C0000F5A70000F1A40000F5A70000DA
:10208000F5A70000F5A70000F5A70000F5A70000E0
:1020900000000000F5A70000F5A70000F5A700006C
:1020A000F5A70000F5A70000F5A70000F5A70000C0
:1020B0000000000010B5064C2378002B07D1054B1B
:1020C000002B02D0044800E000BF0123237010BDA4
:1020D000D002002000000000C4260200044B10B50E
:1020E000002B03D00349044800E000BF10BDC046E8
:1020F00000000000D4020020C42602007047000047
:102100001423F0B595B000AFFC1801003822200070
:102110000DF0C0FE2C4B6D465A781878120202431F
:102120009878197900040243D878382300061043C0
:10213000220006F050FF10223C23BA18D318187062
:10214000224BFC33D868002837D00022012690B0FB
:10215000694633009446FA603C60FC683A68A25CC9
:10216000BA6022000C0064447C60BC680132FA60F2
:10217000721C002C08D17C68B44623700123FE68D1
:10218000392E0DD01600E8E7BC680133DBB28C5560
:10219000FF2BF4D17C6894462370B21CFE3BEEE723
:1021A00064460B5503685B689847084B0021FC3375
:1021B000D86803681B689847AD4601210D2008F0D8
:1021C0004BFDBD4615B0F0BD3C000020F0020020E4
:1021D0000300F0B5FC33DB6889B0040000AF002BCE
:1021E0007BD02500FC35E86803681B699847002808
:1021F00073DDE86803685B699847C0B2002862D164
:102200002B697B61002B02D16B69002B58D06B4688
:102210006A46BB60AB68FB610733DB08DB00D31A9F
:102220009D46FB696846002B35D00022631CFB608D
:102230001300F96999422FD9F968FE69C95CCD1874
:10224000AE4201D2012926D15D1C7D6085183D6119
:102250005D1CBD61BD69EE1AF6B2B1420AD9013505
:10226000665DBD61B44665463E6935703500013531
:102270003D61EFE70025A94201D04D1EEDB27B681C
:1022800052195B19FF29D4D0F9699942D1D00021A4
:1022900081540132CDE7002225000023FC35AB60DC
:1022A00023707B69002B04D011009847BB689D46C2
:1022B00097E76B69002BF9D00100A8699847F5E70B
:1022C000AB6023708DE7AB685A1CFF2A03D8E31874
:1022D000AA60587085E70123F3E7BD4609B0F0BD59
:1022E00010B50B48FFF774FF0A4C200000F0D0F93E
:1022F00000210D2008F0B0FC00F014F9002805D0F2
:10230000200000F033F92000FFF7FAFE10BDC046B0
:10231000F00200200400002007480023020010B54E
:10232000FC329360D3601361536193610349044AA3
:1023300003700AF0BBFB10BDF0020020FD2000007E
:102340000000002010B501210D2008F055FC094BBC
:102350000D20197808F080FC00F0F8F906F060FD17
:10236000E121054C490220000AF0B6F8034BFC338A
:10237000DC6010BDEC0200207C090020F00200208F
:1023800070B504000D00006809680AF017FE002807
:1023900000D02C00206870BD7047000010B50228E6
:1023A00001D1022906D01221034B044A0448FF310F
:1023B0000DF0ECFC10BDC046012B0100902C01007B
:1023C000852A0100122110B5024B034A0348FF3150
:1023D0000DF0DCFC012B0100192D0100852A010004
:1023E000982110B5024B034A034849000DF0CEFC7A
:1023F00080290100A22D0100852A0100122110B5BB
:10240000024B034A0348FF310DF0C0FC012B0100D1
:102410001D2E0100852A0100FE2200239205026084
:1024200043608360C360026143618361C361026290
:102430007047000070B5002826D0182213491448B0
:1024400008F0DDFF134B1A0019001D0076321488C6
:102450001A1DD26F843175350020095E2D789A6679
:102460001A0018006C3211801A005D3005701800D7
:10247000883212685E301A6701220480986F1866ED
:10248000D86F58668C331A7070BDC0469404002013
:10249000400900202004002070B556680400150093
:1024A000002E05DA47210B4B0B4A0C480DF06EFC51
:1024B000C16086604C22290010300DF0EBFC6B6887
:1024C0009E4204D07421064B064A0748EEE72000DE
:1024D00070BDC046AF2E0100442F01003F30010007
:1024E000BA300100F330010033340100012010B58F
:1024F00040420AF045FA10BD10B5002803D0043858
:1025000000680DF0BDFC10BD962110B5024B034ACA
:1025100003480DF03BFCC046AD340100F23401002D
:1025200027350100014B8C331878704720040020B8
:10253000436810B58B6183680C00CB61C3680B6284
:1025400003694B6243698B628369CB62C369006A2A
:102550000B630DF0FBFA0022034B0CF06FF80AF04E
:1025600075FD606310BDC04680842E41F7B5444CB4
:10257000019023005E331D8828000DF0B7FA002279
:10258000404B0CF05BF823000F0006006033002086
:10259000185E0BF0A3FC3C490AF0DEFF0DF0FCFADC
:1025A00032003B000CF050FC0DF03EFB2300E063DA
:1025B00062330020185E0BF091FC33490AF0CCFF27
:1025C0000DF0EAFA32003B000CF03EFC0DF02CFB63
:1025D0002300206464330020185E0BF07FFC2A493E
:1025E0000AF0BAFF0DF0D8FA32003B000CF02CFCD8
:1025F0000DF01AFB2300606466330020185E0BF0B8
:102600006DFC21490AF0A8FF011C0AF009FE230015
:10261000A06468330020185E0BF060FC1A490AF0D1
:102620009BFF011C0AF0FCFD2300E0646A330020DC
:10263000185E0BF053FC14490AF08EFF011C0AF0DF
:10264000EFFD230020656C330020185E0BF046FC84
:102650000D490AF081FF011C0AF0E2FD220023006F
:10266000658760655D32127839331A70236F01997E
:10267000A3650648FFF75CFF00238C342370F7BD89
:102680002004002000408F4000FEFF465804002038
:10269000F0B51C4D8FB004001B49280007F0F6FE72
:1026A000290002A8082207F085FE1422290008A8A4
:1026B00007F080FE049805990DF0B6FA071C0698FD
:1026C00007990DF0B1FA061C089809990DF0ACFABB
:1026D000051C0A980B990DF0A7FA00900C980D991B
:1026E0000DF0A2FA0190029803990DF09DFA009B5B
:1026F00020602361019B6760A660E56063610FB0A5
:10270000F0BDC046440400202004002000234360A4
:1027100003338360023BC36013681A6801600A6078
:102720005A688A609B680B617047000010B5030708
:1027300005D06D21024B034A03480DF027FB10BD65
:102740009F3501008E3601001A370100F0B50121D6
:1027500027258FB002AB2822ED1849423F4B03A832
:1027600007F072FD02AB3E4C1B8902AA2385059B34
:102770002D09E362069B0C21019323632300127D44
:10278000343338481A702D0107F0A3FD00280AD110
:10279000354C200008F0DEFE002803D0200033492D
:1027A00008F004FBFEE72800FE27FFF7BFFF002626
:1027B0002000BF05102229002E606E60AE60EF6021
:1027C00090300DF067FB2100002322005D310B707B
:1027D000210039321370264A5E3162870A80254A09
:1027E000A365626622002366A3662367E663266408
:1027F0006664A764E664266566658C3423701E4CA7
:102800006C321380082120000422033307F06AFA97
:1028100020001A4907F022FC00280AD1124C20009F
:1028200008F098FE002803D02000154908F0CAFAE5
:10283000FEE72000062107F03EFB2000114907F0CB
:102840006BFB2000104907F02DFA1821200007F03B
:1028500076FC200007F0AAFB0FB0F0BD0C070020AB
:10286000200400204404002024100020933701009D
:10287000102700000000FF7F40090020C0CA8936F1
:10288000D237010020A107003524000010B5040054
:1028900008001100FFF782FDFE2300229B052000A7
:1028A00023606260A260E36010BD0200403203005A
:1028B0001078002801D141331878704710B50129EC
:1028C00005D08521024B034A03480DF05FFA10BD85
:1028D000E8370100F63701005B3801000A6D10B5DA
:1028E000CB6C032A01D1022B01D0FFF787FD0B002F
:1028F00042331B78002B00D010BD43310B78002BE6
:10290000FAD0FFF76DFDF8B50D008E684F68040032
:1029100039003000FFF742FD2D68022E01D1022F51
:1029200003D039003000FFF739FD2B682000236009
:10293000EB6863600023A3602B69E360F8BD0000CF
:10294000836810B50268022B0FD1C46843681B1955
:102950000024846001344360C460A34205DD482143
:102960000D4B0E4A0E480DF011FA8368012B03DD62
:102970004B210C4B094AF5E7C468012C03D04D21CB
:10298000094B064AEEE75C1C846044685B000968FA
:102990001B199B00995010BDD63801002539010044
:1029A000E9390100663A0100BD3A0100D300CB18B5
:1029B00010B503600023C36002338160026143618C
:1029C000012A05D97821034B034A04480DF0DEF9AA
:1029D00010BDC046D33A01007A3B01004F3C0100D4
:1029E000F0B5050016001C0091B00A00010004A813
:1029F000FFF7DCFF320029000AA8FFF7D7FF636862
:102A0000FE210093009A8023944624681B066344A9
:102A10008905201C02930AF0CBFA002805D000217A
:102A200000980AF0C5FA002841D10A9F049B3D682E
:102A30000298291C1E6801930AF058FF311C03906C
:102A4000201C0AF053FF011C03980AF0E9FB019BCC
:102A5000291C1860201C0AF049FF311C051C009835
:102A60000AF044FF011C281C0AF0DAFB019B3860C5
:102A70005D68201C291C0AF039FF7E680390311C18
:102A800002980AF033FF011C03980AF0C9FB019B6E
:102A9000291C586000980AF029FF311C051C201CD5
:102AA0000AF024FF011C281C0AF0BAFB786011B060
:102AB000F0BD000010B50324230053439B00CB1846
:102AC000036000238160C36002614461022A05D96A
:102AD0007821034B034A04480DF058F910BDC04655
:102AE000D33A0100C13C01004F3C010070B5002AFF
:102AF00002DBCB68934205DCE721154B154A1648EB
:102B00000DF044F90B69541CE41803230D68191BDC
:102B100053431B199B00EB1803604160002B06D048
:102B2000002904DAB0210D4B0D4A0E48E8E70323D3
:102B3000C560046142618361002C03DB002901DB75
:102B4000012A04DD9221084B084A0948D8E770BDE4
:102B5000963D0100AD3D0100423F0100C93F01002B
:102B6000734001007F410100F341010082420100F6
:102B70004F3C0100436810B5002B05DA4721074B95
:102B8000074A08480DF002F9002102689B009B18D3
:102B9000934201D002C2FBE710BDC046AF2E010038
:102BA000924301003F300100F8B503273C005C432D
:102BB000A418069E079DA4000C1904604660856059
:102BC000002E01DB002D05DAB0210D4B0D4A0E4819
:102BD0000DF0DCF8C160026143618761002A08DB07
:102BE000BE1B964205DB002B03DB0222551B9D42D8
:102BF00004DA9221054B064A0648E9E7F8BDC046CB
:102C0000C93F0100874401007F410100F3410100F9
:102C1000884501004F3C0100F8B503273C005C43A8
:102C2000A418069D079EA4000C19046045608660E8
:102C3000002D01DB002E05DAB0210C4B0C4A0D48AB
:102C40000DF0A4F8C160026143618761002A07DBCF
:102C50007D1B954204DB002B02DBBE1B9E4204DA87
:102C60009221054B054A0648EAE7F8BDC93F010035
:102C7000934601007F410100F34101008B470100B1
:102C80004F3C01009300CB1810B503600023036193
:102C900001338160C26043619A4205D97821034BB8
:102CA000034A04480DF072F810BDC046D33A010043
:102CB0008D4801004F3C0100F0B50400160091B0B2
:102CC0001D000A00010004A8FFF7DCFF210032000C
:102CD0000AA8FFF7D7FFFE212C686B688905201C26
:102CE00000930AF065F9002805D0002100980AF049
:102CF0005FF9002845D10A9F00983B68049D191C84
:102D000001930AF0F3FD2E680290311C201C0AF09A
:102D1000EDFD011C02980AF083FA80221206944607
:102D2000009B286063440293311C02980AF0DEFD88
:102D30000199061C201C0AF0D9FD011C301C0AF068
:102D40006FFA3860AB68201C191C01930AF0CEFDA5
:102D5000BE680390311C00980AF0C8FD011C03985E
:102D60000AF05EFA0299A86001980AF0BFFD311CD2
:102D7000051C201C0AF0BAFD011C281C0AF050FAA0
:102D8000B86011B0F0BD0000F0B52F240D000700B1
:102D900093B0029304ABE4182409240120000092AC
:102DA000FFF7C4FC6B000393EB189B00DB5905A9EC
:102DB00023600023099301330A930B93009B08A817
:102DC0005B00ED18AD000193EB59189E0593089434
:102DD000FFF7B6FD009A039B944663449B00DB59C2
:102DE00006A90693FFF7ACFD0099019B8C4663444E
:102DF0009A00D35907A90793FFF7A2FD099B0093F7
:102E00000B9B0193019A009B94466344022B03D1D0
:102E10000A9B0093022B05D07A21654B654A6648D0
:102E20000CF0B4FFA16860680AF07AFE8021051CEE
:102E30004000400809040AF0C1F8002843D00023EC
:102E40000993FE239B05089301220021200008AB73
:102E5000FFF732FFA36858004008011C0AF0E0F9B0
:102E600080210904051C0AF0A9F8002849D0FE2396
:102E70009B0533600023736080223568089F736868
:102E80001206391C281C9C180AF030FD099E00907F
:102E9000311C201C0AF02AFD011C00980AF040FE9B
:102EA000029B391C1860201C0AF020FD311C041CF8
:102EB000281C0AF01BFD011C201C0AF0B1F9029B22
:102EC000586013B0F0BDE16820680AF0A9F9291C28
:102ED0000AF042FB011C051C0AF008FDFE218905D1
:102EE0000AF09EF909F0EAFD011C071CFE2080058E
:102EF0000AF032FB391C0990281C0AF02DFB0890BF
:102F0000A2E7E16820680AF00BFE291C0AF024FB06
:102F1000011C051C0AF0EAFCFE2189050AF080F973
:102F200009F0CCFD0021071C281C0AF05BF8391CB5
:102F3000002836D0281C0AF073F9011CFE208005F9
:102F40000AF00AFB0021051C0AF04CF800282CD1DD
:102F50001A4B291C281C00930AF0C8FCFE21890585
:102F60000AF05EF909F0AAFD011CFE2080050AF0B6
:102F7000F3FA071CA068410049080AF0EDFA802224
:102F800012069446009B634419000AF0AFFC6900E6
:102F900049080AF0ABFC391C0AF0A8FC37607060E5
:102FA0006AE7281C0AF0BCFDC7E7FE239B05D0E7B3
:102FB00063490100014A0100E9390100000080BFB6
:102FC000F8B545680024002D1CD006DC9C210F4B71
:102FD0000F4A1048FF310CF0D9FE0768AD003E00E3
:102FE00001CE7D19011C0AF081FC041CB54209D0F8
:102FF00001CE011C0AF07AFC011C201C0AF010F919
:10300000041CF3E7201C09F059FDF8BD664A0100D5
:10301000AA4A0100274C01009C46F7B5099B0324EE
:10302000019363465C43089B0F68A418A4004360A7
:10303000019B3C1904608360002C0BD0089B002B83
:1030400002DB019B002B05DAB021164B164A17480C
:103050000CF09CFE04000F000C3468CF68C468CFED
:1030600068C43F686346276003248262C3620463C6
:10307000002A10DB089B002B0DDB4C68E61A9642F9
:1030800009DB6346002B06DB019B002B03DB8A6810
:10309000D51A654504DA9221054B064A0648D7E75A
:1030A000FEBDC046C93F0100994C01007F410100AF
:1030B000F3410100AE4D01004F3C0100F7B50B6834
:1030C000476801934B6804009F4205D00A4B0B4AA6
:1030D0000B490C480CF05AFE00250668BD4208DA80
:1030E000019AAB00D15830680AF09AF8013501C650
:1030F000F4E72000FEBDC046CD4E0100024F0100A6
:10310000F202000051500100F7B5CB684768009308
:103110000B69040001934B699F4205D00C4B0D4A8B
:103120000D490E480CF032FE00250668BD420CDA4F
:10313000019AAB00D15800980AF0D8FB011C306806
:103140000AF0EEFC013501C6F0E72000FEBDC046E6
:10315000CD4E0100CD500100F2020000515001009F
:10316000F7B50B68876801938B6804009F4205D010
:103170000A4B0B4A0B490C480CF008FE0025066868
:10318000BD4209DA0C236B43019A3068D1580AF02A
:1031900047F8013501C6F3E72000FEBDCD4E010022
:1031A000E1520100F202000051500100F7B5CB6876
:1031B000876800930B69040001938B699F4205D0D7
:1031C0000C4B0D4A0D490E480CF0E0FD0026056839
:1031D000BE420DDA019AB300D15800980AF086FB7E
:1031E000011C28680AF09CFC013628600C35EFE7CA
:1031F0002000FEBDCD4E010031540100F20200005E
:103200005150010010B50324230053439B00CB18F9
:10321000036000238160C36002614461012A05D913
:103220007821034B034A04480CF0B0FD10BDC046A2
:10323000D33A0100465601004F3C0100F8B50D6835
:1032400094002C1904604360002C07D0002B05DA91
:10325000B0210D4B0D4A0E480CF098FD04000C34C3
:10326000E0C9E0C4E0C9E0C403214262C162002AAF
:1032700004DB002B02DBCB1A9A4204DD9221054BC2
:10328000054A0648E8E7F8BDC93F01002457010098
:103290007F410100F34101003E5801004F3C010015
:1032A000F7B50B68876801938B6804009F4205D0CF
:1032B0000A4B0B4A0B490C480CF068FD00250668C8
:1032C000BD4209DA0C236B43019A3068D15809F0EA
:1032D000A7FF013501C6F3E72000FEBDCD4E01007A
:1032E00062590100F202000051500100F7B5CB68AD
:1032F000876800930B69040001938B699F4205D096
:103300000C4B0D4A0D490E480CF040FD0026056897
:10331000BE420DDA019AB300D15800980AF0E6FADD
:10332000011C28680AF0FCFB013628600C35EFE729
:103330002000FEBDCD4E0100BB5A0100F20200008C
:1033400051500100F8B5032353430C689B00E31868
:103350004C6803604460002B07D0002C05DAB021D4
:103360000E4B0F4A0F480CF011FD03000C000C33FC
:10337000E0CCE0C3E0CCE0C324681C60002383629F
:103380000333C2620363002A02DB8B689A4204DBC8
:103390007821054B054A0648E5E7F8BDC93F01001D
:1033A000D95C01007F410100D33A0100EC5D0100CE
:1033B0004F3C0100F8B51F0004000E0002C01100D0
:1033C0001500FFF77BFA3B68A360002E01DB012D9F
:1033D00005D04721034B044A04480CF0D7FC2000D9
:1033E000F8BDC046AF2E0100DF5E01003F30010096
:1033F00070B51400050088B00122049104AB616827
:1034000005A8FFF7D7FF059B21006B60079BEB60CA
:103410006B461A0041C941C2097811702A00103266
:1034200041CB41C211706368059A9A4205D074215C
:10343000034B044A04480CF0A9FC280008B070BDF6
:10344000BA300100DA5F010033340100F8B50C68CE
:103450009300E3188C6803608460002B07D0002C75
:1034600005DAB0210E4B0F4A0F480CF08FFC030019
:103470000C000C33E0CCE0C3E0CCE0C324681C605B
:103480000023C362013382620363002A02DB4B68BC
:103490009A4204DB7821054B054A0648E5E7F8BD6A
:1034A000C93F0100746201007F410100D33A01006D
:1034B000886301004F3C0100F7B503275F43019388
:1034C000BF180B68BF00DF19089B05000C000760E0
:1034D0004360099908301600FFF7F0F9002F0BD070
:1034E000089B002B02DB099B012B05D0B021164B5A
:1034F000164A17480CF04AFC2B000C3307CC07C3C4
:1035000007CC07C3019B6E62002B04D08521114BB1
:10351000114A1248EEE70323099AEB62012A04D00C
:1035200090210F4B0F4A1048E4E7002E05DB089A64
:10353000002A02DB9B1AB34203DA92210B4B094AA1
:10354000F1E72800FEBDC046C93F01007C640100D0
:103550007F410100E83701008D6501005B38010003
:10356000F26501006F6601004F3C0100F34101006C
:1035700010B5002902DB4368994205DBB521044BF5
:10358000044A05480CF002FC03688900C85810BDC5
:103590008A670100A7670100BD68010010B5002916
:1035A00007DB4368994204DA002A02DB83689A4207
:1035B00006DBB721054B064A064849000CF0E6FB3E
:1035C0004B4300689B189B00C01810BD396901006F
:1035D0006E690100BD680100F8B545680024002D42
:1035E0001CD006DC9C210E4B0E4A0F48FF310CF01C
:1035F000CDFB0768AD003E0001CE7D19011C0AF02D
:1036000075F9041CB54209D001CE011C0AF06EF90F
:10361000011C201C09F004FE041CF3E7201CF8BD6B
:10362000664A0100666A0100274C0100436810B534
:10363000002B05DA4721074B074A08480CF0A6FB88
:10364000002102689B009B18934201D002C2FBE755
:1036500010BDC046AF2E0100924301003F30010073
:10366000F8B50C689300E3188C6803608460002B45
:1036700007D0002C05DAB0210E4B0F4A0F480CF092
:1036800085FB03000C000C33E0CCE0C3E0CCE0C3CE
:1036900024681C600023C362013382620363002A32
:1036A00002DB4B689A4204DB7821054B054A064849
:1036B000E5E7F8BDC93F0100056C01007F4101004D
:1036C000D33A0100226D01004F3C0100F8B504001F
:1036D0000E001500002901DB002A06DA1221154B25
:1036E000154A1648FF310CF051FB002909D0002A79
:1036F00007D01100124809F025FB864201DDFEF7D4
:10370000F5FE2F00A3686268774353439F420ED0B3
:103710002068FEF7F1FE002F07DD8023DB059F42C6
:1037200001DBFEF7E3FEFEF7EFFE00232360666099
:10373000A560F8BD012B01001F6E0100852A010064
:10374000FFFFFF7F70B58C680D68230053439B001B
:10375000EB1803608460002B07D0002C05DAB02141
:103760000A4B0B4A0B480CF011FB0023026143612A
:103770008B68C1608361002A02DB4B689A4204DBDC
:103780007821054B054A0648EDE770BDC93F0100A9
:10379000B56E01007F410100D33A0100B86F01000E
:1037A0004F3C0100F8B50D6894002C198C4604605C
:1037B0008360002C07D0002B05DAB021104B114A92
:1037C00011480CF0E3FA040065460C34C2CDC2C4C3
:1037D000C2CDC2C42D6825608469C262A468046336
:1037E000002A06DB002B04DB61468968CB1A9A426B
:1037F00004DD9221054B064A0648E2E7F8BDC046C3
:10380000C93F01009B7001007F410100F3410100AD
:10381000BA7101004F3C0100F8B5032353430C6813
:103820009B00E3184C6803604460002B07D0002C19
:1038300005DAB0210E4B0F4A0F480CF0A7FA03002F
:103840000C000C33E0CCE0C3E0CCE0C324681C6087
:10385000002383620333C2620363002A02DB8B68A6
:103860009A4204DB7821054B054A0648E5E7F8BD96
:10387000C93F0100E37201007F410100D33A01001A
:103880000B7401004F3C01009C46F7B5099B0324D3
:10389000019363465C43089B0F68A418A40043602F
:1038A000019B3C1904608360002C0BD0089B002B0B
:1038B00002DB019B002B05DAB021164B164A174894
:1038C0000CF064FA04000F000C3468CF68C468CFB1
:1038D00068C43F686346276003248262C36204634E
:1038E000002A10DB089B002B0DDB4C68E61A964281
:1038F00009DB6346002B06DB019B002B03DB8A6898
:10390000D51A654504DA9221054B064A0648D7E7E1
:10391000FEBDC046C93F01000D7501007F41010099
:10392000F3410100377601004F3C010070B50400FF
:103930008B6816008360CB680D00C3604C22103189
:1039400010300CF0A7FA20003422310060300CF067
:10395000A1FA6A6973689A4205D06021034B044A50
:1039600004480CF013FA200070BDC04665770100D2
:10397000F1770100777C0100F7B50E0001680500C2
:10398000081C140009F014FB0023002801D00123B7
:103990005B4231680193081C09F00AFB00270028EC
:1039A00001D001277F4231002800A0470021041CDC
:1039B000381C09F0FDFA002800D034680021019875
:1039C00009F0F6FA002800D02C68201CFEBD00008B
:1039D000F7B503275F430193BF180B68BF00DF19DA
:1039E000089B04000D000760436009990830160029
:1039F000FEF764FF002F0BD0089B002B02DB099B16
:103A0000012B05D0B021174B174A18480CF0BEF90E
:103A10002000342229000C300CF03CFA019B266473
:103A2000002B04D08521124B124A1348EEE70323E2
:103A3000A364099B012B04D09021104B104A11481C
:103A4000E4E7002E07DB089B002B04DB6B68089A79
:103A50009B1AB34203DA92210B4B094AEFE720008D
:103A6000FEBDC046C93F0100EB7C01007F41010063
:103A7000E83701008D6501005B380100F265010047
:103A8000357E01004F3C0100F341010010B50229D1
:103A900001D8032A06D91221044B054A0548FF31F3
:103AA0000CF074F98161C26110BDC046012B0100A8
:103AB000837F0100852A0100436889001B685A58EA
:103AC00003681B685A5070470CC870B515685A686F
:103AD0008C001059996809F009FF285170BD00B594
:103AE0000A688DB005928A6804AB06920268099351
:103AF000029201AB02AA0B90002108A808920A9337
:103B0000FFF7E2FF08A80121FFF7DEFF022108A866
:103B1000FFF7DAFF0DB000BD0CC870B515685A6824
:103B20008C001059996809F017FD285170BDF0B547
:103B30000E688F680C0049688DB00500081C09F0FC
:103B4000D5FE391C0190381C09F0D0FE011C0198EB
:103B500009F066FB311C071C301C09F0C7FE011C74
:103B6000381C09F05DFB0021061C09F03BFA002817
:103B70001BD0301C08F0A2FF04AB03AA0021069062
:103B8000099308A802AB08920A93059403950B9534
:103B9000FFF7C2FF012108A8FFF7BEFF022108A816
:103BA000FFF7BAFF28000DB0F0BD2B0007CC07C30C
:103BB000F8E743688A001B68C900D25803681B688D
:103BC000CA507047F0B5836804000A0006688FB0D9
:103BD000032B0FD1C16843685B180021816001315C
:103BE0004360C1608B4205DD214B224A5B31224894
:103BF0000CF0CCF8A168002903DD5F211F4B1D4AA2
:103C0000F5E7E568012D03D061211D4B194AEEE768
:103C100060684B001B189B00F31808AF08930D95C4
:103C2000BE60F8603961012801D8002904D09221D2
:103C3000144B154A1548DBE7029302AB049301AB22
:103C400005936B46126804A8069301920797FFF745
:103C5000B0FF290004A8FFF7ACFF04A80221FFF77A
:103C6000A8FF2000A3680333A3600FB0F0BDC046D7
:103C7000178001007A800100E939010068810100A4
:103C8000D3810100F3410100F48101004F3C0100A8
:103C9000F0B58B6885B002930A684368019393423C
:103CA00003D187684B689F4205D00F4B0F4A1049DC
:103CB00010480CF06BF8002503680393BD4210DA3E
:103CC0000C2400266C43039B1C19019B9E4206DAC0
:103CD0002068029909F00AFE013601C4F5E70135B2
:103CE000ECE705B0F0BDC046CD4E0100FD820100FD
:103CF000F2020000515001001FB5426883680400C1
:103D0000019202930391002A01DB002B05DA47217F
:103D1000054B064A06480CF039F86A4601A9FFF738
:103D2000B7FF200004B010BDAF2E01005184010088
:103D30003F30010003688A0041681B6809689B18CE
:103D4000891808681A6818600A60704703688A0052
:103D500041681B6809689B18891808681A68186008
:103D60000A607047F0B58B6885B002930A684368B3
:103D70000193934203D187684B689F4205D00F4B54
:103D80000F4A104910480CF001F80025036803930E
:103D9000BD4210DA0C2400266C43039B1C19019BC6
:103DA0009E4206DA2068029909F0A0FD013601C49E
:103DB000F5E70135ECE705B0F0BDC046CD4E01009A
:103DC00047850100F202000051500100F7B50B6970
:103DD000866801938B69CF689E4205D00B4B0C4AD5
:103DE0000C490D480BF0D2FF00240568B4420CDAF0
:103DF000019AA300D158381C09F078FD011C2868ED
:103E000009F00EFA013401C5F0E7F7BDCD4E01000F
:103E1000A4860100F2020000515001000CC870B5E8
:103E200015685A688C001059996809F095FB28515B
:103E300070BD0000F8B54D68836904000F688E6896
:103E40009D4202D1C3699E4204D032002900200065
:103E5000FFF71CFEA3699D4204D1E269002375436C
:103E6000964205D0064B074A074908480BF08EFFDB
:103E70009D4204DD9A00B9580133A150F8E7F8BD1E
:103E8000D0880100FF880100FD02000051500100B0
:103E900003688A0041681B6809689B1889180868CC
:103EA0001A6818600A607047F7B50B684668019396
:103EB0008B6C0F6DB34206D006210B4B0B4A0C489E
:103EC000FF310BF063FF002403680093B44209DA6A
:103ED000019BA5005859391C09F03EFB009B013499
:103EE0005851F3E7F7BDC046F9890100628A010025
:103EF000408B0100F0B51C0005684368AFB09C46DC
:103F00000091013B291D170006910793002B05DA4C
:103F1000B021354B354A36480BF038FF09AB46C85F
:103F200046C346C846C346C846C346C846C301231F
:103F300015930233179363460026012B03D006A87E
:103F4000FFF74AFB061C8021301C09042D6809F08C
:103F50003FF8002807D0002300983B602560FFF75A
:103F600065FB2FB0F0BD291C281C09F0BFFC311CDB
:103F700009F056F908F0A2FD0021061C281C09F0E2
:103F80003BF8002827D126602168281C09F0C8FDCD
:103F900002AB01220799029003A8FFF70BFA48220F
:103FA00006A918A80BF076FF059A039B01922C92A4
:103FB000079A2A939A4212D103AA009818A9FFF7E8
:103FC00073FF2468291C201C09F0AAFD211C09F09C
:103FD000C3FA3860C5E780231B06F618D3E77421BF
:103FE000044B054A054897E7C93F0100B68B01001D
:103FF0007F410100BA300100F88C01003334010028
:104000005200521870B594000CC815685A68D968E7
:10401000105909F0A1FA285170BD0000F0B50B68E5
:104020008DB00893CE694B6A07AD04000F6AEB6050
:10403000022E01D1022F0DD039003000FEF7AEF96B
:10404000022E01D1022F05D0114B124A12491348FA
:104050000BF09CFE002202AB1100039303A801ABFE
:104060000593029404950694FFF7CAFF03A8002263
:104070000121FFF7C5FF03A801220021FFF7C0FFC0
:10408000012203A81100FFF7BBFF0DB0F0BDC04631
:10409000D0880100F78F0100FD020000515001009F
:1040A00030B50C004168630009689B189B005D589F
:1040B00003215143036809191B688900CD5030BDA5
:1040C00000B50B6889B0984206D1D921174B184A20
:1040D000184849000BF05AFE0022029303AB0493E8
:1040E00002AB110003900593079001AB04A806935F
:1040F000FFF7D6FF04A800220121FFF7D1FF04A893
:1041000000220221FFF7CCFF04A801220021FFF7C3
:10411000C7FF012204A81100FFF7C2FF01220221FC
:1041200004A8FFF7BDFF09B000BDC046CD91010056
:10413000E092010020940100436889001B685A58EE
:1041400003681B685A50704710B5037A0400002BAF
:1041500002D00068FEF7D0F9200010BD0300002156
:10416000421CFF3202C39342FCD17047F0B58BB0C2
:104170001F0004911199129B194305D0354B364A03
:10418000364937480BF002FE0320109B0D00DB1769
:10419000034010981B18F843C01738409B109B0031
:1041A0000390800000930990009B8B423BDD546894
:1041B00000232000484380000290481C6043800098
:1041C0000890881C604380000790C81C4443A000EE
:1041D0000690029C106801930619049CA800201800
:1041E000019B9F4216DD3368089C0360029BF31A13
:1041F0009C461B59079C436063461B59069C836081
:10420000059363461B590436C360019B103001338C
:104210000193E5E7099B0431ED18C5E7039BED1811
:10422000009B01330093109B00998B420FDD546873
:1042300013684C430021A4001C19049BA800181803
:104240008F42EBDD8E00A35901318351F8E70BB0AB
:10425000F0BDC04696940100F19401005809000099
:1042600035960100F7B500910A98099C0443002097
:104270000500844215D1DC43E4170194089C844274
:104280001ADD00240099AE008E19A3420FDD576895
:10429000116867433F18BF007958A700F1510134F6
:1042A000F3E7064B064A074907480BF06FFD019CF0
:1042B00001301C402D19E1E7F7BDC046969401007E
:1042C000C29601003E080000359601000368F7B56C
:1042D0008E009E198368002E06D0002B04DA224B34
:1042E000224AB021224808E0002902DB42689142BC
:1042F00005DB78211F4B204A20480BF047FD826BDD
:10430000476B0192002F04D0002A02DA164B1C4A98
:10431000E7E7019A934209D10024002B22D00ADC5E
:104320009C21184B184A1948FF31E6E77421184BB5
:10433000184A1948E1E73168386809F0D7FA0125C9
:10434000041C019BAB420DD00C226A43AB00B15858
:10435000F85809F0CBFA011C201C08F061FF013568
:10436000041CEEE7201CFEBDC93F01003A98010085
:104370007F410100D33A0100779901004F3C0100D1
:104380008E9A0100664A0100D19E0100274C01006F
:10439000BA300100BB9B01003334010070B50C0042
:1043A0009AB00500342201A80BF074FD22000EAB78
:1043B000343243CA43C343CA43C312681A60019BE1
:1043C0006E6815930E9B1793A36819936368B342A5
:1043D00006D00621094B0A4A0A48FF310BF0D6FCE9
:1043E00000242D68B44207DA210001A8FFF76EFF10
:1043F000A300E8500134F5E71AB070BDF989010057
:10440000FDA00100408B0100F7B507684568002F4B
:1044100007D0002D05DA234B234AB02123480BF0A7
:10442000B5FC03264E43C369B6009E19036A002EED
:1044300004D0002B02DA1B4B1D4AEEE7002902DBF9
:10444000426A914204DB78211A4B1B4A1B48E6E77B
:104450009D4209D10024002D21D00ADC9C21184B5B
:10446000184A1948FF31DAE77421184B184A1948DD
:10447000D5E73968306809F039FAAB000025041C2B
:104480000193019B04359D4209D07959705909F077
:104490002DFA011C201C08F0C3FE041CF1E7201CAF
:1044A000FEBDC046C93F0100AFA101007F41010030
:1044B000F5A20100D33A010031A401004F3C0100F4
:1044C000664A01008DA80100274C0100BA300100A6
:1044D00047A5010033340100F0B59BB001AD0A00DF
:1044E0002B000C00060083CA83C383CA83C3210048
:1044F00012681C311A6008A834220BF0CBFC019B17
:10450000B7682B65089BAB6563682B66636ABB4223
:1045100006D00621094B0A4A0A48FF310BF036FC47
:1045200000243668BC4207DA21002800FFF76CFF40
:10453000A300F0500134F5E71BB0F0BDF98901008C
:10454000D1AA0100408B0100F8B504000E0015004F
:10455000032A01D8002906DA1221154B154A1648FC
:10456000FF310BF013FC002909D0002A07D01100FD
:10457000124808F0E7FB864201DDFDF7B7FF370080
:10458000A36862686F4353439F420ED02068FDF7D3
:10459000B3FF002F07DD8023DB059F4201DBFDF722
:1045A000A5FFFDF7B1FF002323606660A560F8BD9D
:1045B000012B010083AB0100852A0100FFFFFF7F73
:1045C000436870B560C904009D4203D183689E4270
:1045D00000D170BD320029002000FFF7B5FF6368ED
:1045E0009D4202D1A3689E42F3D0034B034A044983
:1045F00004480BF0CBFBC046D088010018AC01008A
:10460000FD02000051500100F7B507684568002F12
:1046100007D0002D05DA234B234AB02123480BF0A5
:10462000B5FB03264E43036BB6009E19436B002E69
:1046300004D0002B02DA1B4B1D4AEEE7002902DBF7
:10464000826B914204DB78211A4B1B4A1B48E6E738
:104650009D4209D10024002D21D00ADC9C21184B59
:10466000184A1948FF31DAE77421184B184A1948DB
:10467000D5E73968306809F039F9AB000025041C2A
:104680000193019B04359D4209D07959705909F075
:104690002DF9011C201C08F0C3FD041CF1E7201CAF
:1046A000FEBDC046C93F010057AD01007F4101007A
:1046B000B1AE0100D33A0100F6AF01004F3C01005A
:1046C000664A010095B40100274C0100BA30010090
:1046D00015B1010033340100F0B59FB06D460A00FA
:1046E0002B000C00060083CA83C383CA83C383CA1A
:1046F00083C383CA83C32100342230310CA80BF05A
:10470000C9FB009BB7686B660C9BEB6663686B67C5
:10471000A36BBB4206D00621094B0A4A0A48FF3167
:104720000BF034FB00243668BC4207DA2100280075
:10473000FFF76AFFA300F0500134F5E71FB0F0BDAA
:10474000F9890100F6B60100408B0100F0B51F00A9
:104750001368A9B008935368002200939B0001934B
:10476000FA230992019A05900D91DB019A4202D831
:104770000300073B09930C201421059B1822033BDF
:104780002393059B009D013B24932F9B019E5B017E
:104790002593009B2E9CDB001793009B5B010293EB
:1047A0005B422693009B43431993009B1B01069396
:1047B000009B4B431B93009B53431C931C235D4363
:1047C0001D95089DAD1B27952F9DAD001E952F9D16
:1047D000ED000C952F9D45432F981F9500010490E7
:1047E0002F980B9648432F99209051432F9A21914F
:1047F0005A43069B22921A93179B189300231693F1
:104800000E930E9B099A934200DA8EE01300002467
:10481000073303DB14000734E408E4002F9B2E99D0
:1048200063439A008A1807922F9A2500D3189A009A
:104830008A1809922F9AD3189A008A180A922F9AE6
:10484000D3189B00CB180B93019B089A6343D31892
:104850001293009B019A1B015B421993009B9B00E2
:104860005B42189363431393631C5A431492019A57
:10487000A31C5A431592019AE31C5A431692239B98
:104880009D4200DA44E12F9B2E9A6B439E009619BD
:104890002F9A0495D3182E9A9B00D3180393019B4B
:1048A000089A6B43D3180793009B019ADB005B4285
:1048B0000E93189B6B4309936B1C5A430A92049BFB
:1048C000249A934200DABCE1059B00249D4202DC5D
:1048D0005C1B640864002C192F9D2E9B6543AD0062
:1048E0005D19009B63430293059B9C4200DB16E22B
:1048F000029B089A9B00D318039300230026019380
:104900000D9B9E4200DBF9E17B6803997343B20083
:1049100089583A689B00985808F0E8FF011C0198F4
:1049200008F07EFC01360190EAE7279A0B9B94463B
:10493000634400250A930023159514951395129549
:10494000119510950F950793079B0D9A934267DA7F
:10495000079A7B6853433A689B009E580A9B301C19
:10496000196808F0C3FF011C0F9808F059FC0A9A57
:10497000169B94460B9A634499580F90301C0393EE
:1049800008F0B4FF011C109808F04AFC039B189A29
:1049900010909958301C08F0A9FF011C119808F0DC
:1049A0003FFC039B199A11909958301C08F09EFF08
:1049B000011C129808F034FC039B1A9A1290995823
:1049C000301C08F093FF011C139808F029FC039B8E
:1049D0001B9A13909958301C08F088FF011C1498FA
:1049E00008F01EFC039B1C9A14909958301C08F088
:1049F0007DFF011C159808F013FC039B1D9A159070
:104A00009958301C08F072FF011C281C08F008FCA3
:104A1000079B051C013307930A9B04330A9393E712
:104A20000F99309808F062FF011C206808F0F8FB2D
:104A300010992060309808F059FF1E9B011CE05827
:104A400008F0EEFB1E9B1199E050309808F04EFFE5
:104A50000C9B011CE05808F0E3FB0C9B1299E05002
:104A6000309808F043FF1F9B011CE05808F0D8FB6A
:104A70001F9B1399E050309808F038FF049B011CED
:104A8000E05808F0CDFB049B1499E050309808F0F2
:104A90002DFF209B011CE05808F0C2FB209B1599BC
:104AA000E050309808F022FF219B011CE05808F0EC
:104AB000B7FB219B291CE050309808F017FF229B80
:104AC000011CE05808F0ACFB269A229B9446E0506B
:104AD0000E9B029A08330E93259BE418169B6344A1
:104AE000944616930B9B63440B93189B6344189353
:104AF000199B634419931A9B63441A931B9B634449
:104B00001B931C9B63441C931D9B63441D9378E67D
:104B1000129B00240393002310940F940E9402938D
:104B2000029B0D9A93423BDA029A7B6853433A68A0
:104B30009B009E58039B301C196808F0D7FE011C8F
:104B40000E9808F06DFB039A139B9446149A6344E5
:104B500099580E90301C119308F0C8FE011C0F9854
:104B600008F05EFB119B159A0F909958301C08F0C5
:104B7000BDFE011C109808F053FB119B169A109073
:104B80009958301C08F0B2FE011C201C08F048FBAC
:104B9000029B041C01330293039B04330393BFE77E
:104BA0000E99309808F0A2FE079B011C186808F0C7
:104BB00037FB079B0F991860309808F097FE099B08
:104BC000011C186808F02CFB099B1099186030989C
:104BD00008F08CFE0A9B011C186808F021FB0A9B58
:104BE000211C1860309808F081FE0B9B011C18688E
:104BF00008F016FB049A0B9B94461860079B04353B
:104C000063440793099B634409930A9B069A634490
:104C10000A930B9B634494460B93199A129B63442B
:104C200094461293069A139B634494461393149BE1
:104C300063441493159B63441593169B6344169326
:104C40001DE6079B00240293002306940193019B19
:104C50000D9A934224DA019A7B6853433A689B0089
:104C60009B580B93029B0B98196808F03FFE011CA0
:104C7000069808F0D5FA029B099A06909B180A9AA2
:104C80000B98995808F032FE011C201C08F0C8FA55
:104C9000019B041C01330193029B04330293D6E76A
:104CA0000699309808F022FE011C306808F0B8FA26
:104CB000211C3060309808F019FE039B011C186815
:104CC00008F0AEFA0C9A039B94461860049B179A5E
:104CD000023304930C9BF618039B6344944603939E
:104CE0000E9A079B634494460793179A099B634463
:104CF000944609930A9B63440A93E0E5019930982E
:104D000008F0F4FD011C286808F08AFA009A1E9B3E
:104D100094462860ED18029B01346344E3E529B012
:104D2000F0BD03000021421CFF3202C39342FCD1BC
:104D300070470000F7B500910A98099C04430020D1
:104D40000500844215D1DC43E4170194089CA0427D
:104D50001ADA00240099AE008E199C420FDA5768C7
:104D6000116847433F19BF007958A700F15101343A
:104D7000F3E7064B064A074907480BF007F8019C82
:104D800001301C402D19E1E7F7BDC04696940100A3
:104D9000A8B70100DA08000035960100F8B5079EB3
:104DA000089D099C0A9F88008258090132605B189F
:104DB000186828605A686A609A68AA60DB68EB60C5
:104DC0002060316808F092FD2060011C386808F00E
:104DD00027FA386068682060316808F087FD0B9B0F
:104DE0002060011C186808F01BFA0B9B1860A8686B
:104DF0002060316808F07AFD0C9B2060011C186867
:104E000008F00EFA0C9B1860E8682060316808F022
:104E10006DFD0D9B2060011C186808F001FA0D9BC8
:104E20001860F8BDF0B5A9B0379D08902D01129516
:104E3000379D3198AD000C95850017952F9D0E007C
:104E40006843339D329940198000349C12180A92AD
:104E50000A01149222019A1813928A0016923A9A21
:104E600051430C19A4001B1915932F9B309A9342A0
:104E700000DBF5E1139B0D9300230993099B3A9AFC
:104E8000934200DB54E10023099919931A931B9371
:104E90001C931D931E931F93209373682F9859435F
:104EA0003268091889005118119109990D9F013133
:104EB0005943091889005118109109990A9D023126
:104EC00059430918890051180F91099903314B432F
:104ED0001B189B00D3180E9300230B930B9B369A41
:104EE000934200DBB9E01CAB07931BAB06931AABF4
:104EF000059319AB049323AB039324AB029321AB2B
:104F0000002401936B461C702A003B000898002186
:104F1000FFF744FF20AB07931FAB06931EAB05932F
:104F20001DAB049323AB039324AB029322AB0193F9
:104F30006B461C702A003B0008980121FFF72EFFEA
:104F40001CAB07931BAB06931AAB059319AB0493E9
:104F500023AB039324AB029321AB01936B461C70EC
:104F60002A003B0008980221FFF718FF20AB0793A7
:104F70001FAB06931EAB05931DAB049323AB0393AA
:104F800024AB029322AB01936B461C702A003B00BA
:104F900008980321FFF702FF1CAB07931BAB069396
:104FA0001AAB059319AB049323AB039324AB029381
:104FB00021AB01936B461C702A003B00089804212A
:104FC000FFF7ECFE20AB07931FAB06931EAB0593D8
:104FD0001DAB049323AB039324AB029322AB019349
:104FE0006B461C702A003B0008980521FFF7D6FE8F
:104FF0001CAB07931BAB06931AAB059319AB049339
:1050000023AB039324AB029321AB01936B461C703B
:105010002A003B0008980621FFF7C0FE20AB07934B
:105020001FAB06931EAB05931DAB049323AB0393F9
:1050300024AB029322AB01936B461C702A003B0009
:1050400007210898FFF7AAFE129BFF180C9BED188A
:10505000379A0B9B944663443FE71D99199808F0D3
:10506000DFF81E9919901A9808F0DAF81F991A902B
:105070001B9808F0D5F820991B901C9808F0D0F8E0
:10508000369B1C900B930B9B399A93421BDA1CABFB
:1050900007931BAB06931AAB059319AB049323AB91
:1050A000039324AB029321AB019300246B461C7045
:1050B0002A003B0000210898FFF770FE0B9B103779
:1050C00004350133DEE71A992E9808F00FFC109B87
:1050D000196808F0A5F81999041C2E9808F006FC28
:1050E000119B011C186808F09BF8119B1860109B1D
:1050F0002E981C601C9908F0F9FB0E9B196808F0AB
:105100008FF81B99041C2E9808F0F0FB0F9B011CD4
:10511000186808F085F80F9B18600E9B1C60099BAF
:10512000043309930D9B149A944663440D93A5E6AA
:10513000159B0E933A9B0993099B389A934200DB87
:1051400085E0099A7368002553432F9A0E9F9B1898
:1051500032689B00D3180F9300230A9C0B930B9B80
:10516000369A934247DA2168386808F0BFFB291C59
:1051700008F056F8051C6168786808F0B7FB291C30
:1051800008F04EF8051CA168B86808F0AFFB291CB0
:1051900008F046F8051CE168F86808F0A7FB291C30
:1051A00008F03EF8051C2169386908F09FFB291CAE
:1051B00008F036F8051C6169786908F097FB291C2E
:1051C00008F02EF8051CA169B86908F08FFB291CAE
:1051D00008F026F8051CE169F86908F087FB291C2E
:1051E00008F01EF8051C0C9BFF18E418379A0B9B5F
:1051F00094466344B2E7369B0D9300230B93399A90
:105200000D9B93420FDA0B9BE158F85808F06EFBA8
:10521000011C281C08F004F8051C0D9B01330D939C
:105220000B9B0433EAE72E99281C08F05FFB0F9BC9
:10523000011C186807F0F4FF169A0F9B944618603B
:10524000099B013309930E9B63440E9374E7179AED
:105250002F9B944601332F930A9B63440A9304E6E1
:1052600029B0F0BDF0B593B01C9D199C1A9F1D9EEE
:105270000F936B1C00D12500731C00D12600032363
:10528000F8171840C019801080000C9008200A9769
:1052900007270990079000201F9B0B9406931E9BE5
:1052A000BC430593189B019002931B9B08940093A9
:1052B00004960F9B039511A8FFF7B4FD13B0F0BD42
:1052C000930010B5CB18C2600360CB688160436166
:1052D000002A01DB9A4205DB7821034B034A04488C
:1052E0000AF054FD10BDC046D33A010020B90100B8
:1052F0004F3C0100F0B50500002491B0EB689B68BD
:105300009C4238DAA30003930C23002663430193E5
:10531000EB685B689E422CDA2B686F68019A1B6809
:1053200039009B1804A832000293FFF7C9FF182226
:1053300004A90AA80AF0AEFD039A3B699B18019ADA
:1053400004320192BA69944205DB78210B4B0C4A76
:105350000C480AF01BFD19680A9B0136186808F012
:10536000C5FA029B011C186808F0DAFB029B186062
:10537000CEE70134C2E711B0F0BDC046D33A010018
:1053800006BA01004F3C0100F0B50500002491B0C1
:10539000EB689B689C4238DAA30003930C23002639
:1053A00063430193EB685B689E422CDA2B686F685D
:1053B000019A1B6839009B1804A832000293FFF77A
:1053C0007FFF182204A90AA80AF064FD039A3B692A
:1053D0009B18019A043201927A69944205DB782184
:1053E0000B4B0C4A0C480AF0D1FC19680A9B013699
:1053F000186808F07BFA029B011C186808F090FB03
:10540000029B1860CEE70134C2E711B0F0BDC04680
:10541000D33A010011BB01004F3C0100F0B505007B
:10542000002491B0EB689B689C4238DAA300039398
:105430000C23002663430193EB685B689E422CDAE1
:105440002B686F68019A1B6839009B1804A832000A
:105450000293FFF735FF182204A90AA80AF01AFDE3
:10546000039A3B699B18019A04320192BA699442EB
:1054700005DB78210B4B0C4A0C480AF087FC1968B5
:105480000A9B0136186808F031FA029B011C186863
:1054900008F046FB029B1860CEE70134C2E711B06A
:1054A000F0BDC046D33A010031BC01004F3C0100C1
:1054B00070B51400836905694B439B18C2689B0053
:1054C0004A434168121992005859515808F00EFA8F
:1054D00070BD0000F0B5A3B00D000F920A930491C7
:1054E000814200DD04900F9B002B0AD0049B002B0F
:1054F00001DB002D11DAB0216B4B6C4A6C480AF0CD
:1055000045FC002D03DA6B4B6B4AA621F6E7049BA2
:10551000002B02DA674B694AF7E70A9BDB00159319
:105520002B9B5B0111932A9B05930A9B01335A0124
:105530009B00139300231E0012920F9A0E930B925E
:105540002B9A92001092049B9E4200DBA9E09F1BC5
:10555000072F00DD08277B1E06930B9B741C0D9301
:10556000059B07930993F3431693289B043B1793DA
:10557000169B1B199F4263DD069B002B41DD2C9B74
:10558000049A1B681493631E934204DB78214C4BEE
:105590004C4A4D48B3E70D9B069A0433AA1A94422D
:1055A00003DD9221494B4A4AF3E71C930A9B289A50
:1055B0001E93A300D31800221BA811001F9321954E
:1055C000FFF776FF01230C900893089B069A9342FD
:1055D0000CDA1A0000211BA8FFF76AFF011C0C98C7
:1055E00007F01EFE089B0C900133EDE714990C9810
:1055F00008F07CF9079B011C186807F011FE079B57
:1056000018602C9AA3001168179A0134D05808F03A
:105610006DF9099B011C186807F002FE109A099B9E
:10562000944618606344139A0993079B6344944615
:105630000793069B013B06930D9B63440D9397E7ED
:10564000A91BC91B00291BDD0E9AF3190F98D2184C
:105650009200821819920A9A9B001A92289A38008E
:10566000D3181B93299B19AA1C932C9B1B68069388
:1056700002932B9B0193059B00931BABFFF766F8EE
:10568000159A0E9B9446119A634494460E93129A6F
:10569000059B08366344944605930B9B63440B9328
:1056A00051E723B0F0BDC046C93F01003CBD010039
:1056B0007F41010056BE010063BE010062BF0100D0
:1056C000D33A010056C001004F3C0100F3410100F4
:1056D0006BC10100F0B5A1B006AF7B6003687961D2
:1056E000BB6043681031FB60836815003B611C237D
:1056F0004C22F8180AF0CEFB7B693E6AD9687B68B9
:10570000FC69186808F0F2F88023B861DB059E4256
:1057100001D3FCF7EBFE0023B1009C420FD18023A4
:105720009B0299422BD80A006B461632D208D2004F
:105730009B1A9D4627240F236C449C432300FB6146
:1057400080239B028B429B4124225B42BA183E621B
:1057500013701823FB180493012303932A68019301
:1057600000940292BA68F96838690233FFF7B2FE12
:105770001C23F818FEF7E8FCBD461BB0F0BDFCF793
:10578000C3FE000010B58B6E82680C00B4B093426B
:1057900006D006211A4B1B4A1B48FF310AF0F6FAC5
:1057A000002B04DA4721194B194A1A48F6E7002161
:1057B00002689B009B189A4201D002C2FBE7FE23BD
:1057C00001009B05342202A801930AF063FB21002B
:1057D000342260310FA80AF05DFB2100A3684C223F
:1057E0001E93E368103120A81F930AF053FB01AB0E
:1057F00002AA1CA90FA8FFF76DFF34B010BDC04668
:10580000F9890100CCC20100408B0100AF2E0100DC
:1058100093C301003F300100F0B5684C8B68A5448C
:105820000792426807000D00934207D182680492F4
:105830009A4203D14B680592934223DA3621604B9A
:10584000604A61480AF0A2FA8393069B342269A950
:1058500085A884930AF01EFB29AA81A956A8FEF701
:10586000B5FA029B013365E0220021003800FDF704
:1058700095FE210006000798FDF77AFE059B306033
:10588000013B0593059B5C1E00D593E0049B059AA4
:105890009E1A002EE8DD6B6822001B1B013B3900BD
:1058A00008A80293FDF74EFF0A9B08A99A1B0FA8B0
:1058B0003300FDF777FF21000798FDF759FE22001E
:1058C000290003901CA8FDF7A7FF1D9B029A1CA9A5
:1058D0009A1A01230193029B43A800930023FEF729
:1058E00077F84C2243A956A80AF0D4FA802212066F
:1058F0009446039B56AA6344190069A8FCF7CCFDA3
:105900000299AB686A689B1B521A009101962900A4
:1059100029A8FDF7B9FF342229A936A80AF0BAFA56
:1059200036AA69A981A8FEF701F881A90FA8FFF797
:1059300029FF01230293029A049B9B1A0393A3421B
:1059400092DD1A0021003800FDF728FE039A036853
:105950001100060038000693FDF720FE0699006846
:1059600007F0C4FF029B3060012B00D179E72200D1
:10597000390036A8FDF7E6FE029B36A95E1E389B6D
:1059800056A89A1B3300FDF70DFF3900039A43A870
:10599000FDF7D8FE459B43A99A1B69A83300FDF784
:1059A00001FF6B9B002B00DB4EE74721074B084AAA
:1059B000084847E7A7239B009D44F0BD64FDFFFF17
:1059C0007FC40100D2C401002CC60100AF2E01002B
:1059D000B0C601003F300100F0B5684C8B68A544AB
:1059E0000792426807000D00934207D18268049233
:1059F0009A4203D14B680592934223DA3621604BD9
:105A0000604A61480AF0C2F98393069B342269A96F
:105A100085A884930AF03EFA29AA81A956A8FEF720
:105A2000D5F9029B013365E0220021003800FDF723
:105A3000B5FD210006000798FDF79AFD059B306033
:105A4000013B0593059B5C1E00D593E0049B059AE2
:105A50009E1A002EE8DD6B6822001B1B013B3900FB
:105A600008A80293FDF76EFE0A9B08A99A1B0FA8CF
:105A70003300FDF797FE21000798FDF779FD22001E
:105A8000290003901CA8FDF7C7FE1D9B029A1CA9C4
:105A90009A1A01230193029B43A800930023FDF768
:105AA00097FF4C2243A956A80AF0F4F98022120667
:105AB0009446039B56AA6344190069A8FCF7ECFCC2
:105AC0000299AB686A689B1B521A009101962900E3
:105AD00029A8FDF7D9FE342229A936A80AF0DAF957
:105AE00036AA69A981A8FDF721FF81A90FA8FFF7B0
:105AF00049FE01230293029A049B9B1A0393A3423B
:105B000092DD1A0021003800FDF748FD039A036872
:105B10001100060038000693FDF740FD0699006865
:105B200007F0E4FE029B3060012B00D179E72200F0
:105B3000390036A8FDF706FE029B36A95E1E389B8B
:105B400056A89A1B3300FDF72DFE3900039A43A88F
:105B5000FDF7F8FD459B43A99A1B69A83300FDF7A3
:105B600021FE6B9B002B00DB4EE74721074B084AC9
:105B7000084847E7A7239B009D44F0BD64FDFFFF55
:105B80007FC40100A2C701002CC60100AF2E010096
:105B9000B0C601003F300100F0B50F00012189B00F
:105BA00000928E4A040010681D008D4B084207D1F8
:105BB0008020C00118608020000358609860116048
:105BC0005A681E689B6803920593012D68DD854B1A
:105BD0009E4208DC30005021103807F0B3F8082846
:105BE00003DA082001E0A02040002368834202DDA0
:105BF000072398432060039B981B2368190107F033
:105C000017F8009B06001B682900581901380193FA
:105C100007F098F8030074489E4222DC304004D517
:105C2000042301385B4218430130009B361A1E6082
:105C3000039B059A934231DA13002168039A694362
:105C4000981A890006F0F4FF3E68040070192900D4
:105C5000013807F077F8844219DA002C17D03C603D
:105C60001CE003331840061E04DA0420013E4042C3
:105C700006430136019A9E1B0796009B964200DA66
:105C800007AB1B680193019A009B1A60D0E73B00A9
:105C90000790864200DD07AB1B683B6009B0F0BD92
:105CA000009B3A681B68019301993B008A4200DA25
:105CB000009B1A68236807920293029923008A4284
:105CC00000DD07AB1B682F2BE8DD3300103B18000D
:105CD0005021049307F036F807239843051E00DC93
:105CE0000125029BAB4210DD1800290007F010F9D6
:105CF00003002800002907D00133681E401AD9008C
:105D000007F020F8C000281A20603B6824681800BB
:105D100060430193049B8000181AA1002301834271
:105D200002DD90202901C00306F082FF0490C0200C
:105D3000E100400306F07CFF049B0500984200DD73
:105D40001D0003239D43009B1868A8420FDD290016
:105D500007F0DEF80300002906D00133681A990025
:105D600006F0F0FF80002D1A009B1D6096E7029B55
:105D70009C4200D092E780236043019D8000DB00BD
:105D800098420CDD059B002B23D080231B029842F8
:105D90001FDC90239B009D4200DB1D00039E0C2115
:105DA0003000614306F044FF0400A84200DD2C00EF
:105DB000002C00D172E72100019807F0A9F8030038
:105DC000002900D14BE7601A591C06F0BBFF241ACA
:105DD00045E7C026019D7603E1E7C04608040020A0
:105DE0000C0400205F6400000300008010B5012A4D
:105DF00001D1032906D91221034B044A0448FF317B
:105E000009F0C4FFC16010BD012B010000C90100F1
:105E1000852A01000023F0B5C360CB6885B00293EA
:105E20004F690B6904000D000393002F03D001227A
:105E30003900FFF7DBFFE368002601939F4205D09E
:105E4000104B114A1149124809F0A0FF019B9E42D4
:105E500008DA039BB700D859029907F047FD0136CD
:105E6000E051F3E723004435103307CD07C323691E
:105E700020006362A3692462E3620123236305B007
:105E8000F0BDC046D088010093C90100FD020000AA
:105E900051500100F0B54668EDB005001C001068D7
:105EA00000910292012E16D1011CFE20AC688005E3
:105EB0005396549407F034FE5590002C04DA834B2B
:105EC000834A4721834815E028003AAA53A9FDF7E1
:105ED00049FF6DB0F0BD002107F06AF8019000287D
:105EE000F7D1AB6807940993002B05DAA6217A4B0A
:105EF0007A4A7B4809F04AFF2A68771E04320F92DB
:105F000010971193002F03DAB021764B764AF0E711
:105F10002A0012AB13CA13C313CA13C312681A6040
:105F200001231993019B009A1A9303231B9329AB16
:105F300013CA13C313CA13C313CA13C313CA13C395
:105F4000009B3AAC5B6829AA03932A93230043CAB7
:105F500043C343CA43C343CA43C343CA43C33422AC
:105F60000FA946A809F096FF039B9F4204D0602129
:105F70005E4B5F4A5F48BDE753AE330022003B975C
:105F800083CA83C383CA83C383CA83C383CA83C3C5
:105F9000342246A95FA809F07DFF31001CAA07A89A
:105FA000FEF79AFB019A29003000FDF759FB3100FA
:105FB00007A8FDF775F9019A29003000FDF750FB9D
:105FC000029B1A68099B002B02DA404B4A4A78E789
:105FD0003C93E2603EAB07AA23CA23C321003000F2
:105FE000FDF784F9029B00991B68012223603000B1
:105FF00023004968FDF7DEF9539B009A2A93B368A2
:106000009C462DABA1CAA1C3A1CAA1C3A1CAA1C369
:10601000A1CAA1C3009B539D58682DAA3EAB8542DF
:106020001BD12A983B901800A2CAA2C0A2CAA2C043
:10603000A2CAA2C0A2CAA2C02E9A07A800924BAAC6
:10604000A2C8A2C2109A0099099F4BA88A4209D0FF
:10605000B0212A4B2A4A2B484CE774212A4B2B4A61
:106060002B4847E7119DBD42F2D1614664683F92DB
:10607000549457AAF16092CB92C292CB92C292CB27
:1060800092C292CB92C24D9564AB16C816C3310032
:106090001CA8FFF7BFFE109B589A934203D1119B97
:1060A000669A934204D0154B1A4A1B491B4821E7B4
:1060B0000F9B0BA8059305AB0B931CAB0C9304AB88
:1060C0000D930FAB0E93FFF715F902E7AF2E01000A
:1060D00084CB01003F30010056BE01007ACC0100A4
:1060E0007F410100C93F010076CD010065770100C5
:1060F00094CE0100777C0100F0D00100CD4E01006C
:10610000A5D40100C7DA0100BA300100EBD10100CB
:106110003334010045DB0100F20200005150010060
:106120000300F0B53833B7B01C0009930600002314
:1061300004933100049A24A8FDF764F8249B58685E
:106140001A68011C9F68039207F0D0FB391C051CDC
:10615000381C07F0CBFB011C281C07F061F80399E1
:10616000051C081C07F0C2FB011C281C07F058F88E
:1061700006F0A4FC049BA06001C4012B00D09DE0AC
:10618000B46BF56B201C291C06F018FF002800D00A
:106190002C1CD021201C890507F0A8FB011C07F04E
:1061A000A5FBAE4907F0D8F9022373650023370039
:1061B000336500230B900C37039306930223039A55
:1061C0009B1A0893FB6A0593049B07930023079C83
:1061D0000A93089B9C4200DA32E1039A0A9B944698
:1061E00063441D0003239B1A0793736D022B12D186
:1061F000079807F073FE0B9907F078FB0599041CCC
:10620000081C07F073FB011C201C06F0EBFE0028A5
:1062100001D0039B7365039BFD619D4231D018AC97
:106220001A0031002000FCF7EDFF2A00310024A8FD
:10623000FCF7E8FF249B00210E93189B12A81093F3
:1062400010AB12930EAB13930DAB14931594FDF793
:106250001FFE012112A8FDF71BFE022112A8FDF767
:1062600017FE099BAD005B191968FA6A4035F9629F
:1062700075191A607B6B2A687A632B60069B013361
:1062800006933100039A12A818ACFCF7BBFF079BDA
:10629000039A200012A9FCF7D1FF3B000C33189A97
:1062A0000A93199B0432013B24922593002B0ADAAE
:1062B000B0216B4B6B4A6C4809F068FD012337E74E
:1062C000049B03937AE7220027AB23CA23C323CA84
:1062D00023C323CA23C323CA23C3032301252000C6
:1062E000359324A910AB0A9A3395FDF703FE039B5F
:1062F000109C1B01F450AC40EC40306D211C06F0AA
:106300005DFE002800D03465039B31000133059306
:10631000039B039AED1A079B0195009318A8059B10
:10632000FCF742FC3100039A12A8FCF76BFF089BB4
:10633000059A12A924A8FCF781FF3B000A9A28338A
:1063400024A918A8FFF7A6FD059B022B41D0F56BE9
:106350000021281C06F02CFE00283AD13B68291C9D
:106360005800400807F0F8F8FE218905041C06F0E3
:1063700057FF0390FE20211C800507F0D1FB011C74
:10638000039807F0B3FA0021041C06F017FE00285A
:1063900000D00024716C281C07F0DEF8011C07F007
:1063A000A5FA211C07F0A2FA304906F011FE0028D8
:1063B00035D00122310018A8FCF724FF0122089BE8
:1063C00018A924A8FCF73AFF24A8FCF7F9FD70648B
:1063D000F063059B0437022B00D071E700200121F8
:1063E000B36A306271628B4221D832009B00203246
:1063F000D3181C6834621860F36A8B4217D89B006C
:10640000D3181868726A70621A60069B0B4213D127
:10641000049B483633610123337037B0F0BD201C34
:1064200006F04CFB011CF06B07F060FAD0E7B021DE
:106430000F4B104A10483FE701235B420493E7E704
:1064400002243D6B0599281C079406F0CBFD00281B
:1064500000D1BEE6049B0595B9E6C0460000404069
:10646000C93F0100D2DD01007F410100F304B539CD
:1064700008DF01002DDF0100D9DF01000023F0B5A6
:106480009BB00E93CB684F6901930B6905000C001C
:1064900003920293002F04D0012239000BA8FFF7CA
:1064A000A5FC0E9B00260093BB4205D01E4B1F4A45
:1064B0001F49204809F06AFC009B9E420BDA029BB0
:1064C000B700D859019907F011FA1C2204AB9B18A8
:1064D000D8510136F0E722000FAB203243CA43C344
:1064E00043CA43C312681A600BAB16930F9B6269D1
:1064F0001793012319936B68934203D1636AAA68C7
:106500009A4203D00C4B0D4A0D49D2E72B6807A8DD
:10651000059305AB07930BAB0893039B0A9509936F
:10652000FEF732FF1BB0F0BDD088010057E001003C
:10653000FD02000051500100CD4E010038E2010083
:10654000F2020000F0B5D1B0039383680500170094
:106550001C0010680291012B0AD1011CFE2080054D
:1065600007F0DEFA011C2800FDF7C6FB51B0F0BDB4
:10657000002106F01DFD061EF8D16A68039B0A92F1
:106580000993002A05DAA621524B534A534809F0D1
:10659000FDFB2300013B290001930092012302002F
:1065A0001BA8FCF739FD1BA9342228A809F072FCAE
:1065B0001C9B029A9C4635AB13CA13C313CA13C360
:1065C00012681A60029A1D9B5268934204D060219F
:1065D000434B444A4448DAE70A9B9C4505D00621D0
:1065E000424B434A4348FF31D1E7634628A934224E
:1065F0003CA8299309F04EFC49AB35AA13CA13C332
:1066000013CA13C312683CA91A6009A813AAFDF79C
:10661000C5FE320029003CA8FCF794FE3CA909A85D
:10662000FCF74CFD320029003CA8FCF78BFE3968D2
:1066300009AA28A8FCF7DCFE28A93CA8FCF764FD01
:106640000CAD396813A809AAFCF7D2FE2B00029CF6
:1066500007CC07C307CC07C3226804AC1A6022002A
:10666000149B169E0293299317AB03CB03C21B788E
:10667000210013702CA8092209F00CFC29001C220F
:1066800030A8189F09F006FC1C9B0D9D9F4202D16B
:106690001D9B9D4204D0B021174B184A184876E73D
:1066A000299B2CA9092220003D933F962D9709F0A4
:1066B000F1FB2100092240A809F0ECFB30A91C22C3
:1066C00044A8319509F0E6FB08AA3CA91BA8FFF7EE
:1066D000D5FE4BE756BE0100C1E401007F41010039
:1066E00065770100BDE50100777C0100F9890100B3
:1066F000FDA00100408B0100CD4E0100ADE701007F
:10670000C7DA01000023F0B5C360CB6885B00293FF
:106710004F690B6904000D000393002F03D0012281
:106720003900FFF763FBE368002601939F4205D021
:10673000104B114A1149124809F028FB019B9E4257
:1067400008DA039BB700D859029907F0CFF8013651
:10675000E051F3E723003035103307CD07C3236939
:1067600020006362A3692462E3620123236305B00E
:10677000F0BDC046D0880100D0ED0100FD02000050
:1067800051500100F0B54568E1B006000C001F0053
:1067900010680492012D0AD1011CFE20800507F02B
:1067A000BFF9011C3000FDF7A7FA61B0F0BD002170
:1067B00006F0FEFB03900028F7D1B3680A970C930C
:1067C000002B05DAA621694B694A6A4809F0DEFA0E
:1067D000013D31000095012201931EA8039BFCF7A7
:1067E0001BFC22002BAB23CA23C323CA23C312687A
:1067F00038AD1A606368944605932C932B002BAA3E
:1068000083CA83C383CA83C362461EA91A603FA892
:10681000342209F03FFB1F9B0599209A8B4204D03C
:106820006021554B554A5648D0E70C9F974205D0FA
:106830000621544B544A5548FF31C7E71C22290012
:106840004CA8399309F026FB34223FA953A841975D
:1068500009F020FB12AA4CA90AA8FDF73DFE039AF5
:1068600031004CA8FCF7F2FD4CA90AA8FCF778FC13
:10687000039A31004CA8FCF7E9FD049B1A680C9BB5
:10688000002B04DA4721424B424A43489EE73A93A1
:106890000AA9EA603CA80C2209F0FCFA29004CA8DD
:1068A000FCF784FC049B61681B6801222B604CA8E8
:1068B0002B00FCF77FFD22004C9B4E9E139316ABE2
:1068C00083CA83C383CA83C312681A6063684C9AFD
:1068D0009A4215D1139B1C2216A93CA8399309F0A2
:1068E000D9FA0C220AA944A8179F09F0D3FA1F9BD2
:1068F0000C9CBB4209D0B021284B294A294865E7A6
:106900007421294B294A2A4860E7209A9442F2D1FF
:106910006A683CA94D9250A81C223D934F9609F0FD
:10692000B9FA0C2244A958A8469409F0B3FA4CA924
:106930002BA8FFF7E7FE1F9B519A934203D1209BA0
:106940005A9A934204D0154B1A4A1B491B483DE7FB
:106950001E9B0EA8089308AB0E932BAB0F9307ABAF
:1069600010931EAB1193FEF759FD1EE756BE0100B2
:10697000ADEF01007F41010065770100A9F0010042
:10698000777C0100F9890100D1AA0100408B010048
:10699000AF2E0100442F01003F300100CD4E010019
:1069A0005DF50100C7DA0100BA300100CBF2010049
:1069B000333401004EFB0100F2020000515001008F
:1069C000436810B51C6809234B4302689B0012689A
:1069D0009C5010BDFE2310B504008AB09B050293A5
:1069E00003680990049304AB069302AB079306A8CF
:1069F00001AB00210893FFF7E3FF06A80121FFF791
:106A0000DFFF06A80221FFF7DBFF06A80321FFF73F
:106A1000D7FF06A80421FFF7D3FF06A80521FFF73B
:106A2000CFFF06A80621FFF7CBFF06A80721FFF737
:106A3000C7FF20000AB010BDF0B5F1B008AF796310
:106A40007B616821B62379185B00CB1868211D682B
:106A50003F237918CB181B091B013865BB63F86508
:106A6000904200DDFA65B02368225B00BA18D318A3
:106A70001B68012B05D0AE21DA4BDB4ADB4809F05D
:106A800085F92B693A6D7B65AB68BB64934200DD89
:106A9000BA647B6DBA6C7B66934200DD7A667B6E6E
:106AA000072B01DD08237B667B6DBC6C7A6D5C4334
:106AB0007B6B53431E008023DB059C4201D3FBF715
:106AC00015FD00222B68BB65B96DA300914210D162
:106AD00080229202934200D9D7E01A00694616320A
:106AE000D208D2008A1A95462F220F216A448A437F
:106AF000BA6568201821381841184C608024A40217
:106B00009C429B4180205B420B72802338180260BC
:106B1000DB059E4201D3FBF7E9FC00226B68B00065
:106B2000FB64FB6C93420ED1A04200D9ADE00300A0
:106B30006A461633DB08DB00D31A9D462F220F234B
:106B40006A449A43FA64682124237918C91868337F
:106B5000FB181A6080239B0283429B415B420B72AD
:106B60004E60B86BFDF7FAFABB6B6822BB67102367
:106B7000BA18D018FFF72EFFA82268235200FB187E
:106B8000991809687B6E4B433B6139697B6E5B18D2
:106B90009B00FB606823FB189B181B6801339B005C
:106BA000BB606823FB189B181B689B007B60FB6D18
:106BB000002B00DC77E17A6D3B66934200DD3A669C
:106BC0003A6EFB6D68219B1AAA22791852008A1826
:106BD00012683B649B00D318BB67AC235B00CB18E7
:106BE0001B686821FB670023682410220820029399
:106BF00001937B6B791800933C198A183B6EF96CF2
:106C00002018FDF7B3FAA8235B00E3183A6C1B6861
:106C100053433B6213003A6A9B187A699B00D3186E
:106C20003B63FB613B6E7B643B6A7B623B6CFB635B
:106C30003A6CFB6B9B1ABB61BA693B6E934200DCFA
:106C4000D6E07C6E7A6C944200DD14007B6CF869AF
:106C50001B1BBB62BB6B1E003B6BFB620023A34292
:106C60001BDA2422F96A5A43BD6B0968013351517A
:106C70001A00A2420BD1F96ABA688A18FA627A68D5
:106C80008018320020321600E9E7FBF73DFC910046
:106C90000D00415801327151EBE7BB6B0025BB671A
:106CA0006821082310226C20FB6779180295019552
:106CB00000942300160038188A18B96DFDF7D2FA2F
:106CC000AE2068224000BA18FB6B121812689B00B5
:106CD000D318BB676822B223BA185B00D3181B68AD
:106CE000F438FB67BB69069507933A6E68230592F3
:106CF000B422FB18520004949918096838180968DE
:106D0000F9620391796B01940291811968200094D2
:106D1000FB6CBA6D3818FEF7A5FABD6A002D4ADD86
:106D2000FD6B7B6A2D1979695B199B00CB18BB67DA
:106D30006822A823BA185B00D3181B686822FB6777
:106D400000236C2002930193B96ABA1800912300C2
:106D5000B96D92193818FDF785FAAE206823400006
:106D6000FB1818180068AD0045196823B220FB18FD
:106D70004000181800230068BD67F867B8690693DB
:106D8000079068203B6EB422059368233818811958
:106D900068205200FB1804949B181B6838181B6865
:106DA000FB6203937B6B01940293BB6A0093FB6CC1
:106DB000BA6DFEF757FA7A6EFB6B94463A696344F4
:106DC0009446FB63FA687B6A634494467B623B6B40
:106DD0007A6E63443B63FB696344FB617B6C9B1A83
:106DE0007B6425E7BEFD0100C6FD010090FE0100A9
:106DF0003B6A7A699B00D318FC6DFB633B6DA34231
:106E00004CDDBB6C396DE3187B648B4200DD0B00FD
:106E10001B1B3B64FB6BA4001B19BB676822A823E8
:106E20000025BA18682168265B00D3180C201022B0
:106E30001B68BE19FB67029501953B6C791800939E
:106E40003B6E3A6030188A18B96DFDF70BFAAE2325
:106E50005B00F3181B6830001C19B2235B00F318A9
:106E60001B68BC67FB6701235B42059304936A338D
:106E7000FF3307950695F3181B681B683B63039364
:106E80007B6B02933B6E01933B6C00933968FB6C08
:106E9000BA6D7118FEF7E6F97C6CAFE7FB6D7A6DA1
:106EA0009B1AFB6583E668222423BA18D018FDF7E5
:106EB0004BF968221823BA18D018FDF745F9BD46DA
:106EC00069B0F0BDF0B51B680E6897B00D93B3685C
:106ED00015000993D369099A0B93736807000A9305
:106EE000934200DD0A9200230F931093099B0FAC8D
:106EF00011930B9B0EAA12930A9B11A913930B9B40
:106F000013A80E930123FEF747FE2369A2680B998D
:106F10005A436261E26809985343A3610DAB06933B
:106F20007B6807940593012304933B6801950393C1
:106F3000AB690A9A0293B36800933368FFF77CFD4C
:106F40000F98FBF7D9FA6068FBF7D6FA17B0F0BDD7
:106F5000002370B50C0086B00293009301930B6878
:106F6000050099686368DA690B00134302D068462C
:106F7000FDF7EAFA0021019A029B666803920493E6
:106F80000591002A01DB002B05DA4721124B134A39
:106F9000134808F0FBFE03A96846FDF711FB0199B1
:106FA000029B009A4B430599002B02DD02C2013B74
:106FB000FAE7FE239B05320021006846039303ABEA
:106FC000FFF780FF6946280003AAFCF733FF00980B
:106FD000FBF792FA06B070BDAF2E01000AFF010068
:106FE0003F300100F0B5EFB008AF39637B6160213D
:106FF000B62379185B00CB1860211D683F237918F0
:10700000CB181B091B01B864FB627865904200DD58
:107010007A65B02360225B00BA18D3181B68012B75
:1070200005D0AE21CE4BCF4ACF4808F0AFFE2B693A
:10703000BA6CFB64AB683B64934200DD3A64FB6C62
:107040003A6CFB65934200DDFA65FB6D072B01DDB1
:107050000823FB65FB6C3C6CFA6C5C433B6B534355
:107060001E008023DB059C4201D3FBF73FFA002280
:107070002B683B65396DA300914210D180229202AA
:10708000934200D9BEE01A0069461632D208D200F7
:107090008A1A95462F220F216A448A433A65602056
:1070A0001821381841184C608024A4029C429B414E
:1070B0005B420B728023BA67DB059E4201D3FBF76C
:1070C00015FA00226B68B0007B647B6C93420ED192
:1070D000A04200D996E003006A461633DB08DB00C5
:1070E000D31A9D462F220F236A449A437A64602163
:1070F00024237918C9186033FB181A6080239B0277
:1071000083429B415B420B724E60F86AFDF726F8A2
:10711000FB6A60223B671023BA18D018FFF75AFCAD
:10712000A82260235200FB1899180968FB6D4B4395
:107130003B613969FB6D5B189B00BB606023FB18EA
:107140009B181B689B00FB607B6D002B00DC71E1D2
:10715000FA6CBB65934200DDBA65BA6D7B6D602148
:107160009B1AAA22791852008A181268BB639B00E6
:10717000D3183B67AC235B00CB181B6860217B678F
:107180000023602410220820029301933B6B79189E
:1071900000933C198A18BB6D796C2018FCF7E6FF48
:1071A000A8235B00E318BA6B1B685343FB61130011
:1071B000FA699B187A699B00D3187B62BB6DFB63ED
:1071C000FB693B62BB6B7B63BA6B7B6B9B1ABB61DE
:1071D000BA69BB6D934200DCC8E0FC6DFA6B944267
:1071E00000DD14000022FB6BF96A1B1B786ABB628E
:1071F000A2420EDA01321300A34205D1FB6820310E
:10720000C018F5E7FBF780F99D00465901334E5150
:10721000F2E7FB6A00253B67602108231022642007
:107220007B6779180295019500948A182300396DBF
:107230003818FDF717F8AE2060224000BA187B6BB3
:10724000161836689B00F3183B676022B223BA1801
:107250005B00D618B42210213668053B7E67BE69F4
:1072600006950796BE6DFF3B5200FB1805960494E9
:107270009E183668FC38366838187E6003963E6B78
:107280000194029646186020009431007B6C3A6DA0
:107290003818FDF7E7FFBE6AAE424CDD7E6B602218
:1072A00035193E6A102173197E699B00F3183B67FC
:1072B000A82660237600FB189E19002364203668F8
:1072C000BA187E6702930193BE6A2300009656188F
:1072D00032003E183000396DFCF7C4FFAE20602349
:1072E0004000FB181E1860230830FB1818180023F4
:1072F000006836687867AD00B86975193D67079012
:10730000602010210693BB6DB422059360233818CA
:10731000411860205200FB1804949B181B68381811
:107320001B6803933B6B01940293BB6A00937B6CD5
:107330003A6DFDF797FFFA6D7B6B94463A696344AB
:1073400094467B63BA683B6A634494463B627B6ABB
:10735000FA6D63447B62FB6B9B1AFB6334E7C046A8
:10736000BEFD0100C6FD010090FE0100FB697A69C7
:107370009B00D3187C6DBB63BB6C9C4255DA3B6CA5
:10738000B96CE3181E008B4200DD0B001B1BFB6376
:10739000A3003B603A68BB6B0025D3183B676022B3
:1073A000A823BA18602160245B00D3180C20102297
:1073B0001B683C197B6702950195FB6B791800935C
:1073C0008A182018BB6D396DFCF74CFFAE235B00AB
:1073D000E3181B683A6860209C18B22360221021D1
:1073E000BA185B00D3181B6860227B67012338182A
:1073F000411860205B423C67059304936A33BA18D6
:10740000FF3307950695D3181B6838181B6834009E
:107410007B6303933B6B0293BB6D0193FB6B009308
:107420007B6C3A6DFDF71EFFA6E77B6DFA6C9B1A2D
:107430007B6589E660222423BA18D018FCF784FE05
:1074400060221823BA18D018FCF77EFEBD4667B03C
:10745000F0BDC046436810B51C6809234B43026861
:107460009B0012689C5010BDFE2310B504008AB02A
:107470009B05029303680990049304AB069302AB47
:10748000079306A801AB00210893FFF7E3FF06A8C6
:107490000121FFF7DFFF06A80221FFF7DBFF06A8A7
:1074A0000321FFF7D7FF06A80421FFF7D3FF06A8A3
:1074B0000521FFF7CFFF06A80621FFF7CBFF06A89F
:1074C0000721FFF7C7FF20000AB010BDF0B5EFB0ED
:1074D00008AFBA62BB616022B623BA185B00D3184A
:1074E00060221D683F23BA18D3181B09BA6A1B0112
:1074F000B963FB63B865904200DDBA65B0236022D2
:107500005B00BA18D3181B68012B05D0AE21CE4BF7
:10751000CE4ACF4808F03AFC2B69BA6DFB64AB68E1
:107520007B64934200DD7A64FB6C7A6C7B659342EA
:1075300000DD7A657B6D072B01DD08237B65FB6C25
:107540007C6CBE6B5C435E438023DB059C4201D3B5
:10755000FAF7CCFF00222B68BB64B96CA300914200
:1075600010D180229202934200D9C9E01A006946E4
:107570001632D208D2008A1A95462F220F216A4469
:107580008A43BA6460201821381841184C6080245E
:10759000A4029C429B415B420B728023BA67DB05CD
:1075A0009E4201D3FAF7A2FF00226B68B0003B6451
:1075B00093420ED1A04200D9A2E003006A461633DE
:1075C000DB08DB00D31A9D462F220F236A449A431F
:1075D0003A64602124237918C9186033FB181A60B3
:1075E00080239B0283429B415B424E600B72F86B8F
:1075F000FDF797FBFB6B60223B671023BA18D0188E
:10760000FFF732FFA82260230026FB1852009918CA
:1076100009687B6D4B439B00BB608B007B617B6C7F
:107620004B439B003B61BB6A9E4200DB74E1FA6CFA
:107630009B1BFB65934200DDFA65BB6D7E629E423B
:107640000ADAFB6DBA6DF318934205DD931BFB65F7
:107650001300FA6C9B1A7B62B3003B626022AA2380
:10766000BA185B00D3181B68B2009B183B676022F6
:10767000AC230024BA18602160255B00D3180820D1
:1076800010221B687E637B6702940194BB6B7918A0
:1076900000937D19FB6D8A182818396CFCF766FD7C
:1076A000BB6D9E4200DBD5E0FB6DBA693B63A8234E
:1076B0005B00EB181B683C6573439B009B18FB62E7
:1076C000FB60FB6D3A6D934200DCC3E03C6B7A6D6E
:1076D000944200DD14000021786BFD6BA14215DAA5
:1076E000FB6A8200D318FA6B9C468B00D318AB421E
:1076F00008D0624612681A607A6920339444F6E72B
:10770000FAF702FF013124350130E7E7FB6B002572
:107710003B6760210823102264207B67791802955B
:10772000019500948A182300B96C3818FDF702FB04
:107730007B6B60229B00FB61AE23BA185B00D01804
:107740000068FA6983183B67B22060234000FB1889
:107750001A18126860237A673A6D06950792FA6DD7
:10776000FB180592B4225200049499180968053850
:107770000968FF3879600391B96B381802911021BC
:1077800041186020019400943B6CBA6C3818FDF7E6
:1077900069FD3B6DAB4246DDF968FB698C4663448D
:1077A0003B676022A823BA185B00D318602210211F
:1077B00064201B68BA187B67029501953B6D5218CF
:1077C0000093B96C23003818FDF7B4FAAE23602299
:1077D0005B00BA18D318386A1B6810211B18B22036
:1077E00040003B6713181B68B4227B673B6D06950E
:1077F0000793FB6D053805936023FF38381841184F
:1078000060205200FB1804949B181B6838181B68F2
:10781000FB610393BB6B019402933B6D00933B6C44
:10782000BA6CFDF71FFD7A6D3B6D944663443B6572
:107830007B6B63447B633B6B9B1ABA683B639446E8
:10784000FB6A6344FB623CE7BEFD0100C6FD01002C
:1078500090FE0100BB6D35009E4200DD1D00BA693F
:10786000002494463B6A63443B65AC424EDA7B6C31
:10787000E3187B63AB4200DD2B001B1B3B633B6DBE
:1078800060223B67A823BA185B00D3181B686021ED
:107890007B670023602610220C20029301933B6B30
:1078A000BE19009379188A18FB6DB96C3018FDF772
:1078B00041FAAE235B00F3181B68A4001C19B22325
:1078C0005B00F3181B6810217B6700233C6707935C
:1078D0000693013B059304936A33FF33F3181B6847
:1078E00030001B687118FB620393BB6B0293FB6D46
:1078F00001933B6B00933B6CBA6CFDF7B3FC3A69A8
:107900003B6D944663447C6B3B65AEE7FA6C7B6AE7
:10791000944663441E0086E660222423BA18D018D9
:10792000FCF712FC60221823BA18D018FCF70CFCE4
:10793000BD4667B0F0BDC046F0B53724A9B0856933
:107940006C44240906001700C0692401002D0ADBDD
:10795000030032006B43002805DB0020002B08D019
:1079600001C2013BFAE74721154B164A164808F0B9
:107970000DFA02204A680B68A06089680130E06057
:10798000206120008C46FE212030890520602030B7
:1079900009916060B9681000624500DD6046079497
:1079A00009AC0694012405953D68049402340396BD
:1079B000029401950094FFF789FD29B0F0BDC046FF
:1079C000AF2E0100010002003F300100F0B5F1B020
:1079D00008AF7A63FB616822B623BA185B00D3183C
:1079E00068221D683F23BA18D3181B097A6B1B0144
:1079F00039647B643866904200DD3A66B0236822C1
:107A00005B00BA18D3181B68012B05D0AE21DE4BE2
:107A1000DE4ADF4808F0BAF92B693A6E7B65AB683D
:107A2000FB64934200DDFA647B6DFA6CFB65934264
:107A300000DDFA65FB6D072B01DD0823FB657B6D1F
:107A4000FC6C3E6C5C435E438023DB059C4201D3AF
:107A5000FAF74CFD00222B683B65396DA30091427B
:107A600010D180229202934200D9E2E01A006946C6
:107A70001632D208D2008A1A95462F220F216A4464
:107A80008A433A6568201821381841184C608024D0
:107A9000A4029C429B4180205B420B7280233818D9
:107AA0000260DB059E4201D3FAF720FD00226B68DD
:107AB000B000BB6493420ED1A04200D9B9E00300EC
:107AC0006A461633DB08DB00D31A9D462F220F23AC
:107AD0006A449A43BA64682124237918C918683320
