:1020000000800020FDA90000C5A90000E5A900008E
:1020100000000000000000000000000000000000C0
:10202000000000000000000000000000E5A9000022
:102030000000000000000000E5A9000051AA000017
:10204000E5A90000E5A90000E5A90000E5A9000058
:1020500089A90000E5A9000095960000E9A9000003
:10206000E5A90000D1A60000E5A90000E5A900004F
:102070000D9E0000E5A90000E1A60000E5A9000012
:10208000E5A90000E5A90000E5A90000E5A9000018
:1020900000000000E5A90000E5A90000E5A9000096
:1020A000E5A90000E5A90000E5A90000E5A90000F8
:1020B0000000000010B5064C2378002B07D1054B1B
:1020C000002B02D0044800E000BF0123237010BDA4
:1020D000D002002000000000C4280200044B10B50C
:1020E000002B03D00349044800E000BF10BDC046E8
:1020F00000000000D4020020C42802007047000045
:102100001423F0B595B000AFFC1801003822200070
:102110000DF0B8FF2F4B6D465A7818781202024323
:102120009878197900040243D878382300061043C0
:10213000220007F048F810223C23BA18D318187070
:10214000254BFC33D868002837D00022012690B0F8
:10215000694633009446FA603C60FC683A68A25CC9
:10216000BA6022000C0064447C60BC680132FA60F2
:10217000721C002C08D17C68B44623700123FE68D1
:10218000392E0DD01600E8E7BC680133DBB28C5560
:10219000FF2BF4D17C6894462370B21CFE3BEEE723
:1021A00064460B5503685B6898470B4B0021FC3372
:1021B000D86803681B689847AD46084C0D20217805
:1021C00008F042FE0123BD4622785340237015B02B
:1021D000F0BDC0463C000020F0020020EC020020D0
:1021E0000300F0B5FC33DB6889B0040000AF002BBE
:1021F0007BD02500FC35E86803681B6998470028F8
:1022000073DDE86803685B699847C0B2002862D153
:102210002B697B61002B02D16B69002B58D06B4678
:102220006A46BB60AB68FB610733DB08DB00D31A8F
:102230009D46FB696846002B35D00022631CFB607D
:102240001300F96999422FD9F968FE69C95CCD1864
:10225000AE4201D2012926D15D1C7D6085183D6109
:102260005D1CBD61BD69EE1AF6B2B1420AD90135F5
:10227000665DBD61B44665463E6935703500013521
:102280003D61EFE70025A94201D04D1EEDB27B680C
:1022900052195B19FF29D4D0F9699942D1D0002194
:1022A00081540132CDE7002225000023FC35AB60CC
:1022B00023707B69002B04D011009847BB689D46B2
:1022C00097E76B69002BF9D00100A8699847F5E7FB
:1022D000AB6023708DE7AB685A1CFF2A03D8E31864
:1022E000AA60587085E70123F3E7BD4609B0F0BD49
:1022F00010B50A2008F0F0FB0848FFF771FF084C02
:10230000200001F0A5FC00F021F9002805D02000F4
:1023100000F040F92000FFF7F3FE10BDF0020020AE
:102320000400002007480023020010B5FC3293602F
:10233000D3601361536193610349044A03700AF047
:10234000ADFC10BDF0020020FD20000000000020C8
:1023500070B501210D2008F047FD0E4B0D201978B6
:1023600008F072FD00F0C8F906F052FEE1210A4CB7
:10237000490220000AF0A8F9084D280009F0E2F906
:10238000002803D02800064908F014FE054BFC3352
:10239000DC6070BDEC0200207C09002024100020CD
:1023A000702B0100F002002070B504000D000068E1
:1023B00009680AF0FBFE002800D02C00206870BDE0
:1023C0007047000010B5022801D1022906D0122161
:1023D000034B044A0448FF310DF0D0FD10BDC04648
:1023E000012D0100902E0100852C0100122110B555
:1023F000024B034A0348FF310DF0C0FD012D0100DF
:10240000192F0100852C0100982110B5024B034AB9
:10241000034849000DF0B2FD802B0100A22F0100FE
:10242000852C0100122110B5024B034A0348FF31ED
:102430000DF0A4FD012D01001D300100852C0100CF
:10244000FE2200239205026043608360C360026144
:1024500043618361C36102627047000070B5002868
:1024600026D018221349144809F0C1F8134B1A005A
:1024700019001D00763214881A1DD26F843175350B
:102480000020095E2D789A661A0018006C321180BF
:102490001A005D3005701800883212685E301A67C5
:1024A00001220480986F1866D86F58668C331A70B2
:1024B00070BDC04694040020400900202004002084
:1024C00070B5566804001500002E05DA47210B4B45
:1024D0000B4A0C480DF052FDC16086604C22290069
:1024E00010300DF0CFFD6B689E4204D07421064B76
:1024F000064A0748EEE7200070BDC046AF30010035
:10250000443101003F320100BA320100F3320100D0
:1025100033360100012010B540420AF029FB10BDFE
:1025200010B5002803D0043800680DF0A1FD10BDDF
:10253000962110B5024B034A03480DF01FFDC0461B
:10254000AD360100F236010027370100014B8C3314
:102550001878704720040020436810B58B618368A9
:102560000C00CB61C3680B6203694B6243698B62E9
:102570008369CB62C369006A0B630DF0DFFB002245
:10258000034B0CF053F90AF059FE606310BDC046CE
:1025900080842E41F7B5444C019023005E331D88A2
:1025A00028000DF09BFB0022404B0CF03FF923006C
:1025B0000F00060060330020185E0BF087FD3C49D9
:1025C0000BF0C2F80DF0E0FB32003B000CF034FDE4
:1025D0000DF022FC2300E06362330020185E0BF054
:1025E00075FD33490BF0B0F80DF0CEFB32003B0027
:1025F0000CF022FD0DF010FC230020646433002059
:10260000185E0BF063FD2A490BF09EF80DF0BCFB41
:1026100032003B000CF010FD0DF0FEFB2300606467
:1026200066330020185E0BF051FD21490BF08CF849
:10263000011C0AF0EDFE2300A06468330020185E40
:102640000BF044FD1A490BF07FF8011C0AF0E0FE84
:102650002300E0646A330020185E0BF037FD144954
:102660000BF072F8011C0AF0D3FE230020656C33D6
:102670000020185E0BF02AFD0D490BF065F8011CD7
:102680000AF0C6FE22002300658760655D3212787D
:1026900039331A70236F0199A3650648FFF75CFF71
:1026A00000238C342370F7BD2004002000408F40AD
:1026B00000FEFF465804002000234360033383607C
:1026C000023BC36013681A6801600A605A688A6036
:1026D0009B680B617047000010B5030705D06D21A2
:1026E000024B034A03480DF049FC10BD9F3701001F
:1026F0008E3801001A390100F0B5012127258FB06D
:1027000002AB2822ED1849423F4B03A807F094FE84
:1027100002AB3E4C1B8902AA2385059B2D09E3626F
:10272000069B0C21019323632300127D3433384828
:102730001A702D0107F0C5FE00280AD1354C200083
:1027400009F000F8002803D02000334908F026FCE7
:10275000FEE72800FE27FFF7BFFF00262000BF0589
:10276000102229002E606E60AE60EF6090300DF098
:1027700089FC2100002322005D310B7021003932D9
:102780001370264A5E3162870A80254AA365626615
:1027900022002366A3662367E66326646664A76453
:1027A000E664266566658C3423701E4C6C3213809B
:1027B000082120000422033307F08CFB20001A4973
:1027C00007F044FD00280AD1124C200008F0BAFF9F
:1027D000002803D02000154908F0ECFBFEE720009C
:1027E000062107F060FC2000114907F08DFC200055
:1027F000104907F04FFB1821200007F098FD20003A
:1028000007F0CCFC0FB0F0BD0C0700202004002026
:1028100044040020241000209339010010270000F8
:102820000000FF7F40090020C0CA8936D23901006C
:1028300020A107005D24000010B50400080011006D
:10284000FFF7C0FDFE2300229B052000236062608D
:10285000A260E36010BD020040320300107800283F
:1028600001D141331878704710B5012905D0852171
:10287000024B034A03480DF081FB10BDE83901000B
:10288000F63901005B3A01000A6D10B5CB6C032AE2
:1028900001D1022B01D0FFF7C5FD0B0042331B789D
:1028A000002B00D010BD43310B78002BFAD0FFF77E
:1028B000ABFDF8B50D008E684F680400390030009C
:1028C000FFF780FD2D68022E01D1022F03D03900C1
:1028D0003000FFF777FD2B6820002360EB68636012
:1028E0000023A3602B69E360F8BD0000836810B586
:1028F0000268022B0FD1C46843681B19002484604E
:1029000001344360C460A34205DD48210D4B0E4AEB
:102910000E480DF033FB8368012B03DD4B210C4B7C
:10292000094AF5E7C468012C03D04D21094B064A3A
:10293000EEE75C1C846044685B0009681B199B001F
:10294000995010BDD63A0100253B0100E93B01003A
:10295000663C0100BD3C0100D300CB1810B50360FC
:102960000023C3600233816002614361012A05D9FB
:102970007821034B034A04480DF000FB10BDC0460C
:10298000D33C01007A3D01004F3E0100F0B5050047
:1029900016001C0091B00A00010004A8FFF7DCFF3C
:1029A000320029000AA8FFF7D7FF6368FE210093D1
:1029B000009A8023944624681B0663448905201CE2
:1029C00002930AF0EDFB002805D0002100980AF0E0
:1029D000E7FB002841D10A9F049B3D680298291C0F
:1029E0001E6801930BF07AF8311C0390201C0BF049
:1029F00075F8011C03980AF00BFD019B291C186057
:102A0000201C0BF06BF8311C051C00980BF066F8CD
:102A1000011C281C0AF0FCFC019B38605D68201C2E
:102A2000291C0BF05BF87E680390311C02980BF0B8
:102A300055F8011C03980AF0EBFC019B291C586017
:102A400000980BF04BF8311C051C201C0BF046F8CD
:102A5000011C281C0AF0DCFC786011B0F0BD0000FD
:102A600010B50324230053439B00CB1803600023BD
:102A70008160C36002614461022A05D97821034B59
:102A8000034A04480DF07AFA10BDC046D33C010059
:102A9000C13E01004F3E010070B5002A02DBCB6849
:102AA000934205DCE721154B154A16480DF066FAEE
:102AB0000B69541CE41803230D68191B53431B199D
:102AC0009B00EB1803604160002B06D0002904DA5C
:102AD000B0210D4B0D4A0E48E8E70323C5600461A1
:102AE00042618361002C03DB002901DB012A04DD44
:102AF0009221084B084A0948D8E770BD963F01006B
:102B0000AD3F010042410100C94101007342010093
:102B10007F430100F3430100824401004F3E010066
:102B2000436810B5002B05DA4721074B074A0848D0
:102B30000DF024FA002102689B009B18934201D0FB
:102B400002C2FBE710BDC046AF3001009245010054
:102B50003F320100F8B503273C005C43A418069EF1
:102B6000079DA4000C19046046608560002E01DBFF
:102B7000002D05DAB0210D4B0D4A0E480DF0FEF97F
:102B8000C160026143618761002A08DBBE1B964277
:102B900005DB002B03DB0222551B9D4204DA922148
:102BA000054B064A0648E9E7F8BDC046C9410100A1
:102BB000874601007F430100F3430100884701007D
:102BC0004F3E0100F8B503273C005C43A418069D66
:102BD000079EA4000C19046045608660002D01DB8F
:102BE000002E05DAB0210C4B0C4A0D480DF0C6F949
:102BF000C160026143618761002A07DB7D1B95424A
:102C000004DB002B02DBBE1B9E4204DA9221054B43
:102C1000054A0648EAE7F8BDC941010093480100AA
:102C20007F430100F34301008B4901004F3E010047
:102C30009300CB1810B5036000230361013381605A
:102C4000C26043619A4205D97821034B034A044884
:102C50000DF094F910BDC046D33C01008D4A01002F
:102C60004F3E0100F0B50400160091B01D000A00AF
:102C7000010004A8FFF7DCFF210032000AA8FFF7DB
:102C8000D7FFFE212C686B688905201C00930AF091
:102C900087FA002805D0002100980AF081FA002860
:102CA00045D10A9F00983B68049D191C01930AF0C6
:102CB00015FF2E680290311C201C0AF00FFF011C2A
:102CC00002980AF0A5FB802212069446009B286019
:102CD00063440293311C02980AF000FF0199061C1C
:102CE000201C0AF0FBFE011C301C0AF091FB38602E
:102CF000AB68201C191C01930AF0F0FEBE6803901B
:102D0000311C00980AF0EAFE011C03980AF080FBCF
:102D10000299A86001980AF0E1FE311C051C201CF4
:102D20000AF0DCFE011C281C0AF072FBB86011B02E
:102D3000F0BD0000F0B52F240D00070093B0029302
:102D400004ABE4182409240120000092FFF7C4FC1E
:102D50006B000393EB189B00DB5905A9236000234C
:102D6000099301330A930B93009B08A85B00ED18AD
:102D7000AD000193EB59189E05930894FFF7B6FD3B
:102D8000009A039B944663449B00DB5906A9069373
:102D9000FFF7ACFD0099019B8C4663449A00D35920
:102DA00007A90793FFF7A2FD099B00930B9B0193D3
:102DB000019A009B94466344022B03D10A9B009323
:102DC000022B05D07A21654B654A66480DF0D6F88E
:102DD000A16860680AF09CFF8021051C4000400843
:102DE00009040AF0E3F9002843D000230993FE23E5
:102DF0009B05089301220021200008ABFFF732FF5A
:102E0000A36858004008011C0AF002FB8021090455
:102E1000051C0AF0CBF9002849D0FE239B0533603E
:102E20000023736080223568089F73681206391C7E
:102E3000281C9C180AF052FE099E0090311C201C90
:102E40000AF04CFE011C00980AF062FF029B391C3C
:102E50001860201C0AF042FE311C041C281C0AF0D9
:102E60003DFE011C201C0AF0D3FA029B586013B0EF
:102E7000F0BDE16820680AF0CBFA291C0AF064FC76
:102E8000011C051C0AF02AFEFE2189050AF0C0FA81
:102E900009F00CFF011C071CFE2080050AF054FC01
:102EA000391C0990281C0AF04FFC0890A2E7E16841
:102EB00020680AF02DFF291C0AF046FC011C051CA5
:102EC0000AF00CFEFE2189050AF0A2FA09F0EEFED6
:102ED0000021071C281C0AF07DF9391C002836D077
:102EE000281C0AF095FA011CFE2080050AF02CFC33
:102EF0000021051C0AF06EF900282CD11A4B291C60
:102F0000281C00930AF0EAFDFE2189050AF080FAE8
:102F100009F0CCFE011CFE2080050AF015FC071C00
:102F2000A068410049080AF00FFC8022120694466E
:102F3000009B634419000AF0D1FD690049080AF0BA
:102F4000CDFD391C0AF0CAFD376070606AE7281CA5
:102F50000AF0DEFEC7E7FE239B05D0E7634B0100C6
:102F6000014C0100E93B0100000080BFF8B5456855
:102F70000024002D1CD006DC9C210F4B0F4A10486A
:102F8000FF310CF0FBFF0768AD003E0001CE7D195C
:102F9000011C0AF0A3FD041CB54209D001CE011C9E
:102FA0000AF09CFD011C201C0AF032FA041CF3E715
:102FB000201C09F07BFEF8BD664C0100AA4C010004
:102FC000274E01009C46F7B5099B032401936346F5
:102FD0005C43089B0F68A418A4004360019B3C1944
:102FE00004608360002C0BD0089B002B02DB019B4C
:102FF000002B05DAB021164B164A17480CF0BEFF1D
:1030000004000F000C3468CF68C468CF68C43F6800
:103010006346276003248262C3620463002A10DBD4
:10302000089B002B0DDB4C68E61A964209DB6346D1
:10303000002B06DB019B002B03DB8A68D51A654554
:1030400004DA9221054B064A0648D7E7FEBDC04682
:10305000C9410100994E01007F430100F343010083
:10306000AE4F01004F3E0100F7B50B684768019372
:103070004B6804009F4205D00A4B0B4A0B490C4891
:103080000CF07CFF00250668BD4208DA019AAB000F
:10309000D15830680AF0BCF9013501C6F4E72000C8
:1030A000FEBDC046CD50010002510100F2020000F9
:1030B00051520100F7B5CB68476800930B690400D3
:1030C00001934B699F4205D00C4B0D4A0D490E48A8
:1030D0000CF054FF00250668BD420CDA019AAB00E3
:1030E000D15800980AF0FAFC011C30680AF010FE72
:1030F000013501C6F0E72000FEBDC046CD500100FD
:10310000CD520100F202000051520100F7B50B68E8
:10311000876801938B6804009F4205D00A4B0B4AD5
:103120000B490C480CF02AFF00250668BD4209DA5D
:103130000C236B43019A3068D1580AF069F90135C4
:1031400001C6F3E72000FEBDCD500100E1540100AF
:10315000F202000051520100F7B5CB688768009376
:103160000B69040001938B699F4205D00C4B0D4AFB
:103170000D490E480CF002FF00260568BE420DDA2C
:10318000019AB300D15800980AF0A8FC011C2868E5
:103190000AF0BEFD013628600C35EFE72000FEBDC9
:1031A000CD50010031560100F202000051520100E1
:1031B00010B50324230053439B00CB180360002366
:1031C0008160C36002614461012A05D97821034B03
:1031D000034A04480CF0D2FE10BDC046D33C0100A7
:1031E000465801004F3E0100F8B50D6894002C19B7
:1031F00004604360002C07D0002B05DAB0210D4B92
:103200000D4A0E480CF0BAFE04000C34E0C9E0C4CC
:10321000E0C9E0C403214262C162002A04DB002B42
:1032200002DBCB1A9A4204DD9221054B054A06487F
:10323000E8E7F8BDC9410100245901007F430100BE
:10324000F34301003E5A01004F3E0100F7B50B6801
:10325000876801938B6804009F4205D00A4B0B4A94
:103260000B490C480CF08AFE00250668BD4209DABD
:103270000C236B43019A3068D1580AF0C9F8013524
:1032800001C6F3E72000FEBDCD500100625B0100E6
:10329000F202000051520100F7B5CB688768009335
:1032A0000B69040001938B699F4205D00C4B0D4ABA
:1032B0000D490E480CF062FE00260568BE420DDA8C
:1032C000019AB300D15800980AF008FC011C286844
:1032D0000AF01EFD013628600C35EFE72000FEBD28
:1032E000CD500100BB5C0100F20200005152010010
:1032F000F8B5032353430C689B00E3184C68036044
:103300004460002B07D0002C05DAB0210E4B0F4A89
:103310000F480CF033FE03000C000C33E0CCE0C38C
:10332000E0CCE0C324681C60002383620333C262E4
:103330000363002A02DB8B689A4204DB7821054B89
:10334000054A0648E5E7F8BDC9410100D95E01001C
:103350007F430100D33C0100EC5F01004F3E0100C0
:10336000F8B51F0004000E0002C011001500FFF7A1
:103370007BFA3B68A360002E01DB012D05D04721BD
:10338000034B044A04480CF0F9FD2000F8BDC04688
:10339000AF300100DF6001003F32010070B5140062
:1033A000050088B00122049104AB616805A8FFF70D
:1033B000D7FF059B21006B60079BEB606B461A00F3
:1033C00041C941C2097811702A00103241CB41C273
:1033D00011706368059A9A4205D07421034B044A20
:1033E00004480CF0CBFD280008B070BDBA320100D3
:1033F000DA61010033360100F8B50C689300E31878
:103400008C6803608460002B07D0002C05DAB021A3
:103410000E4B0F4A0F480CF0B1FD03000C000C33AB
:10342000E0CCE0C3E0CCE0C324681C600023C362AE
:10343000013382620363002A02DB4B689A4204DB99
:103440007821054B054A0648E5E7F8BDC94101006A
:10345000746401007F430100D33C010088650100D2
:103460004F3E0100F7B503275F430193BF180B6878
:10347000BF00DF19089B05000C0007604360099935
:1034800008301600FFF7F0F9002F0BD0089B002B37
:1034900002DB099B012B05D0B021164B164A1748B9
:1034A0000CF06CFD2B000C3307CC07C307CC07C313
:1034B000019B6E62002B04D08521114B114A1248EA
:1034C000EEE70323099AEB62012A04D090210F4B07
:1034D0000F4A1048E4E7002E05DB089A002A02DBB9
:1034E0009B1AB34203DA92210B4B094AF1E72800F9
:1034F000FEBDC046C94101007C6601007F4301005A
:10350000E83901008D6701005B3A0100F2670100B4
:103510006F6801004F3E0100F343010010B5002920
:1035200002DB4368994205DBB521044B044A054898
:103530000CF024FD03688900C85810BD8A69010099
:10354000A7690100BD6A010010B5002907DB4368C7
:10355000994204DA002A02DB83689A4206DBB7212B
:10356000054B064A064849000CF008FD4B4300682D
:103570009B189B00C01810BD396B01006E6B0100D9
:10358000BD6A0100F8B545680024002D1CD006DC9A
:103590009C210E4B0E4A0F48FF310CF0EFFC0768E0
:1035A000AD003E0001CE7D19011C0AF097FA041C03
:1035B000B54209D001CE011C0AF090FA011C201C72
:1035C00009F026FF041CF3E7201CF8BD664C01003F
:1035D000666C0100274E0100436810B5002B05DA28
:1035E0004721074B074A08480CF0C8FC0021026835
:1035F0009B009B18934201D002C2FBE710BDC0465E
:10360000AF300100924501003F320100F8B50C686F
:103610009300E3188C6803608460002B07D0002CB3
:1036200005DAB0210E4B0F4A0F480CF0A7FC03003F
:103630000C000C33E0CCE0C3E0CCE0C324681C6099
:103640000023C362013382620363002A02DB4B68FA
:103650009A4204DB7821054B054A0648E5E7F8BDA8
:10366000C9410100056E01007F430100D33C010008
:10367000226F01004F3E0100F8B504000E00150056
:10368000002901DB002A06DA1221154B154A1648DB
:10369000FF310CF073FC002909D0002A07D011007B
:1036A000124809F047FC864201DDFEF733FF2F0088
:1036B000A3686268774353439F420ED02068FEF7A9
:1036C0002FFF002F07DD8023DB059F4201DBFEF784
:1036D00021FFFEF72DFF002323606660A560F8BD83
:1036E000012D01001F700100852C0100FFFFFF7FED
:1036F00070B58C680D68230053439B00EB18036082
:103700008460002B07D0002C05DAB0210A4B0B4A4D
:103710000B480CF033FC0023026143618B68C160ED
:103720008361002A02DB4B689A4204DB7821054B57
:10373000054A0648EDE770BDC9410100B5700100BA
:103740007F430100D33C0100B87101004F3E0100EE
:10375000F8B50D6894002C198C4604608360002C29
:1037600007D0002B05DAB021104B114A11480CF09C
:1037700005FC040065460C34C2CDC2C4C2CDC2C42F
:103780002D6825608469C262A4680463002A06DB90
:10379000002B04DB61468968CB1A9A4204DD922132
:1037A000054B064A0648E2E7F8BDC046C94101009C
:1037B0009B7201007F430100F3430100BA730100D3
:1037C0004F3E0100F8B5032353430C689B00E318F8
:1037D0004C6803604460002B07D0002C05DAB02150
:1037E0000E4B0F4A0F480CF0C9FB03000C000C33C2
:1037F000E0CCE0C3E0CCE0C324681C60002383621B
:103800000333C2620363002A02DB8B689A4204DB43
:103810007821054B054A0648E5E7F8BDC941010096
:10382000E37401007F430100D33C01000B760100EB
:103830004F3E01009C46F7B5099B03240193634664
:103840005C43089B0F68A418A4004360019B3C19CB
:1038500004608360002C0BD0089B002B02DB019BD3
:10386000002B05DAB021164B164A17480CF086FBE0
:1038700004000F000C3468CF68C468CF68C43F6888
:103880006346276003248262C3620463002A10DB5C
:10389000089B002B0DDB4C68E61A964209DB634659
:1038A000002B06DB019B002B03DB8A68D51A6545DC
:1038B00004DA9221054B064A0648D7E7FEBDC0460A
:1038C000C94101000D7701007F430100F34301006E
:1038D000377801004F3E010070B504008B68160078
:1038E0008360CB680D00C3604C22103110300CF0A7
:1038F000C9FB20003422310060300CF0C3FB6A6940
:1039000073689A4205D06021034B044A04480CF0C6
:1039100035FB200070BDC04665790100F1790100DA
:10392000777E0100036810B51C68436889001B6836
:1039300064182068595809F06BFD206010BDF7B578
:103940000E0001680500081C140009F029FC002382
:10395000002801D001235B4231680193081C09F063
:103960001FFC0027002801D001277F4231002800DA
:10397000A0470021041C381C09F012FC002800D0CC
:1039800034680021019809F00BFC002800D02C6855
:10399000201CFEBDF7B503275F430193BF180B68DA
:1039A000BF00DF19089B04000D0007604360099900
:1039B00008301600FEF758FF002F0BD0089B002B95
:1039C00002DB099B012B05D0B021174B174A184881
:1039D0000CF0D4FA2000342229000C300CF052FBF9
:1039E000019B2664002B04D08521124B124A1348F8
:1039F000EEE70323A364099B012B04D09021104B15
:103A0000104A1148E4E7002E07DB089B002B04DB7B
:103A10006B68089A9B1AB34203DA92210B4B094A4E
:103A2000EFE72000FEBDC046C9410100EB7E01006A
:103A30007F430100E83901008D6701005B3A010016
:103A4000F2670100358001004F3E0100F3430100A1
:103A500010B5022901D8032A06D91221044B054AC0
:103A60000548FF310CF08AFA8161C26110BDC04681
:103A7000012D010083810100852C0100436889002C
:103A80001B685A5803681B685A5070470CC870B5B9
:103A900015685A688C00105999680AF01FF8285167
:103AA00070BD00B50A688DB005928A6804AB0692B5
:103AB00002680993029201AB02AA0B90002108A8A8
:103AC00008920A93FFF7E2FF08A80121FFF7DEFF43
:103AD000022108A8FFF7DAFF0DB000BD70B528C8B5
:103AE0001E68AB698C001859296909F0F7FFAB68AB
:103AF000195909F08DFCEB69195909F089FC30510D
:103B000070BDF0B54B689FB00393536896680493FB
:103B100013688F6805930B680C000290311C0398A2
:103B20000192069309F0DAFF0499051C381C09F08C
:103B3000D5FF011C281C0AF0EBF805990C90381CE5
:103B400009F0CCFF0699051C301C09F0C7FF011CC9
:103B5000281C0AF0DDF806990D90049809F0BEFFC4
:103B60000599051C039809F0B9FF011C281C0AF0EF
:103B7000CFF816AF0FAB12AE0CAD0E901793380006
:103B80000BAB002118930F95129516961995FFF718
:103B9000C9FE38000121FFF7C5FE38000221FFF7FA
:103BA000C1FEE3680993636803930E9B0398049333
:103BB000A368049905930D9B06930C9B07932368B8
:103BC000089309F08BFF0699041C059809F086FFFD
:103BD000011C201C0AF09CF807990F90059809F029
:103BE0007DFF0899041C049809F078FF011C201C33
:103BF0000AF08EF808991090069809F06FFF07995F
:103C0000041C039809F06AFF011C201C0AF080F8CC
:103C1000019B1190BB60099B30003B610FABFB61C6
:103C2000029B00210B930BAB12930AABB360029B78
:103C3000BD61F3607760FFF751FF30000121FFF7AE
:103C40004DFF30000221FFF749FF02981FB0F0BD81
:103C5000F0B52A4C97B005002949200006F00EFD6A
:103C600021000AA8082206F09DFC1422210010A8B9
:103C700006F098FC0A980B990CF0CEF8061C0C98EC
:103C80000D990CF0C9F8041C0E980F990CF0C4F8AB
:103C9000039010981199019602940CF0BDF8061C3F
:103CA000129813990CF0B8F8041C149815990CF09C
:103CB000B3F8144F0496059401AE07AC39003200F6
:103CC00006902000FFF71DFF230007CB07C604AEB8
:103CD000320039002000FFF714FF0ECC0EC6019B06
:103CE0002B60029B6B60039BAB60049BEB60059BAE
:103CF0002B61069B6B6117B0F0BDC04644040020E9
:103D000020040020B00400200CC870B515685A6863
:103D10008C001059996809F017FD285170BDF0B555
:103D20000E688F680C0049688DB00500081C09F00A
:103D3000D5FE391C0190381C09F0D0FE011C0198F9
:103D400009F066FB311C071C301C09F0C7FE011C82
:103D5000381C09F05DFB0021061C09F03BFA002825
:103D60001BD0301C08F0A2FF04AB03AA0021069070
:103D7000099308A802AB08920A93059403950B9542
:103D8000FFF7C2FF012108A8FFF7BEFF022108A824
:103D9000FFF7BAFF28000DB0F0BD2B0007CC07C31A
:103DA000F8E743688A001B68C900D25803681B689B
:103DB000CA507047F0B5836804000A0006688FB0E7
:103DC000032B0FD1C16843685B180021816001316A
:103DD0004360C1608B4205DD214B224A5B312248A2
:103DE0000CF0CCF8A168002903DD5F211F4B1D4AB0
:103DF000F5E7E568012D03D061211D4B194AEEE777
:103E000060684B001B189B00F31808AF08930D95D2
:103E1000BE60F8603961012801D8002904D09221E0
:103E2000144B154A1548DBE7029302AB049301AB30
:103E300005936B46126804A8069301920797FFF753
:103E4000B0FF290004A8FFF7ACFF04A80221FFF788
:103E5000A8FF2000A3680333A3600FB0F0BDC046E5
:103E6000178201007A820100E93B010068830100AA
:103E7000D3830100F3430100F48301004F3E0100AE
:103E8000F0B58B6885B002930A684368019393424A
:103E900003D187684B689F4205D00F4B0F4A1049EA
:103EA00010480CF06BF8002503680393BD4210DA4C
:103EB0000C2400266C43039B1C19019B9E4206DACE
:103EC0002068029909F00AFE013601C4F5E70135C0
:103ED000ECE705B0F0BDC046CD500100FD84010007
:103EE000F2020000515201001FB5426883680400CD
:103EF000019202930391002A01DB002B05DA47218E
:103F0000054B064A06480CF039F86A4601A9FFF746
:103F1000B7FF200004B010BDAF3001005186010092
:103F20003F32010003688A0041681B6809689B18DA
:103F3000891808681A6818600A60704703688A0060
:103F400041681B6809689B18891808681A68186016
:103F50000A607047F0B58B6885B002930A684368C1
:103F60000193934203D187684B689F4205D00F4B62
:103F70000F4A104910480CF001F80025036803931C
:103F8000BD4210DA0C2400266C43039B1C19019BD4
:103F90009E4206DA2068029909F0A0FD013601C4AC
:103FA000F5E70135ECE705B0F0BDC046CD500100A6
:103FB00047870100F202000051520100F7B50B697A
:103FC000866801938B69CF689E4205D00B4B0C4AE3
:103FD0000C490D480BF0D2FF00240568B4420CDAFE
:103FE000019AA300D158381C09F078FD011C2868FB
:103FF00009F00EFA013401C5F0E7F7BDCD5001001C
:10400000A4880100F2020000515201000CC870B5F2
:1040100015685A688C001059996809F095FB285169
:1040200070BD0000F8B54D68836904000F688E68A4
:104030009D4202D1C3699E4204D032002900200073
:10404000FFF706FDA3699D4204D1E2690023754391
:10405000964205D0064B074A074908480BF08EFFE9
:104060009D4204DD9A00B9580133A150F8E7F8BD2C
:10407000D08A0100FF8A0100FD02000051520100B8
:1040800003688A0041681B6809689B1889180868DA
:104090001A6818600A607047F7B50B6846680193A4
:1040A0008B6C0F6DB34206D006210B4B0B4A0C48AC
:1040B000FF310BF063FF002403680093B44209DA78
:1040C000019BA5005859391C09F03EFB009B0134A7
:1040D0005851F3E7F7BDC046F98B0100628C01002F
:1040E000408D0100F0B51C0005684368AFB09C46E8
:1040F0000091013B291D170006910793002B05DA5B
:10410000B021354B354A36480BF038FF09AB46C86D
:1041100046C346C846C346C846C346C846C301232D
:1041200015930233179363460026012B03D006A88C
:10413000FFF728FA061C8021301C09042D6809F0BD
:104140003FF8002807D0002300983B602560FFF768
:1041500043FA2FB0F0BD291C281C09F0BFFC311C0C
:1041600009F056F908F0A2FD0021061C281C09F0F0
:104170003BF8002827D126602168281C09F0C8FDDB
:1041800002AB01220799029003A8FFF7E9F8482241
:1041900006A918A80BF076FF059A039B01922C92B2
:1041A000079A2A939A4212D103AA009818A9FFF7F6
:1041B00073FF2468291C201C09F0AAFD211C09F0AA
:1041C000C3FA3860C5E780231B06F618D3E77421CD
:1041D000044B054A054897E7C9410100B68D010027
:1041E0007F430100BA320100F88E0100333601002E
:1041F0005200521870B594000CC815685A68D968F6
:10420000105909F0A1FA285170BD0000F0B50B68F3
:104210008DB00893CE694B6A07AD04000F6AEB605E
:10422000022E01D1022F0DD039003000FEF7CAF85E
:10423000022E01D1022F05D0114B124A1249134808
:104240000BF09CFE002202AB1100039303A801AB0C
:104250000593029404950694FFF7CAFF03A8002271
:104260000121FFF7C5FF03A801220021FFF7C0FFCE
:10427000012203A81100FFF7BBFF0DB0F0BDC0463F
:10428000D08A0100F7910100FD02000051520100A7
:1042900030B50C004168630009689B189B005D58AD
:1042A00003215143036809191B688900CD5030BDB3
:1042B00000B50B6889B0984206D1D921174B184A2E
:1042C000184849000BF05AFE0022029303AB0493F6
:1042D00002AB110003900593079001AB04A806936D
:1042E000FFF7D6FF04A800220121FFF7D1FF04A8A1
:1042F00000220221FFF7CCFF04A801220021FFF7D2
:10430000C7FF012204A81100FFF7C2FF012202210A
:1043100004A8FFF7BDFF09B000BDC046CD93010062
:10432000E094010020960100436889001B685A58F8
:1043300003681B685A50704710B5037A0400002BBD
:1043400002D00068FEF7ECF8200010BD0300002149
:10435000421CFF3202C39342FCD17047F0B58BB0D0
:104360001F0004911199129B194305D0354B364A11
:10437000364937480BF002FE0320109B0D00DB1777
:10438000034010981B18F843C01738409B109B003F
:104390000390800000930990009B8B423BDD5468A2
:1043A00000232000484380000290481C60438000A6
:1043B0000890881C604380000790C81C4443A000FC
:1043C0000690029C106801930619049CA80020180E
:1043D000019B9F4216DD3368089C0360029BF31A21
:1043E0009C461B59079C436063461B59069C83608F
:1043F000059363461B590436C360019B103001339B
:104400000193E5E7099B0431ED18C5E7039BED181F
:10441000009B01330093109B00998B420FDD546881
:1044200013684C430021A4001C19049BA800181811
:104430008F42EBDD8E00A35901318351F8E70BB0B9
:10444000F0BDC04696960100F196010058090000A3
:1044500035980100F7B500910A98099C04430020A3
:104460000500844215D1DC43E4170194089C844282
:104470001ADD00240099AE008E19A3420FDD5768A3
:10448000116867433F18BF007958A700F151013404
:10449000F3E7064B064A074907480BF06FFD019CFE
:1044A00001301C402D19E1E7F7BDC046969601008A
:1044B000C29801003E080000359801000368F7B576
:1044C0008E009E198368002E06D0002B04DA224B42
:1044D000224AB021224808E0002902DB42689142CA
:1044E00005DB78211F4B204A20480BF047FD826BEB
:1044F000476B0192002F04D0002A02DA164B1C4AA7
:10450000E7E7019A934209D10024002B22D00ADC6C
:104510009C21184B184A1948FF31E6E77421184BC3
:10452000184A1948E1E73168386809F0D7FA0125D7
:10453000041C019BAB420DD00C226A43AB00B15866
:10454000F85809F0CBFA011C201C08F061FF013576
:10455000041CEEE7201CFEBDC94101003A9A01008F
:104560007F430100D33C0100779B01004F3E0100D7
:104570008E9C0100664C0100D1A00100274E010075
:10458000BA320100BB9D01003336010070B50C004A
:104590009AB00500342201A80BF074FD22000EAB86
:1045A000343243CA43C343CA43C312681A60019BEF
:1045B0006E6815930E9B1793A36819936368B342B3
:1045C00006D00621094B0A4A0A48FF310BF0D6FCF7
:1045D00000242D68B44207DA210001A8FFF76EFF1E
:1045E000A300E8500134F5E71AB070BDF98B010063
:1045F000FDA20100408D0100F7B507684568002F56
:1046000007D0002D05DA234B234AB02123480BF0B5
:10461000B5FC03264E43C369B6009E19036A002EFB
:1046200004D0002B02DA1B4B1D4AEEE7002902DB07
:10463000426A914204DB78211A4B1B4A1B48E6E789
:104640009D4209D10024002D21D00ADC9C21184B69
:10465000184A1948FF31DAE77421184B184A1948EB
:10466000D5E73968306809F039FAAB000025041C39
:104670000193019B04359D4209D07959705909F085
:104680002DFA011C201C08F0C3FE041CF1E7201CBD
:10469000FEBDC046C9410100AFA301007F43010038
:1046A000F5A40100D33C010031A601004F3E0100FA
:1046B000664C01008DAA0100274E0100BA320100AC
:1046C00047A7010033360100F0B59BB001AD0A00E9
:1046D0002B000C00060083CA83C383CA83C3210056
:1046E00012681C311A6008A834220BF0CBFC019B25
:1046F000B7682B65089BAB6563682B66636ABB4232
:1047000006D00621094B0A4A0A48FF310BF036FC55
:1047100000243668BC4207DA21002800FFF76CFF4E
:10472000A300F0500134F5E71BB0F0BDF98B010098
:10473000D1AC0100408D0100F8B504000E00150059
:10474000032A01D8002906DA1221154B154A16480A
:10475000FF310BF013FC002909D0002A07D011000B
:10476000124808F0E7FB864201DDFDF7D3FE370073
:10477000A36862686F4353439F420ED02068FDF7E1
:10478000CFFE002F07DD8023DB059F4201DBFDF715
:10479000C1FEFDF7CDFE002323606660A560F8BD75
:1047A000012D010083AD0100852C0100FFFFFF7F7B
:1047B000436870B560C904009D4203D183689E427E
:1047C00000D170BD320029002000FFF7B5FF6368FB
:1047D0009D4202D1A3689E42F3D0034B034A044991
:1047E00004480BF0CBFBC046D08A010018AE010094
:1047F000FD02000051520100F7B507684568002F1F
:1048000007D0002D05DA234B234AB02123480BF0B3
:10481000B5FB03264E43036BB6009E19436B002E77
:1048200004D0002B02DA1B4B1D4AEEE7002902DB05
:10483000826B914204DB78211A4B1B4A1B48E6E746
:104840009D4209D10024002D21D00ADC9C21184B67
:10485000184A1948FF31DAE77421184B184A1948E9
:10486000D5E73968306809F039F9AB000025041C38
:104870000193019B04359D4209D07959705909F083
:104880002DF9011C201C08F0C3FD041CF1E7201CBD
:10489000FEBDC046C941010057AF01007F43010082
:1048A000B1B00100D33C0100F6B101004F3E010060
:1048B000664C010095B60100274E0100BA32010096
:1048C00015B3010033360100F0B59FB06D460A0004
:1048D0002B000C00060083CA83C383CA83C383CA28
:1048E00083C383CA83C32100342230310CA80BF068
:1048F000C9FB009BB7686B660C9BEB6663686B67D4
:10490000A36BBB4206D00621094B0A4A0A48FF3175
:104910000BF034FB00243668BC4207DA2100280083
:10492000FFF76AFFA300F0500134F5E71FB0F0BDB8
:10493000F98B0100F6B80100408D0100F0B51F00B1
:104940001368A9B008935368002200939B00019359
:10495000FA230992019A05900D91DB019A4202D83F
:104960000300073B09930C201421059B1822033BED
:104970002393059B009D013B24932F9B019E5B018C
:104980002593009B2E9CDB001793009B5B010293F9
:104990005B422693009B43431993009B1B010693A4
:1049A000009B4B431B93009B53431C931C235D4371
:1049B0001D95089DAD1B27952F9DAD001E952F9D24
:1049C000ED000C952F9D45432F981F9500010490F5
:1049D0002F980B9648432F99209051432F9A21915D
:1049E0005A43069B22921A93179B189300231693FF
:1049F0000E930E9B099A934200DA8EE01300002476
:104A0000073303DB14000734E408E4002F9B2E99DE
:104A100063439A008A1807922F9A2500D3189A00A8
:104A20008A1809922F9AD3189A008A180A922F9AF4
:104A3000D3189B00CB180B93019B089A6343D318A0
:104A40001293009B019A1B015B421993009B9B00F0
:104A50005B42189363431393631C5A431492019A65
:104A6000A31C5A431592019AE31C5A431692239BA6
:104A70009D4200DA44E12F9B2E9A6B439E009619CB
:104A80002F9A0495D3182E9A9B00D3180393019B59
:104A9000089A6B43D3180793009B019ADB005B4293
:104AA0000E93189B6B4309936B1C5A430A92049B09
:104AB000249A934200DABCE1059B00249D4202DC6B
:104AC0005C1B640864002C192F9D2E9B6543AD0070
:104AD0005D19009B63430293059B9C4200DB16E239
:104AE000029B089A9B00D31803930023002601938E
:104AF0000D9B9E4200DBF9E17B6803997343B20092
:104B000089583A689B00985808F0E8FF011C019802
:104B100008F07EFC01360190EAE7279A0B9B944649
:104B2000634400250A930023159514951395129557
:104B3000119510950F950793079B0D9A934267DA8D
:104B4000079A7B6853433A689B009E580A9B301C27
:104B5000196808F0C3FF011C0F9808F059FC0A9A65
:104B6000169B94460B9A634499580F90301C0393FC
:104B700008F0B4FF011C109808F04AFC039B189A37
:104B800010909958301C08F0A9FF011C119808F0EA
:104B90003FFC039B199A11909958301C08F09EFF16
:104BA000011C129808F034FC039B1A9A1290995831
:104BB000301C08F093FF011C139808F029FC039B9C
:104BC0001B9A13909958301C08F088FF011C149808
:104BD00008F01EFC039B1C9A14909958301C08F096
:104BE0007DFF011C159808F013FC039B1D9A15907E
:104BF0009958301C08F072FF011C281C08F008FCB2
:104C0000079B051C013307930A9B04330A9393E720
:104C10000F99309808F062FF011C206808F0F8FB3B
:104C200010992060309808F059FF1E9B011CE05835
:104C300008F0EEFB1E9B1199E050309808F04EFFF3
:104C40000C9B011CE05808F0E3FB0C9B1299E05010
:104C5000309808F043FF1F9B011CE05808F0D8FB78
:104C60001F9B1399E050309808F038FF049B011CFB
:104C7000E05808F0CDFB049B1499E050309808F000
:104C80002DFF209B011CE05808F0C2FB209B1599CA
:104C9000E050309808F022FF219B011CE05808F0FA
:104CA000B7FB219B291CE050309808F017FF229B8E
:104CB000011CE05808F0ACFB269A229B9446E05079
:104CC0000E9B029A08330E93259BE418169B6344AF
:104CD000944616930B9B63440B93189B6344189361
:104CE000199B634419931A9B63441A931B9B634457
:104CF0001B931C9B63441C931D9B63441D9378E68C
:104D0000129B00240393002310940F940E9402939B
:104D1000029B0D9A93423BDA029A7B6853433A68AE
:104D20009B009E58039B301C196808F0D7FE011C9D
:104D30000E9808F06DFB039A139B9446149A6344F3
:104D400099580E90301C119308F0C8FE011C0F9862
:104D500008F05EFB119B159A0F909958301C08F0D3
:104D6000BDFE011C109808F053FB119B169A109081
:104D70009958301C08F0B2FE011C201C08F048FBBA
:104D8000029B041C01330293039B04330393BFE78C
:104D90000E99309808F0A2FE079B011C186808F0D5
:104DA00037FB079B0F991860309808F097FE099B16
:104DB000011C186808F02CFB099B109918603098AA
:104DC00008F08CFE0A9B011C186808F021FB0A9B66
:104DD000211C1860309808F081FE0B9B011C18689C
:104DE00008F016FB049A0B9B94461860079B043549
:104DF00063440793099B634409930A9B069A63449F
:104E00000A930B9B634494460B93199A129B634439
:104E100094461293069A139B634494461393149BEF
:104E200063441493159B63441593169B6344169334
:104E30001DE6079B00240293002306940193019B27
:104E40000D9A934224DA019A7B6853433A689B0097
:104E50009B580B93029B0B98196808F03FFE011CAE
:104E6000069808F0D5FA029B099A06909B180A9AB0
:104E70000B98995808F032FE011C201C08F0C8FA63
:104E8000019B041C01330193029B04330293D6E778
:104E90000699309808F022FE011C306808F0B8FA34
:104EA000211C3060309808F019FE039B011C186823
:104EB00008F0AEFA0C9A039B94461860049B179A6C
:104EC000023304930C9BF618039B634494460393AC
:104ED0000E9A079B634494460793179A099B634471
:104EE000944609930A9B63440A93E0E5019930983C
:104EF00008F0F4FD011C286808F08AFA009A1E9B4D
:104F000094462860ED18029B01346344E3E529B020
:104F1000F0BD03000021421CFF3202C39342FCD1CA
:104F200070470000F7B500910A98099C04430020DF
:104F30000500844215D1DC43E4170194089CA0428B
:104F40001ADA00240099AE008E199C420FDA5768D5
:104F5000116847433F19BF007958A700F151013448
:104F6000F3E7064B064A074907480BF007F8019C90
:104F700001301C402D19E1E7F7BDC04696960100AF
:104F8000A8B90100DA08000035980100F8B5079EBD
:104F9000089D099C0A9F88008258090132605B18AD
:104FA000186828605A686A609A68AA60DB68EB60D3
:104FB0002060316808F092FD2060011C386808F01C
:104FC00027FA386068682060316808F087FD0B9B1D
:104FD0002060011C186808F01BFA0B9B1860A86879
:104FE0002060316808F07AFD0C9B2060011C186875
:104FF00008F00EFA0C9B1860E8682060316808F031
:105000006DFD0D9B2060011C186808F001FA0D9BD6
:105010001860F8BDF0B5A9B0379D08902D01129524
:10502000379D3198AD000C95850017952F9D0E008A
:105030006843339D329940198000349C12180A92BB
:105040000A01149222019A1813928A0016923A9A2F
:1050500051430C19A4001B1915932F9B309A9342AE
:1050600000DBF5E1139B0D9300230993099B3A9A0A
:10507000934200DB54E10023099919931A931B937F
:105080001C931D931E931F93209373682F9859436D
:105090003268091889005118119109990D9F013141
:1050A0005943091889005118109109990A9D023134
:1050B00059430918890051180F91099903314B433D
:1050C0001B189B00D3180E9300230B930B9B369A4F
:1050D000934200DBB9E01CAB07931BAB06931AAB02
:1050E000059319AB049323AB039324AB029321AB39
:1050F000002401936B461C702A003B000898002195
:10510000FFF744FF20AB07931FAB06931EAB05933D
:105110001DAB049323AB039324AB029322AB019307
:105120006B461C702A003B0008980121FFF72EFFF8
:105130001CAB07931BAB06931AAB059319AB0493F7
:1051400023AB039324AB029321AB01936B461C70FA
:105150002A003B0008980221FFF718FF20AB0793B5
:105160001FAB06931EAB05931DAB049323AB0393B8
:1051700024AB029322AB01936B461C702A003B00C8
:1051800008980321FFF702FF1CAB07931BAB0693A4
:105190001AAB059319AB049323AB039324AB02938F
:1051A00021AB01936B461C702A003B000898042138
:1051B000FFF7ECFE20AB07931FAB06931EAB0593E6
:1051C0001DAB049323AB039324AB029322AB019357
:1051D0006B461C702A003B0008980521FFF7D6FE9D
:1051E0001CAB07931BAB06931AAB059319AB049347
:1051F00023AB039324AB029321AB01936B461C704A
:105200002A003B0008980621FFF7C0FE20AB079359
:105210001FAB06931EAB05931DAB049323AB039307
:1052200024AB029322AB01936B461C702A003B0017
:1052300007210898FFF7AAFE129BFF180C9BED1898
:10524000379A0B9B944663443FE71D99199808F0E1
:10525000DFF81E9919901A9808F0DAF81F991A9039
:105260001B9808F0D5F820991B901C9808F0D0F8EE
:10527000369B1C900B930B9B399A93421BDA1CAB09
:1052800007931BAB06931AAB059319AB049323AB9F
:10529000039324AB029321AB019300246B461C7053
:1052A0002A003B0000210898FFF770FE0B9B103787
:1052B00004350133DEE71A992E9808F00FFC109B95
:1052C000196808F0A5F81999041C2E9808F006FC36
:1052D000119B011C186808F09BF8119B1860109B2B
:1052E0002E981C601C9908F0F9FB0E9B196808F0B9
:1052F0008FF81B99041C2E9808F0F0FB0F9B011CE3
:10530000186808F085F80F9B18600E9B1C60099BBD
:10531000043309930D9B149A944663440D93A5E6B8
:10532000159B0E933A9B0993099B389A934200DB95
:1053300085E0099A7368002553432F9A0E9F9B18A6
:1053400032689B00D3180F9300230A9C0B930B9B8E
:10535000369A934247DA2168386808F0BFFB291C67
:1053600008F056F8051C6168786808F0B7FB291C3E
:1053700008F04EF8051CA168B86808F0AFFB291CBE
:1053800008F046F8051CE168F86808F0A7FB291C3E
:1053900008F03EF8051C2169386908F09FFB291CBC
:1053A00008F036F8051C6169786908F097FB291C3C
:1053B00008F02EF8051CA169B86908F08FFB291CBC
:1053C00008F026F8051CE169F86908F087FB291C3C
:1053D00008F01EF8051C0C9BFF18E418379A0B9B6D
:1053E00094466344B2E7369B0D9300230B93399A9E
:1053F0000D9B93420FDA0B9BE158F85808F06EFBB7
:10540000011C281C08F004F8051C0D9B01330D93AA
:105410000B9B0433EAE72E99281C08F05FFB0F9BD7
:10542000011C186807F0F4FF169A0F9B9446186049
:10543000099B013309930E9B63440E9374E7179AFB
:105440002F9B944601332F930A9B63440A9304E6EF
:1054500029B0F0BDF0B593B01C9D199C1A9F1D9EFC
:105460000F936B1C00D12500731C00D12600032371
:10547000F8171840C019801080000C9008200A9777
:1054800007270990079000201F9B0B9406931E9BF3
:10549000BC430593189B019002931B9B08940093B7
:1054A00004960F9B039511A8FFF7B4FD13B0F0BD50
:1054B000930010B5CB18C2600360CB688160436174
:1054C000002A01DB9A4205DB7821034B034A04489A
:1054D0000AF054FD10BDC046D33C010020BB0100C2
:1054E0004F3E0100F0B50500002491B0EB689B68C9
:1054F0009C4238DAA30003930C23002663430193F4
:10550000EB685B689E422CDA2B686F68019A1B6817
:1055100039009B1804A832000293FFF7C9FF182234
:1055200004A90AA80AF0AEFD039A3B699B18019AE8
:1055300004320192BA69944205DB78210B4B0C4A84
:105540000C480AF01BFD19680A9B0136186808F020
:10555000C5FA029B011C186808F0DAFB029B186070
:10556000CEE70134C2E711B0F0BDC046D33C010024
:1055700006BC01004F3E0100F0B50500002491B0CB
:10558000EB689B689C4238DAA30003930C23002647
:1055900063430193EB685B689E422CDA2B686F686B
:1055A000019A1B6839009B1804A832000293FFF788
:1055B0007FFF182204A90AA80AF064FD039A3B6938
:1055C0009B18019A043201927A69944205DB782192
:1055D0000B4B0C4A0C480AF0D1FC19680A9B0136A7
:1055E000186808F07BFA029B011C186808F090FB11
:1055F000029B1860CEE70134C2E711B0F0BDC0468F
:10560000D33C010011BD01004F3E0100F0B5050083
:10561000002491B0EB689B689C4238DAA3000393A6
:105620000C23002663430193EB685B689E422CDAEF
:105630002B686F68019A1B6839009B1804A8320018
:105640000293FFF735FF182204A90AA80AF01AFDF1
:10565000039A3B699B18019A04320192BA699442F9
:1056600005DB78210B4B0C4A0C480AF087FC1968C3
:105670000A9B0136186808F031FA029B011C186871
:1056800008F046FB029B1860CEE70134C2E711B078
:10569000F0BDC046D33C010031BE01004F3E0100C9
:1056A00070B51400836905694B439B18C2689B0061
:1056B0004A434168121992005859515808F00EFA9D
:1056C00070BD0000F0B5A3B00D000F920A930491D5
:1056D000814200DD04900F9B002B0AD0049B002B1D
:1056E00001DB002D11DAB0216B4B6C4A6C480AF0DB
:1056F00045FC002D03DA6B4B6B4AA621F6E7049BB1
:10570000002B02DA674B694AF7E70A9BDB00159327
:105710002B9B5B0111932A9B05930A9B01335A0132
:105720009B00139300231E0012920F9A0E930B926C
:105730002B9A92001092049B9E4200DBA9E09F1BD3
:10574000072F00DD08277B1E06930B9B741C0D930F
:10575000059B07930993F3431693289B043B1793E8
:10576000169B1B199F4263DD069B002B41DD2C9B82
:10577000049A1B681493631E934204DB78214C4BFC
:105780004C4A4D48B3E70D9B069A0433AA1A94423B
:1057900003DD9221494B4A4AF3E71C930A9B289A5E
:1057A0001E93A300D31800221BA811001F9321955C
:1057B000FFF776FF01230C900893089B069A93420B
:1057C0000CDA1A0000211BA8FFF76AFF011C0C98D5
:1057D00007F01EFE089B0C900133EDE714990C981E
:1057E00008F07CF9079B011C186807F011FE079B65
:1057F00018602C9AA3001168179A0134D05808F049
:105800006DF9099B011C186807F002FE109A099BAC
:10581000944618606344139A0993079B6344944623
:105820000793069B013B06930D9B63440D9397E7FB
:10583000A91BC91B00291BDD0E9AF3190F98D2185A
:105840009200821819920A9A9B001A92289A38009C
:10585000D3181B93299B19AA1C932C9B1B68069396
:1058600002932B9B0193059B00931BABFFF766F8FC
:10587000159A0E9B9446119A634494460E93129A7D
:10588000059B08366344944605930B9B63440B9336
:1058900051E723B0F0BDC046C94101003CBF010043
:1058A0007F43010056C0010063C0010062C10100D6
:1058B000D33C010056C201004F3E0100F3430100FA
:1058C0006BC30100F0B5A1B006AF7B6003687961DE
:1058D000BB6043681031FB60836815003B611C238B
:1058E0004C22F8180AF0CEFB7B693E6AD9687B68C7
:1058F000FC69186808F0F2F88023B861DB059E4265
:1059000001D3FCF707FE0023B1009C420FD1802396
:105910009B0299422BD80A006B461632D208D2005D
:105920009B1A9D4627240F236C449C432300FB6154
:1059300080239B028B429B4124225B42BA183E6229
:1059400013701823FB180493012303932A6801930F
:1059500000940292BA68F96838690233FFF7B2FE20
:105960001C23F818FEF7E8FCBD461BB0F0BDFCF7A1
:10597000DFFD000010B58B6E82680C00B4B093425E
:1059800006D006211A4B1B4A1B48FF310AF0F6FAD3
:10599000002B04DA4721194B194A1A48F6E700216F
:1059A00002689B009B189A4201D002C2FBE7FE23CB
:1059B00001009B05342202A801930AF063FB210039
:1059C000342260310FA80AF05DFB2100A3684C224D
:1059D0001E93E368103120A81F930AF053FB01AB1C
:1059E00002AA1CA90FA8FFF76DFF34B010BDC04676
:1059F000F98B0100CCC40100408D0100AF300100E3
:105A000093C501003F320100F0B5684C8B68A54496
:105A10000792426807000D00934207D18268049202
:105A20009A4203D14B680592934223DA3621604BA8
:105A3000604A61480AF0A2FA8393069B342269A95E
:105A400085A884930AF01EFB29AA81A956A8FEF70F
:105A5000B5FA029B013365E0220021003800FDF712
:105A600073FD210006000798FDF758FD059B306087
:105A7000013B0593059B5C1E00D593E0049B059AB2
:105A80009E1A002EE8DD6B6822001B1B013B3900CB
:105A900008A80293FDF72CFE0A9B08A99A1B0FA8E1
:105AA0003300FDF755FE21000798FDF737FD220072
:105AB000290003901CA8FDF785FE1D9B029A1CA9D6
:105AC0009A1A01230193029B43A800930023FDF738
:105AD00061FF4C2243A956A80AF0D4FA802212068C
:105AE0009446039B56AA6344190069A8FCF7E8FC96
:105AF0000299AB686A689B1B521A009101962900B3
:105B000029A8FDF797FE342229A936A80AF0BAFA87
:105B100036AA69A981A8FDF7DFFE81A90FA8FFF7C2
:105B200029FF01230293029A049B9B1A0393A34229
:105B300092DD1A0021003800FDF706FD039A036884
:105B40001100060038000693FDF7FEFC0699006878
:105B500007F0C4FF029B3060012B00D179E72200DF
:105B6000390036A8FDF7C4FD029B36A95E1E389B9E
:105B700056A89A1B3300FDF7EBFD3900039A43A8A2
:105B8000FDF7B6FD459B43A99A1B69A83300FDF7B5
:105B9000DFFD6B9B002B00DB4EE74721074B084ADC
:105BA000084847E7A7239B009D44F0BD64FDFFFF25
:105BB0007FC60100D2C6010030C80100AF3001002D
:105BC000B4C801003F320100F0B5684C8B68A544B1
:105BD0000792426807000D00934207D18268049241
:105BE0009A4203D14B680592934223DA3621604BE7
:105BF000604A61480AF0C2F98393069B342269A97E
:105C000085A884930AF03EFA29AA81A956A8FEF72E
:105C1000D5F9029B013365E0220021003800FDF731
:105C200093FC210006000798FDF778FC059B306087
:105C3000013B0593059B5C1E00D593E0049B059AF0
:105C40009E1A002EE8DD6B6822001B1B013B390009
:105C500008A80293FDF74CFD0A9B08A99A1B0FA800
:105C60003300FDF775FD21000798FDF757FC220072
:105C7000290003901CA8FDF7A5FD1D9B029A1CA9F5
:105C80009A1A01230193029B43A800930023FDF776
:105C900081FE4C2243A956A80AF0F4F9802212068C
:105CA0009446039B56AA6344190069A8FCF708FCB4
:105CB0000299AB686A689B1B521A009101962900F1
:105CC00029A8FDF7B7FD342229A936A80AF0DAF988
:105CD00036AA69A981A8FDF7FFFD81A90FA8FFF7E2
:105CE00049FE01230293029A049B9B1A0393A34249
:105CF00092DD1A0021003800FDF726FC039A0368A4
:105D00001100060038000693FDF71EFC0699006896
:105D100007F0E4FE029B3060012B00D179E72200FE
:105D2000390036A8FDF7E4FC029B36A95E1E389BBD
:105D300056A89A1B3300FDF70BFD3900039A43A8C0
:105D4000FDF7D6FC459B43A99A1B69A83300FDF7D4
:105D5000FFFC6B9B002B00DB4EE74721074B084AFB
:105D6000084847E7A7239B009D44F0BD64FDFFFF63
:105D70007FC60100A6C9010030C80100AF30010094
:105D8000B4C801003F320100F0B50F00012189B015
:105D900000928E4A040010681D008D4B084207D106
:105DA0008020C00118608020000358609860116056
:105DB0005A681E689B6803920593012D68DD854B28
:105DC0009E4208DC30005021103807F0B3F8082854
:105DD00003DA082001E0A02040002368834202DDAE
:105DE000072398432060039B981B2368190107F041
:105DF00017F8009B06001B68290058190138019309
:105E000007F098F8030074489E4222DC304004D525
:105E1000042301385B4218430130009B361A1E6090
:105E2000039B059A934231DA13002168039A694370
:105E3000981A890006F0F4FF3E68040070192900E2
:105E4000013807F077F8844219DA002C17D03C604B
:105E50001CE003331840061E04DA0420013E4042D1
:105E600006430136019A9E1B0796009B964200DA74
:105E700007AB1B680193019A009B1A60D0E73B00B7
:105E80000790864200DD07AB1B683B6009B0F0BDA0
:105E9000009B3A681B68019301993B008A4200DA33
:105EA000009B1A68236807920293029923008A4292
:105EB00000DD07AB1B682F2BE8DD3300103B18001B
:105EC0005021049307F036F807239843051E00DCA1
:105ED0000125029BAB4210DD1800290007F010F9E4
:105EE00003002800002907D00133681E401AD9009A
:105EF00007F020F8C000281A20603B6824681800CA
:105F000060430193049B8000181AA100230183427F
:105F100002DD90202901C00306F082FF0490C0201A
:105F2000E100400306F07CFF049B0500984200DD81
:105F30001D0003239D43009B1868A8420FDD290024
:105F400007F0DEF80300002906D00133681A990033
:105F500006F0F0FF80002D1A009B1D6096E7029B63
:105F60009C4200D092E780236043019D8000DB00CB
:105F700098420CDD059B002B23D080231B02984206
:105F80001FDC90239B009D4200DB1D00039E0C2123
:105F90003000614306F044FF0400A84200DD2C00FD
:105FA000002C00D172E72100019807F0A9F8030046
:105FB000002900D14BE7601A591C06F0BBFF241AD8
:105FC00045E7C026019D7603E1E7C04608040020AE
:105FD0000C0400205F6400000300008010B5012A5B
:105FE00001D1032906D91221034B044A0448FF3189
:105FF00009F0C4FFC16010BD012D010000CB0100FC
:10600000852C01000023F0B5C360CB6885B00293F6
:106010004F690B6904000D000393002F03D0012288
:106020003900FFF7DBFFE368002601939F4205D0AC
:10603000104B114A1149124809F0A0FF019B9E42E2
:1060400008DA039BB700D859029907F047FD0136DB
:10605000E051F3E723004435103307CD07C323692C
:1060600020006362A3692462E3620123236305B015
:10607000F0BDC046D08A010093CB0100FD020000B4
:1060800051520100F0B54668EDB005001C001068E3
:1060900000910292012E16D1011CFE20AC688005F1
:1060A0005396549407F034FE5590002C04DA834B39
:1060B000834A4721834815E028003AAA53A9FDF7EF
:1060C00049FF6DB0F0BD002107F06AF8019000288B
:1060D000F7D1AB6807940993002B05DAA6217A4B18
:1060E0007A4A7B4809F04AFF2A68771E04320F92E9
:1060F00010971193002F03DAB021764B764AF0E720
:106100002A0012AB13CA13C313CA13C312681A604E
:1061100001231993019B009A1A9303231B9329AB24
:1061200013CA13C313CA13C313CA13C313CA13C3A3
:10613000009B3AAC5B6829AA03932A93230043CAC5
:1061400043C343CA43C343CA43C343CA43C33422BA
:106150000FA946A809F096FF039B9F4204D0602137
:106160005E4B5F4A5F48BDE753AE330022003B976A
:1061700083CA83C383CA83C383CA83C383CA83C3D3
:10618000342246A95FA809F07DFF31001CAA07A8A8
:10619000FEF79AFB019A29003000FDF737FA31002B
:1061A00007A8FDF753F8019A29003000FDF72EFAF1
:1061B000029B1A68099B002B02DA404B4A4A78E797
:1061C0003C93E2603EAB07AA23CA23C32100300000
:1061D000FDF762F8029B00991B68012223603000E2
:1061E00023004968FDF7BCF8539B009A2A93B368D3
:1061F0009C462DABA1CAA1C3A1CAA1C3A1CAA1C378
:10620000A1CAA1C3009B539D58682DAA3EAB8542ED
:106210001BD12A983B901800A2CAA2C0A2CAA2C051
:10622000A2CAA2C0A2CAA2C02E9A07A800924BAAD4
:10623000A2C8A2C2109A0099099F4BA88A4209D00D
:10624000B0212A4B2A4A2B484CE774212A4B2B4A6F
:106250002B4847E7119DBD42F2D1614664683F92E9
:10626000549457AAF16092CB92C292CB92C292CB35
:1062700092C292CB92C24D9564AB16C816C3310040
:106280001CA8FFF7BFFE109B589A934203D1119BA5
:10629000669A934204D0154B1A4A1B491B4821E7C2
:1062A0000F9B0BA8059305AB0B931CAB0C9304AB96
:1062B0000D930FAB0E93FFF715F902E7AF30010016
:1062C00084CD01003F32010056C001007ACE0100AA
:1062D0007F430100C941010076CF010065790100CB
:1062E00094D00100777E0100F0D20100CD50010072
:1062F000A5D60100C7DC0100BA320100EBD30100D2
:106300003336010045DD0100F20200005152010068
:106310000300F0B53833B7B01C0009930600002322
:1063200004933100049A24A8FCF742FF249B586888
:106330001A68011C9F68039207F0D0FB391C051CEA
:10634000381C07F0CBFB011C281C07F061F80399EF
:10635000051C081C07F0C2FB011C281C07F058F89C
:1063600006F0A4FC049BA06001C4012B00D09DE0BA
:10637000B46BF56B201C291C06F018FF002800D018
:106380002C1CD021201C890507F0A8FB011C07F05C
:10639000A5FBAE4907F0D8F9022373650023370047
:1063A000336500230B900C37039306930223039A63
:1063B0009B1A0893FB6A0593049B07930023079C91
:1063C0000A93089B9C4200DA32E1039A0A9B9446A6
:1063D00063441D0003239B1A0793736D022B12D194
:1063E000079807F073FE0B9907F078FB0599041CDA
:1063F000081C07F073FB011C201C06F0EBFE0028B4
:1064000001D0039B7365039BFD619D4231D018ACA5
:106410001A0031002000FCF7CBFE2A00310024A82E
:10642000FCF7C6FE249B00210E93189B12A8109324
:1064300010AB12930EAB13930DAB14931594FDF7A1
:106440001FFE012112A8FDF71BFE022112A8FDF775
:1064500017FE099BAD005B191968FA6A4035F962AD
:1064600075191A607B6B2A687A632B60069B01336F
:1064700006933100039A12A818ACFCF799FE079B0B
:10648000039A200012A9FCF7AFFE3B000C33189AC8
:106490000A93199B0432013B24922593002B0ADABC
:1064A000B0216B4B6B4A6C4809F068FD012337E75C
:1064B000049B03937AE7220027AB23CA23C323CA92
:1064C00023C323CA23C323CA23C3032301252000D4
:1064D000359324A910AB0A9A3395FDF703FE039B6D
:1064E000109C1B01F450AC40EC40306D211C06F0B8
:1064F0005DFE002800D03465039B31000133059315
:10650000039B039AED1A079B0195009318A8059B1E
:10651000FCF720FB3100039A12A8FCF749FE089B08
:10652000059A12A924A8FCF75FFE3B000A9A2833BB
:1065300024A918A8FFF7A6FD059B022B41D0F56BF7
:106540000021281C06F02CFE00283AD13B68291CAB
:106550005800400807F0F8F8FE218905041C06F0F1
:1065600057FF0390FE20211C800507F0D1FB011C82
:10657000039807F0B3FA0021041C06F017FE002868
:1065800000D00024716C281C07F0DEF8011C07F015
:10659000A5FA211C07F0A2FA304906F011FE0028E6
:1065A00035D00122310018A8FCF702FE0122089B19
:1065B00018A924A8FCF718FE24A8FCF7D7FC7064DF
:1065C000F063059B0437022B00D071E70020012106
:1065D000B36A306271628B4221D832009B00203254
:1065E000D3181C6834621860F36A8B4217D89B007A
:1065F000D3181868726A70621A60069B0B4213D136
:10660000049B483633610123337037B0F0BD201C42
:1066100006F04CFB011CF06B07F060FAD0E7B021EC
:106620000F4B104A10483FE701235B420493E7E712
:1066300002243D6B0599281C079406F0CBFD002829
:1066400000D1BEE6049B0595B9E6C0460000404077
:10665000C9410100D2DF01007F430100F304B539D5
:1066600008E101002DE10100D9E101000023F0B5AE
:106670009BB00E93CB684F6901930B6905000C002A
:1066800003920293002F04D0012239000BA8FFF7D8
:10669000A5FC0E9B00260093BB4205D01E4B1F4A53
:1066A0001F49204809F06AFC009B9E420BDA029BBE
:1066B000B700D859019907F011FA1C2204AB9B18B6
:1066C000D8510136F0E722000FAB203243CA43C352
:1066D00043CA43C312681A600BAB16930F9B6269DF
:1066E0001793012319936B68934203D1636AAA68D5
:1066F0009A4203D00C4B0D4A0D49D2E72B6807A8EC
:10670000059305AB07930BAB0893039B0A9509937D
:10671000FEF732FF1BB0F0BDD08A010057E2010046
:10672000FD02000051520100CD50010038E401008B
:10673000F2020000F0B5D1B00393836805001700A2
:106740001C0010680291012B0AD1011CFE2080055B
:1067500007F0DEFA011C2800FDF7C6FB51B0F0BDC2
:10676000002106F01DFD061EF8D16A68039B0A92FF
:106770000993002A05DAA621524B534A534809F0DF
:10678000FDFB2300013B290001930092012302003D
:106790001BA8FCF717FC1BA9342228A809F072FCDF
:1067A0001C9B029A9C4635AB13CA13C313CA13C36E
:1067B00012681A60029A1D9B5268934204D06021AD
:1067C000434B444A4448DAE70A9B9C4505D00621DE
:1067D000424B434A4348FF31D1E7634628A934225C
:1067E0003CA8299309F04EFC49AB35AA13CA13C340
:1067F00013CA13C312683CA91A6009A813AAFDF7AB
:10680000C5FE320029003CA8FCF772FD3CA909A88E
:10681000FCF72AFC320029003CA8FCF769FD396826
:1068200009AA28A8FCF7BAFD28A93CA8FCF742FC55
:106830000CAD396813A809AAFCF7B0FD2B00029C27
:1068400007CC07C307CC07C3226804AC1A60220038
:10685000149B169E0293299317AB03CB03C21B789C
:10686000210013702CA8092209F00CFC29001C221D
:1068700030A8189F09F006FC1C9B0D9D9F4202D179
:106880001D9B9D4204D0B021174B184A184876E74B
:10689000299B2CA9092220003D933F962D9709F0B2
:1068A000F1FB2100092240A809F0ECFB30A91C22D1
:1068B00044A8319509F0E6FB08AA3CA91BA8FFF7FC
:1068C000D5FE4BE756C00100C1E601007F43010041
:1068D00065790100BDE70100777E0100F98B0100B9
:1068E000FDA20100408D0100CD500100ADE9010085
:1068F000C7DC01000023F0B5C360CB6885B002930C
:106900004F690B6904000D000393002F03D001228F
:106910003900FFF763FBE368002601939F4205D02F
:10692000104B114A1149124809F028FB019B9E4265
:1069300008DA039BB700D859029907F0CFF801365F
:10694000E051F3E723003035103307CD07C3236947
:1069500020006362A3692462E3620123236305B01C
:10696000F0BDC046D08A0100D0EF0100FD0200005A
:1069700051520100F0B54568E1B006000C001F005F
:1069800010680492012D0AD1011CFE20800507F039
:10699000BFF9011C3000FDF7A7FA61B0F0BD00217E
:1069A00006F0FEFB03900028F7D1B3680A970C931A
:1069B000002B05DAA621694B694A6A4809F0DEFA1C
:1069C000013D31000095012201931EA8039BFCF7B5
:1069D000F9FA22002BAB23CA23C323CA23C31268AC
:1069E00038AD1A606368944605932C932B002BAA4C
:1069F00083CA83C383CA83C362461EA91A603FA8A1
:106A0000342209F03FFB1F9B0599209A8B4204D04A
:106A10006021554B554A5648D0E70C9F974205D008
:106A20000621544B544A5548FF31C7E71C22290020
:106A30004CA8399309F026FB34223FA953A841976B
:106A400009F020FB12AA4CA90AA8FDF73DFE039A03
:106A500031004CA8FCF7D0FC4CA90AA8FCF756FB67
:106A6000039A31004CA8FCF7C7FC049B1A680C9BE6
:106A7000002B04DA4721424B424A43489EE73A93AF
:106A80000AA9EA603CA80C2209F0FCFA29004CA8EB
:106A9000FCF762FB049B61681B6801222B604CA819
:106AA0002B00FCF75DFC22004C9B4E9E139316AB13
:106AB00083CA83C383CA83C312681A6063684C9A0B
:106AC0009A4215D1139B1C2216A93CA8399309F0B0
:106AD000D9FA0C220AA944A8179F09F0D3FA1F9BE0
:106AE0000C9CBB4209D0B021284B294A294865E7B4
:106AF0007421294B294A2A4860E7209A9442F2D10E
:106B00006A683CA94D9250A81C223D934F9609F00B
:106B1000B9FA0C2244A958A8469409F0B3FA4CA932
:106B20002BA8FFF7E7FE1F9B519A934203D1209BAE
:106B30005A9A934204D0154B1A4A1B491B483DE709
:106B40001E9B0EA8089308AB0E932BAB0F9307ABBD
:106B500010931EAB1193FEF759FD1EE756C00100BE
:106B6000ADF101007F43010065790100A9F2010048
:106B7000777E0100F98B0100D1AC0100408D01004E
:106B8000AF300100443101003F320100CD5001001F
:106B90005DF70100C7DC0100BA320100CBF401004F
:106BA000333601004EFD0100F20200005152010097
:106BB000436810B51C6809234B4302689B001268A8
:106BC0009C5010BDFE2310B504008AB09B050293B3
:106BD00003680990049304AB069302AB079306A8DD
:106BE00001AB00210893FFF7E3FF06A80121FFF79F
:106BF000DFFF06A80221FFF7DBFF06A80321FFF74E
:106C0000D7FF06A80421FFF7D3FF06A80521FFF749
:106C1000CFFF06A80621FFF7CBFF06A80721FFF745
:106C2000C7FF20000AB010BDF0B5F1B008AF79631E
:106C30007B616821B62379185B00CB1868211D6839
:106C40003F237918CB181B091B013865BB63F86516
:106C5000904200DDFA65B02368225B00BA18D318B1
:106C60001B68012B05D0AE21DA4BDB4ADB4809F06B
:106C700085F92B693A6D7B65AB68BB64934200DD97
:106C8000BA647B6DBA6C7B66934200DD7A667B6E7C
:106C9000072B01DD08237B667B6DBC6C7A6D5C4342
:106CA0007B6B53431E008023DB059C4201D3FBF723
:106CB00031FC00222B68BB65B96DA300914210D155
:106CC00080229202934200D9D7E01A006946163218
:106CD000D208D2008A1A95462F220F216A448A438D
:106CE000BA6568201821381841184C608024A40225
:106CF0009C429B4180205B420B72802338180260CB
:106D0000DB059E4201D3FBF705FC00226B68B00057
:106D1000FB64FB6C93420ED1A04200D9ADE00300AE
:106D20006A461633DB08DB00D31A9D462F220F2359
:106D30006A449A43FA64682124237918C91868338D
:106D4000FB181A6080239B0283429B415B420B72BB
:106D50004E60B86BFDF7FAFABB6B6822BB67102375
:106D6000BA18D018FFF72EFFA82268235200FB188C
:106D7000991809687B6E4B433B6139697B6E5B18E0
:106D80009B00FB606823FB189B181B6801339B006A
:106D9000BB606823FB189B181B689B007B60FB6D26
:106DA000002B00DC77E17A6D3B66934200DD3A66AA
:106DB0003A6EFB6D68219B1AAA22791852008A1834
:106DC00012683B649B00D318BB67AC235B00CB18F5
:106DD0001B686821FB6700236824102208200293A7
:106DE00001937B6B791800933C198A183B6EF96C00
:106DF0002018FDF7B3FAA8235B00E3183A6C1B6870
:106E000053433B6213003A6A9B187A699B00D3187C
:106E10003B63FB613B6E7B643B6A7B623B6CFB6369
:106E20003A6CFB6B9B1ABB61BA693B6E934200DC08
:106E3000D6E07C6E7A6C944200DD14007B6CF869BD
:106E40001B1BBB62BB6B1E003B6BFB620023A342A0
:106E50001BDA2422F96A5A43BD6B09680133515188
:106E60001A00A2420BD1F96ABA688A18FA627A68E3
:106E70008018320020321600E9E7FBF759FB910039
:106E80000D00415801327151EBE7BB6B0025BB6728
:106E90006821082310226C20FB6779180295019560
:106EA00000942300160038188A18B96DFDF7D2FA3D
:106EB000AE2068224000BA18FB6B121812689B00C3
:106EC000D318BB676822B223BA185B00D3181B68BB
:106ED000F438FB67BB69069507933A6E6823059201
:106EE000B422FB18520004949918096838180968EC
:106EF000F9620391796B01940291811968200094E1
:106F0000FB6CBA6D3818FEF7A5FABD6A002D4ADD94
:106F1000FD6B7B6A2D1979695B199B00CB18BB67E8
:106F20006822A823BA185B00D3181B686822FB6785
:106F300000236C2002930193B96ABA1800912300D0
:106F4000B96D92193818FDF785FAAE206823400014
:106F5000FB1818180068AD0045196823B220FB180B
:106F60004000181800230068BD67F867B8690693E9
:106F7000079068203B6EB422059368233818811966
:106F800068205200FB1804949B181B6838181B6873
:106F9000FB6203937B6B01940293BB6A0093FB6CCF
:106FA000BA6DFEF757FA7A6EFB6B94463A69634402
:106FB0009446FB63FA687B6A634494467B623B6B4E
:106FC0007A6E63443B63FB696344FB617B6C9B1A91
:106FD0007B6425E7BEFF0100C6FF010090000200B0
:106FE0003B6A7A699B00D318FC6DFB633B6DA3423F
:106FF0004CDDBB6C396DE3187B648B4200DD0B000C
:107000001B1B3B64FB6BA4001B19BB676822A823F6
:107010000025BA18682168265B00D3180C201022BE
:107020001B68BE19FB67029501953B6C79180093AC
:107030003B6E3A6030188A18B96DFDF70BFAAE2333
:107040005B00F3181B6830001C19B2235B00F318B7
:107050001B68BC67FB6701235B42059304936A339B
:10706000FF3307950695F3181B681B683B63039372
:107070007B6B02933B6E01933B6C00933968FB6C16
:10708000BA6D7118FEF7E6F97C6CAFE7FB6D7A6DAF
:107090009B1AFB6583E668222423BA18D018FDF7F3
:1070A0004BF968221823BA18D018FDF745F9BD46E8
:1070B00069B0F0BDF0B51B680E6897B00D93B3686A
:1070C00015000993D369099A0B93736807000A9313
:1070D000934200DD0A9200230F931093099B0FAC9B
:1070E00011930B9B0EAA12930A9B11A913930B9B4E
:1070F00013A80E930123FEF747FE2369A2680B999C
:107100005A436261E26809985343A3610DAB069349
:107110007B6807940593012304933B6801950393CF
:10712000AB690A9A0293B36800933368FFF77CFD5A
:107130000F98FBF7F5F96068FBF7F2F917B0F0BDAF
:10714000002370B50C0086B00293009301930B6886
:10715000050099686368DA690B00134302D068463A
:10716000FDF7EAFA0021019A029B666803920493F4
:107170000591002A01DB002B05DA4721124B134A47
:10718000134808F0FBFE03A96846FDF711FB0199BF
:10719000029B009A4B430599002B02DD02C2013B82
:1071A000FAE7FE239B05320021006846039303ABF8
:1071B000FFF780FF6946280003AAFCF733FF009819
:1071C000FBF7AEF906B070BDAF3001000A01020056
:1071D0003F320100F0B5EFB008AF39637B61602149
:1071E000B62379185B00CB1860211D683F237918FE
:1071F000CB181B091B01B864FB627865904200DD67
:107200007A65B02360225B00BA18D3181B68012B83
:1072100005D0AE21CE4BCF4ACF4808F0AFFE2B6948
:10722000BA6CFB64AB683B64934200DD3A64FB6C70
:107230003A6CFB65934200DDFA65FB6D072B01DDBF
:107240000823FB65FB6C3C6CFA6C5C433B6B534363
:107250001E008023DB059C4201D3FBF75BF9002273
:107260002B683B65396DA300914210D180229202B8
:10727000934200D9BEE01A0069461632D208D20005
:107280008A1A95462F220F216A448A433A65602064
:107290001821381841184C608024A4029C429B415C
:1072A0005B420B728023BA67DB059E4201D3FBF77A
:1072B00031F900226B68B0007B647B6C93420ED185
:1072C000A04200D996E003006A461633DB08DB00D3
:1072D000D31A9D462F220F236A449A437A64602171
:1072E00024237918C9186033FB181A6080239B0285
:1072F00083429B415B420B724E60F86AFDF726F8B1
:10730000FB6A60223B671023BA18D018FFF75AFCBB
:10731000A82260235200FB1899180968FB6D4B43A3
:107320003B613969FB6D5B189B00BB606023FB18F8
:107330009B181B689B00FB607B6D002B00DC71E1E0
:10734000FA6CBB65934200DDBA65BA6D7B6D602156
:107350009B1AAA22791852008A181268BB639B00F4
:10736000D3183B67AC235B00CB181B6860217B679D
:107370000023602410220820029301933B6B7918AC
:1073800000933C198A18BB6D796C2018FCF7E6FF56
:10739000A8235B00E318BA6B1B685343FB6113001F
:1073A000FA699B187A699B00D3187B62BB6DFB63FB
:1073B000FB693B62BB6B7B63BA6B7B6B9B1ABB61EC
:1073C000BA69BB6D934200DCC8E0FC6DFA6B944275
:1073D00000DD14000022FB6BF96A1B1B786ABB629C
:1073E000A2420EDA01321300A34205D1FB6820311C
:1073F000C018F5E7FBF79CF89D00465901334E5144
:10740000F2E7FB6A00253B67602108231022642015
:107410007B6779180295019500948A182300396DCD
:107420003818FDF717F8AE2060224000BA187B6BC1
:10743000161836689B00F3183B676022B223BA180F
:107440005B00D618B42210213668053B7E67BE6902
:1074500006950796BE6DFF3B5200FB1805960494F7
:107460009E183668FC38366838187E6003963E6B86
:107470000194029646186020009431007B6C3A6DAE
:107480003818FDF7E7FFBE6AAE424CDD7E6B602226
:1074900035193E6A102173197E699B00F3183B670A
:1074A000A82660237600FB189E1900236420366806
:1074B000BA187E6702930193BE6A2300009656189D
:1074C00032003E183000396DFCF7C4FFAE20602357
:1074D0004000FB181E1860230830FB181818002302
:1074E000006836687867AD00B86975193D67079020
:1074F000602010210693BB6DB422059360233818D9
:10750000411860205200FB1804949B181B6838181F
:107510001B6803933B6B01940293BB6A00937B6CE3
:107520003A6DFDF797FFFA6D7B6B94463A696344B9
:1075300094467B63BA683B6A634494463B627B6AC9
:10754000FA6D63447B62FB6B9B1AFB6334E7C046B6
:10755000BEFF0100C6FF010090000200FB697A69CE
:107560009B00D3187C6DBB63BB6C9C4255DA3B6CB3
:10757000B96CE3181E008B4200DD0B001B1BFB6384
:10758000A3003B603A68BB6B0025D3183B676022C1
:10759000A823BA18602160245B00D3180C201022A5
:1075A0001B683C197B6702950195FB6B791800936A
:1075B0008A182018BB6D396DFCF74CFFAE235B00B9
:1075C000E3181B683A6860209C18B22360221021DF
:1075D000BA185B00D3181B6860227B670123381838
:1075E000411860205B423C67059304936A33BA18E4
:1075F000FF3307950695D3181B6838181B683400AD
:107600007B6303933B6B0293BB6D0193FB6B009316
:107610007B6C3A6DFDF71EFFA6E77B6DFA6C9B1A3B
:107620007B6589E660222423BA18D018FCF784FE13
:1076300060221823BA18D018FCF77EFEBD4667B04A
:10764000F0BDC046436810B51C6809234B4302686F
:107650009B0012689C5010BDFE2310B504008AB038
:107660009B05029303680990049304AB069302AB55
:10767000079306A801AB00210893FFF7E3FF06A8D4
:107680000121FFF7DFFF06A80221FFF7DBFF06A8B5
:107690000321FFF7D7FF06A80421FFF7D3FF06A8B1
:1076A0000521FFF7CFFF06A80621FFF7CBFF06A8AD
:1076B0000721FFF7C7FF20000AB010BDF0B5EFB0FB
:1076C00008AFBA62BB616022B623BA185B00D31858
:1076D00060221D683F23BA18D3181B09BA6A1B0120
:1076E000B963FB63B865904200DDBA65B0236022E0
:1076F0005B00BA18D3181B68012B05D0AE21CE4B06
:10770000CE4ACF4808F03AFC2B69BA6DFB64AB68EF
:107710007B64934200DD7A64FB6C7A6C7B659342F8
:1077200000DD7A657B6D072B01DD08237B65FB6C33
:107730007C6CBE6B5C435E438023DB059C4201D3C3
:10774000FAF7E8FE00222B68BB64B96CA3009142F3
:1077500010D180229202934200D9C9E01A006946F2
:107760001632D208D2008A1A95462F220F216A4477
:107770008A43BA6460201821381841184C6080246C
:10778000A4029C429B415B420B728023BA67DB05DB
:107790009E4201D3FAF7BEFE00226B68B0003B6444
:1077A00093420ED1A04200D9A2E003006A461633EC
:1077B000DB08DB00D31A9D462F220F236A449A432D
:1077C0003A64602124237918C9186033FB181A60C1
:1077D00080239B0283429B415B424E600B72F86B9D
:1077E000FDF797FBFB6B60223B671023BA18D0189C
:1077F000FFF732FFA82260230026FB1852009918D9
:1078000009687B6D4B439B00BB608B007B617B6C8D
:107810004B439B003B61BB6A9E4200DB74E1FA6C08
:107820009B1BFB65934200DDFA65BB6D7E629E4249
:107830000ADAFB6DBA6DF318934205DD931BFB6505
:107840001300FA6C9B1A7B62B3003B626022AA238E
:10785000BA185B00D3181B68B2009B183B67602204
:10786000AC230024BA18602160255B00D3180820DF
:1078700010221B687E637B6702940194BB6B7918AE
:1078800000937D19FB6D8A182818396CFCF766FD8A
:10789000BB6D9E4200DBD5E0FB6DBA693B63A8235C
:1078A0005B00EB181B683C6573439B009B18FB62F5
:1078B000FB60FB6D3A6D934200DCC3E03C6B7A6D7C
:1078C000944200DD14000021786BFD6BA14215DAB3
:1078D000FB6A8200D318FA6B9C468B00D318AB422C
:1078E00008D0624612681A607A6920339444F6E739
:1078F000FAF71EFE013124350130E7E7FB6B002566
:107900003B6760210823102264207B677918029569
:10791000019500948A182300B96C3818FDF702FB12
:107920007B6B60229B00FB61AE23BA185B00D01812
:107930000068FA6983183B67B22060234000FB1897
:107940001A18126860237A673A6D06950792FA6DE5
:10795000FB180592B422520004949918096805385E
:107960000968FF3879600391B96B381802911021CA
:1079700041186020019400943B6CBA6C3818FDF7F4
:1079800069FD3B6DAB4246DDF968FB698C4663449B
:107990003B676022A823BA185B00D318602210212D
:1079A00064201B68BA187B67029501953B6D5218DD
:1079B0000093B96C23003818FDF7B4FAAE236022A7
:1079C0005B00BA18D318386A1B6810211B18B22044
:1079D00040003B6713181B68B4227B673B6D06951C
:1079E0000793FB6D053805936023FF38381841185D
:1079F00060205200FB1804949B181B6838181B6801
:107A0000FB610393BB6B019402933B6D00933B6C52
:107A1000BA6CFDF71FFD7A6D3B6D944663443B6580
:107A20007B6B63447B633B6B9B1ABA683B639446F6
:107A3000FB6A6344FB623CE7BEFF0100C6FF010036
:107A400090000200BB6D35009E4200DD1D00BA694A
:107A5000002494463B6A63443B65AC424EDA7B6C3F
:107A6000E3187B63AB4200DD2B001B1B3B633B6DCC
:107A700060223B67A823BA185B00D3181B686021FB
:107A80007B670023602610220C20029301933B6B3E
:107A9000BE19009379188A18FB6DB96C3018FDF780
:107AA00041FAAE235B00F3181B68A4001C19B22333
:107AB0005B00F3181B6810217B6700233C6707936A
:107AC0000693013B059304936A33FF33F3181B6855
:107AD00030001B687118FB620393BB6B0293FB6D54
